:020000040800F2
:1000000000500020396B0008496900084F6900085A
:10001000556900085B69000861690008000000007C
:1000200000000000000000000000000067690008F8
:1000300073690008000000007F6900088B690008F0
:10004000816B0008816B0008816B0008816B0008E0
:10005000816B0008816B0008816B0008816B0008D0
:10006000816B0008816B0008816B0008816B0008C0
:10007000816B0008816B0008816B0008816B0008B0
:10008000816B0008816B0008816B0008816B0008A0
:10009000816B0008816B0008816B0008816B000890
:1000A000816B0008816B0008816B0008816B000880
:1000B000816B0008816B0008816B0008816B000870
:1000C000816B0008816B0008816B0008816B000860
:1000D000816B000899690008816B0008816B00083A
:1000E000816B0008816B0008816B00080000000034
:1000F0000000000000000000000000000000000000
:0C01000000000000000000005FF808F1A3
:1001100010B5054C237833B9044B13B10448AFF341
:1001200000800123237010BD600400200000000047
:10013000C0D0000808B5034B1BB103490348AFF317
:10014000008008BD0000000064040020C0D000084A
:10015000034613F8012B002AFBD1181A0138704707
:1001600081F0004102E000BF83F0004330B54FEA68
:1001700041044FEA430594EA050F08BF90EA020FD5
:100180001FBF54EA000C55EA020C7FEA645C7FEA68
:10019000655C00F0E2804FEA5454D4EB5555B8BF8B
:1001A0006D420CDD2C4480EA020281EA030382EAFC
:1001B000000083EA010180EA020281EA0303362D8E
:1001C00088BF30BD11F0004F4FEA01314FF4801C61
:1001D0004CEA113102D0404261EB410113F0004F73
:1001E0004FEA03334CEA133302D0524263EB43032A
:1001F00094EA050F00F0A780A4F10104D5F1200EC8
:100200000DDB02FA0EFC22FA05F2801841F1000122
:1002100003FA0EF2801843FA05F359410EE0A5F1F6
:1002200020050EF1200E012A03FA0EFC28BF4CF027
:10023000020C43FA05F3C01851EBE37101F00045DD
:1002400007D54FF0000EDCF1000C7EEB00006EEBEA
:100250000101B1F5801F1BD3B1F5001F0CD3490874
:100260005FEA30004FEA3C0C04F101044FEA4452CB
:1002700012F5800F80F09A80BCF1004F08BF5FEA52
:10028000500C50F1000041EB045141EA050130BD32
:100290005FEA4C0C404141EB0101013C28BFB1F544
:1002A000801FE9D291F0000F04BF01460020B1FA8F
:1002B00081F308BF2033A3F10B03B3F120020CDA62
:1002C0000C3208DD02F1140CC2F10C0201FA0CF040
:1002D00021FA02F10CE002F11402D8BFC2F1200CA5
:1002E00001FA02F120FA0CFCDCBF41EA0C0190405B
:1002F000E41AA2BF01EB0451294330BD6FEA0404A4
:100300001F3C1CDA0C340EDC04F11404C4F120028E
:1003100020FA04F001FA02F340EA030021FA04F3A0
:1003200045EA030130BDC4F10C04C4F1200220FAF7
:1003300002F001FA04F340EA0300294630BD21FA35
:1003400004F0294630BD94F0000F83F4801306BFFB
:1003500081F480110134013D4EE77FEA645C18BFEF
:100360007FEA655C29D094EA050F08BF90EA020F86
:1003700005D054EA000C04BF1946104630BD91EA7E
:10038000030F1EBF0021002030BD5FEA545C05D181
:100390004000494128BF41F0004130BD14F58004C0
:1003A0003CBF01F5801130BD01F0004545F0FE4134
:1003B00041F470014FF0000030BD7FEA645C1ABF69
:1003C000194610467FEA655C1CBF0B46024650EAA0
:1003D000013406BF52EA033591EA030F41F40021CC
:1003E00030BD00BF90F0000F04BF0021704730B552
:1003F0004FF4806404F132044FF000054FF0000127
:1004000050E700BF90F0000F04BF0021704730B5E7
:100410004FF4806404F1320410F0004548BF4042BC
:100420004FF000013EE700BF42004FEAE2014FEA11
:1004300031014FEA02701FBF12F07F4393F07F4FEC
:1004400081F06051704732F07F4208BF704793F0EF
:100450007F4F04BF41F40021704730B54FF4607402
:1004600001F0004521F000411CE700BF50EA010205
:1004700008BF704730B54FF000050AE050EA0102AE
:1004800008BF704730B511F0004502D5404261EB1E
:1004900041014FF4806404F132045FEA915C3FF45F
:1004A000D8AE4FF003025FEADC0C18BF03325FEAFC
:1004B000DC0C18BF033202EBDC02C2F1200300FAAD
:1004C00003FC20FA02F001FA03FE40EA0E0021FAD2
:1004D00002F11444BDE600BF70B54FF0FF0C4CF4C0
:1004E000E06C1CEA11541DBF1CEA135594EA0C0F72
:1004F00095EA0C0F00F0DEF82C4481EA030621EAAD
:100500004C5123EA4C5350EA013518BF52EA0335E7
:1005100041F4801143F4801338D0A0FB02CE4FF099
:100520000005E1FB02E506F00042E0FB03E54FF0C9
:100530000006E1FB03569CF0000F18BF4EF0010EC1
:10054000A4F1FF04B6F5007F64F5407404D25FEABD
:100550004E0E6D4146EB060642EAC62141EA555170
:100560004FEAC52040EA5E504FEACE2EB4F1FD0CB2
:1005700088BFBCF5E06F1ED8BEF1004F08BF5FEA30
:10058000500E50F1000041EB045170BD06F00046E2
:1005900046EA010140EA020081EA0301B4EB5C048F
:1005A000C2BFD4EB0C0541EA045170BD41F4801187
:1005B0004FF0000E013C00F3AB8014F1360FDEBFAC
:1005C000002001F0004170BDC4F10004203C35DA88
:1005D0000C341BDC04F11404C4F1200500FA05F30B
:1005E00020FA04F001FA05F240EA020001F00042AC
:1005F00021F0004110EBD37021FA04F642EB060122
:100600005EEA430E08BF20EAD37070BDC4F10C044B
:10061000C4F1200500FA04F320FA05F001FA04F20F
:1006200040EA020001F0004110EBD37041F10001FB
:100630005EEA430E08BF20EAD37070BDC4F1200506
:1006400000FA05F24EEA020E20FA04F301FA05F26E
:1006500043EA020321FA04F001F0004121FA04F216
:1006600020EA020000EBD3705EEA430E08BF20EAE6
:10067000D37070BD94F0000F0FD101F00046400020
:1006800041EB010111F4801F08BF013CF7D041EAA2
:10069000060195F0000F18BF704703F000465200A6
:1006A00043EB030313F4801F08BF013DF7D043EA77
:1006B0000603704794EA0C0F0CEA135518BF95EA2D
:1006C0000C0F0CD050EA410618BF52EA4306D1D1B4
:1006D00081EA030101F000414FF0000070BD50EAD3
:1006E000410606BF1046194652EA430619D094EA5D
:1006F0000C0F02D150EA013613D195EA0C0F05D147
:1007000052EA03361CBF104619460AD181EA03019A
:1007100001F0004141F0FE4141F470014FF0000052
:1007200070BD41F0FE4141F4780170BD70B54FF0ED
:10073000FF0C4CF4E06C1CEA11541DBF1CEA13556D
:1007400094EA0C0F95EA0C0F00F0A7F8A4EB05044F
:1007500081EA030E52EA03354FEA013100F0888046
:100760004FEA03334FF0805545EA131343EA12630F
:100770004FEA022245EA111545EA10654FEA0026C4
:100780000EF000419D4208BF964244F1FD0404F57D
:10079000407402D25B084FEA3202B61A65EB0305D9
:1007A0005B084FEA32024FF480104FF4002CB6EB96
:1007B000020E75EB030E22BFB61A754640EA0C0016
:1007C0005B084FEA3202B6EB020E75EB030E22BF56
:1007D000B61A754640EA5C005B084FEA3202B6EB97
:1007E000020E75EB030E22BFB61A754640EA9C0056
:1007F0005B084FEA3202B6EB020E75EB030E22BF26
:10080000B61A754640EADC0055EA060E18D04FEAE3
:10081000051545EA16754FEA06164FEAC30343EA83
:1008200052734FEAC2025FEA1C1CC0D111F4801F50
:100830000BD141EA00014FF000004FF0004CB6E749
:1008400011F4801F04BF01430020B4F1FD0C88BFE8
:10085000BCF5E06F3FF6AFAEB5EB030C04BFB6EBF3
:10086000020C5FEA500C50F1000041EB045170BDE6
:100870000EF0004E4EEA113114EB5C04C2BFD4EB13
:100880000C0541EA045170BD41F480114FF0000E97
:10089000013C90E645EA060E8DE60CEA135594EA13
:1008A0000C0F08BF95EA0C0F3FF43BAF94EA0C0F16
:1008B0000AD150EA01347FF434AF95EA0C0F7FF48B
:1008C00025AF104619462CE795EA0C0F06D152EADF
:1008D00003353FF4FDAE1046194622E750EA4106C3
:1008E00018BF52EA43067FF4C5AE50EA41047FF4D4
:1008F0000DAF52EA43057FF4EBAE12E74FF0FF3C39
:1009000006E000BF4FF0010C02E000BF4FF0010C09
:100910004DF804CD4FEA410C7FEA6C5C4FEA430C82
:1009200018BF7FEA6C5C1BD001B050EA410C0CBFD1
:1009300052EA430C91EA030F02BF90EA020F002033
:10094000704710F1000F91EA030F58BF994208BF9A
:1009500090422CBFD8176FEAE37040F00100704757
:100960004FEA410C7FEA6C5C02D150EA013C07D1AE
:100970004FEA430C7FEA6C5CD6D152EA033CD3D0F9
:100980005DF8040B704700BF8446104662468C46F3
:100990001946634600E000BF01B5FFF7B7FF002826
:1009A00048BF10F1000F01BD4DF808EDFFF7F4FF4F
:1009B0000CBF012000205DF808FB00BF4DF808EDDA
:1009C000FFF7EAFF34BF012000205DF808FB00BFFD
:1009D0004DF808EDFFF7E0FF94BF012000205DF81F
:1009E00008FB00BF4DF808EDFFF7CEFF94BF0120D4
:1009F00000205DF808FB00BF4DF808EDFFF7C4FFCD
:100A000034BF012000205DF808FB00BF4FEA410C15
:100A10007FEA6C5C02D150EA013C0AD14FEA430CF8
:100A20007FEA6C5C02D152EA033C02D14FF0000035
:100A300070474FF0010070474FEA410212F5001273
:100A400015D211D56FF47873B3EB625212D94FEA15
:100A5000C12343F0004343EA505311F0004F23FAFF
:100A600002F018BF404270474FF00000704750EA54
:100A7000013005D111F0004008BF6FF00040704711
:100A80004FF00000704700BF4A0011D212F500126B
:100A900011D20DD56FF47873B3EB62520ED44FEAD6
:100AA000C12343F0004343EA505323FA02F0704756
:100AB0004FF00000704750EA013002D14FF0FF3094
:100AC00070474FF0000070474FEA4102B2F1E04337
:100AD00024BFB3F5001CDCF1FE5C0DD901F0004C25
:100AE0004FEAC0024CEA5070B2F1004F40EB830075
:100AF00008BF20F00100704711F0804F21D113F1A1
:100B00003872BCBF01F00040704741F480114FEAD9
:100B10005252C2F11802C2F1200C10FA0CF320FA62
:100B200002F018BF40F001004FEAC1234FEAD3237F
:100B300003FA0CFC40EA0C0023FA02F34FEA4303E9
:100B4000CCE77FEA625307D150EA01331EBF4FF072
:100B5000FE4040F44000704701F0004040F0FE408D
:100B600040F40000704700BF38B505460C4600222F
:100B7000002328462146FFF721FF28B928462146B1
:100B8000BDE8384000F00AB8284604F1004100F002
:100B900005F8404261EB410138BD00BFD0B50022ED
:100BA0000B4B06460F46FFF797FCFFF76DFF044619
:100BB000FFF718FC0022074BFFF78EFC02460B469E
:100BC00030463946FFF7D0FAFFF75EFF2146D0BD29
:100BD0000000F03D0000F04180B5B0B000AF78609B
:100BE0003960C34B02221A6000F040FB00F0DEF9CE
:100BF0003B68022B19D03B68022B1EDC3B68002BA4
:100C000003D03B68012B08D017E000F0CFF9B94AB8
:100C10000021002000F0D8FA1FE000F0C7F9B64A22
:100C20000021002000F0D0FA17E000F0BFF9B34A2D
:100C30000021002000F0C8FA0FE000F0B7F9B04B37
:100C4000C7F8B030D7F8B0200021002000F0BCFA7F
:100C50004FF47A7005F0F8FF00BF4FF47A7005F09A
:100C6000F3FF0023C7F8BC300023C7F8B8300023D7
:100C7000C7F8B43000F09AF93B68022B00F0D88036
:100C80003B68022B00F317813B68002B03D03B68C5
:100C9000012B71D00FE100F0E9FA00F087F9994AD1
:100CA0000021002000F090FA07F12C03184600F014
:100CB000A3FE7868FFF74CFA024607F12C03796827
:100CC000184605F03BFC07F10C0207F12C03114616
:100CD000184605F09BFC4FF47A7005F0B5FF00F064
:100CE000C5FA894A0021002000F06EFA4FF4FA702C
:100CF00005F0AAFF00F0BAFA2AE007F10C02D7F8D3
:100D0000B43013441B781A468049D7F8A80008F07D
:100D10001FFDD7F8B830102B05D10023C7F8B83025
:100D20000123C7F8BC30D7F8BC305BB2D7F8B82085
:100D300051B2D7F8A820184600F046FAD7F8B430D8
:100D40000133C7F8B430D7F8B8300233C7F8B83039
:100D5000D7F8B4300F2BD0DD4FF47A7005F074FF64
:100D600000F084FA6A4A0021002000F02DFA4FF4C6
:100D70007A7005F069FFAEE000F078FA00F016F93D
:100D8000644A0021002000F01FFA07F1940319467D
:100D9000786800F00BFE4FF47A7005F055FF00F014
:100DA00065FA5D4A0021002000F00EFA4FF4FA7057
:100DB00005F04AFF00F05AFA2AE007F19402D7F84A
:100DC000B43013441B781A465049D7F8A80008F0ED
:100DD000BFFCD7F8B830082B05D10023C7F8B830CE
:100DE0000123C7F8BC30D7F8BC305BB2D7F8B820C5
:100DF00051B2D7F8A820184600F0E6F9D7F8B43079
:100E00000133C7F8B430D7F8B8300233C7F8B83078
:100E1000D7F8B4300F2BD0DD4FF47A7005F014FF03
:100E200000F024FA3D4A0021002000F0CDF952E004
:100E300000F01CFA00F0BAF8394A0021002000F056
:100E4000C3F97868FFF784F903469BB219467868BE
:100E500000F070F80346C7F8AC304FF47A7005F034
:100E6000F3FE00F003FA2F4A0021002000F0ACF955
:100E70004FF4FA7005F0E8FED7F8AC202A49D7F80D
:100E8000A80008F065FC4FF47A7005F0DDFE00F074
:100E9000EDF9D7F8A8200021002000F095F94FF4D3
:100EA0007A7005F0D1FE00F0E1F9204A002100201F
:100EB00000F08AF90FE000F079F81D4BC7F8A43074
:100EC000D7F8A4200021002000F07EF94FF47A70BA
:100ED00005F0BAFE00BF4FF47A7005F0B5FE044B82
:100EE00000221A6000F0C2F900BFC037BD4680BDC5
:100EF000C4040020D8D00008ECD00008FCD00008C2
:100F00000CD1000828D1000838D100084CD10008C5
:100F100054D1000864D1000874D1000884D10008BD
:100F200094D10008A4D10008B8D10008BCD10008B1
:100F3000CCD1000880B485B000AF78600B467B80D0
:100F40004FF6FF73FB8125E07B685A1C7A601B78A3
:100F50001B021AB2B7F90E3053401BB2FB810023BB
:100F60007B7314E0B7F90E30002B09DAFB895B00C4
:100F70001BB283F4815383F001031BB29BB202E0E6
:100F8000FB895B009BB2FB817B7B01337B737B7BAB
:100F9000072BE7D97B885A1E7A80002BD4D1FB8996
:100FA00018461437BD4680BC7047000080B500AFBE
:100FB0001E2005F049FE00224FF400511C4806F0A7
:100FC000C2F901224FF48051194806F0BCF9002201
:100FD0004FF40061164806F0B6F900224FF4806124
:100FE000134806F0B0F900224FF40041104806F013
:100FF000AAF901224FF480410D4806F0A4F900221D
:101000004FF480410A4806F09EF92821002000F0A4
:1010100011F80C21002000F00DF80621002000F04E
:1010200009F80121002000F005F800BF80BD00BFD5
:10103000000C014080B582B000AF03460A46FB7148
:101040001346BB71022005F0FFFD97F90730002B16
:1010500006D001224FF400415A4806F074F905E029
:1010600000224FF40041574806F06DF997F9063019
:10107000002B06DA01224FF48061524806F063F932
:1010800005E000224FF480614E4806F05CF9BB7920
:1010900003F04003002B06D001224FF400614948C1
:1010A00006F051F905E000224FF40061454806F0D2
:1010B0004AF9BB7903F02003002B06D001224FF43C
:1010C0008051404806F03FF905E000224FF480517E
:1010D0003C4806F038F9BB7903F01003002B06D02A
:1010E00001224FF40051374806F02DF905E00022A7
:1010F0004FF40051334806F026F901224FF48041A5
:10110000304806F020F900224FF480412D4806F0C7
:101110001AF9BB7903F00803002B06D001224FF423
:101120008061284806F00FF905E000224FF4806145
:10113000244806F008F9BB7903F00403002B06D01D
:1011400001224FF400611F4806F0FDF805E000227F
:101150004FF400611B4806F0F6F8BB7903F0020378
:10116000002B06D001224FF48051164806F0EBF810
:1011700005E000224FF48051124806F0E4F8BB79F4
:1011800003F00103002B06D001224FF400510D485B
:1011900006F0D9F805E000224FF40051094806F0A6
:1011A000D2F801224FF48041064806F0CCF8002224
:1011B0004FF48041034806F0C6F800BF0837BD462B
:1011C00080BD00BF000C014080B582B000AF034677
:1011D0003A60FB710B46BB7197F90730032B3AD885
:1011E00001A252F823F000BFF91100080B12000809
:1011F0001D1200082F120008BB79803BDBB25BB2E6
:1012000019460020FFF716FF1AE0BB79403BDBB21E
:101210005BB219460020FFF70DFF11E0BB79703B70
:10122000DBB25BB219460020FFF704FF08E0BB7990
:10123000303BDBB25BB219460020FFF7FBFE00BF7C
:1012400009E03B6893F9003019460120FFF7F2FEF0
:101250003B6801333B603B6893F90030002BF0D1D1
:1012600000BF00BF0837BD4680BD00BF80B500AFDE
:1012700001210020FFF7DEFE00BF80BD80B483B0F7
:1012800000AF78607B68022B0DD07B68022B0CDCF2
:101290007B68002B03D07B68012B02D005E0064B56
:1012A00004E0064B02E0064B00E0064B18460C3704
:1012B000BD4680BC704700BFF0D10008F8D10008DF
:1012C000FCD1000804D2000880B584B000AF05F05E
:1012D00059FC00F0ADF800F011F900F0E5F800233A
:1012E000FB600123BB60FFF761FE4C4B1B68002BCA
:1012F0002DD1BB68012B06D1494A00210020FFF700
:1013000063FF0023BB6097F90330194641F288332D
:101310000A22444806F090FC97F903301846FEF77D
:1013200017FF0346022BE0D0FFF7A0FF97F9033029
:101330001A4600210020FFF747FF4FF47A7005F0AE
:1013400083FCFFF793FF354B01221A60CDE7334B47
:101350001B68012B52D10821334805F0DDFF0346FD
:10136000012B0BD1FB68012B03DCFB680133FB6015
:1013700001E00023FB60FFF779FF2EE004212A48FB
:1013800005F0CAFF0346012B0BD1FB68002B03DDE0
:10139000FB68013BFB6001E00223FB60FFF766FF97
:1013A0001BE00221204805F0B7FF0346012B14D1B2
:1013B000FFF75CFFF868FFF761FF78607A6800214B
:1013C0000020FFF701FFFFF751FF97F90330F9689D
:1013D0001846FFF701FC0123BB60104B1B68002B74
:1013E00083D0F868FFF74AFF78607A680021002010
:1013F000FFF7EAFEC82005F027FC76E7074B1B68DD
:10140000022B3FF472AFFFF731FFFFF7CFFD074A22
:1014100000210020FFF7D8FE67E700BFC4040020CA
:1014200018D200087C0400200008014024D20008E3
:1014300080B590B000AF07F11803282200211846AC
:1014400007F020FA3B1D00221A605A609A60DA60A9
:101450001A610223BB610123BB621023FB620023DC
:101460007B6307F11803184605F086FF0346002B3F
:1014700001D000F083F80F237B600023BB600023C2
:10148000FB6000233B6100237B613B1D002118466C
:1014900006F0F4F90346002B01D000F06FF800BF0E
:1014A0004037BD4680BD000080B500AF114B124AE9
:1014B0001A60104B4FF4E1325A600E4B00229A60D2
:1014C0000C4B0022DA600B4B00221A61094B0C22F4
:1014D0005A61084B00229A61064B0022DA610548E6
:1014E00006F05AFB0346002B01D000F047F800BF7E
:1014F00080BD00BF7C0400200038014080B586B06C
:1015000000AF07F1080300221A605A609A60DA609F
:10151000184B9B69174A43F008039361154B9B696D
:1015200003F008037B607B68124B9B69114A43F010
:10153000040393610F4B9B6903F004033B603B681A
:1015400000224FF47C410C4805F0FDFE4FF47C4333
:10155000BB600123FB6000233B6102237B6107F139
:1015600008031946044805F053FD00BF1837BD466F
:1015700080BD00BF00100240000C014080B400AFED
:1015800072B600BFFEE780B483B000AF7860396008
:101590007A683B68C3F1200362FA03F318460C37FC
:1015A000BD4680BC7047000080B483B000AF786057
:1015B00079684FF000024FF00003C1E900237B6817
:1015C000074A9A607B68074ADA607B68064A1A61B4
:1015D0007B68064A5A6100BF0C37BD4680BC704725
:1015E0000123456789ABCDEFFEDCBA987654321003
:1015F0002DE9B04398B000AFF860B9607A60FB683D
:10160000D3E90023134603F03F03FB65FB68D3E9EE
:101610000023796800200C46054612EB040843EBD2
:101620000509FB68C3E900890023BB6548E0BA6887
:10163000BB6D1A44FB6D591CF9651178FA681344A7
:101640000A461A76FB6D03F03F03002B35D10023C9
:101650007B6525E07B6D9B000333FA6813441B7E9A
:101660001A067B6D9B000233F9680B441B7E1B043A
:101670001A437B6D9B000133F9680B441B7E1B02F0
:1016800013437A6D9200F9680A44127E1A437B6D07
:101690009B0060333B4443F84C2C7B6D01337B65EE
:1016A0007B6D0F2BD6D9FB68083307F11402114666
:1016B000184600F0D1F80023FB65BB6D0133BB6514
:1016C000BA6D7B689A42B2D300BF00BF6037BD4697
:1016D000BDE8B0832DE9B04396B000AF78607B6879
:1016E000D3E90023134603F03F03FB64FB6C372B65
:1016F00003D8FB6CC3F1380302E0FB6CC3F1780341
:10170000BB64BA6C53497868FFF772FF7B68D3E912
:101710000023B96C00200C460546B2EB040863EBCD
:1017200005097B68C3E9008900237B6525E07B6DA3
:101730009B0003337A6813441B7E1A067B6D9B0063
:10174000023379680B441B7E1B041A437B6D9B009C
:10175000013379680B441B7E1B0213437A6D9200A0
:1017600079680A44127E1A437B6D9B0058333B44D0
:1017700043F8502C7B6D01337B657B6D0D2BD6D9E7
:101780007B68D3E900231346DB003B647B68D3E925
:1017900000014FF000024FF00003CB0043EA50730A
:1017A000C2004FF000004FF0000118000021034676
:1017B0007B647B68083307F108021146184600F085
:1017C0004BF800233B653CE07B683A6D023253F8EE
:1017D00022203B6D9B00D1B27A6813440A4683F8FD
:1017E00058207B683A6D023253F822301A0A3B6D5A
:1017F0009B000133D1B27A6813440A4683F858201B
:101800007B683A6D023253F822301A0C3B6D9B0014
:101810000233D1B27A6813440A4683F858207B68B1
:101820003A6D023253F822301A0E3B6D9B0003339F
:10183000D1B27A6813440A4683F858203B6D0133CD
:101840003B653B6D032BBFD900BF00BF5837BD467A
:10185000BDE8B0830002002080B58AB000AF786098
:1018600039607B681B687B627B685B683B627B6876
:101870009B68FB617B68DB68BB610023FB606BE0FE
:10188000FB681B09022B24D0022B31D8002B02D07D
:10189000012B0CD02CE03A6AFB691A403B6AD94311
:1018A000BB690B4013437B61FB683B612FE03A6AE5
:1018B000BB691A40BB69D943FB690B4013437B6189
:1018C000FA6813469B001344013303F00F033B6196
:1018D0001DE03A6AFB695340BA6953407B61FA687C
:1018E00013465B001344053303F00F033B610EE026
:1018F000BB69DA433B6A1343FA6953407B61FA6878
:101900001346DB009B1A03F00F033B6100BFBB696A
:10191000BB60FB69BB613B6AFB617A6A7B691A4405
:101920002049FB6851F823301A443B699B00396811
:101930000B441B681A441C49FB6851F823301946B4
:101940001046FFF720FE02463B6A13443B62BB6829
:101950007B62FB680133FB60FB683F2B90D97B689F
:101960001A687B6A1A447B681A607B6804331968BA
:101970007B6804333A6A0A441A607B680833196842
:101980007B680833FA690A441A607B680C3319686B
:101990007B680C33BA690A441A6000BF2837BD4619
:1019A00080BD00BF0001002000000020B0B59CB049
:1019B00000AF7860396007F108031846FFF7F4FDBF
:1019C0007868FEF7C5FB024607F1080379681846F8
:1019D000FFF70EFE07F108031846FFF77BFE3B6892
:1019E0001D4607F160040FCC28606960AA60EB60B7
:1019F00000BF7037BD46B0BD80B483B000AF786023
:101A00007B6800221A607B6800225A607B680E4A5D
:101A10009A607B680D4ADA607B680D4A1A617B68C0
:101A20000C4A5A617B680C4A9A617B680B4ADA61FE
:101A30007B680B4A1A627B680A4A5A6200BF0C37FD
:101A4000BD4680BC704700BF67E6096A85AE67BBCC
:101A500072F36E3C3AF54FA57F520E518C68059B90
:101A6000ABD9831F19CDE05B80B4CDB000AF07F5D3
:101A70009873A3F59673186007F59873A3F5987398
:101A8000196007F59873A3F598731B681B781A06FD
:101A900007F59873A3F598731B6801331B781B0433
:101AA0001A4307F59873A3F598731B6802331B78E4
:101AB0001B02134307F59872A2F59872126803325D
:101AC00012781A4307F59873A3F594731A6007F513
:101AD0009873A3F598731B6804331B781A0607F5EF
:101AE0009873A3F598731B6805331B781B041A437E
:101AF00007F59873A3F598731B6806331B781B02D0
:101B0000134307F59872A2F598721268073212789B
:101B10001A4307F59873A3F594735A6007F5987301
:101B2000A3F598731B6808331B781A0607F598739A
:101B3000A3F598731B6809331B781B041A4307F538
:101B40009873A3F598731B680A331B781B02134321
:101B500007F59872A2F5987212680B3212781A4340
:101B600007F59873A3F594739A6007F59873A3F536
:101B700098731B680C331B781A0607F59873A3F546
:101B800098731B680D331B781B041A4307F5987371
:101B9000A3F598731B680E331B781B02134307F5DC
:101BA0009872A2F5987212680F3212781A4307F5EC
:101BB0009873A3F59473DA6007F59873A3F5987397
:101BC0001B6810331B781A0607F59873A3F59873F2
:101BD0001B6811331B781B041A4307F59873A3F590
:101BE00098731B6812331B781B02134307F5987216
:101BF000A2F598721268133212781A4307F5987397
:101C0000A3F594731A6107F59873A3F598731B688D
:101C100014331B781A0607F59873A3F598731B689D
:101C200015331B781B041A4307F59873A3F59873B3
:101C30001B6816331B781B02134307F59872A2F535
:101C400098721268173212781A4307F59873A3F541
:101C500094735A6107F59873A3F598731B6818334A
:101C60001B781A0607F59873A3F598731B68193348
:101C70001B781B041A4307F59873A3F598731B6828
:101C80001A331B781B02134307F59872A2F598725A
:101C900012681B3212781A4307F59873A3F59473F0
:101CA0009A6107F59873A3F598731B681C331B782A
:101CB0001A0607F59873A3F598731B681D331B78F4
:101CC0001B041A4307F59873A3F598731B681E331A
:101CD0001B781B02134307F59872A2F598721268DD
:101CE0001F3212781A4307F59873A3F59473DA61DB
:101CF00007F59873A3F598731B6820331B781A06B1
:101D000007F59873A3F598731B6821331B781B04A0
:101D10001A4307F59873A3F598731B6822331B7851
:101D20001B02134307F59872A2F5987212682332CA
:101D300012781A4307F59873A3F594731A6207F59E
:101D40009873A3F598731B6824331B781A0607F55C
:101D50009873A3F598731B6825331B781B041A43EB
:101D600007F59873A3F598731B6826331B781B023D
:101D7000134307F59872A2F5987212682732127809
:101D80001A4307F59873A3F594735A6207F598738D
:101D9000A3F598731B6828331B781A0607F5987308
:101DA000A3F598731B6829331B781B041A4307F5A6
:101DB0009873A3F598731B682A331B781B0213438F
:101DC00007F59872A2F5987212682B3212781A43AE
:101DD00007F59873A3F594739A6207F59873A3F5C2
:101DE00098731B682C331B781A0607F59873A3F5B4
:101DF00098731B682D331B781B041A4307F59873DF
:101E0000A3F598731B682E331B781B02134307F549
:101E10009872A2F5987212682F3212781A4307F559
:101E20009873A3F59473DA6207F59873A3F5987322
:101E30001B6830331B781A0607F59873A3F598735F
:101E40001B6831331B781B041A4307F59873A3F5FD
:101E500098731B6832331B781B02134307F5987283
:101E6000A2F598721268333212781A4307F5987304
:101E7000A3F594731A6307F59873A3F598731B6819
:101E800034331B781A0607F59873A3F598731B680B
:101E900035331B781B041A4307F59873A3F5987321
:101EA0001B6836331B781B02134307F59872A2F5A3
:101EB00098721268373212781A4307F59873A3F5AF
:101EC00094735A6307F59873A3F598731B683833B6
:101ED0001B781A0607F59873A3F598731B683933B6
:101EE0001B781B041A4307F59873A3F598731B68B6
:101EF0003A331B781B02134307F59872A2F59872C8
:101F000012683B3212781A4307F59873A3F594735D
:101F10009A6307F59873A3F598731B683C331B7895
:101F20001A0607F59873A3F598731B683D331B7861
:101F30001B041A4307F59873A3F598731B683E3387
:101F40001B781B02134307F59872A2F5987212686A
:101F50003F3212781A4307F59873A3F59473DA6346
:101F600007F59873A3F596731B689B68C7F82C3127
:101F700007F59873A3F596731B68DB68C7F82831DB
:101F800007F59873A3F596731B681B69C7F824318E
:101F900007F59873A3F596731B685B69C7F8203142
:101FA00007F59873A3F596731B689B69C7F81C31F6
:101FB00007F59873A3F596731B68DB69C7F81831AA
:101FC00007F59873A3F596731B681B6AC7F814315D
:101FD00007F59873A3F596731B685B6AC7F8103111
:101FE000D7F81C314FEAB312D7F81C314FEAF3236C
:101FF0005A40D7F81C314FEA73635A40D7F8103172
:102000001A44D7F81811D7F814315940D7F81C31B1
:102010001940D7F814314B401A4407F59873A3F5CB
:1020200094731B681A44F94B1344C7F80C31D7F862
:102030002C314FEAB302D7F82C314FEA73335A40B0
:10204000D7F82C314FEAB3535A40D7F82C11D7F8B0
:1020500028311940D7F82C01D7F828311843D7F880
:10206000243103400B431344C7F80831D7F820212B
:10207000D7F80C311344C7F82031D7F80C21D7F822
:1020800008311344C7F81031D7F820314FEAB312A2
:10209000D7F820314FEAF3235A40D7F820314FEADE
:1020A00073635A40D7F814311A44D7F81C11D7F883
:1020B00018315940D7F820311940D7F818314B4022
:1020C0001A4407F59873A3F594735B681A44D04BD0
:1020D0001344C7F80C31D7F810314FEAB302D7F8E0
:1020E00010314FEA73335A40D7F810314FEAB353E7
:1020F0005A40D7F81011D7F82C311940D7F81001F1
:10210000D7F82C311843D7F8283103400B43134438
:10211000C7F80831D7F82421D7F80C311344C7F891
:102120002431D7F80C21D7F808311344C7F81431FB
:10213000D7F824314FEAB312D7F824314FEAF3230A
:102140005A40D7F824314FEA73635A40D7F8183110
:102150001A44D7F82011D7F81C315940D7F8243148
:102160001940D7F81C314B401A4407F59873A3F572
:1021700094739B681A44A74B1344C7F80C31D7F8E3
:1021800014314FEAB302D7F814314FEA73335A408F
:10219000D7F814314FEAB3535A40D7F81411D7F88F
:1021A00010311940D7F81401D7F810311843D7F877
:1021B0002C3103400B431344C7F80831D7F82821CA
:1021C000D7F80C311344C7F82831D7F80C21D7F8C9
:1021D00008311344C7F81831D7F828314FEAB31241
:1021E000D7F828314FEAF3235A40D7F828314FEA7D
:1021F00073635A40D7F81C311A44D7F82411D7F822
:1022000020315940D7F828311940D7F820314B40B8
:102210001A4407F59873A3F59473DB681A447E4B50
:102220001344C7F80C31D7F818314FEAB302D7F886
:1022300018314FEA73335A40D7F818314FEAB35385
:102240005A40D7F81811D7F814311940D7F81801A7
:10225000D7F814311843D7F8103103400B43134417
:10226000C7F80831D7F82C21D7F80C311344C7F838
:102270002C31D7F80C21D7F808311344C7F81C319A
:10228000D7F82C314FEAB312D7F82C314FEAF323A9
:102290005A40D7F82C314FEA73635A40D7F82031AF
:1022A0001A44D7F82811D7F824315940D7F82C31DF
:1022B0001940D7F824314B401A4407F59873A3F519
:1022C00094731B691A44554B1344C7F80C31D7F863
:1022D0001C314FEAB302D7F81C314FEA73335A402E
:1022E000D7F81C314FEAB3535A40D7F81C11D7F82E
:1022F00018311940D7F81C01D7F818311843D7F80E
:10230000143103400B431344C7F80831D7F81021A8
:10231000D7F80C311344C7F81031D7F80C21D7F88F
:1023200008311344C7F82031D7F810314FEAB312FF
:10233000D7F810314FEAF3235A40D7F810314FEA5B
:1023400073635A40D7F824311A44D7F82C11D7F8C0
:1023500028315940D7F810311940D7F828314B406F
:102360001A4407F59873A3F594735B691A442C4BD0
:102370001344C7F80C31D7F820314FEAB302D7F82D
:1023800020314FEA73335A40D7F820314FEAB35324
:102390005A40D7F82011D7F81C311940D7F820013E
:1023A000D7F81C311843D7F8183103400B431344B6
:1023B000C7F80831D7F81421D7F80C311344C7F8FF
:1023C0001431D7F80C21D7F808311344C7F8243159
:1023D000D7F814314FEAB312D7F814314FEAF32388
:1023E0005A40D7F814314FEA73635A40D7F828316E
:1023F0001A44D7F81011D7F82C315940D7F81431B6
:102400001940D7F82C314B400CE000BF982F8A427E
:1024100091443771CFFBC0B5A5DBB5E95BC2563936
:10242000F111F1591A4407F59873A3F594739B6958
:102430001A44F94B1344C7F80C31D7F824314FEA4A
:10244000B302D7F824314FEA73335A40D7F8243116
:102450004FEAB3535A40D7F82411D7F82031194026
:10246000D7F82401D7F820311843D7F81C3103409E
:102470000B431344C7F80831D7F81821D7F80C31AB
:102480001344C7F81831D7F80C21D7F80831134492
:10249000C7F82831D7F818314FEAB312D7F81831F6
:1024A0004FEAF3235A40D7F818314FEA73635A4082
:1024B000D7F82C311A44D7F81411D7F810315940F5
:1024C000D7F818311940D7F810314B401A4407F5A6
:1024D0009873A3F59473DB691A44D04B1344C7F87F
:1024E0000C31D7F828314FEAB302D7F828314FEA38
:1024F00073335A40D7F828314FEAB3535A40D7F8CC
:102500002811D7F824311940D7F82801D7F82431F9
:102510001843D7F8203103400B431344C7F8083160
:10252000D7F81C21D7F80C311344C7F81C31D7F861
:102530000C21D7F808311344C7F82C31D7F81C31D7
:102540004FEAB312D7F81C314FEAF3235A40D7F8B9
:102550001C314FEA73635A40D7F810311A44D7F848
:102560001811D7F814315940D7F81C311940D7F851
:1025700014314B401A4407F59873A3F594731B6A02
:102580001A44A74B1344C7F80C31D7F82C314FEA43
:10259000B302D7F82C314FEA73335A40D7F82C31B5
:1025A0004FEAB3535A40D7F82C11D7F828311940C5
:1025B000D7F82C01D7F828311843D7F82431034035
:1025C0000B431344C7F80831D7F82021D7F80C3152
:1025D0001344C7F82031D7F80C21D7F80831134439
:1025E000C7F81031D7F820314FEAB312D7F82031AD
:1025F0004FEAF3235A40D7F820314FEA73635A4029
:10260000D7F814311A44D7F81C11D7F818315940AB
:10261000D7F820311940D7F818314B401A4407F544
:102620009873A3F594735B6A1A447E4B1344C7F8FE
:102630000C31D7F810314FEAB302D7F810314FEA16
:1026400073335A40D7F810314FEAB3535A40D7F892
:102650001011D7F82C311940D7F81001D7F82C31C8
:102660001843D7F8283103400B431344C7F8083107
:10267000D7F82421D7F80C311344C7F82431D7F800
:102680000C21D7F808311344C7F81431D7F8243196
:102690004FEAB312D7F824314FEAF3235A40D7F860
:1026A00024314FEA73635A40D7F818311A44D7F8E7
:1026B0002011D7F81C315940D7F824311940D7F8E8
:1026C0001C314B401A4407F59873A3F594739B6A29
:1026D0001A44554B1344C7F80C31D7F814314FEA5C
:1026E000B302D7F814314FEA73335A40D7F8143194
:1026F0004FEAB3535A40D7F81411D7F810311940A4
:10270000D7F81401D7F810311843D7F82C3103400B
:102710000B431344C7F80831D7F82821D7F80C31F8
:102720001344C7F82831D7F80C21D7F808311344DF
:10273000C7F81831D7F828314FEAB312D7F8283143
:102740004FEAF3235A40D7F828314FEA73635A40CF
:10275000D7F81C311A44D7F82411D7F82031594042
:10276000D7F828311940D7F820314B401A4407F5E3
:102770009873A3F59473DB6A1A442C4B1344C7F87F
:102780000C31D7F818314FEAB302D7F818314FEAB5
:1027900073335A40D7F818314FEAB3535A40D7F839
:1027A0001811D7F814311940D7F81801D7F8143197
:1027B0001843D7F8103103400B431344C7F80831CE
:1027C000D7F82C21D7F80C311344C7F82C31D7F89F
:1027D0000C21D7F808311344C7F81C31D7F82C3135
:1027E0004FEAB312D7F82C314FEAF3235A40D7F807
:1027F0002C314FEA73635A40D7F820311A44D7F886
:102800002811D7F824315940D7F82C311940D7F87E
:1028100024314B400CE000BFA4823F92D55E1CAB3C
:1028200098AA07D8015B8312BE853124C37D0C555D
:102830001A4407F59873A3F594731B6B1A44F44B71
:102840001344C7F80C31D7F81C314FEAB302D7F85C
:102850001C314FEA73335A40D7F81C314FEAB35357
:102860005A40D7F81C11D7F818311940D7F81C0175
:10287000D7F818311843D7F8143103400B431344E9
:10288000C7F80831D7F81021D7F80C311344C7F82E
:102890001031D7F80C21D7F808311344C7F820318C
:1028A000D7F810314FEAB312D7F810314FEAF323BB
:1028B0005A40D7F810314FEA73635A40D7F82431A1
:1028C0001A44D7F82C11D7F828315940D7F81031CD
:1028D0001940D7F828314B401A4407F59873A3F5EF
:1028E00094735B6B1A44CB4B1344C7F80C31D7F885
:1028F00020314FEAB302D7F820314FEA73335A4000
:10290000D7F820314FEAB3535A40D7F82011D7F8FF
:102910001C311940D7F82001D7F81C311843D7F8DB
:10292000183103400B431344C7F80831D7F814217A
:10293000D7F80C311344C7F81431D7F80C21D7F865
:1029400008311344C7F82431D7F814314FEAB312D1
:10295000D7F814314FEAF3235A40D7F814314FEA2D
:1029600073635A40D7F828311A44D7F81011D7F8B2
:102970002C315940D7F814311940D7F82C314B403D
:102980001A4407F59873A3F594739B6B1A44A24BF2
:102990001344C7F80C31D7F824314FEAB302D7F803
:1029A00024314FEA73335A40D7F824314FEAB353F6
:1029B0005A40D7F82411D7F820311940D7F824010C
:1029C000D7F820311843D7F81C3103400B43134488
:1029D000C7F80831D7F81821D7F80C311344C7F8D5
:1029E0001831D7F80C21D7F808311344C7F828312B
:1029F000D7F818314FEAB312D7F818314FEAF3235A
:102A00005A40D7F818314FEA73635A40D7F82C313F
:102A10001A44D7F81411D7F810315940D7F81831A3
:102A20001940D7F810314B401A4407F59873A3F5B5
:102A30009473DB6B1A44794B1344C7F80C31D7F805
:102A400028314FEAB302D7F828314FEA73335A409E
:102A5000D7F828314FEAB3535A40D7F82811D7F89E
:102A600024311940D7F82801D7F824311843D7F872
:102A7000203103400B431344C7F80831D7F81C2119
:102A8000D7F80C311344C7F81C31D7F80C21D7F80C
:102A900008311344C7F82C31D7F81C314FEAB31270
:102AA000D7F81C314FEAF3235A40D7F81C314FEACC
:102AB00073635A40D7F810311A44D7F81811D7F871
:102AC00014315940D7F81C311940D7F814314B4014
:102AD0001A4407F59873A3F594739B6B4FEA7341FF
:102AE00007F59873A3F594739B6B4FEAF343594032
:102AF00007F59873A3F594739B6B9B0A594007F5F0
:102B00009873A3F594735B6A194407F59873A3F55A
:102B100094735B684FEAF31007F59873A3F5947309
:102B20005B684FEAB343584007F59873A3F5947375
:102B30005B68DB084340194407F59873A3F5947369
:102B40001B68194407F59873A3F59473196407F586
:102B50009873A3F594731B6C1A44314B1344C7F854
:102B60000C31D7F82C314FEAB302D7F82C314FEAA9
:102B700073335A40D7F82C314FEAB3535A40D7F841
:102B80002C11D7F828311940D7F82C01D7F8283163
:102B90001843D7F8243103400B431344C7F80831D6
:102BA000D7F82021D7F80C311344C7F82031D7F8D3
:102BB0000C21D7F808311344C7F81031D7F8203169
:102BC0004FEAB312D7F820314FEAF3235A40D7F82F
:102BD00020314FEA73635A40D7F814311A44D7F8BA
:102BE0001C11D7F818315940D7F820311940D7F8BF
:102BF00018314B401A4407F59873A3F59473DB6BB7
:102C00004FEA734107F59873A3F59473DB6B09E002
:102C1000745DBE72FEB1DE80A706DC9B74F19BC1C1
:102C2000C1699BE44FEAF343594007F59873A3F554
:102C30009473DB6B9B0A594007F59873A3F5947363
:102C40009B6A194407F59873A3F594739B684FEA40
:102C5000F31007F59873A3F594739B684FEAB34399
:102C6000584007F59873A3F594739B68DB084340BD
:102C7000194407F59873A3F594735B68194407F535
:102C80009873A3F59473596407F59873A3F5947337
:102C90005B6C1A44EC4B1344C7F80C31D7F8103175
:102CA0004FEAB302D7F810314FEA73335A40D7F8DE
:102CB00010314FEAB3535A40D7F81011D7F82C31DE
:102CC0001940D7F81001D7F82C311843D7F828311C
:102CD00003400B431344C7F80831D7F82421D7F831
:102CE0000C311344C7F82431D7F80C21D7F8083138
:102CF0001344C7F81431D7F824314FEAB312D7F888
:102D000024314FEAF3235A40D7F824314FEA736352
:102D10005A40D7F818311A44D7F82011D7F81C3187
:102D20005940D7F824311940D7F81C314B401A4488
:102D300007F59873A3F594731B6C4FEA734107F57D
:102D40009873A3F594731B6C4FEAF343594007F54E
:102D50009873A3F594731B6C9B0A594007F59873FD
:102D6000A3F59473DB6A194407F59873A3F594737C
:102D7000DB684FEAF31007F59873A3F59473DB68EB
:102D80004FEAB343584007F59873A3F59473DB6893
:102D9000DB084340194407F59873A3F594739B68C7
:102DA000194407F59873A3F59473996407F598731C
:102DB000A3F594739B6C1A44A44B1344C7F80C31CD
:102DC000D7F814314FEAB302D7F814314FEA73330E
:102DD0005A40D7F814314FEAB3535A40D7F8141178
:102DE000D7F810311940D7F81401D7F8103118432B
:102DF000D7F82C3103400B431344C7F80831D7F8F8
:102E00002821D7F80C311344C7F82831D7F80C2102
:102E1000D7F808311344C7F81831D7F828314FEAEA
:102E2000B312D7F828314FEAF3235A40D7F82831A4
:102E30004FEA73635A40D7F81C311A44D7F824116B
:102E4000D7F820315940D7F828311940D7F8203128
:102E50004B401A4407F59873A3F594735B6C4FEAE3
:102E6000734107F59873A3F594735B6C4FEAF343D2
:102E7000594007F59873A3F594735B6C9B0A59400E
:102E800007F59873A3F594731B6B194407F59873B2
:102E9000A3F594731B694FEAF31007F59873A3F534
:102EA00094731B694FEAB343584007F59873A3F531
:102EB00094731B69DB084340194407F59873A3F525
:102EC0009473DB68194407F59873A3F59473D96478
:102ED00007F59873A3F59473DB6C1A445C4B1344A9
:102EE000C7F80C31D7F818314FEAB302D7F81831C8
:102EF0004FEA73335A40D7F818314FEAB3535A4068
:102F0000D7F81811D7F814311940D7F81801D7F8A5
:102F100014311843D7F8103103400B431344C7F85A
:102F20000831D7F82C21D7F80C311344C7F82C31CD
:102F3000D7F80C21D7F808311344C7F81C31D7F85B
:102F40002C314FEAB312D7F82C314FEAF3235A4011
:102F5000D7F82C314FEA73635A40D7F820311A441E
:102F6000D7F82811D7F824315940D7F82C31194017
:102F7000D7F824314B401A4407F59873A3F594739E
:102F80009B6C4FEA734107F59873A3F594739B6CA0
:102F90004FEAF343594007F59873A3F594739B6C7C
:102FA0009B0A594007F59873A3F594735B6B19441A
:102FB00007F59873A3F594735B694FEAF31007F56F
:102FC0009873A3F594735B694FEAB343584007F5D0
:102FD0009873A3F594735B69DB084340194407F5C4
:102FE0009873A3F594731B69194407F59873A3F5B7
:102FF0009473196507F59873A3F594731B6D1A44C0
:10300000144B1344C7F80C31D7F81C314FEAB30204
:10301000D7F81C314FEA73335A40D7F81C314FEAC6
:10302000B3535A40D7F81C11D7F818311940D7F8C4
:103030001C01D7F818311843D7F8143103400B435B
:103040001344C7F8083107E08647BEEFC69DC10F9D
:10305000CCA10C246F2CE92DD7F81021D7F80C3116
:103060001344C7F81031D7F80C21D7F808311344AE
:10307000C7F82031D7F810314FEAB312D7F8103122
:103080004FEAF3235A40D7F810314FEA73635A409E
:10309000D7F824311A44D7F82C11D7F828315940E1
:1030A000D7F810311940D7F828314B401A4407F5AA
:1030B0009873A3F59473DB6C4FEA734107F598732B
:1030C000A3F59473DB6C4FEAF343594007F598730B
:1030D000A3F59473DB6C9B0A594007F59873A3F52D
:1030E00094739B6B194407F59873A3F594739B69CC
:1030F0004FEAF31007F59873A3F594739B694FEAB1
:10310000B343584007F59873A3F594739B69DB08A4
:103110004340194407F59873A3F594735B69194408
:1031200007F59873A3F59473596507F59873A3F59C
:1031300094735B6D1A44ED4B1344C7F80C31D7F808
:1031400020314FEAB302D7F820314FEA73335A40A7
:10315000D7F820314FEAB3535A40D7F82011D7F8A7
:103160001C311940D7F82001D7F81C311843D7F883
:10317000183103400B431344C7F80831D7F8142122
:10318000D7F80C311344C7F81431D7F80C21D7F80D
:1031900008311344C7F82431D7F814314FEAB31279
:1031A000D7F814314FEAF3235A40D7F814314FEAD5
:1031B00073635A40D7F828311A44D7F81011D7F85A
:1031C0002C315940D7F814311940D7F82C314B40E5
:1031D0001A4407F59873A3F594731B6D4FEA734176
:1031E00007F59873A3F594731B6D4FEAF3435940A9
:1031F00007F59873A3F594731B6D9B0A594007F567
:103200009873A3F59473DB6B194407F59873A3F5D2
:103210009473DB694FEAF31007F59873A3F5947381
:10322000DB694FEAB343584007F59873A3F59473ED
:10323000DB69DB084340194407F59873A3F59473E1
:103240009B69194407F59873A3F59473996507F57D
:103250009873A3F594739B6D1A44A54B1344C7F858
:103260000C31D7F824314FEAB302D7F824314FEAB2
:1032700073335A40D7F824314FEAB3535A40D7F842
:103280002411D7F820311940D7F82401D7F820317C
:103290001843D7F81C3103400B431344C7F80831D7
:1032A000D7F81821D7F80C311344C7F81831D7F8DC
:1032B0000C21D7F808311344C7F82831D7F8183152
:1032C0004FEAB312D7F818314FEAF3235A40D7F830
:1032D00018314FEA73635A40D7F82C311A44D7F8A3
:1032E0001411D7F810315940D7F818311940D7F8D0
:1032F00010314B401A4407F59873A3F594735B6D36
:103300004FEA734107F59873A3F594735B6D4FEA29
:10331000F343594007F59873A3F594735B6D9B0ACB
:10332000594007F59873A3F594731B6C194407F57E
:103330009873A3F594731B6A4FEAF31007F598731B
:10334000A3F594731B6A4FEAB343584007F598738B
:10335000A3F594731B6ADB084340194407F598737F
:10336000A3F59473DB69194407F59873A3F5947377
:10337000D96507F59873A3F59473DB6D1A445D4B1B
:103380001344C7F80C31D7F828314FEAB302D7F805
:1033900028314FEA73335A40D7F828314FEAB353F4
:1033A0005A40D7F82811D7F824311940D7F8280106
:1033B000D7F824311843D7F8203103400B43134486
:1033C000C7F80831D7F81C21D7F80C311344C7F8D7
:1033D0001C31D7F80C21D7F808311344C7F82C3129
:1033E000D7F81C314FEAB312D7F81C314FEAF32358
:1033F0005A40D7F81C314FEA73635A40D7F810315E
:103400001A44D7F81811D7F814315940D7F81C319D
:103410001940D7F814314B401A4407F59873A3F5B7
:1034200094739B6D4FEA734107F59873A3F59473FA
:103430009B6D4FEAF343594007F59873A3F59473D6
:103440009B6D9B0A594007F59873A3F594735B6CC9
:10345000194407F59873A3F594735B6A4FEAF31068
:1034600007F59873A3F594735B6A4FEAB34358402A
:1034700007F59873A3F594735B6ADB08434019441E
:1034800007F59873A3F594731B6A194407F59873AD
:10349000A3F59473196607F59873A3F594731B6EDF
:1034A0001A44154B1344C7F80C31D7F82C314FEAA6
:1034B000B302D7F82C314FEA73335A40D7F82C3186
:1034C0004FEAB3535A40D7F82C11D7F82831194096
:1034D000D7F82C01D7F828311843D7F82431034006
:1034E0000B431344C7F8083108E000BFAA84744AAC
:1034F000DCA9B05CDA88F97652513E98D7F82021E1
:10350000D7F80C311344C7F82031D7F80C21D7F87D
:1035100008311344C7F81031D7F820314FEAB312FD
:10352000D7F820314FEAF3235A40D7F820314FEA39
:1035300073635A40D7F814311A44D7F81C11D7F8DE
:1035400018315940D7F820311940D7F818314B407D
:103550001A4407F59873A3F59473DB6D4FEA734132
:1035600007F59873A3F59473DB6D4FEAF343594065
:1035700007F59873A3F59473DB6D9B0A594007F523
:103580009873A3F594739B6C194407F59873A3F58E
:1035900094739B6A4FEAF31007F59873A3F594733D
:1035A0009B6A4FEAB343584007F59873A3F59473A9
:1035B0009B6ADB084340194407F59873A3F594739D
:1035C0005B6A194407F59873A3F59473596607F578
:1035D0009873A3F594735B6E1A44ED4B1344C7F8CC
:1035E0000C31D7F810314FEAB302D7F810314FEA57
:1035F00073335A40D7F810314FEAB3535A40D7F8D3
:103600001011D7F82C311940D7F81001D7F82C3108
:103610001843D7F8283103400B431344C7F8083147
:10362000D7F82421D7F80C311344C7F82431D7F840
:103630000C21D7F808311344C7F81431D7F82431D6
:103640004FEAB312D7F824314FEAF3235A40D7F8A0
:1036500024314FEA73635A40D7F818311A44D7F827
:103660002011D7F81C315940D7F824311940D7F828
:103670001C314B401A4407F59873A3F594731B6EE5
:103680004FEA734107F59873A3F594731B6E4FEAE5
:10369000F343594007F59873A3F594731B6E9B0A87
:1036A000594007F59873A3F59473DB6C194407F53B
:1036B0009873A3F59473DB6A4FEAF31007F59873D8
:1036C000A3F59473DB6A4FEAB343584007F5987348
:1036D000A3F59473DB6ADB084340194407F598733C
:1036E000A3F594739B6A194407F59873A3F5947333
:1036F000996607F59873A3F594739B6E1A44A54BCE
:103700001344C7F80C31D7F814314FEAB302D7F895
:1037100014314FEA73335A40D7F814314FEAB35398
:103720005A40D7F81411D7F810311940D7F81401BE
:10373000D7F810311843D7F82C3103400B4313440A
:10374000C7F80831D7F82821D7F80C311344C7F847
:103750002831D7F80C21D7F808311344C7F81831AD
:10376000D7F828314FEAB312D7F828314FEAF323BC
:103770005A40D7F828314FEA73635A40D7F81C31C2
:103780001A44D7F82411D7F820315940D7F82831F6
:103790001940D7F820314B401A4407F59873A3F528
:1037A00094735B6E4FEA734107F59873A3F59473B6
:1037B0005B6E4FEAF343594007F59873A3F5947392
:1037C0005B6E9B0A594007F59873A3F594731B6DC4
:1037D000194407F59873A3F594731B6B4FEAF31024
:1037E00007F59873A3F594731B6B4FEAB3435840E6
:1037F00007F59873A3F594731B6BDB0843401944DA
:1038000007F59873A3F59473DB6A194407F5987369
:10381000A3F59473D96607F59873A3F59473DB6EDB
:103820001A445D4B1344C7F80C31D7F818314FEAEE
:10383000B302D7F818314FEA73335A40D7F818312A
:103840004FEAB3535A40D7F81811D7F8143119403A
:10385000D7F81801D7F814311843D7F810310340BE
:103860000B431344C7F80831D7F82C21D7F80C3193
:103870001344C7F82C31D7F80C21D7F8083113447A
:10388000C7F81C31D7F82C314FEAB312D7F82C31D6
:103890004FEAF3235A40D7F82C314FEA73635A406A
:1038A000D7F820311A44D7F82811D7F824315940D5
:1038B000D7F82C311940D7F824314B401A4407F57A
:1038C0009873A3F594739B6E4FEA734107F5987351
:1038D000A3F594739B6E4FEAF343594007F5987331
:1038E000A3F594739B6E9B0A594007F59873A3F553
:1038F00094735B6D194407F59873A3F594735B6B30
:103900004FEAF31007F59873A3F594735B6B4FEAD6
:10391000B343584007F59873A3F594735B6BDB08CA
:103920004340194407F59873A3F594731B6B19442E
:1039300007F59873A3F59473196707F59873A3F5C2
:1039400094731B6F1A44154B1344C7F80C31D7F806
:103950001C314FEAB302D7F81C314FEA73335A4097
:10396000D7F81C314FEAB3535A40D7F81C11D7F897
:1039700018311940D7F81C01D7F818311843D7F877
:10398000143103400B431344C7F8083108E000BF6B
:103990006DC631A8C82703B0C77F59BFF30BE0C677
:1039A000D7F81021D7F80C311344C7F81031D7F8E5
:1039B0000C21D7F808311344C7F82031D7F810315B
:1039C0004FEAB312D7F810314FEAF3235A40D7F831
:1039D00010314FEA73635A40D7F824311A44D7F8AC
:1039E0002C11D7F828315940D7F810311940D7F8A1
:1039F00028314B401A4407F59873A3F59473DB6E96
:103A00004FEA734107F59873A3F59473DB6E4FEAA1
:103A1000F343594007F59873A3F59473DB6E9B0A43
:103A2000594007F59873A3F594739B6D194407F5F6
:103A30009873A3F594739B6B4FEAF31007F5987393
:103A4000A3F594739B6B4FEAB343584007F5987303
:103A5000A3F594739B6BDB084340194407F59873F7
:103A6000A3F594735B6B194407F59873A3F59473EE
:103A7000596707F59873A3F594735B6F1A44EE4B7F
:103A80001344C7F80C31D7F820314FEAB302D7F806
:103A900020314FEA73335A40D7F820314FEAB353FD
:103AA0005A40D7F82011D7F81C311940D7F8200117
:103AB000D7F81C311843D7F8183103400B4313448F
:103AC000C7F80831D7F81421D7F80C311344C7F8D8
:103AD0001431D7F80C21D7F808311344C7F8243132
:103AE000D7F814314FEAB312D7F814314FEAF32361
:103AF0005A40D7F814314FEA73635A40D7F8283147
:103B00001A44D7F81011D7F82C315940D7F814318E
:103B10001940D7F82C314B401A4407F59873A3F598
:103B200094731B6F4FEA734107F59873A3F5947371
:103B30001B6F4FEAF343594007F59873A3F594734D
:103B40001B6F9B0A594007F59873A3F59473DB6DBF
:103B5000194407F59873A3F59473DB6B4FEAF310E0
:103B600007F59873A3F59473DB6B4FEAB3435840A2
:103B700007F59873A3F59473DB6BDB084340194496
:103B800007F59873A3F594739B6B194407F5987325
:103B9000A3F59473996707F59873A3F594739B6FD6
:103BA0001A44A64B1344C7F80C31D7F824314FEA16
:103BB000B302D7F824314FEA73335A40D7F824318F
:103BC0004FEAB3535A40D7F82411D7F8203119409F
:103BD000D7F82401D7F820311843D7F81C31034017
:103BE0000B431344C7F80831D7F81821D7F80C3124
:103BF0001344C7F81831D7F80C21D7F8083113440B
:103C0000C7F82831D7F818314FEAB312D7F818316E
:103C10004FEAF3235A40D7F818314FEA73635A40FA
:103C2000D7F82C311A44D7F81411D7F8103159406D
:103C3000D7F818311940D7F810314B401A4407F51E
:103C40009873A3F594735B6F4FEA734107F598730C
:103C5000A3F594735B6F4FEAF343594007F59873EC
:103C6000A3F594735B6F9B0A594007F59873A3F50E
:103C700094731B6E194407F59873A3F594731B6C2A
:103C80004FEAF31007F59873A3F594731B6C4FEA92
:103C9000B343584007F59873A3F594731B6CDB0886
:103CA0004340194407F59873A3F59473DB6B1944EB
:103CB00007F59873A3F59473D96707F59873A3F57F
:103CC0009473DB6F1A445E4B1344C7F80C31D7F87A
:103CD00028314FEAB302D7F828314FEA73335A40FC
:103CE000D7F828314FEAB3535A40D7F82811D7F8FC
:103CF00024311940D7F82801D7F824311843D7F8D0
:103D0000203103400B431344C7F80831D7F81C2176
:103D1000D7F80C311344C7F81C31D7F80C21D7F869
:103D200008311344C7F82C31D7F81C314FEAB312CD
:103D3000D7F81C314FEAF3235A40D7F81C314FEA29
:103D400073635A40D7F810311A44D7F81811D7F8CE
:103D500014315940D7F81C311940D7F814314B4071
:103D60001A4407F59873A3F594739B6F4FEA734158
:103D700007F59873A3F594739B6F4FEAF34359408B
:103D800007F59873A3F594739B6F9B0A594007F549
:103D90009873A3F594735B6E194407F59873A3F5B4
:103DA00094735B6C4FEAF31007F59873A3F5947363
:103DB0005B6C4FEAB343584007F59873A3F59473CF
:103DC0005B6CDB084340194407F59873A3F59473C3
:103DD0001B6C194407F59873A3F59473C3F880100E
:103DE00007F59873A3F59473D3F880301A44154BF4
:103DF0001344C7F80C31D7F82C314FEAB302D7F887
:103E00002C314FEA73335A40D7F82C314FEAB35371
:103E10005A40D7F82C11D7F828311940D7F82C017F
:103E2000D7F828311843D7F8243103400B43134403
:103E3000C7F8083108E000BF4791A7D55163CA060B
:103E400067292914850AB727D7F82021D7F80C311C
:103E50001344C7F82031D7F80C21D7F808311344A0
:103E6000C7F81031D7F820314FEAB312D7F8203114
:103E70004FEAF3235A40D7F820314FEA73635A4090
:103E8000D7F814311A44D7F81C11D7F81831594013
:103E9000D7F820311940D7F818314B401A4407F5AC
:103EA0009873A3F59473DB6F4FEA734107F598732A
:103EB000A3F59473DB6F4FEAF343594007F598730A
:103EC000A3F59473DB6F9B0A594007F59873A3F52C
:103ED00094739B6E194407F59873A3F594739B6CC8
:103EE0004FEAF31007F59873A3F594739B6C4FEAB0
:103EF000B343584007F59873A3F594739B6CDB08A4
:103F00004340194407F59873A3F594735B6C194407
:103F100007F59873A3F59473C3F8841007F59873A5
:103F2000A3F59473D3F884301A44F44B1344C7F8C0
:103F30000C31D7F810314FEAB302D7F810314FEAFD
:103F400073335A40D7F810314FEAB3535A40D7F879
:103F50001011D7F82C311940D7F81001D7F82C31AF
:103F60001843D7F8283103400B431344C7F80831EE
:103F7000D7F82421D7F80C311344C7F82431D7F8E7
:103F80000C21D7F808311344C7F81431D7F824317D
:103F90004FEAB312D7F824314FEAF3235A40D7F847
:103FA00024314FEA73635A40D7F818311A44D7F8CE
:103FB0002011D7F81C315940D7F824311940D7F8CF
:103FC0001C314B401A4407F59873A3F59473D3F84A
:103FD00080304FEA734107F59873A3F59473D3F8D3
:103FE00080304FEAF343594007F59873A3F5947373
:103FF000D3F880309B0A594007F59873A3F5947362
:10400000DB6E194407F59873A3F59473DB6C4FEAE4
:10401000F31007F59873A3F59473DB6C4FEAB34381
:10402000584007F59873A3F59473DB6CDB084340A5
:10403000194407F59873A3F594739B6C194407F51D
:104040009873A3F59473C3F8881007F59873A3F5D4
:104050009473D3F888301A44A94B1344C7F80C3131
:10406000D7F814314FEAB302D7F814314FEA73335B
:104070005A40D7F814314FEAB3535A40D7F81411C5
:10408000D7F810311940D7F81401D7F81031184378
:10409000D7F82C3103400B431344C7F80831D7F845
:1040A0002821D7F80C311344C7F82831D7F80C2150
:1040B000D7F808311344C7F81831D7F828314FEA38
:1040C000B312D7F828314FEAF3235A40D7F82831F2
:1040D0004FEA73635A40D7F81C311A44D7F82411B9
:1040E000D7F820315940D7F828311940D7F8203176
:1040F0004B401A4407F59873A3F59473D3F88430B2
:104100004FEA734107F59873A3F59473D3F884309D
:104110004FEAF343594007F59873A3F59473D3F826
:1041200084309B0A594007F59873A3F594731B6F6D
:10413000194407F59873A3F594731B6D4FEAF310B8
:1041400007F59873A3F594731B6D4FEAB34358407A
:1041500007F59873A3F594731B6DDB08434019446E
:1041600007F59873A3F59473DB6C194407F59873FE
:10417000A3F59473C3F88C1007F59873A3F59473A3
:10418000D3F88C301A445F4B1344C7F80C31D7F87E
:1041900018314FEAB302D7F818314FEA73335A4057
:1041A000D7F818314FEAB3535A40D7F81811D7F857
:1041B00014311940D7F81801D7F814311843D7F83B
:1041C000103103400B431344C7F80831D7F82C21B2
:1041D000D7F80C311344C7F82C31D7F80C21D7F895
:1041E00008311344C7F81C31D7F82C314FEAB31209
:1041F000D7F82C314FEAF3235A40D7F82C314FEA45
:1042000073635A40D7F820311A44D7F82811D7F8E9
:1042100024315940D7F82C311940D7F824314B407C
:104220001A4407F59873A3F59473D3F888304FEACE
:10423000734107F59873A3F59473D3F888304FEA68
:10424000F343594007F59873A3F59473D3F8883076
:104250009B0A594007F59873A3F594735B6F194453
:1042600007F59873A3F594735B6D4FEAF31007F5A8
:104270009873A3F594735B6D4FEAB343584007F509
:104280009873A3F594735B6DDB084340194407F5FD
:104290009873A3F594731B6D194407F59873A3F5F0
:1042A0009473C3F8901007F59873A3F59473D3F83B
:1042B00090301A44144B1344C7F80C31D7F81C3112
:1042C0004FEAB302D7F81C314FEA73335A40D7F89C
:1042D0001C314FEAB3535A40D7F81C11D7F81831A4
:1042E0001940D7F81C01D7F818311843D7F8143102
:1042F00003400B431344C7F8083107E038211B2E55
:10430000FC6D2C4D130D385354730A65D7F81021EA
:10431000D7F80C311344C7F81031D7F80C21D7F86F
:1043200008311344C7F82031D7F810314FEAB312DF
:10433000D7F810314FEAF3235A40D7F810314FEA3B
:1043400073635A40D7F824311A44D7F82C11D7F8A0
:1043500028315940D7F810311940D7F828314B404F
:104360001A4407F59873A3F59473D3F88C304FEA89
:10437000734107F59873A3F59473D3F88C304FEA23
:10438000F343594007F59873A3F59473D3F88C3031
:104390009B0A594007F59873A3F594739B6F1944D2
:1043A00007F59873A3F594739B6D4FEAF31007F527
:1043B0009873A3F594739B6D4FEAB343584007F588
:1043C0009873A3F594739B6DDB084340194407F57C
:1043D0009873A3F594735B6D194407F59873A3F56F
:1043E0009473C3F8941007F59873A3F59473D3F8F6
:1043F00094301A44F54B1344C7F80C31D7F82031E8
:104400004FEAB302D7F820314FEA73335A40D7F856
:1044100020314FEAB3535A40D7F82011D7F81C3156
:104420001940D7F82001D7F81C311843D7F81831B4
:1044300003400B431344C7F80831D7F81421D7F8C9
:104440000C311344C7F81431D7F80C21D7F80831D0
:104450001344C7F82431D7F814314FEAB312D7F810
:1044600014314FEAF3235A40D7F814314FEA7363FB
:104470005A40D7F828311A44D7F81011D7F82C3100
:104480005940D7F814311940D7F82C314B401A4411
:1044900007F59873A3F59473D3F890304FEA7341FE
:1044A00007F59873A3F59473D3F890304FEAF3436C
:1044B000594007F59873A3F59473D3F890309B0A8D
:1044C000594007F59873A3F59473DB6F194407F50A
:1044D0009873A3F59473DB6D4FEAF31007F59873A7
:1044E000A3F59473DB6D4FEAB343584007F5987317
:1044F000A3F59473DB6DDB084340194407F598730B
:10450000A3F594739B6D194407F59873A3F5947301
:10451000C3F8981007F59873A3F59473D3F89830FF
:104520001A44AB4B1344C7F80C31D7F824314FEA87
:10453000B302D7F824314FEA73335A40D7F8243105
:104540004FEAB3535A40D7F82411D7F82031194015
:10455000D7F82401D7F820311843D7F81C3103408D
:104560000B431344C7F80831D7F81821D7F80C319A
:104570001344C7F81831D7F80C21D7F80831134481
:10458000C7F82831D7F818314FEAB312D7F81831E5
:104590004FEAF3235A40D7F818314FEA73635A4071
:1045A000D7F82C311A44D7F81411D7F810315940E4
:1045B000D7F818311940D7F810314B401A4407F595
:1045C0009873A3F59473D3F894304FEA734107F5C9
:1045D0009873A3F59473D3F894304FEAF34359409A
:1045E00007F59873A3F59473D3F894309B0A594058
:1045F00007F59873A3F59473D3F88030194407F541
:104600009873A3F594731B6E4FEAF31007F5987334
:10461000A3F594731B6E4FEAB343584007F59873A4
:10462000A3F594731B6EDB084340194407F5987398
:10463000A3F59473DB6D194407F59873A3F5947390
:10464000C3F89C1007F59873A3F59473D3F89C30C6
:104650001A44604B1344C7F80C31D7F828314FEA9D
:10466000B302D7F828314FEA73335A40D7F82831CC
:104670004FEAB3535A40D7F82811D7F824311940DC
:10468000D7F82801D7F824311843D7F82031034050
:104690000B431344C7F80831D7F81C21D7F80C3165
:1046A0001344C7F81C31D7F80C21D7F8083113444C
:1046B000C7F82C31D7F81C314FEAB312D7F81C31A8
:1046C0004FEAF3235A40D7F81C314FEA73635A403C
:1046D000D7F810311A44D7F81811D7F814315940C7
:1046E000D7F81C311940D7F814314B401A4407F55C
:1046F0009873A3F59473D3F898304FEA734107F594
:104700009873A3F59473D3F898304FEAF343594064
:1047100007F59873A3F59473D3F898309B0A594022
:1047200007F59873A3F59473D3F88430194407F50B
:104730009873A3F594735B6E4FEAF31007F59873C3
:10474000A3F594735B6E4FEAB343584007F5987333
:10475000A3F594735B6EDB084340194407F5987327
:10476000A3F594731B6E194407F59873A3F594731E
:10477000C3F8A01007F59873A3F59473D3F8A0308D
:104780001A44154B1344C7F80C31D7F82C314FEAB3
:10479000B302D7F82C314FEA73335A40D7F82C3193
:1047A0004FEAB3535A40D7F82C11D7F828311940A3
:1047B000D7F82C01D7F828311843D7F82431034013
:1047C0000B431344C7F8083108E000BFBB0A6A7600
:1047D0002EC9C281852C7292A1E8BFA2D7F82021F0
:1047E000D7F80C311344C7F82031D7F80C21D7F88B
:1047F00008311344C7F81031D7F820314FEAB3120B
:10480000D7F820314FEAF3235A40D7F820314FEA46
:1048100073635A40D7F814311A44D7F81C11D7F8EB
:1048200018315940D7F820311940D7F818314B408A
:104830001A4407F59873A3F59473D3F89C304FEAA4
:10484000734107F59873A3F59473D3F89C304FEA3E
:10485000F343594007F59873A3F59473D3F89C304C
:104860009B0A594007F59873A3F59473D3F88830E1
:10487000194407F59873A3F594739B6E4FEAF310F0
:1048800007F59873A3F594739B6E4FEAB3435840B2
:1048900007F59873A3F594739B6EDB0843401944A6
:1048A00007F59873A3F594735B6E194407F5987335
:1048B000A3F59473C3F8A41007F59873A3F5947344
:1048C000D3F8A4301A44F64B1344C7F80C31D7F888
:1048D00010314FEAB302D7F810314FEA73335A4020
:1048E000D7F810314FEAB3535A40D7F81011D7F820
:1048F0002C311940D7F81001D7F82C311843D7F8CC
:10490000283103400B431344C7F80831D7F824215A
:10491000D7F80C311344C7F82431D7F80C21D7F855
:1049200008311344C7F81431D7F824314FEAB312D1
:10493000D7F824314FEAF3235A40D7F824314FEA0D
:1049400073635A40D7F818311A44D7F82011D7F8B2
:104950001C315940D7F824311940D7F81C314B404D
:104960001A4407F59873A3F59473D3F8A0304FEA6F
:10497000734107F59873A3F59473D3F8A0304FEA09
:10498000F343594007F59873A3F59473D3F8A03017
:104990009B0A594007F59873A3F59473D3F88C30AC
:1049A000194407F59873A3F59473DB6E4FEAF3107F
:1049B00007F59873A3F59473DB6E4FEAB343584041
:1049C00007F59873A3F59473DB6EDB084340194435
:1049D00007F59873A3F594739B6E194407F59873C4
:1049E000A3F59473C3F8A81007F59873A3F594730F
:1049F000D3F8A8301A44AB4B1344C7F80C31D7F89E
:104A000014314FEAB302D7F814314FEA73335A40E6
:104A1000D7F814314FEAB3535A40D7F81411D7F8E6
:104A200010311940D7F81401D7F810311843D7F8CE
:104A30002C3103400B431344C7F80831D7F8282121
:104A4000D7F80C311344C7F82831D7F80C21D7F820
:104A500008311344C7F81831D7F828314FEAB31298
:104A6000D7F828314FEAF3235A40D7F828314FEAD4
:104A700073635A40D7F81C311A44D7F82411D7F879
:104A800020315940D7F828311940D7F820314B4010
:104A90001A4407F59873A3F59473D3F8A4304FEA3A
:104AA000734107F59873A3F59473D3F8A4304FEAD4
:104AB000F343594007F59873A3F59473D3F8A430E2
:104AC0009B0A594007F59873A3F59473D3F8903077
:104AD000194407F59873A3F594731B6F4FEAF3100D
:104AE00007F59873A3F594731B6F4FEAB3435840CF
:104AF00007F59873A3F594731B6FDB0843401944C3
:104B000007F59873A3F59473DB6E194407F5987352
:104B1000A3F59473C3F8AC1007F59873A3F59473D9
:104B2000D3F8AC301A44604B1344C7F80C31D7F8B3
:104B300018314FEAB302D7F818314FEA73335A40AD
:104B4000D7F818314FEAB3535A40D7F81811D7F8AD
:104B500014311940D7F81801D7F814311843D7F891
:104B6000103103400B431344C7F80831D7F82C2108
:104B7000D7F80C311344C7F82C31D7F80C21D7F8EB
:104B800008311344C7F81C31D7F82C314FEAB3125F
:104B9000D7F82C314FEAF3235A40D7F82C314FEA9B
:104BA00073635A40D7F820311A44D7F82811D7F840
:104BB00024315940D7F82C311940D7F824314B40D3
:104BC0001A4407F59873A3F59473D3F8A8304FEA05
:104BD000734107F59873A3F59473D3F8A8304FEA9F
:104BE000F343594007F59873A3F59473D3F8A830AD
:104BF0009B0A594007F59873A3F59473D3F8943042
:104C0000194407F59873A3F594735B6F4FEAF3109B
:104C100007F59873A3F594735B6F4FEAB34358405D
:104C200007F59873A3F594735B6FDB084340194451
:104C300007F59873A3F594731B6F194407F59873E0
:104C4000A3F59473C3F8B01007F59873A3F59473A4
:104C5000D3F8B0301A44154B1344C7F80C31D7F8C9
:104C60001C314FEAB302D7F81C314FEA73335A4074
:104C7000D7F81C314FEAB3535A40D7F81C11D7F874
:104C800018311940D7F81C01D7F818311843D7F854
:104C9000143103400B431344C7F8083108E000BF48
:104CA0004B661AA8708B4BC2A3516CC719E892D1FE
:104CB000D7F81021D7F80C311344C7F81031D7F8C2
:104CC0000C21D7F808311344C7F82031D7F8103138
:104CD0004FEAB312D7F810314FEAF3235A40D7F80E
:104CE00010314FEA73635A40D7F824311A44D7F889
:104CF0002C11D7F828315940D7F810311940D7F87E
:104D000028314B401A4407F59873A3F59473D3F8F0
:104D1000AC304FEA734107F59873A3F59473D3F859
:104D2000AC304FEAF343594007F59873A3F59473F9
:104D3000D3F8AC309B0A594007F59873A3F59473E8
:104D4000D3F89830194407F59873A3F594739B6FC3
:104D50004FEAF31007F59873A3F594739B6F4FEA2E
:104D6000B343584007F59873A3F594739B6FDB0822
:104D70004340194407F59873A3F594735B6F194486
:104D800007F59873A3F59473C3F8B41007F59873F7
:104D9000A3F59473D3F8B4301A44F94B1344C7F80D
:104DA0000C31D7F820314FEAB302D7F820314FEA5F
:104DB00073335A40D7F820314FEAB3535A40D7F8EB
:104DC0002011D7F81C311940D7F82001D7F81C3131
:104DD0001843D7F8183103400B431344C7F8083180
:104DE000D7F81421D7F80C311344C7F81431D7F889
:104DF0000C21D7F808311344C7F82431D7F81431FF
:104E00004FEAB312D7F814314FEAF3235A40D7F8D8
:104E100014314FEA73635A40D7F828311A44D7F84F
:104E20001011D7F82C315940D7F814311940D7F860
:104E30002C314B401A4407F59873A3F59473D3F8BB
:104E4000B0304FEA734107F59873A3F59473D3F824
:104E5000B0304FEAF343594007F59873A3F59473C4
:104E6000D3F8B0309B0A594007F59873A3F59473B3
:104E7000D3F89C30194407F59873A3F59473DB6F4E
:104E80004FEAF31007F59873A3F59473DB6F4FEABD
:104E9000B343584007F59873A3F59473DB6FDB08B1
:104EA0004340194407F59873A3F594739B6F194415
:104EB00007F59873A3F59473C3F8B81007F59873C2
:104EC000A3F59473D3F8B8301A44AE4B1344C7F823
:104ED0000C31D7F824314FEAB302D7F824314FEA26
:104EE00073335A40D7F824314FEAB3535A40D7F8B6
:104EF0002411D7F820311940D7F82401D7F82031F0
:104F00001843D7F81C3103400B431344C7F808314A
:104F1000D7F81821D7F80C311344C7F81831D7F84F
:104F20000C21D7F808311344C7F82831D7F81831C5
:104F30004FEAB312D7F818314FEAF3235A40D7F8A3
:104F400018314FEA73635A40D7F82C311A44D7F816
:104F50001411D7F810315940D7F818311940D7F843
:104F600010314B401A4407F59873A3F59473D3F8A6
:104F7000B4304FEA734107F59873A3F59473D3F8EF
:104F8000B4304FEAF343594007F59873A3F594738F
:104F9000D3F8B4309B0A594007F59873A3F594737E
:104FA000D3F8A030194407F59873A3F59473D3F898
:104FB00080304FEAF31007F59873A3F59473D3F894
:104FC00080304FEAB343584007F59873A3F59473C4
:104FD000D3F88030DB084340194407F59873A3F5F4
:104FE0009473DB6F194407F59873A3F59473C3F8B2
:104FF000BC1007F59873A3F59473D3F8BC301A442A
:10500000614B1344C7F80C31D7F828314FEAB3028B
:10501000D7F828314FEA73335A40D7F828314FEA8E
:10502000B3535A40D7F82811D7F824311940D7F88C
:105030002801D7F824311843D7F8203103400B4317
:105040001344C7F80831D7F81C21D7F80C311344A2
:10505000C7F81C31D7F80C21D7F808311344C7F82A
:105060002C31D7F81C314FEAB312D7F81C314FEA74
:10507000F3235A40D7F81C314FEA73635A40D7F8EC
:1050800010311A44D7F81811D7F814315940D7F80D
:105090001C311940D7F814314B401A4407F5987366
:1050A000A3F59473D3F8B8304FEA734107F59873BA
:1050B000A3F59473D3F8B8304FEAF343594007F59A
:1050C0009873A3F59473D3F8B8309B0A594007F549
:1050D0009873A3F59473D3F8A430194407F5987323
:1050E000A3F59473D3F884304FEAF31007F598735F
:1050F000A3F59473D3F884304FEAB343584007F5CF
:105100009873A3F59473D3F88430DB0843401944B3
:1051100007F59873A3F59473D3F88030194407F515
:105120009873A3F59473C3F8C01007F59873A3F5AB
:105130009473D3F8C0301A44144B1344C7F80C319D
:10514000D7F82C314FEAB302D7F82C314FEA73333A
:105150005A40D7F82C314FEAB3535A40D7F82C11A4
:10516000D7F828311940D7F82C01D7F8283118433F
:10517000D7F8243103400B431344C7F8083107E044
:10518000240699D685350EF470A06A1016C1A419AC
:10519000D7F82021D7F80C311344C7F82031D7F8BD
:1051A0000C21D7F808311344C7F81031D7F8203153
:1051B0004FEAB312D7F820314FEAF3235A40D7F819
:1051C00020314FEA73635A40D7F814311A44D7F8A4
:1051D0001C11D7F818315940D7F820311940D7F8A9
:1051E00018314B401A4407F59873A3F59473D3F81C
:1051F000BC304FEA734107F59873A3F59473D3F865
:10520000BC304FEAF343594007F59873A3F5947304
:10521000D3F8BC309B0A594007F59873A3F59473F3
:10522000D3F8A830194407F59873A3F59473D3F80D
:1052300088304FEAF31007F59873A3F59473D3F809
:1052400088304FEAB343584007F59873A3F5947339
:10525000D3F88830DB084340194407F59873A3F569
:105260009473D3F88430194407F59873A3F59473B5
:10527000C3F8C41007F59873A3F59473D3F8C4303A
:105280001A44FC4B1344C7F80C31D7F810314FEADD
:10529000B302D7F810314FEA73335A40D7F81031C0
:1052A0004FEAB3535A40D7F81011D7F82C311940B0
:1052B000D7F81001D7F82C311843D7F8283103401C
:1052C0000B431344C7F80831D7F82421D7F80C3121
:1052D0001344C7F82431D7F80C21D7F80831134408
:1052E000C7F81431D7F824314FEAB312D7F8243174
:1052F0004FEAF3235A40D7F824314FEA73635A40F8
:10530000D7F818311A44D7F82011D7F81C31594072
:10531000D7F824311940D7F81C314B401A4407F50F
:105320009873A3F59473D3F8C0304FEA734107F52F
:105330009873A3F59473D3F8C0304FEAF343594000
:1053400007F59873A3F59473D3F8C0309B0A5940BE
:1053500007F59873A3F59473D3F8AC30194407F5A7
:105360009873A3F59473D3F88C304FEAF31007F5D4
:105370009873A3F59473D3F88C304FEAB343584035
:1053800007F59873A3F59473D3F88C30DB0843408A
:10539000194407F59873A3F59473D3F8883019442A
:1053A00007F59873A3F59473C3F8C81007F59873BD
:1053B000A3F59473D3F8C8301A44AF4B1344C7F81D
:1053C0000C31D7F814314FEAB302D7F814314FEA51
:1053D00073335A40D7F814314FEAB3535A40D7F8D1
:1053E0001411D7F810311940D7F81401D7F810313B
:1053F0001843D7F82C3103400B431344C7F8083146
:10540000D7F82821D7F80C311344C7F82831D7F83A
:105410000C21D7F808311344C7F81831D7F82831D0
:105420004FEAB312D7F828314FEAF3235A40D7F89E
:1054300028314FEA73635A40D7F81C311A44D7F821
:105440002411D7F820315940D7F828311940D7F81E
:1054500020314B401A4407F59873A3F59473D3F8A1
:10546000C4304FEA734107F59873A3F59473D3F8EA
:10547000C4304FEAF343594007F59873A3F594738A
:10548000D3F8C4309B0A594007F59873A3F5947379
:10549000D3F8B030194407F59873A3F59473D3F893
:1054A00090304FEAF31007F59873A3F59473D3F88F
:1054B00090304FEAB343584007F59873A3F59473BF
:1054C000D3F89030DB084340194407F59873A3F5EF
:1054D0009473D3F88C30194407F59873A3F594733B
:1054E000C3F8CC1007F59873A3F59473D3F8CC30B8
:1054F0001A44624B1344C7F80C31D7F818314FEAFD
:10550000B302D7F818314FEA73335A40D7F818313D
:105510004FEAB3535A40D7F81811D7F8143119404D
:10552000D7F81801D7F814311843D7F810310340D1
:105530000B431344C7F80831D7F82C21D7F80C31A6
:105540001344C7F82C31D7F80C21D7F8083113448D
:10555000C7F81C31D7F82C314FEAB312D7F82C31E9
:105560004FEAF3235A40D7F82C314FEA73635A407D
:10557000D7F820311A44D7F82811D7F824315940E8
:10558000D7F82C311940D7F824314B401A4407F58D
:105590009873A3F59473D3F8C8304FEA734107F5B5
:1055A0009873A3F59473D3F8C8304FEAF343594086
:1055B00007F59873A3F59473D3F8C8309B0A594044
:1055C00007F59873A3F59473D3F8B430194407F52D
:1055D0009873A3F59473D3F894304FEAF31007F55A
:1055E0009873A3F59473D3F894304FEAB3435840BB
:1055F00007F59873A3F59473D3F89430DB08434010
:10560000194407F59873A3F59473D3F890301944AF
:1056100007F59873A3F59473C3F8D01007F5987342
:10562000A3F59473D3F8D0301A44154B1344C7F83C
:105630000C31D7F81C314FEAB302D7F81C314FEACE
:1056400073335A40D7F81C314FEAB3535A40D7F856
:105650001C11D7F818311940D7F81C01D7F81831A8
:105660001843D7F8143103400B431344C7F80831EB
:1056700008E000BF086C371E4C774827B5BCB03433
:10568000B30C1C39D7F81021D7F80C311344C7F8E4
:105690001031D7F80C21D7F808311344C7F820315E
:1056A000D7F810314FEAB312D7F810314FEAF3238D
:1056B0005A40D7F810314FEA73635A40D7F8243173
:1056C0001A44D7F82C11D7F828315940D7F810319F
:1056D0001940D7F828314B401A4407F59873A3F5C1
:1056E0009473D3F8CC304FEA734107F59873A3F560
:1056F0009473D3F8CC304FEAF343594007F59873CD
:10570000A3F59473D3F8CC309B0A594007F59873EE
:10571000A3F59473D3F8B830194407F59873A3F53B
:105720009473D3F898304FEAF31007F59873A3F504
:105730009473D3F898304FEAB343584007F5987301
:10574000A3F59473D3F89830DB084340194407F568
:105750009873A3F59473D3F89430194407F59873AC
:10576000A3F59473C3F8D41007F59873A3F5947355
:10577000D3F8D4301A44FC4B1344C7F80C31D7F893
:1057800020314FEAB302D7F820314FEA73335A4041
:10579000D7F820314FEAB3535A40D7F82011D7F841
:1057A0001C311940D7F82001D7F81C311843D7F81D
:1057B000183103400B431344C7F80831D7F81421BC
:1057C000D7F80C311344C7F81431D7F80C21D7F8A7
:1057D00008311344C7F82431D7F814314FEAB31213
:1057E000D7F814314FEAF3235A40D7F814314FEA6F
:1057F00073635A40D7F828311A44D7F81011D7F8F4
:105800002C315940D7F814311940D7F82C314B407E
:105810001A4407F59873A3F59473D3F8D0304FEA80
:10582000734107F59873A3F59473D3F8D0304FEA1A
:10583000F343594007F59873A3F59473D3F8D03028
:105840009B0A594007F59873A3F59473D3F8BC30BD
:10585000194407F59873A3F59473D3F89C304FEA75
:10586000F31007F59873A3F59473D3F89C304FEABF
:10587000B343584007F59873A3F59473D3F89C305D
:10588000DB084340194407F59873A3F59473D3F8E4
:105890009830194407F59873A3F59473C3F8D8109A
:1058A00007F59873A3F59473D3F8D8301A44AF4B27
:1058B0001344C7F80C31D7F824314FEAB302D7F8B4
:1058C00024314FEA73335A40D7F824314FEAB353A7
:1058D0005A40D7F82411D7F820311940D7F82401BD
:1058E000D7F820311843D7F81C3103400B43134439
:1058F000C7F80831D7F81821D7F80C311344C7F886
:105900001831D7F80C21D7F808311344C7F82831DB
:10591000D7F818314FEAB312D7F818314FEAF3230A
:105920005A40D7F818314FEA73635A40D7F82C31F0
:105930001A44D7F81411D7F810315940D7F8183154
:105940001940D7F810314B401A4407F59873A3F566
:105950009473D3F8D4304FEA734107F59873A3F5E5
:105960009473D3F8D4304FEAF343594007F5987352
:10597000A3F59473D3F8D4309B0A594007F5987374
:10598000A3F59473D3F8C030194407F59873A3F5C1
:105990009473D3F8A0304FEAF31007F59873A3F58A
:1059A0009473D3F8A0304FEAB343584007F5987387
:1059B000A3F59473D3F8A030DB084340194407F5EE
:1059C0009873A3F59473D3F89C30194407F5987332
:1059D000A3F59473C3F8DC1007F59873A3F59473DB
:1059E000D3F8DC301A44624B1344C7F80C31D7F8B3
:1059F00028314FEAB302D7F828314FEA73335A40BF
:105A0000D7F828314FEAB3535A40D7F82811D7F8BE
:105A100024311940D7F82801D7F824311843D7F892
:105A2000203103400B431344C7F80831D7F81C2139
:105A3000D7F80C311344C7F81C31D7F80C21D7F82C
:105A400008311344C7F82C31D7F81C314FEAB31290
:105A5000D7F81C314FEAF3235A40D7F81C314FEAEC
:105A600073635A40D7F810311A44D7F81811D7F891
:105A700014315940D7F81C311940D7F814314B4034
:105A80001A4407F59873A3F59473D3F8D8304FEA06
:105A9000734107F59873A3F59473D3F8D8304FEAA0
:105AA000F343594007F59873A3F59473D3F8D830AE
:105AB0009B0A594007F59873A3F59473D3F8C43043
:105AC000194407F59873A3F59473D3F8A4304FEAFB
:105AD000F31007F59873A3F59473D3F8A4304FEA45
