:020000040800F2
:1000000000500020F1670008ED650008F365000866
:10001000F9650008FF65000805660008000000009B
:100020000000000000000000000000000B66000857
:100030001766000800000000236600082F6600080D
:10004000396800083968000839680008396800080C
:1000500039680008396800083968000839680008FC
:1000600039680008396800083968000839680008EC
:1000700039680008396800083968000839680008DC
:1000800039680008396800083968000839680008CC
:1000900039680008396800083968000839680008BC
:1000A00039680008396800083968000839680008AC
:1000B000396800083968000839680008396800089C
:1000C000396800083968000839680008396800088C
:1000D000396800083D660008516600083968000864
:1000E0003968000839680008396800080000000015
:1000F0000000000000000000000000000000000000
:0C01000000000000000000005FF808F1A3
:1001100010B5054C237833B9044B13B10448AFF341
:1001200000800123237010BD600400200000000047
:10013000A8CE000808B5034B1BB103490348AFF331
:10014000008008BD0000000064040020A8CE000864
:10015000034613F8012B002AFBD1181A0138704707
:1001600081F0004102E000BF83F0004330B54FEA68
:1001700041044FEA430594EA050F08BF90EA020FD5
:100180001FBF54EA000C55EA020C7FEA645C7FEA68
:10019000655C00F0E2804FEA5454D4EB5555B8BF8B
:1001A0006D420CDD2C4480EA020281EA030382EAFC
:1001B000000083EA010180EA020281EA0303362D8E
:1001C00088BF30BD11F0004F4FEA01314FF4801C61
:1001D0004CEA113102D0404261EB410113F0004F73
:1001E0004FEA03334CEA133302D0524263EB43032A
:1001F00094EA050F00F0A780A4F10104D5F1200EC8
:100200000DDB02FA0EFC22FA05F2801841F1000122
:1002100003FA0EF2801843FA05F359410EE0A5F1F6
:1002200020050EF1200E012A03FA0EFC28BF4CF027
:10023000020C43FA05F3C01851EBE37101F00045DD
:1002400007D54FF0000EDCF1000C7EEB00006EEBEA
:100250000101B1F5801F1BD3B1F5001F0CD3490874
:100260005FEA30004FEA3C0C04F101044FEA4452CB
:1002700012F5800F80F09A80BCF1004F08BF5FEA52
:10028000500C50F1000041EB045141EA050130BD32
:100290005FEA4C0C404141EB0101013C28BFB1F544
:1002A000801FE9D291F0000F04BF01460020B1FA8F
:1002B00081F308BF2033A3F10B03B3F120020CDA62
:1002C0000C3208DD02F1140CC2F10C0201FA0CF040
:1002D00021FA02F10CE002F11402D8BFC2F1200CA5
:1002E00001FA02F120FA0CFCDCBF41EA0C0190405B
:1002F000E41AA2BF01EB0451294330BD6FEA0404A4
:100300001F3C1CDA0C340EDC04F11404C4F120028E
:1003100020FA04F001FA02F340EA030021FA04F3A0
:1003200045EA030130BDC4F10C04C4F1200220FAF7
:1003300002F001FA04F340EA0300294630BD21FA35
:1003400004F0294630BD94F0000F83F4801306BFFB
:1003500081F480110134013D4EE77FEA645C18BFEF
:100360007FEA655C29D094EA050F08BF90EA020F86
:1003700005D054EA000C04BF1946104630BD91EA7E
:10038000030F1EBF0021002030BD5FEA545C05D181
:100390004000494128BF41F0004130BD14F58004C0
:1003A0003CBF01F5801130BD01F0004545F0FE4134
:1003B00041F470014FF0000030BD7FEA645C1ABF69
:1003C000194610467FEA655C1CBF0B46024650EAA0
:1003D000013406BF52EA033591EA030F41F40021CC
:1003E00030BD00BF90F0000F04BF0021704730B552
:1003F0004FF4806404F132044FF000054FF0000127
:1004000050E700BF90F0000F04BF0021704730B5E7
:100410004FF4806404F1320410F0004548BF4042BC
:100420004FF000013EE700BF42004FEAE2014FEA11
:1004300031014FEA02701FBF12F07F4393F07F4FEC
:1004400081F06051704732F07F4208BF704793F0EF
:100450007F4F04BF41F40021704730B54FF4607402
:1004600001F0004521F000411CE700BF50EA010205
:1004700008BF704730B54FF000050AE050EA0102AE
:1004800008BF704730B511F0004502D5404261EB1E
:1004900041014FF4806404F132045FEA915C3FF45F
:1004A000D8AE4FF003025FEADC0C18BF03325FEAFC
:1004B000DC0C18BF033202EBDC02C2F1200300FAAD
:1004C00003FC20FA02F001FA03FE40EA0E0021FAD2
:1004D00002F11444BDE600BF70B54FF0FF0C4CF4C0
:1004E000E06C1CEA11541DBF1CEA135594EA0C0F72
:1004F00095EA0C0F00F0DEF82C4481EA030621EAAD
:100500004C5123EA4C5350EA013518BF52EA0335E7
:1005100041F4801143F4801338D0A0FB02CE4FF099
:100520000005E1FB02E506F00042E0FB03E54FF0C9
:100530000006E1FB03569CF0000F18BF4EF0010EC1
:10054000A4F1FF04B6F5007F64F5407404D25FEABD
:100550004E0E6D4146EB060642EAC62141EA555170
:100560004FEAC52040EA5E504FEACE2EB4F1FD0CB2
:1005700088BFBCF5E06F1ED8BEF1004F08BF5FEA30
:10058000500E50F1000041EB045170BD06F00046E2
:1005900046EA010140EA020081EA0301B4EB5C048F
:1005A000C2BFD4EB0C0541EA045170BD41F4801187
:1005B0004FF0000E013C00F3AB8014F1360FDEBFAC
:1005C000002001F0004170BDC4F10004203C35DA88
:1005D0000C341BDC04F11404C4F1200500FA05F30B
:1005E00020FA04F001FA05F240EA020001F00042AC
:1005F00021F0004110EBD37021FA04F642EB060122
:100600005EEA430E08BF20EAD37070BDC4F10C044B
:10061000C4F1200500FA04F320FA05F001FA04F20F
:1006200040EA020001F0004110EBD37041F10001FB
:100630005EEA430E08BF20EAD37070BDC4F1200506
:1006400000FA05F24EEA020E20FA04F301FA05F26E
:1006500043EA020321FA04F001F0004121FA04F216
:1006600020EA020000EBD3705EEA430E08BF20EAE6
:10067000D37070BD94F0000F0FD101F00046400020
:1006800041EB010111F4801F08BF013CF7D041EAA2
:10069000060195F0000F18BF704703F000465200A6
:1006A00043EB030313F4801F08BF013DF7D043EA77
:1006B0000603704794EA0C0F0CEA135518BF95EA2D
:1006C0000C0F0CD050EA410618BF52EA4306D1D1B4
:1006D00081EA030101F000414FF0000070BD50EAD3
:1006E000410606BF1046194652EA430619D094EA5D
:1006F0000C0F02D150EA013613D195EA0C0F05D147
:1007000052EA03361CBF104619460AD181EA03019A
:1007100001F0004141F0FE4141F470014FF0000052
:1007200070BD41F0FE4141F4780170BD70B54FF0ED
:10073000FF0C4CF4E06C1CEA11541DBF1CEA13556D
:1007400094EA0C0F95EA0C0F00F0A7F8A4EB05044F
:1007500081EA030E52EA03354FEA013100F0888046
:100760004FEA03334FF0805545EA131343EA12630F
:100770004FEA022245EA111545EA10654FEA0026C4
:100780000EF000419D4208BF964244F1FD0404F57D
:10079000407402D25B084FEA3202B61A65EB0305D9
:1007A0005B084FEA32024FF480104FF4002CB6EB96
:1007B000020E75EB030E22BFB61A754640EA0C0016
:1007C0005B084FEA3202B6EB020E75EB030E22BF56
:1007D000B61A754640EA5C005B084FEA3202B6EB97
:1007E000020E75EB030E22BFB61A754640EA9C0056
:1007F0005B084FEA3202B6EB020E75EB030E22BF26
:10080000B61A754640EADC0055EA060E18D04FEAE3
:10081000051545EA16754FEA06164FEAC30343EA83
:1008200052734FEAC2025FEA1C1CC0D111F4801F50
:100830000BD141EA00014FF000004FF0004CB6E749
:1008400011F4801F04BF01430020B4F1FD0C88BFE8
:10085000BCF5E06F3FF6AFAEB5EB030C04BFB6EBF3
:10086000020C5FEA500C50F1000041EB045170BDE6
:100870000EF0004E4EEA113114EB5C04C2BFD4EB13
:100880000C0541EA045170BD41F480114FF0000E97
:10089000013C90E645EA060E8DE60CEA135594EA13
:1008A0000C0F08BF95EA0C0F3FF43BAF94EA0C0F16
:1008B0000AD150EA01347FF434AF95EA0C0F7FF48B
:1008C00025AF104619462CE795EA0C0F06D152EADF
:1008D00003353FF4FDAE1046194622E750EA4106C3
:1008E00018BF52EA43067FF4C5AE50EA41047FF4D4
:1008F0000DAF52EA43057FF4EBAE12E74FF0FF3C39
:1009000006E000BF4FF0010C02E000BF4FF0010C09
:100910004DF804CD4FEA410C7FEA6C5C4FEA430C82
:1009200018BF7FEA6C5C1BD001B050EA410C0CBFD1
:1009300052EA430C91EA030F02BF90EA020F002033
:10094000704710F1000F91EA030F58BF994208BF9A
:1009500090422CBFD8176FEAE37040F00100704757
:100960004FEA410C7FEA6C5C02D150EA013C07D1AE
:100970004FEA430C7FEA6C5CD6D152EA033CD3D0F9
:100980005DF8040B704700BF8446104662468C46F3
:100990001946634600E000BF01B5FFF7B7FF002826
:1009A00048BF10F1000F01BD4DF808EDFFF7F4FF4F
:1009B0000CBF012000205DF808FB00BF4DF808EDDA
:1009C000FFF7EAFF34BF012000205DF808FB00BFFD
:1009D0004DF808EDFFF7E0FF94BF012000205DF81F
:1009E00008FB00BF4DF808EDFFF7CEFF94BF0120D4
:1009F00000205DF808FB00BF4DF808EDFFF7C4FFCD
:100A000034BF012000205DF808FB00BF4FEA410C15
:100A10007FEA6C5C02D150EA013C0AD14FEA430CF8
:100A20007FEA6C5C02D152EA033C02D14FF0000035
:100A300070474FF0010070474FEA410212F5001273
:100A400015D211D56FF47873B3EB625212D94FEA15
:100A5000C12343F0004343EA505311F0004F23FAFF
:100A600002F018BF404270474FF00000704750EA54
:100A7000013005D111F0004008BF6FF00040704711
:100A80004FF00000704700BF4A0011D212F500126B
:100A900011D20DD56FF47873B3EB62520ED44FEAD6
:100AA000C12343F0004343EA505323FA02F0704756
:100AB0004FF00000704750EA013002D14FF0FF3094
:100AC00070474FF0000070474FEA4102B2F1E04337
:100AD00024BFB3F5001CDCF1FE5C0DD901F0004C25
:100AE0004FEAC0024CEA5070B2F1004F40EB830075
:100AF00008BF20F00100704711F0804F21D113F1A1
:100B00003872BCBF01F00040704741F480114FEAD9
:100B10005252C2F11802C2F1200C10FA0CF320FA62
:100B200002F018BF40F001004FEAC1234FEAD3237F
:100B300003FA0CFC40EA0C0023FA02F34FEA4303E9
:100B4000CCE77FEA625307D150EA01331EBF4FF072
:100B5000FE4040F44000704701F0004040F0FE408D
:100B600040F40000704700BF38B505460C4600222F
:100B7000002328462146FFF721FF28B928462146B1
:100B8000BDE8384000F00AB8284604F1004100F002
:100B900005F8404261EB410138BD00BFD0B50022ED
:100BA0000B4B06460F46FFF797FCFFF76DFF044619
:100BB000FFF718FC0022074BFFF78EFC02460B469E
:100BC00030463946FFF7D0FAFFF75EFF2146D0BD29
:100BD0000000F03D0000F04180B5B0B000AF78609B
:100BE0003960B54B02221A6000F0A6FB00F044FA0F
:100BF0003B68022B19D03B68022B1EDC3B68002BA4
:100C000003D03B68012B08D017E000F035FAAB4A5F
:100C10000021002000F03EFB1FE000F02DFAA84A62
:100C20000021002000F036FB17E000F025FAA54A6D
:100C30000021002000F02EFB0FE000F01DFAA24B77
:100C4000C7F8B030D7F8B0200021002000F022FB18
:100C50004FF47A7005F054FE00BF4FF47A7005F03F
:100C60004FFE0023C7F8BC300023C7F8B83000237C
:100C7000C7F8B43000F000FA0F229449944806F007
:100C8000C9FE642005F03CFE7868FFF761FA034670
:100C90009BB21A4679688E4806F0BCFE02228D4946
:100CA0008B4806F0B7FE3B68022B00F027813B68BB
:100CB000022B00F371813B68002B04D03B68012BB1
:100CC00000F0928068E100F037FB00F0D5F9824A2D
:100CD0000021002000F0DEFA07F12C03184600F096
:100CE0004FFF7868FFF734FA024607F12C03796862
:100CF000184605F0CFFA07F10C0207F12C03114654
:100D0000184605F02FFB4FF47A7005F0F9FD00F05E
:100D100013FB724A0021002000F0BCFA182270492F
:100D20006B4806F077FE4FF4FA7005F0E9FD00F02D
:100D300003FB45E0D7F8B430102B10D14FF4FA6024
:100D400005F0DEFD00F0F8FA0023C7F8B830002304
:100D5000C7F8BC3002225F495D4806F05BFE07F130
:100D60000C02D7F8B43013441B781A465D49D7F803
:100D7000A80008F0F7FBD7F8B830102B05D10023F6
:100D8000C7F8B8300123C7F8BC30D7F8BC305BB225
:100D9000D7F8B82051B2D7F8A820184600F07AFA50
:100DA0000222D7F8A8104A4806F034FED7F8B4302B
:100DB0000133C7F8B430D7F8B8300233C7F8B830C9
:100DC000D7F8B4301F2BB5DD4FF47A7005F098FDDD
:100DD00000F0B2FA444A0021002000F05BFA4FF420
:100DE0007A7005F08DFDE7E000F0A6FA00F044F916
:100DF0003E4A0021002000F04DFA07F19403194605
:100E0000786800F097FE4FF47A7005F079FD00F0F5
:100E100093FA374A0021002000F03CFA14223549A9
:100E20002B4806F0F7FD4FF4FA7005F069FD00F06D
:100E300083FA30E007F19402D7F8B43013441B78FA
:100E40001A462849D7F8A80008F08CFBD7F8B83024
:100E5000102B05D10023C7F8B8300123C7F8BC30E8
:100E6000D7F8BC305BB2D7F8B82051B2D7F8A82079
:100E7000184600F00FFA0222D7F8A810144806F01E
:100E8000C9FDD7F8B4300133C7F8B430D7F8B8305B
:100E90000233C7F8B830D7F8B4300F2BCADD4FF49F
:100EA0007A7005F02DFD00F047FA134A002100206A
:100EB00000F0F0F980E000BF0C050020C0CE000873
:100EC000D4CE0008E4CE0008F4CE000810CF00080D
:100ED000C404002024CF000828CF000838CF000821
:100EE0004CCF000864CF00086CCF00087CCF00080E
:100EF0008CCF00089CCF0008B0CF000800F01CFA8F
:100F000000F0BAF8354A0021002000F0C3F97868F3
:100F1000FFF71EF903469BB21946786800F070F897
:100F20000346C7F8AC304FF47A7005F0E9FC00F0E6
:100F300003FA2B4A0021002000F0ACF917222949BE
:100F4000294806F067FD4FF4FA7005F0D9FCD7F890
:100F5000AC202649D7F8A80008F004FB4FF47A70BB
:100F600005F0CEFC00F0E8F9D7F8A8200021002019
:100F700000F090F90422D7F8A8101B4806F04AFDAB
:100F80004FF47A7005F0BCFC00F0D6F9184A002145
:100F9000002000F07FF90FE000F06EF8154BC7F865
:100FA000A430D7F8A4200021002000F073F94FF4FA
:100FB0007A7005F0A5FC00BF04220F490A4806F02C
:100FC00029FD4FF47A7005F09BFC0C4B00221A604F
:100FD00000F0B2F900BFC037BD4680BDC0CF0008E9
:100FE000D0CF0008E4CF0008C4040020FCCF0008E4
:100FF00000D0000810D0000834D000080C050020F4
:1010000080B485B000AF78600B467B804FF6FF73ED
:10101000FB8125E07B685A1C7A601B781B021AB2A0
:10102000B7F90E3053401BB2FB8100237B7314E0F1
:10103000B7F90E30002B09DAFB895B001BB283F491
:10104000815383F001031BB29BB202E0FB895B007A
:101050009BB2FB817B7B01337B737B7B072BE7D9C7
:101060007B885A1E7A80002BD4D1FB89184614370E
:10107000BD4680BC7047000080B500AF1E2005F063
:101080003FFC00224FF400511C4805F0B8FF01223C
:101090004FF48051194805F0B2FF00224FF400616F
:1010A000164805F0ACFF00224FF48061134805F0AC
:1010B000A6FF00224FF40041104805F0A0FF0122D6
:1010C0004FF480410D4805F09AFF00224FF4804113
:1010D0000A4805F094FF2821002000F011F80C21A7
:1010E000002000F00DF80621002000F009F8012191
:1010F000002000F005F800BF80BD00BF000C0140DB
:1011000080B582B000AF03460A46FB711346BB713F
:10111000022005F0F5FB97F90730002B06D00122DD
:101120004FF400415A4805F06AFF05E000224FF4F1
:101130000041574805F063FF97F90630002B06DAA7
:1011400001224FF48061524805F059FF05E000226A
:101150004FF480614E4805F052FFBB7903F0400325
:10116000002B06D001224FF40061494805F047FFEB
:1011700005E000224FF40061454805F040FFBB79CF
:1011800003F02003002B06D001224FF48051404889
:1011900005F035FF05E000224FF480513C4805F092
:1011A0002EFFBB7903F01003002B06D001224FF471
:1011B0000051374805F023FF05E000224FF40051AD
:1011C000334805F01CFF01224FF48041304805F000
:1011D00016FF00224FF480412D4805F010FFBB7927
:1011E00003F00803002B06D001224FF48061284849
:1011F00005F005FF05E000224FF48061244805F06A
:10120000FEFEBB7903F00403002B06D001224FF44D
:1012100000611F4805F0F3FE05E000224FF4006175
:101220001B4805F0ECFEBB7903F00203002B06D04F
:1012300001224FF48051164805F0E1FE05E000223E
:101240004FF48051124805F0DAFEBB7903F0010338
:10125000002B06D001224FF400510D4805F0CFFEBF
:1012600005E000224FF40051094805F0C8FE0122B4
:101270004FF48041064805F0C2FE00224FF4804141
:10128000034805F0BCFE00BF0837BD4680BD00BF67
:10129000000C014080B582B000AF03463A60FB719C
:1012A0000B46BB7197F90730032B3AD801A252F8CD
:1012B00023F000BFC5120008D7120008E912000889
:1012C000FB120008BB79803BDBB25BB21946002001
:1012D000FFF716FF1AE0BB79403BDBB25BB2194661
:1012E0000020FFF70DFF11E0BB79703BDBB25BB272
:1012F00019460020FFF704FF08E0BB79303BDBB262
:101300005BB219460020FFF7FBFE00BF09E03B6817
:1013100093F9003019460120FFF7F2FE3B680133D4
:101320003B603B6893F90030002BF0D100BF00BF59
:101330000837BD4680BD00BF80B500AF0121002049
:10134000FFF7DEFE00BF80BD80B483B000AF7860E1
:101350007B68022B0DD07B68022B0CDC7B68002B9A
:1013600003D07B68012B02D005E0064B04E0064B5E
:1013700002E0064B00E0064B18460C37BD4680BC29
:10138000704700BF3CD0000844D0000848D0000897
:1013900050D0000880B584B000AF05F04FFA00F0DF
:1013A000CBF800F059F900F02DF900F001F94FF4F5
:1013B0007A7005F0A5FA0023FB600023BB600123CF
:1013C0007B60FFF759FE564B1B68002B41D17B68B1
:1013D000012B0DD1534A00210020FFF75BFF0023B2
:1013E0007B6001214FF47A7007F0F6F80346FB604A
:1013F0004FF480414C4805F0EBFD0346002B02D032
:10140000012B08D00DE040F6B8334FF47A72F9683A
:10141000464806F06DFA4FF47A72F968444806F0CF
:101420002EFBFB68002BCED0FB681B78002BCAD0AC
:10143000FFF782FFFA6800210020FFF72BFF4FF42F
:101440007A7005F05DFAFFF777FF354B01221A60DD
:10145000B9E7334B1B68012B53D18021324805F08B
:10146000B7FD0346012B0BD1BB68012B03DCBB6826
:101470000133BB6001E00023BB60FFF75DFF2EE09E
:101480004021294805F0A4FD0346012B0BD1BB6880
:10149000002B03DDBB68013BBB6001E00223BB60A6
:1014A000FFF74AFF1BE020211F4805F091FD03468E
:1014B000012B14D1FFF740FFB868FFF745FF3860F4
:1014C0003A6800210020FFF7E5FEFFF735FFB96815
:1014D000F868FFF781FB01237B600023FB60104B62
:1014E0001B68002B3FF46FAFB868FFF72DFF386023
:1014F0003A6800210020FFF7CDFEC82005F000FA71
:1015000061E7074B1B68022B3FF45DAFFFF714FF49
:10151000FFF7B2FD074A00210020FFF7BBFE52E7AC
:101520000C05002064D0000800080140C40400201D
:101530007C04002070D0000880B590B000AF07F1A7
:10154000180328220021184607F092F83B1D0022BC
:101550001A605A609A60DA601A610223BB61012343
:10156000BB621023FB6200237B6307F1180318465C
:1015700005F05EFD0346002B01D000F0C3F80F23F9
:101580007B600023BB600023FB6000233B610023E2
:101590007B613B1D0021184605F0CCFF0346002B64
:1015A00001D000F0AFF800BF4037BD4680BD00005D
:1015B00080B500AF114B124A1A60104B4FF4E13264
:1015C0005A600E4B00229A600C4B0022DA600B4BE3
:1015D00000221A61094B0C225A61084B00229A61C1
:1015E000064B0022DA61054806F032F90346002B6B
:1015F00001D000F087F800BF80BD00BF7C04002050
:101600000038014080B500AF114B124A1A60104BF0
:101610004FF4E1325A600E4B00229A600C4B0022CC
:10162000DA600B4B00221A61094B0C225A61084BFD
:1016300000229A61064B0022DA61054806F008F99B
:101640000346002B01D000F05DF800BF80BD00BF55
:10165000C40400200044004080B586B000AF07F10C
:10166000080300221A605A609A60DA60224B9B6974
:10167000214A43F0040393611F4B9B6903F0040369
:101680007B607B681C4B9B691B4A43F0080393619A
:10169000194B9B6903F008033B603B6800224FF441
:1016A0007C41164805F0ABFC00224FF48041144801
:1016B00005F0A5FC4FF47C43BB600123FB600023D5
:1016C0003B6102237B6107F1080319460B4805F0D3
:1016D000FBFA4FF48043BB600123FB6000233B61B6
:1016E00002237B6107F108031946054805F0ECFA6F
:1016F00000BF1837BD4680BD00100240000C0140FD
:101700000008014080B400AF72B600BFFEE780B4AD
:1017100083B000AF786039607A683B68C3F120031A
:1017200062FA03F318460C37BD4680BC70470000D0
:1017300080B483B000AF786079684FF000024FF05A
:101740000003C1E900237B68074A9A607B68074A67
:10175000DA607B68064A1A617B68064A5A6100BFF4
:101760000C37BD4680BC70470123456789ABCDEF80
:10177000FEDCBA98765432102DE9B04398B000AF31
:10178000F860B9607A60FB68D3E90023134603F080
:101790003F03FB65FB68D3E90023796800200C4612
:1017A000054612EB040843EB0509FB68C3E9008911
:1017B0000023BB6548E0BA68BB6D1A44FB6D591C39
:1017C000F9651178FA6813440A461A76FB6D03F03E
:1017D0003F03002B35D100237B6525E07B6D9B000B
:1017E0000333FA6813441B7E1A067B6D9B00023399
:1017F000F9680B441B7E1B041A437B6D9B0001336D
:10180000F9680B441B7E1B0213437A6D9200F96842
:101810000A44127E1A437B6D9B0060333B4443F8BD
:101820004C2C7B6D01337B657B6D0F2BD6D9FB6810
:10183000083307F114021146184600F0D1F80023CE
:10184000FB65BB6D0133BB65BA6D7B689A42B2D351
:1018500000BF00BF6037BD46BDE8B0832DE9B0438F
:1018600096B000AF78607B68D3E90023134603F09D
:101870003F03FB64FB6C372B03D8FB6CC3F13803CD
:1018800002E0FB6CC3F17803BB64BA6C534978681F
:10189000FFF772FF7B68D3E90023B96C00200C4688
:1018A0000546B2EB040863EB05097B68C3E90089D0
:1018B00000237B6525E07B6D9B0003337A6813442E
:1018C0001B7E1A067B6D9B00023379680B441B7EDE
:1018D0001B041A437B6D9B00013379680B441B7E0C
:1018E0001B0213437A6D920079680A44127E1A43F0
:1018F0007B6D9B0058333B4443F8502C7B6D013388
:101900007B657B6D0D2BD6D97B68D3E9002313460D
:10191000DB003B647B68D3E900014FF000024FF02D
:101920000003CB0043EA5073C2004FF000004FF0B9
:1019300000011800002103467B647B68083307F12F
:1019400008021146184600F04BF800233B653CE0C6
:101950007B683A6D023253F822203B6D9B00D1B276
:101960007A6813440A4683F858207B683A6D02323D
:1019700053F822301A0A3B6D9B000133D1B27A68CA
:1019800013440A4683F858207B683A6D023253F8B4
:1019900022301A0C3B6D9B000233D1B27A6813449B
:1019A0000A4683F858207B683A6D023253F8223099
:1019B0001A0E3B6D9B000333D1B27A6813440A467A
:1019C00083F858203B6D01333B653B6D032BBFD93A
:1019D00000BF00BF5837BD46BDE8B08300020020FD
:1019E00080B58AB000AF786039607B681B687B6225
:1019F0007B685B683B627B689B68FB617B68DB683C
:101A0000BB610023FB606BE0FB681B09022B24D049
:101A1000022B31D8002B02D0012B0CD02CE03A6ADB
:101A2000FB691A403B6AD943BB690B4013437B6196
:101A3000FB683B612FE03A6ABB691A40BB69D94336
:101A4000FB690B4013437B61FA6813469B00134408
:101A5000013303F00F033B611DE03A6AFB69534019
:101A6000BA6953407B61FA6813465B00134405333F
:101A700003F00F033B610EE0BB69DA433B6A13439B
:101A8000FA6953407B61FA681346DB009B1A03F046
:101A90000F033B6100BFBB69BB60FB69BB613B6A75
:101AA000FB617A6A7B691A442049FB6851F823304C
:101AB0001A443B699B0039680B441B681A441C4953
:101AC000FB6851F8233019461046FFF720FE024606
:101AD0003B6A13443B62BB687B62FB680133FB607B
:101AE000FB683F2B90D97B681A687B6A1A447B6835
:101AF0001A607B68043319687B6804333A6A0A44C5
:101B00001A607B68083319687B680833FA690A44ED
:101B10001A607B680C3319687B680C33BA690A4415
:101B20001A6000BF2837BD4680BD00BF00010020FD
:101B300000000020B0B59CB000AF7860396007F1BC
:101B400008031846FFF7F4FD7868FEF701FB02462C
:101B500007F1080379681846FFF70EFE07F108033E
:101B60001846FFF77BFE3B681D4607F160040FCC6B
:101B700028606960AA60EB6000BF7037BD46B0BDE9
:101B800080B483B000AF78607B6800221A607B6805
:101B900000225A607B680E4A9A607B680D4ADA60C0
:101BA0007B680D4A1A617B680C4A5A617B680C4A53
:101BB0009A617B680B4ADA617B680B4A1A627B6820
:101BC0000A4A5A6200BF0C37BD4680BC704700BF4E
:101BD00067E6096A85AE67BB72F36E3C3AF54FA5BE
:101BE0007F520E518C68059BABD9831F19CDE05BEA
:101BF00080B5ADF50E7D00AF07F50E73A3F50D733F
:101C0000186007F50E73A3F50E7319600023C7F86B
:101C100034323FE0D7F834329B001A4607F50E7392
:101C2000A3F50E731B6813441B781A06D7F83432D9
:101C30009B00013307F50E71A1F50E7109680B4485
:101C40001B781B041A43D7F834329B00023307F584
:101C50000E71A1F50E7109680B441B781B0213432A
:101C6000D7F834229200033207F50E71A1F50E71F8
:101C700009680A44127843EA020107F50E73A3F5D6
:101C80009673D7F8342243F82210D7F83432013350
:101C9000C7F83432D7F834320F2BBBDD07F50E739B
:101CA000A3F50B73F04A184611464FF480731A4699
:101CB00006F0D0FC07F50E73A3F50D731B689B6847
:101CC000C7F8303207F50E73A3F50D731B68DB6898
:101CD000C7F82C3207F50E73A3F50D731B681B694B
:101CE000C7F8283207F50E73A3F50D731B685B69FF
:101CF000C7F8243207F50E73A3F50D731B689B69B3
:101D0000C7F8203207F50E73A3F50D731B68DB6966
:101D1000C7F81C3207F50E73A3F50D731B681B6A19
:101D2000C7F8183207F50E73A3F50D731B685B6ACD
:101D3000C7F81432D7F820324FEAB312D7F820325E
:101D40004FEAF3235A40D7F820324FEA73635A40E0
:101D5000D7F814321A44D7F81C12D7F81832594061
:101D6000D7F820321940D7F818324B401A4407F5FB
:101D70000E73A3F596731B681A44BC4B1344C7F843
:101D80001032D7F830324FEAB302D7F830324FEA88
:101D900073335A40D7F830324FEAB3535A40D7F82A
:101DA0003012D7F82C321940D7F83002D7F82C323D
:101DB0001843D7F8283203400B431344C7F80C32BA
:101DC000D7F82422D7F810321344C7F82432D7F8B2
:101DD0001022D7F80C321344C7F81432D7F8243243
:101DE0004FEAB312D7F824324FEAF3235A40D7F818
:101DF00024324FEA73635A40D7F818321A44D7F89E
:101E00002012D7F81C325940D7F824321940D7F89D
:101E10001C324B401A4407F50E73A3F596735B68AA
:101E20001A44934B1344C7F81032D7F814324FEAD0
:101E3000B302D7F814324FEA73335A40D7F814324A
:101E40004FEAB3535A40D7F81412D7F8303219403A
:101E5000D7F81402D7F830321843D7F82C320340A1
:101E60000B431344C7F80C32D7F82822D7F81032A6
:101E70001344C7F82832D7F81022D7F80C3213448D
:101E8000C7F81832D7F828324FEAB312D7F82832F9
:101E90004FEAF3235A40D7F828324FEA73635A4087
:101EA000D7F81C321A44D7F82412D7F820325940F8
:101EB000D7F828321940D7F820324B401A4407F59A
:101EC0000E73A3F596739B681A446A4B1344C7F8C4
:101ED0001032D7F818324FEAB302D7F818324FEA67
:101EE00073335A40D7F818324FEAB3535A40D7F8F1
:101EF0001812D7F814321940D7F81802D7F814324C
:101F00001843D7F8303203400B431344C7F80C3260
:101F1000D7F82C22D7F810321344C7F82C32D7F850
:101F20001022D7F80C321344C7F81C32D7F82C32E1
:101F30004FEAB312D7F82C324FEAF3235A40D7F8BE
:101F40002C324FEA73635A40D7F820321A44D7F83C
:101F50002812D7F824325940D7F82C321940D7F834
:101F600024324B401A4407F50E73A3F59673DB68D1
:101F70001A44414B1344C7F81032D7F81C324FEAC9
:101F8000B302D7F81C324FEA73335A40D7F81C32E9
:101F90004FEAB3535A40D7F81C12D7F818321940F9
:101FA000D7F81C02D7F818321843D7F81432034078
:101FB0000B431344C7F80C32D7F83022D7F810324D
:101FC0001344C7F83032D7F81022D7F80C32134434
:101FD000C7F82032D7F830324FEAB312D7F8303290
:101FE0004FEAF3235A40D7F830324FEA73635A402E
:101FF000D7F824321A44D7F82C12D7F8283259408F
:10200000D7F830321940D7F828324B401A4407F538
:102010000E73A3F596731B691A44184B1344C7F843
:102020001032D7F820324FEAB302D7F820324FEA05
:1020300073335A40D7F820324FEAB3535A40D7F897
:102040002012D7F81C321940D7F82002D7F81C32DA
:102050001843D7F8183203400B431344C7F80C3227
:10206000D7F814220CE000BF84D00008982F8A42D1
:1020700091443771CFFBC0B5A5DBB5E95BC25639DA
:10208000D7F810321344C7F81432D7F81022D7F813
:102090000C321344C7F82432D7F814324FEAB31283
:1020A000D7F814324FEAF3235A40D7F814324FEAE4
:1020B00073635A40D7F828321A44D7F83012D7F849
:1020C0002C325940D7F814321940D7F82C324B40F3
:1020D0001A4407F50E73A3F596735B691A44F94B1E
:1020E0001344C7F81032D7F824324FEAB302D7F8B6
:1020F00024324FEA73335A40D7F824324FEAB353AD
:102100005A40D7F82412D7F820321940D7F82402C1
:10211000D7F820321843D7F81C3203400B4313443E
:10212000C7F80C32D7F81822D7F810321344C7F882
:102130001832D7F81022D7F80C321344C7F82832D7
:10214000D7F818324FEAB312D7F818324FEAF32310
:102150005A40D7F818324FEA73635A40D7F82C32F6
:102160001A44D7F81412D7F830325940D7F8183239
:102170001940D7F830324B401A4407F50E73A3F5D7
:1021800096739B691A44D04B1344C7F81032D7F8A2
:1021900028324FEAB302D7F828324FEA73335A4055
:1021A000D7F828324FEAB3535A40D7F82812D7F855
:1021B00024321940D7F82802D7F824321843D7F828
:1021C000203203400B431344C7F80C32D7F81C22CB
:1021D000D7F810321344C7F81C32D7F81022D7F8BA
:1021E0000C321344C7F82C32D7F81C324FEAB31222
:1021F000D7F81C324FEAF3235A40D7F81C324FEA83
:1022000073635A40D7F830321A44D7F81812D7F807
:1022100014325940D7F81C321940D7F814324B40C9
:102220001A4407F50E73A3F59673DB691A44A74B9E
:102230001344C7F81032D7F82C324FEAB302D7F85C
:102240002C324FEA73335A40D7F82C324FEAB3534B
:102250005A40D7F82C12D7F828321940D7F82C0258
:10226000D7F828321843D7F8243203400B431344DD
:10227000C7F80C32D7F82022D7F810321344C7F829
:102280002032D7F81022D7F80C321344C7F8303276
:10229000D7F820324FEAB312D7F820324FEAF323AF
:1022A0005A40D7F820324FEA73635A40D7F81432B5
:1022B0001A44D7F81C12D7F818325940D7F82032F0
:1022C0001940D7F818324B401A4407F50E73A3F59E
:1022D00096731B6A1A447E4B1344C7F81032D7F822
:1022E00030324FEAB302D7F830324FEA73335A40F4
:1022F000D7F830324FEAB3535A40D7F83012D7F8F4
:102300002C321940D7F83002D7F82C321843D7F8BE
:10231000283203400B431344C7F80C32D7F8242269
:10232000D7F810321344C7F82432D7F81022D7F860
:102330000C321344C7F81432D7F824324FEAB312E0
:10234000D7F824324FEAF3235A40D7F824324FEA21
:1023500073635A40D7F818321A44D7F82012D7F8C6
:102360001C325940D7F824321940D7F81C324B4060
:102370001A4407F50E73A3F596735B6A1A44554B1E
:102380001344C7F81032D7F814324FEAB302D7F823
:1023900014324FEA73335A40D7F814324FEAB3532A
:1023A0005A40D7F81412D7F830321940D7F814022F
:1023B000D7F830321843D7F82C3203400B4313447C
:1023C000C7F80C32D7F82822D7F810321344C7F8D0
:1023D0002832D7F81022D7F80C321344C7F8183235
:1023E000D7F828324FEAB312D7F828324FEAF3234E
:1023F0005A40D7F828324FEA73635A40D7F81C3254
:102400001A44D7F82412D7F820325940D7F8283286
:102410001940D7F820324B401A4407F50E73A3F544
:1024200096739B6A1A442C4B1344C7F81032D7F8A2
:1024300018324FEAB302D7F818324FEA73335A40D2
:10244000D7F818324FEAB3535A40D7F81812D7F8D2
:1024500014321940D7F81802D7F814321843D7F8B5
:10246000303203400B431344C7F80C32D7F82C2208
:10247000D7F810321344C7F82C32D7F81022D7F807
:102480000C321344C7F81C32D7F82C324FEAB3127F
:10249000D7F82C324FEAF3235A40D7F82C324FEAC0
:1024A00073635A40D7F820321A44D7F82812D7F865
:1024B00024325940D7F82C321940D7F824324B40F7
:1024C0000CE000BFF111F159A4823F92D55E1CAB24
:1024D00098AA07D8015B8312BE8531241A4407F5F8
:1024E0000E73A3F59673DB6A1A44F44B1344C7F8D2
:1024F0001032D7F81C324FEAB302D7F81C324FEA39
:1025000073335A40D7F81C324FEAB3535A40D7F8C6
:102510001C12D7F818321940D7F81C02D7F8183215
:102520001843D7F8143203400B431344C7F80C3256
:10253000D7F83022D7F810321344C7F83032D7F822
:102540001022D7F80C321344C7F82032D7F83032B3
:102550004FEAB312D7F830324FEAF3235A40D7F894
:1025600030324FEA73635A40D7F824321A44D7F80E
:102570002C12D7F828325940D7F830321940D7F802
:1025800028324B401A4407F50E73A3F596731B6B64
:102590001A44CB4B1344C7F81032D7F820324FEA15
:1025A000B302D7F820324FEA73335A40D7F82032BB
:1025B0004FEAB3535A40D7F82012D7F81C321940CB
:1025C000D7F82002D7F81C321843D7F81832034046
:1025D0000B431344C7F80C32D7F81422D7F8103243
:1025E0001344C7F81432D7F81022D7F80C3213442A
:1025F000C7F82432D7F814324FEAB312D7F814329E
:102600004FEAF3235A40D7F814324FEA73635A4023
:10261000D7F828321A44D7F83012D7F82C3259405C
:10262000D7F814321940D7F82C324B401A4407F52A
:102630000E73A3F596735B6B1A44A24B1344C7F851
:102640001032D7F824324FEAB302D7F824324FEAD7
:1026500073335A40D7F824324FEAB3535A40D7F86D
:102660002412D7F820321940D7F82402D7F82032A4
:102670001843D7F81C3203400B431344C7F80C32FD
:10268000D7F81822D7F810321344C7F81832D7F801
:102690001022D7F80C321344C7F82832D7F8183272
:1026A0004FEAB312D7F818324FEAF3235A40D7F85B
:1026B00018324FEA73635A40D7F82C321A44D7F8CD
:1026C0001412D7F830325940D7F818321940D7F8D9
:1026D00030324B401A4407F50E73A3F596739B6B8B
:1026E0001A44794B1344C7F81032D7F828324FEA0E
:1026F000B302D7F828324FEA73335A40D7F828325A
:102700004FEAB3535A40D7F82812D7F82432194069
:10271000D7F82802D7F824321843D7F820320340DC
:102720000B431344C7F80C32D7F81C22D7F81032E9
:102730001344C7F81C32D7F81022D7F80C321344D0
:10274000C7F82C32D7F81C324FEAB312D7F81C3234
:102750004FEAF3235A40D7F81C324FEA73635A40CA
:10276000D7F830321A44D7F81812D7F81432594033
:10277000D7F81C321940D7F814324B401A4407F5E9
:102780000E73A3F59673DB6B1A44504B1344C7F8D2
:102790001032D7F82C324FEAB302D7F82C324FEA76
:1027A00073335A40D7F82C324FEAB3535A40D7F814
:1027B0002C12D7F828321940D7F82C02D7F8283233
:1027C0001843D7F8243203400B431344C7F80C32A4
:1027D000D7F82022D7F810321344C7F82032D7F8A0
:1027E0001022D7F80C321344C7F83032D7F8203211
:1027F0004FEAB312D7F820324FEAF3235A40D7F802
:1028000020324FEA73635A40D7F814321A44D7F88B
:102810001C12D7F818325940D7F820321940D7F88F
:1028200018324B401A4407F50E73A3F596739B6B51
:102830004FEA734107F50E73A3F596739B6B4FEA4E
:10284000F343594007F50E73A3F596739B6B9B0AF0
:10285000594007F50E73A3F596735B6A194407F5A3
:102860000E73A3F596735B684FEAF31007F50E73CA
:10287000A3F596735B684FEAB343584007F50E73B0
:10288000A3F596735B68DB084340194407F50E73A4
:10289000A3F596731B68194407F50E73A3F5967399
:1028A000196407F50E73A3F596731B6C1A44084B55
:1028B0001344C7F81032D7F830320BE0C37D0C5503
:1028C000745DBE72FEB1DE80A706DC9B74F19BC115
:1028D000C1699BE44FEAB302D7F830324FEA733351
:1028E0005A40D7F830324FEAB3535A40D7F8301233
:1028F000D7F82C321940D7F83002D7F82C321843C9
:10290000D7F8283203400B431344C7F80C32D7F8EA
:102910002422D7F810321344C7F82432D7F81022F3
:10292000D7F80C321344C7F81432D7F824324FEAE0
:10293000B312D7F824324FEAF3235A40D7F824329F
:102940004FEA73635A40D7F818321A44D7F8201266
:10295000D7F81C325940D7F824321940D7F81C3226
:102960004B401A4407F50E73A3F59673DB6B4FEAE1
:10297000734107F50E73A3F59673DB6B4FEAF343D0
:10298000594007F50E73A3F59673DB6B9B0A59400C
:1029900007F50E73A3F596739B6A194407F50E733A
:1029A000A3F596739B684FEAF31007F50E73A3F532
:1029B00096739B684FEAB343584007F50E73A3F52F
:1029C00096739B68DB084340194407F50E73A3F523
:1029D00096735B68194407F50E73A3F596735964F3
:1029E00007F50E73A3F596735B6C1A44EC4B134416
:1029F000C7F81032D7F814324FEAB302D7F81432BE
:102A00004FEA73335A40D7F814324FEAB3535A405F
:102A1000D7F81412D7F830321940D7F81402D7F883
:102A200030321843D7F82C3203400B431344C7F815
:102A30000C32D7F82822D7F810321344C7F82832BE
:102A4000D7F81022D7F80C321344C7F81832D7F849
:102A500028324FEAB312D7F828324FEAF3235A400C
:102A6000D7F828324FEA73635A40D7F81C321A4419
:102A7000D7F82412D7F820325940D7F82832194015
:102A8000D7F820324B401A4407F50E73A3F596731E
:102A90001B6C4FEA734107F50E73A3F596731B6C1D
:102AA0004FEAF343594007F50E73A3F596731B6C79
:102AB0009B0A594007F50E73A3F59673DB6A194418
:102AC00007F50E73A3F59673DB684FEAF31007F56D
:102AD0000E73A3F59673DB684FEAB343584007F5CE
:102AE0000E73A3F59673DB68DB084340194407F5C2
:102AF0000E73A3F596739B68194407F50E73A3F53F
:102B00009673996407F50E73A3F596739B6C1A443C
:102B1000A44B1344C7F81032D7F818324FEAB30267
:102B2000D7F818324FEA73335A40D7F818324FEAC1
:102B3000B3535A40D7F81812D7F814321940D7F8BF
:102B40001802D7F814321843D7F8303203400B4339
:102B50001344C7F80C32D7F82C22D7F8103213449C
:102B6000C7F82C32D7F81022D7F80C321344C7F824
:102B70001C32D7F82C324FEAB312D7F82C324FEA76
:102B8000F3235A40D7F82C324FEA73635A40D7F8F0
:102B900020321A44D7F82812D7F824325940D7F8EF
:102BA0002C321940D7F824324B401A4407F50E73E3
:102BB000A3F596735B6C4FEA734107F50E73A3F5AB
:102BC00096735B6C4FEAF343594007F50E73A3F518
:102BD00096735B6C9B0A594007F50E73A3F59673C9
:102BE0001B6B194407F50E73A3F596731B694FEA27
:102BF000F31007F50E73A3F596731B694FEAB34301
:102C0000584007F50E73A3F596731B69DB08434024
:102C1000194407F50E73A3F59673DB68194407F59D
:102C20000E73A3F59673D96407F50E73A3F5967327
:102C3000DB6C1A445C4B1344C7F81032D7F81C32D3
:102C40004FEAB302D7F81C324FEA73335A40D7F831
:102C50001C324FEAB3535A40D7F81C12D7F8183237
:102C60001940D7F81C02D7F818321843D7F8143295
:102C700003400B431344C7F80C32D7F83022D7F87F
:102C800010321344C7F83032D7F81022D7F80C327C
:102C90001344C7F82032D7F830324FEAB312D7F8CE
:102CA00030324FEAF3235A40D7F830324FEA736399
:102CB0005A40D7F824321A44D7F82C12D7F82832C1
:102CC0005940D7F830321940D7F828324B401A44CF
:102CD00007F50E73A3F596739B6C4FEA734107F5E6
:102CE0000E73A3F596739B6C4FEAF343594007F5B7
:102CF0000E73A3F596739B6C9B0A594007F50E73F0
:102D0000A3F596735B6B194407F50E73A3F59673E1
:102D10005B694FEAF31007F50E73A3F596735B69D1
:102D20004FEAB343584007F50E73A3F596735B69FA
:102D3000DB084340194407F50E73A3F596731B692E
:102D4000194407F50E73A3F59673196507F50E730D
:102D5000A3F596731B6D1A44144B1344C7F8103235
:102D6000D7F820324FEAB302D7F820324FEA733354
:102D70005A40D7F820324FEAB3535A40D7F82012BE
:102D8000D7F81C321940D7F82002D7F81C32184364
:102D9000D7F8183203400B431344C7F80C3207E04E
:102DA0008647BEEFC69DC10FCCA10C246F2CE92D28
:102DB000D7F81422D7F810321344C7F81432D7F8D2
:102DC0001022D7F80C321344C7F82432D7F8143243
:102DD0004FEAB312D7F814324FEAF3235A40D7F828
:102DE00014324FEA73635A40D7F828321A44D7F89E
:102DF0003012D7F82C325940D7F814321940D7F88E
:102E00002C324B401A4407F50E73A3F59673DB6C16
:102E10004FEA734107F50E73A3F59673DB6C4FEA27
:102E2000F343594007F50E73A3F59673DB6C9B0AC9
:102E3000594007F50E73A3F596739B6B194407F57C
:102E40000E73A3F596739B694FEAF31007F50E73A3
:102E5000A3F596739B694FEAB343584007F50E7389
:102E6000A3F596739B69DB084340194407F50E737D
:102E7000A3F596735B69194407F50E73A3F5967372
:102E8000596507F50E73A3F596735B6D1A44ED4B08
:102E90001344C7F81032D7F824324FEAB302D7F8F8
:102EA00024324FEA73335A40D7F824324FEAB353EF
:102EB0005A40D7F82412D7F820321940D7F8240204
:102EC000D7F820321843D7F81C3203400B43134481
:102ED000C7F80C32D7F81822D7F810321344C7F8C5
:102EE0001832D7F81022D7F80C321344C7F828321A
:102EF000D7F818324FEAB312D7F818324FEAF32353
:102F00005A40D7F818324FEA73635A40D7F82C3238
:102F10001A44D7F81412D7F830325940D7F818327B
:102F20001940D7F830324B401A4407F50E73A3F519
:102F300096731B6D4FEA734107F50E73A3F59673F5
:102F40001B6D4FEAF343594007F50E73A3F59673D3
:102F50001B6D9B0A594007F50E73A3F59673DB6B47
:102F6000194407F50E73A3F59673DB694FEAF31066
:102F700007F50E73A3F59673DB694FEAB343584028
:102F800007F50E73A3F59673DB69DB08434019441C
:102F900007F50E73A3F596739B69194407F50E7335
:102FA000A3F59673996507F50E73A3F596739B6D5C
:102FB0001A44A54B1344C7F81032D7F828324FEA09
:102FC000B302D7F828324FEA73335A40D7F8283281
:102FD0004FEAB3535A40D7F82812D7F82432194091
:102FE000D7F82802D7F824321843D7F82032034004
:102FF0000B431344C7F80C32D7F81C22D7F8103211
:103000001344C7F81C32D7F81022D7F80C321344F7
:10301000C7F82C32D7F81C324FEAB312D7F81C325B
:103020004FEAF3235A40D7F81C324FEA73635A40F1
:10303000D7F830321A44D7F81812D7F8143259405A
:10304000D7F81C321940D7F814324B401A4407F510
:103050000E73A3F596735B6D4FEA734107F50E731C
:10306000A3F596735B6D4FEAF343594007F50E7372
:10307000A3F596735B6D9B0A594007F50E73A3F594
:1030800096731B6C194407F50E73A3F596731B6AB0
:103090004FEAF31007F50E73A3F596731B6A4FEA18
:1030A000B343584007F50E73A3F596731B6ADB080C
:1030B0004340194407F50E73A3F59673DB69194471
:1030C00007F50E73A3F59673D96507F50E73A3F58F
:1030D0009673DB6D1A445D4B1344C7F81032D7F872
:1030E0002C324FEAB302D7F82C324FEA73335A40EE
:1030F000D7F82C324FEAB3535A40D7F82C12D7F8EE
:1031000028321940D7F82C02D7F828321843D7F8BC
:10311000243203400B431344C7F80C32D7F8202263
:10312000D7F810321344C7F82032D7F81022D7F856
:103130000C321344C7F83032D7F820324FEAB312BA
:10314000D7F820324FEAF3235A40D7F820324FEA1B
:1031500073635A40D7F814321A44D7F81C12D7F8C0
:1031600018325940D7F820321940D7F818324B405E
:103170001A4407F50E73A3F596739B6D4FEA7341DE
:1031800007F50E73A3F596739B6D4FEAF343594011
:1031900007F50E73A3F596739B6D9B0A594007F5CF
:1031A0000E73A3F596735B6C194407F50E73A3F5C4
:1031B00096735B6A4FEAF31007F50E73A3F59673E7
:1031C0005B6A4FEAB343584007F50E73A3F5967355
:1031D0005B6ADB084340194407F50E73A3F5967349
:1031E0001B6A194407F50E73A3F59673196607F564
:1031F0000E73A3F596731B6E1A44154B1344C7F850
:103200001032D7F830324FEAB302D7F830324FEAF3
:1032100073335A40D7F830324FEAB3535A40D7F895
:103220003012D7F82C321940D7F83002D7F82C32A8
:103230001843D7F8283203400B431344C7F80C3225
:1032400008E000BFAA84744ADCA9B05CDA88F97689
:1032500052513E98D7F82422D7F810321344C7F8B9
:103260002432D7F81022D7F80C321344C7F814329E
:10327000D7F824324FEAB312D7F824324FEAF323B7
:103280005A40D7F824324FEA73635A40D7F81832BD
:103290001A44D7F82012D7F81C325940D7F82432F4
:1032A0001940D7F81C324B401A4407F50E73A3F5AA
:1032B0009673DB6D4FEA734107F50E73A3F59673B2
:1032C000DB6D4FEAF343594007F50E73A3F5967390
:1032D000DB6D9B0A594007F50E73A3F596739B6C43
:1032E000194407F50E73A3F596739B6A4FEAF31022
:1032F00007F50E73A3F596739B6A4FEAB3435840E4
:1033000007F50E73A3F596739B6ADB0843401944D7
:1033100007F50E73A3F596735B6A194407F50E73F0
:10332000A3F59673596607F50E73A3F596735B6E56
:103330001A44ED4B1344C7F81032D7F814324FEA51
:10334000B302D7F814324FEA73335A40D7F8143225
:103350004FEAB3535A40D7F81412D7F83032194015
:10336000D7F81402D7F830321843D7F82C3203407C
:103370000B431344C7F80C32D7F82822D7F8103281
:103380001344C7F82832D7F81022D7F80C32134468
:10339000C7F81832D7F828324FEAB312D7F82832D4
:1033A0004FEAF3235A40D7F828324FEA73635A4062
:1033B000D7F81C321A44D7F82412D7F820325940D3
:1033C000D7F828321940D7F820324B401A4407F575
:1033D0000E73A3F596731B6E4FEA734107F50E73D8
:1033E000A3F596731B6E4FEAF343594007F50E732E
:1033F000A3F596731B6E9B0A594007F50E73A3F550
:103400009673DB6C194407F50E73A3F59673DB6AAC
:103410004FEAF31007F50E73A3F59673DB6A4FEAD4
:10342000B343584007F50E73A3F59673DB6ADB08C8
:103430004340194407F50E73A3F596739B6A19442C
:1034400007F50E73A3F59673996607F50E73A3F54A
:1034500096739B6E1A44A54B1344C7F81032D7F8E5
:1034600018324FEAB302D7F818324FEA73335A4092
:10347000D7F818324FEAB3535A40D7F81812D7F892
:1034800014321940D7F81802D7F814321843D7F875
:10349000303203400B431344C7F80C32D7F82C22C8
:1034A000D7F810321344C7F82C32D7F81022D7F8C7
:1034B0000C321344C7F81C32D7F82C324FEAB3123F
:1034C000D7F82C324FEAF3235A40D7F82C324FEA80
:1034D00073635A40D7F820321A44D7F82812D7F825
:1034E00024325940D7F82C321940D7F824324B40B7
:1034F0001A4407F50E73A3F596735B6E4FEA73419A
:1035000007F50E73A3F596735B6E4FEAF3435940CC
:1035100007F50E73A3F596735B6E9B0A594007F58A
:103520000E73A3F596731B6D194407F50E73A3F57F
:1035300096731B6B4FEAF31007F50E73A3F59673A2
:103540001B6B4FEAB343584007F50E73A3F5967310
:103550001B6BDB084340194407F50E73A3F5967304
:10356000DB6A194407F50E73A3F59673D96607F560
:103570000E73A3F59673DB6E1A445D4B1344C7F8C4
:103580001032D7F81C324FEAB302D7F81C324FEA98
:1035900073335A40D7F81C324FEAB3535A40D7F826
:1035A0001C12D7F818321940D7F81C02D7F8183275
:1035B0001843D7F8143203400B431344C7F80C32B6
:1035C000D7F83022D7F810321344C7F83032D7F882
:1035D0001022D7F80C321344C7F82032D7F8303213
:1035E0004FEAB312D7F830324FEAF3235A40D7F8F4
:1035F00030324FEA73635A40D7F824321A44D7F86E
:103600002C12D7F828325940D7F830321940D7F861
:1036100028324B401A4407F50E73A3F596739B6E40
:103620004FEA734107F50E73A3F596739B6E4FEA4D
:10363000F343594007F50E73A3F596739B6E9B0AEF
:10364000594007F50E73A3F596735B6D194407F5A2
:103650000E73A3F596735B6B4FEAF31007F50E73C9
:10366000A3F596735B6B4FEAB343584007F50E73AF
:10367000A3F596735B6BDB084340194407F50E73A3
:10368000A3F596731B6B194407F50E73A3F5967398
:10369000196707F50E73A3F596731B6F1A44154B44
:1036A0001344C7F81032D7F820324FEAB302D7F8E4
:1036B00020324FEA73335A40D7F820324FEAB353DF
:1036C0005A40D7F82012D7F81C321940D7F82002F8
:1036D000D7F81C321843D7F8183203400B43134471
:1036E000C7F80C3208E000BF6DC631A8C82703B088
:1036F000C77F59BFF30BE0C6D7F81422D7F81032B2
:103700001344C7F81432D7F81022D7F80C321344F8
:10371000C7F82432D7F814324FEAB312D7F814326C
:103720004FEAF3235A40D7F814324FEA73635A40F2
:10373000D7F828321A44D7F83012D7F82C3259402B
:10374000D7F814321940D7F82C324B401A4407F5F9
:103750000E73A3F59673DB6E4FEA734107F50E7394
:10376000A3F59673DB6E4FEAF343594007F50E73EA
:10377000A3F59673DB6E9B0A594007F50E73A3F50C
:1037800096739B6D194407F50E73A3F596739B6BA7
:103790004FEAF31007F50E73A3F596739B6B4FEA90
:1037A000B343584007F50E73A3F596739B6BDB0884
:1037B0004340194407F50E73A3F596735B6B1944E8
:1037C00007F50E73A3F59673596707F50E73A3F506
:1037D00096735B6F1A44EE4B1344C7F81032D7F858
:1037E00024324FEAB302D7F824324FEA73335A40F7
:1037F000D7F824324FEAB3535A40D7F82412D7F8F7
:1038000020321940D7F82402D7F820321843D7F8CD
:103810001C3203400B431344C7F80C32D7F818226C
:10382000D7F810321344C7F81832D7F81022D7F857
:103830000C321344C7F82832D7F818324FEAB312C3
:10384000D7F818324FEAF3235A40D7F818324FEA24
:1038500073635A40D7F82C321A44D7F81412D7F8A9
:1038600030325940D7F818321940D7F830324B402F
:103870001A4407F50E73A3F596731B6F4FEA734155
:1038800007F50E73A3F596731B6F4FEAF343594088
:1038900007F50E73A3F596731B6F9B0A594007F546
:1038A0000E73A3F59673DB6D194407F50E73A3F53C
:1038B0009673DB6B4FEAF31007F50E73A3F596735F
:1038C000DB6B4FEAB343584007F50E73A3F59673CD
:1038D000DB6BDB084340194407F50E73A3F59673C1
:1038E0009B6B194407F50E73A3F59673996707F55B
:1038F0000E73A3F596739B6F1A44A64B1344C7F837
:103900001032D7F828324FEAB302D7F828324FEAFC
:1039100073335A40D7F828324FEAB3535A40D7F896
:103920002812D7F824321940D7F82802D7F82432C1
:103930001843D7F8203203400B431344C7F80C3226
:10394000D7F81C22D7F810321344C7F81C32D7F826
:103950001022D7F80C321344C7F82C32D7F81C3297
:103960004FEAB312D7F81C324FEAF3235A40D7F884
:103970001C324FEA73635A40D7F830321A44D7F8F2
:103980001812D7F814325940D7F81C321940D7F81A
:1039900014324B401A4407F50E73A3F596735B6F10
:1039A0004FEA734107F50E73A3F596735B6F4FEA09
:1039B000F343594007F50E73A3F596735B6F9B0AAB
:1039C000594007F50E73A3F596731B6E194407F55E
:1039D0000E73A3F596731B6C4FEAF31007F50E7385
:1039E000A3F596731B6C4FEAB343584007F50E736B
:1039F000A3F596731B6CDB084340194407F50E735F
:103A0000A3F59673DB6B194407F50E73A3F5967354
:103A1000D96707F50E73A3F59673DB6F1A445E4BF7
:103A20001344C7F81032D7F82C324FEAB302D7F854
:103A30002C324FEA73335A40D7F82C324FEAB35343
:103A40005A40D7F82C12D7F828321940D7F82C0250
:103A5000D7F828321843D7F8243203400B431344D5
:103A6000C7F80C32D7F82022D7F810321344C7F821
:103A70002032D7F81022D7F80C321344C7F830326E
:103A8000D7F820324FEAB312D7F820324FEAF323A7
:103A90005A40D7F820324FEA73635A40D7F81432AD
:103AA0001A44D7F81C12D7F818325940D7F82032E8
:103AB0001940D7F818324B401A4407F50E73A3F596
:103AC00096739B6F4FEA734107F50E73A3F59673D8
:103AD0009B6F4FEAF343594007F50E73A3F59673B6
:103AE0009B6F9B0A594007F50E73A3F596735B6EA7
:103AF000194407F50E73A3F596735B6C4FEAF31048
:103B000007F50E73A3F596735B6C4FEAB343584009
:103B100007F50E73A3F596735B6CDB0843401944FD
:103B200007F50E73A3F596731B6C194407F50E7316
:103B3000A3F59673C3F8801007F50E73A3F596737B
:103B4000D3F880301A44154B1344C7F81032D7F815
:103B500030324FEAB302D7F830324FEA73335A406B
:103B6000D7F830324FEAB3535A40D7F83012D7F86B
:103B70002C321940D7F83002D7F82C321843D7F836
:103B8000283203400B431344C7F80C3208E000BF4F
:103B90004791A7D55163CA0667292914850AB72713
:103BA000D7F82422D7F810321344C7F82432D7F8B4
:103BB0001022D7F80C321344C7F81432D7F8243245
:103BC0004FEAB312D7F824324FEAF3235A40D7F81A
:103BD00024324FEA73635A40D7F818321A44D7F8A0
:103BE0002012D7F81C325940D7F824321940D7F8A0
:103BF0001C324B401A4407F50E73A3F59673DB6F26
:103C00004FEA734107F50E73A3F59673DB6F4FEA26
:103C1000F343594007F50E73A3F59673DB6F9B0AC8
:103C2000594007F50E73A3F596739B6E194407F57B
:103C30000E73A3F596739B6C4FEAF31007F50E73A2
:103C4000A3F596739B6C4FEAB343584007F50E7388
:103C5000A3F596739B6CDB084340194407F50E737C
:103C6000A3F596735B6C194407F50E73A3F5967371
:103C7000C3F8841007F50E73A3F59673D3F8843058
:103C80001A44F44B1344C7F81032D7F814324FEAF1
:103C9000B302D7F814324FEA73335A40D7F81432CC
:103CA0004FEAB3535A40D7F81412D7F830321940BC
:103CB000D7F81402D7F830321843D7F82C32034023
:103CC0000B431344C7F80C32D7F82822D7F8103228
:103CD0001344C7F82832D7F81022D7F80C3213440F
:103CE000C7F81832D7F828324FEAB312D7F828327B
:103CF0004FEAF3235A40D7F828324FEA73635A4009
:103D0000D7F81C321A44D7F82412D7F82032594079
:103D1000D7F828321940D7F820324B401A4407F51B
:103D20000E73A3F59673D3F880304FEA734107F50D
:103D30000E73A3F59673D3F880304FEAF3435940DE
:103D400007F50E73A3F59673D3F880309B0A59409C
:103D500007F50E73A3F59673DB6E194407F50E7322
:103D6000A3F59673DB6C4FEAF31007F50E73A3F51A
:103D70009673DB6C4FEAB343584007F50E73A3F517
:103D80009673DB6CDB084340194407F50E73A3F50B
:103D900096739B6C194407F50E73A3F59673C3F8DD
:103DA000881007F50E73A3F59673D3F888301A447C
:103DB000A94B1344C7F81032D7F818324FEAB302B0
:103DC000D7F818324FEA73335A40D7F818324FEA0F
:103DD000B3535A40D7F81812D7F814321940D7F80D
:103DE0001802D7F814321843D7F8303203400B4387
:103DF0001344C7F80C32D7F82C22D7F810321344EA
:103E0000C7F82C32D7F81022D7F80C321344C7F871
:103E10001C32D7F82C324FEAB312D7F82C324FEAC3
:103E2000F3235A40D7F82C324FEA73635A40D7F83D
:103E300020321A44D7F82812D7F824325940D7F83C
:103E40002C321940D7F824324B401A4407F50E7330
:103E5000A3F59673D3F884304FEA734107F50E73D8
:103E6000A3F59673D3F884304FEAF343594007F52E
:103E70000E73A3F59673D3F884309B0A594007F567
:103E80000E73A3F596731B6F194407F50E73A3F514
:103E900096731B6D4FEAF31007F50E73A3F5967337
:103EA0001B6D4FEAB343584007F50E73A3F59673A5
:103EB0001B6DDB084340194407F50E73A3F5967399
:103EC000DB6C194407F50E73A3F59673C3F88C10D9
:103ED00007F50E73A3F59673D3F88C301A445F4B35
:103EE0001344C7F81032D7F81C324FEAB302D7F8A0
:103EF0001C324FEA73335A40D7F81C324FEAB3539F
:103F00005A40D7F81C12D7F818321940D7F81C02BB
:103F1000D7F818321843D7F8143203400B43134430
:103F2000C7F80C32D7F83022D7F810321344C7F84C
:103F30003032D7F81022D7F80C321344C7F82032A9
:103F4000D7F830324FEAB312D7F830324FEAF323C2
:103F50005A40D7F830324FEA73635A40D7F82432C8
:103F60001A44D7F82C12D7F828325940D7F83032F3
:103F70001940D7F828324B401A4407F50E73A3F5C1
:103F80009673D3F888304FEA734107F50E73A3F5A3
:103F90009673D3F888304FEAF343594007F50E7310
:103FA000A3F59673D3F888309B0A594007F50E7332
:103FB000A3F596735B6F194407F50E73A3F596731B
:103FC0005B6D4FEAF31007F50E73A3F596735B6D07
:103FD0004FEAB343584007F50E73A3F596735B6D34
:103FE000DB084340194407F50E73A3F596731B6D68
:103FF000194407F50E73A3F59673C3F8901007F5EF
:104000000E73A3F59673D3F890301A44144B1344EF
:10401000C7F81032D7F820324FEAB302D7F820326F
:104020004FEA73335A40D7F820324FEAB3535A401D
:10403000D7F82012D7F81C321940D7F82002D7F849
:104040001C321843D7F8183203400B431344C7F807
:104050000C3207E038211B2EFC6D2C4D130D38530C
:1040600054730A65D7F81422D7F810321344C7F8EE
:104070001432D7F81022D7F80C321344C7F8243280
:10408000D7F814324FEAB312D7F814324FEAF323B9
:104090005A40D7F814324FEA73635A40D7F828329F
:1040A0001A44D7F83012D7F82C325940D7F81432C6
:1040B0001940D7F82C324B401A4407F50E73A3F57C
:1040C0009673D3F88C304FEA734107F50E73A3F55E
:1040D0009673D3F88C304FEAF343594007F50E73CB
:1040E000A3F59673D3F88C309B0A594007F50E73ED
:1040F000A3F596739B6F194407F50E73A3F596739A
:104100009B6D4FEAF31007F50E73A3F596739B6D45
:104110004FEAB343584007F50E73A3F596739B6DB2
:10412000DB084340194407F50E73A3F596735B6DE6
:10413000194407F50E73A3F59673C3F8941007F5A9
:104140000E73A3F59673D3F894301A44F54B1344C9
:10415000C7F81032D7F824324FEAB302D7F8243226
:104160004FEA73335A40D7F824324FEAB3535A40D8
:10417000D7F82412D7F820321940D7F82402D7F8FC
:1041800020321843D7F81C3203400B431344C7F8BE
:104190000C32D7F81822D7F810321344C7F8183267
:1041A000D7F81022D7F80C321344C7F82832D7F8C2
:1041B00018324FEAB312D7F818324FEAF3235A40B5
:1041C000D7F818324FEA73635A40D7F82C321A44A2
:1041D000D7F81412D7F830325940D7F818321940AE
:1041E000D7F830324B401A4407F50E73A3F5967397
:1041F000D3F890304FEA734107F50E73A3F5967329
:10420000D3F890304FEAF343594007F50E73A3F506
:104210009673D3F890309B0A594007F50E73A3F5B7
:104220009673DB6F194407F50E73A3F59673DB6D78
:104230004FEAF31007F50E73A3F59673DB6D4FEAA3
:10424000B343584007F50E73A3F59673DB6DDB0897
:104250004340194407F50E73A3F596739B6D1944FB
:1042600007F50E73A3F59673C3F8981007F50E7350
:10427000A3F59673D3F898301A44AB4B1344C7F8A0
:104280001032D7F828324FEAB302D7F828324FEA73
:1042900073335A40D7F828324FEAB3535A40D7F80D
:1042A0002812D7F824321940D7F82802D7F8243238
:1042B0001843D7F8203203400B431344C7F80C329D
:1042C000D7F81C22D7F810321344C7F81C32D7F89D
:1042D0001022D7F80C321344C7F82C32D7F81C320E
:1042E0004FEAB312D7F81C324FEAF3235A40D7F8FB
:1042F0001C324FEA73635A40D7F830321A44D7F869
:104300001812D7F814325940D7F81C321940D7F890
:1043100014324B401A4407F50E73A3F59673D3F885
:1043200094304FEA734107F50E73A3F59673D3F8F3
:1043300094304FEAF343594007F50E73A3F5967393
:10434000D3F894309B0A594007F50E73A3F5967382
:10435000D3F88030194407F50E73A3F596731B6EDE
:104360004FEAF31007F50E73A3F596731B6E4FEA31
:10437000B343584007F50E73A3F596731B6EDB0825
:104380004340194407F50E73A3F59673DB6D19448A
:1043900007F50E73A3F59673C3F89C1007F50E731B
:1043A000A3F59673D3F89C301A44604B1344C7F8B6
:1043B0001032D7F82C324FEAB302D7F82C324FEA3A
:1043C00073335A40D7F82C324FEAB3535A40D7F8D8
:1043D0002C12D7F828321940D7F82C02D7F82832F7
:1043E0001843D7F8243203400B431344C7F80C3268
:1043F000D7F82022D7F810321344C7F82032D7F864
:104400001022D7F80C321344C7F83032D7F82032D4
:104410004FEAB312D7F820324FEAF3235A40D7F8C5
:1044200020324FEA73635A40D7F814321A44D7F84F
:104430001C12D7F818325940D7F820321940D7F853
:1044400018324B401A4407F50E73A3F59673D3F850
:1044500098304FEA734107F50E73A3F59673D3F8BE
:1044600098304FEAF343594007F50E73A3F596735E
:10447000D3F898309B0A594007F50E73A3F596734D
:10448000D3F88430194407F50E73A3F596735B6E69
:104490004FEAF31007F50E73A3F596735B6E4FEAC0
:1044A000B343584007F50E73A3F596735B6EDB08B4
:1044B0004340194407F50E73A3F596731B6E194418
:1044C00007F50E73A3F59673C3F8A01007F50E73E6
:1044D000A3F59673D3F8A0301A44154B1344C7F8CC
:1044E0001032D7F830324FEAB302D7F830324FEA01
:1044F00073335A40D7F830324FEAB3535A40D7F8A3
:104500003012D7F82C321940D7F83002D7F82C32B5
:104510001843D7F8283203400B431344C7F80C3232
:1045200008E000BFBB0A6A762EC9C281852C729250
:10453000A1E8BFA2D7F82422D7F810321344C7F855
:104540002432D7F81022D7F80C321344C7F81432AB
:10455000D7F824324FEAB312D7F824324FEAF323C4
:104560005A40D7F824324FEA73635A40D7F81832CA
:104570001A44D7F82012D7F81C325940D7F8243201
:104580001940D7F81C324B401A4407F50E73A3F5B7
:104590009673D3F89C304FEA734107F50E73A3F579
:1045A0009673D3F89C304FEAF343594007F50E73E6
:1045B000A3F59673D3F89C309B0A594007F50E7308
:1045C000A3F59673D3F88830194407F50E73A3F555
:1045D00096739B6E4FEAF31007F50E73A3F596736F
:1045E0009B6E4FEAB343584007F50E73A3F59673DD
:1045F0009B6EDB084340194407F50E73A3F59673D1
:104600005B6E194407F50E73A3F59673C3F8A410F7
:1046100007F50E73A3F59673D3F8A4301A44F64B3E
:104620001344C7F81032D7F814324FEAB302D7F860
:1046300014324FEA73335A40D7F814324FEAB35367
:104640005A40D7F81412D7F830321940D7F814026C
:10465000D7F830321843D7F82C3203400B431344B9
:10466000C7F80C32D7F82822D7F810321344C7F80D
:104670002832D7F81022D7F80C321344C7F8183272
:10468000D7F828324FEAB312D7F828324FEAF3238B
:104690005A40D7F828324FEA73635A40D7F81C3291
:1046A0001A44D7F82412D7F820325940D7F82832C4
:1046B0001940D7F820324B401A4407F50E73A3F582
:1046C0009673D3F8A0304FEA734107F50E73A3F544
:1046D0009673D3F8A0304FEAF343594007F50E73B1
:1046E000A3F59673D3F8A0309B0A594007F50E73D3
:1046F000A3F59673D3F88C30194407F50E73A3F520
:104700009673DB6E4FEAF31007F50E73A3F59673FD
:10471000DB6E4FEAB343584007F50E73A3F596736B
:10472000DB6EDB084340194407F50E73A3F596735F
:104730009B6E194407F50E73A3F59673C3F8A81082
:1047400007F50E73A3F59673D3F8A8301A44AB4B54
:104750001344C7F81032D7F818324FEAB302D7F82B
:1047600018324FEA73335A40D7F818324FEAB3532E
:104770005A40D7F81812D7F814321940D7F818024F
:10478000D7F814321843D7F8303203400B431344A0
:10479000C7F80C32D7F82C22D7F810321344C7F8D8
:1047A0002C32D7F81022D7F80C321344C7F81C3239
:1047B000D7F82C324FEAB312D7F82C324FEAF32352
:1047C0005A40D7F82C324FEA73635A40D7F8203258
:1047D0001A44D7F82812D7F824325940D7F82C3287
:1047E0001940D7F824324B401A4407F50E73A3F54D
:1047F0009673D3F8A4304FEA734107F50E73A3F50F
:104800009673D3F8A4304FEAF343594007F50E737B
:10481000A3F59673D3F8A4309B0A594007F50E739D
:10482000A3F59673D3F89030194407F50E73A3F5EA
:1048300096731B6F4FEAF31007F50E73A3F596738B
:104840001B6F4FEAB343584007F50E73A3F59673F9
:104850001B6FDB084340194407F50E73A3F59673ED
:10486000DB6E194407F50E73A3F59673C3F8AC100D
:1048700007F50E73A3F59673D3F8AC301A44604B6A
:104880001344C7F81032D7F81C324FEAB302D7F8F6
:104890001C324FEA73335A40D7F81C324FEAB353F5
:1048A0005A40D7F81C12D7F818321940D7F81C0212
:1048B000D7F818321843D7F8143203400B43134487
:1048C000C7F80C32D7F83022D7F810321344C7F8A3
:1048D0003032D7F81022D7F80C321344C7F8203200
:1048E000D7F830324FEAB312D7F830324FEAF32319
:1048F0005A40D7F830324FEA73635A40D7F824321F
:104900001A44D7F82C12D7F828325940D7F8303249
:104910001940D7F828324B401A4407F50E73A3F517
:104920009673D3F8A8304FEA734107F50E73A3F5D9
:104930009673D3F8A8304FEAF343594007F50E7346
:10494000A3F59673D3F8A8309B0A594007F50E7368
:10495000A3F59673D3F89430194407F50E73A3F5B5
:1049600096735B6F4FEAF31007F50E73A3F596731A
:104970005B6F4FEAB343584007F50E73A3F5967388
:104980005B6FDB084340194407F50E73A3F596737C
:104990001B6F194407F50E73A3F59673C3F8B01097
:1049A00007F50E73A3F59673D3F8B0301A44154B80
:1049B0001344C7F81032D7F820324FEAB302D7F8C1
:1049C00020324FEA73335A40D7F820324FEAB353BC
:1049D0005A40D7F82012D7F81C321940D7F82002D5
:1049E000D7F81C321843D7F8183203400B4313444E
:1049F000C7F80C3208E000BF4B661AA8708B4BC298
:104A0000A3516CC719E892D1D7F81422D7F8103205
:104A10001344C7F81432D7F81022D7F80C321344D5
:104A2000C7F82432D7F814324FEAB312D7F8143249
:104A30004FEAF3235A40D7F814324FEA73635A40CF
:104A4000D7F828321A44D7F83012D7F82C32594008
:104A5000D7F814321940D7F82C324B401A4407F5D6
:104A60000E73A3F59673D3F8AC304FEA734107F594
:104A70000E73A3F59673D3F8AC304FEAF343594065
:104A800007F50E73A3F59673D3F8AC309B0A594023
:104A900007F50E73A3F59673D3F89830194407F50C
:104AA0000E73A3F596739B6F4FEAF31007F50E7321
:104AB000A3F596739B6F4FEAB343584007F50E7307
:104AC000A3F596739B6FDB084340194407F50E73FB
:104AD000A3F596735B6F194407F50E73A3F59673F0
:104AE000C3F8B41007F50E73A3F59673D3F8B4307A
:104AF0001A44F94B1344C7F81032D7F824324FEA5E
:104B0000B302D7F824324FEA73335A40D7F824322D
:104B10004FEAB3535A40D7F82412D7F8203219403D
:104B2000D7F82402D7F820321843D7F81C320340B4
:104B30000B431344C7F80C32D7F81822D7F81032B9
:104B40001344C7F81832D7F81022D7F80C321344A0
:104B5000C7F82832D7F818324FEAB312D7F818320C
:104B60004FEAF3235A40D7F818324FEA73635A409A
:104B7000D7F82C321A44D7F81412D7F830325940EB
:104B8000D7F818321940D7F830324B401A4407F59D
:104B90000E73A3F59673D3F8B0304FEA734107F55F
:104BA0000E73A3F59673D3F8B0304FEAF343594030
:104BB00007F50E73A3F59673D3F8B0309B0A5940EE
:104BC00007F50E73A3F59673D3F89C30194407F5D7
:104BD0000E73A3F59673DB6F4FEAF31007F50E73B0
:104BE000A3F59673DB6F4FEAB343584007F50E7396
:104BF000A3F59673DB6FDB084340194407F50E738A
:104C0000A3F596739B6F194407F50E73A3F596737E
:104C1000C3F8B81007F50E73A3F59673D3F8B83040
:104C20001A44AE4B1344C7F81032D7F828324FEA73
:104C3000B302D7F828324FEA73335A40D7F82832F4
:104C40004FEAB3535A40D7F82812D7F82432194004
:104C5000D7F82802D7F824321843D7F82032034077
:104C60000B431344C7F80C32D7F81C22D7F8103284
:104C70001344C7F81C32D7F81022D7F80C3213446B
:104C8000C7F82C32D7F81C324FEAB312D7F81C32CF
:104C90004FEAF3235A40D7F81C324FEA73635A4065
:104CA000D7F830321A44D7F81812D7F814325940CE
:104CB000D7F81C321940D7F814324B401A4407F584
:104CC0000E73A3F59673D3F8B4304FEA734107F52A
:104CD0000E73A3F59673D3F8B4304FEAF3435940FB
:104CE00007F50E73A3F59673D3F8B4309B0A5940B9
:104CF00007F50E73A3F59673D3F8A030194407F5A2
:104D00000E73A3F59673D3F880304FEAF31007F5CE
:104D10000E73A3F59673D3F880304FEAB34358402F
:104D200007F50E73A3F59673D3F88030DB08434084
:104D3000194407F50E73A3F59673DB6F194407F555
:104D40000E73A3F59673C3F8BC1007F50E73A3F5A5
:104D50009673D3F8BC301A44614B1344C7F8103231
:104D6000D7F82C324FEAB302D7F82C324FEA73331C
:104D70005A40D7F82C324FEAB3535A40D7F82C1286
:104D8000D7F828321940D7F82C02D7F82832184320
:104D9000D7F8243203400B431344C7F80C32D7F83A
:104DA0002022D7F810321344C7F82032D7F8102247
:104DB000D7F80C321344C7F83032D7F820324FEA14
:104DC000B312D7F820324FEAF3235A40D7F82032F3
:104DD0004FEA73635A40D7F814321A44D7F81C12BA
:104DE000D7F818325940D7F820321940D7F818327E
:104DF0004B401A4407F50E73A3F59673D3F8B830F9
:104E00004FEA734107F50E73A3F59673D3F8B830E4
:104E10004FEAF343594007F50E73A3F59673D3F8A1
:104E2000B8309B0A594007F50E73A3F59673D3F873
:104E3000A430194407F50E73A3F59673D3F88430A4
:104E40004FEAF31007F50E73A3F59673D3F8843089
:104E50004FEAB343584007F50E73A3F59673D3F8A2
:104E60008430DB084340194407F50E73A3F59673AD
:104E7000D3F88030194407F50E73A3F59673C3F881
:104E8000C01007F50E73A3F59673D3F8C0301A441B
:104E9000144B1344C7F81032D7F830324FEAB3023C
:104EA000D7F830324FEA73335A40D7F830324FEAEE
:104EB000B3535A40D7F83012D7F82C321940D7F8EC
:104EC0003002D7F82C321843D7F8283203400B436E
:104ED0001344C7F80C3207E0240699D685350EF442
:104EE00070A06A1016C1A419D7F82422D7F810327E
:104EF0001344C7F82432D7F81022D7F80C321344E1
:104F0000C7F81432D7F824324FEAB312D7F8243254
:104F10004FEAF3235A40D7F824324FEA73635A40DA
:104F2000D7F818321A44D7F82012D7F81C32594053
:104F3000D7F824321940D7F81C324B401A4407F5F1
:104F40000E73A3F59673D3F8BC304FEA734107F59F
:104F50000E73A3F59673D3F8BC304FEAF343594070
:104F600007F50E73A3F59673D3F8BC309B0A59402E
:104F700007F50E73A3F59673D3F8A830194407F517
:104F80000E73A3F59673D3F888304FEAF31007F544
:104F90000E73A3F59673D3F888304FEAB3435840A5
:104FA00007F50E73A3F59673D3F88830DB084340FA
:104FB000194407F50E73A3F59673D3F8843019449A
:104FC00007F50E73A3F59673C3F8C41007F50E73B7
:104FD000A3F59673D3F8C4301A44FC4B1344C7F8B6
:104FE0001032D7F814324FEAB302D7F814324FEA2E
:104FF00073335A40D7F814324FEAB3535A40D7F8B4
:105000001412D7F830321940D7F81402D7F83032DA
:105010001843D7F82C3203400B431344C7F80C3223
:10502000D7F82822D7F810321344C7F82832D7F817
:105030001022D7F80C321344C7F81832D7F82832A8
:105040004FEAB312D7F828324FEAF3235A40D7F881
:1050500028324FEA73635A40D7F81C321A44D7F803
:105060002412D7F820325940D7F828321940D7F8FF
:1050700020324B401A4407F50E73A3F59673D3F80C
:10508000C0304FEA734107F50E73A3F59673D3F85A
:10509000C0304FEAF343594007F50E73A3F59673FA
:1050A000D3F8C0309B0A594007F50E73A3F59673E9
:1050B000D3F8AC30194407F50E73A3F59673D3F803
:1050C0008C304FEAF31007F50E73A3F59673D3F8FF
:1050D0008C304FEAB343584007F50E73A3F596732F
:1050E000D3F88C30DB084340194407F50E73A3F561
:1050F0009673D3F88830194407F50E73A3F59673A9
:10510000C3F8C81007F50E73A3F59673D3F8C8302B
:105110001A44AF4B1344C7F81032D7F818324FEA8D
:10512000B302D7F818324FEA73335A40D7F818321F
:105130004FEAB3535A40D7F81812D7F8143219402F
:10514000D7F81802D7F814321843D7F83032034092
:105150000B431344C7F80C32D7F82C22D7F810327F
:105160001344C7F82C32D7F81022D7F80C32134466
:10517000C7F81C32D7F82C324FEAB312D7F82C32CA
:105180004FEAF3235A40D7F82C324FEA73635A4060
:10519000D7F820321A44D7F82812D7F824325940C9
:1051A000D7F82C321940D7F824324B401A4407F56F
:1051B0000E73A3F59673D3F8C4304FEA734107F525
:1051C0000E73A3F59673D3F8C4304FEAF3435940F6
:1051D00007F50E73A3F59673D3F8C4309B0A5940B4
:1051E00007F50E73A3F59673D3F8B030194407F59D
:1051F0000E73A3F59673D3F890304FEAF31007F5CA
:105200000E73A3F59673D3F890304FEAB34358402A
:1052100007F50E73A3F59673D3F89030DB0843407F
:10522000194407F50E73A3F59673D3F88C3019441F
:1052300007F50E73A3F59673C3F8CC1007F50E733C
:10524000A3F59673D3F8CC301A44624B1344C7F8D5
:105250001032D7F81C324FEAB302D7F81C324FEAAB
:1052600073335A40D7F81C324FEAB3535A40D7F839
:105270001C12D7F818321940D7F81C02D7F8183288
:105280001843D7F8143203400B431344C7F80C32C9
:10529000D7F83022D7F810321344C7F83032D7F895
:1052A0001022D7F80C321344C7F82032D7F8303226
:1052B0004FEAB312D7F830324FEAF3235A40D7F807
:1052C00030324FEA73635A40D7F824321A44D7F881
:1052D0002C12D7F828325940D7F830321940D7F875
:1052E00028324B401A4407F50E73A3F59673D3F892
:1052F000C8304FEA734107F50E73A3F59673D3F8E0
:10530000C8304FEAF343594007F50E73A3F596737F
:10531000D3F8C8309B0A594007F50E73A3F596736E
:10532000D3F8B430194407F50E73A3F59673D3F888
:1053300094304FEAF31007F50E73A3F59673D3F884
:1053400094304FEAB343584007F50E73A3F59673B4
:10535000D3F89430DB084340194407F50E73A3F5E6
:105360009673D3F89030194407F50E73A3F596732E
:10537000C3F8D01007F50E73A3F59673D3F8D030A9
:105380001A44154B1344C7F81032D7F820324FEAAD
:10539000B302D7F820324FEA73335A40D7F820329D
:1053A0004FEAB3535A40D7F82012D7F81C321940AD
:1053B000D7F82002D7F81C321843D7F81832034028
:1053C0000B431344C7F80C3208E000BF086C371ECB
:1053D0004C774827B5BCB034B30C1C39D7F814222D
:1053E000D7F810321344C7F81432D7F81022D7F880
:1053F0000C321344C7F82432D7F814324FEAB312F0
:10540000D7F814324FEAF3235A40D7F814324FEA50
:1054100073635A40D7F828321A44D7F83012D7F8B5
:105420002C325940D7F814321940D7F82C324B405F
:105430001A4407F50E73A3F59673D3F8CC304FEAF0
:10544000734107F50E73A3F59673D3F8CC304FEA8A
:10545000F343594007F50E73A3F59673D3F8CC3098
:105460009B0A594007F50E73A3F59673D3F8B8302D
:10547000194407F50E73A3F59673D3F898304FEAE5
:10548000F31007F50E73A3F59673D3F898304FEA2F
:10549000B343584007F50E73A3F59673D3F89830CD
:1054A000DB084340194407F50E73A3F59673D3F850
:1054B0009430194407F50E73A3F59673C3F8D4100E
:1054C00007F50E73A3F59673D3F8D4301A44FC4B4A
:1054D0001344C7F81032D7F824324FEAB302D7F892
:1054E00024324FEA73335A40D7F824324FEAB35389
:1054F0005A40D7F82412D7F820321940D7F824029E
:10550000D7F820321843D7F81C3203400B4313441A
:10551000C7F80C32D7F81822D7F810321344C7F85E
:105520001832D7F81022D7F80C321344C7F82832B3
:10553000D7F818324FEAB312D7F818324FEAF323EC
:105540005A40D7F818324FEA73635A40D7F82C32D2
:105550001A44D7F81412D7F830325940D7F8183215
:105560001940D7F830324B401A4407F50E73A3F5B3
:105570009673D3F8D0304FEA734107F50E73A3F555
:105580009673D3F8D0304FEAF343594007F50E73C2
:10559000A3F59673D3F8D0309B0A594007F50E73E4
:1055A000A3F59673D3F8BC30194407F50E73A3F531
:1055B0009673D3F89C304FEAF31007F50E73A3F5FA
:1055C0009673D3F89C304FEAB343584007F50E73F7
:1055D000A3F59673D3F89C30DB084340194407F5D4
:1055E0000E73A3F59673D3F89830194407F50E732C
:1055F000A3F59673C3F8D81007F50E73A3F5967349
:10560000D3F8D8301A44AF4B1344C7F81032D7F848
:1056100028324FEAB302D7F828324FEA73335A40A0
:10562000D7F828324FEAB3535A40D7F82812D7F8A0
:1056300024321940D7F82802D7F824321843D7F873
:10564000203203400B431344C7F80C32D7F81C2216
:10565000D7F810321344C7F81C32D7F81022D7F805
:105660000C321344C7F82C32D7F81C324FEAB3126D
:10567000D7F81C324FEAF3235A40D7F81C324FEACE
:1056800073635A40D7F830321A44D7F81812D7F853
:1056900014325940D7F81C321940D7F814324B4015
:1056A0001A4407F50E73A3F59673D3F8D4304FEA76
:1056B000734107F50E73A3F59673D3F8D4304FEA10
:1056C000F343594007F50E73A3F59673D3F8D4301E
:1056D0009B0A594007F50E73A3F59673D3F8C030B3
:1056E000194407F50E73A3F59673D3F8A0304FEA6B
:1056F000F31007F50E73A3F59673D3F8A0304FEAB5
:10570000B343584007F50E73A3F59673D3F8A03052
:10571000DB084340194407F50E73A3F59673D3F8DD
:105720009C30194407F50E73A3F59673C3F8DC108B
:1057300007F50E73A3F59673D3F8DC301A44624B69
:105740001344C7F81032D7F82C324FEAB302D7F817
:105750002C324FEA73335A40D7F82C324FEAB35306
:105760005A40D7F82C12D7F828321940D7F82C0213
:10577000D7F828321843D7F8243203400B43134498
:10578000C7F80C32D7F82022D7F810321344C7F8E4
:105790002032D7F81022D7F80C321344C7F8303231
:1057A000D7F820324FEAB312D7F820324FEAF3236A
:1057B0005A40D7F820324FEA73635A40D7F8143270
:1057C0001A44D7F81C12D7F818325940D7F82032AB
:1057D0001940D7F818324B401A4407F50E73A3F559
:1057E0009673D3F8D8304FEA734107F50E73A3F5DB
:1057F0009673D3F8D8304FEAF343594007F50E7348
:10580000A3F59673D3F8D8309B0A594007F50E7369
:10581000A3F59673D3F8C430194407F50E73A3F5B6
:105820009673D3F8A4304FEAF31007F50E73A3F57F
:105830009673D3F8A4304FEAB343584007F50E737C
:10584000A3F59673D3F8A430DB084340194407F559
:105850000E73A3F59673D3F8A030194407F50E73B1
:10586000A3F59673C3F8E01007F50E73A3F59673CE
:10587000D3F8E0301A44154B1344C7F81032D7F868
:1058800030324FEAB302D7F830324FEA73335A401E
:10589000D7F830324FEAB3535A40D7F83012D7F81E
:1058A0002C321940D7F83002D7F82C321843D7F8E9
:1058B000283203400B431344C7F80C3208E000BF02
:1058C0004AAAD84E4FCA9C5BF36F2E68EE828F7443
:1058D000D7F82422D7F810321344C7F82432D7F867
:1058E0001022D7F80C321344C7F81432D7F82432F8
:1058F0004FEAB312D7F824324FEAF3235A40D7F8CD
:1059000024324FEA73635A40D7F818321A44D7F852
:105910002012D7F81C325940D7F824321940D7F852
:105920001C324B401A4407F50E73A3F59673D3F857
:10593000DC304FEA734107F50E73A3F59673D3F885
:10594000DC304FEAF343594007F50E73A3F5967325
:10595000D3F8DC309B0A594007F50E73A3F5967314
:10596000D3F8C830194407F50E73A3F59673D3F82E
:10597000A8304FEAF31007F50E73A3F59673D3F82A
:10598000A8304FEAB343584007F50E73A3F596735A
:10599000D3F8A830DB084340194407F50E73A3F58C
:1059A0009673D3F8A430194407F50E73A3F59673D4
:1059B000C3F8E41007F50E73A3F59673D3F8E4303B
:1059C0001A44FC4B1344C7F81032D7F814324FEA8C
:1059D000B302D7F814324FEA73335A40D7F814326F
:1059E0004FEAB3535A40D7F81412D7F8303219405F
:1059F000D7F81402D7F830321843D7F82C320340C6
:105A00000B431344C7F80C32D7F82822D7F81032CA
:105A10001344C7F82832D7F81022D7F80C321344B1
:105A2000C7F81832D7F828324FEAB312D7F828321D
:105A30004FEAF3235A40D7F828324FEA73635A40AB
:105A4000D7F81C321A44D7F82412D7F8203259401C
:105A5000D7F828321940D7F820324B401A4407F5BE
:105A60000E73A3F59673D3F8E0304FEA734107F550
:105A70000E73A3F59673D3F8E0304FEAF343594021
:105A800007F50E73A3F59673D3F8E0309B0A5940DF
:105A900007F50E73A3F59673D3F8CC30194407F5C8
:105AA0000E73A3F59673D3F8AC304FEAF31007F5F5
:105AB0000E73A3F59673D3F8AC304FEAB343584056
:105AC00007F50E73A3F59673D3F8AC30DB084340AB
:105AD000194407F50E73A3F59673D3F8A83019444B
