:020000040800F2
:1000000000500020BD240008B9220008BF220008CB
:10001000C5220008CB220008D12200080000000001
:10002000000000000000000000000000D7220008CF
:10003000E322000800000000EF220008FB22000875
:1000400005250008052500080525000805250008E8
:1000500005250008052500080525000805250008D8
:1000600005250008052500080525000805250008C8
:1000700005250008052500080525000805250008B8
:1000800005250008052500080525000805250008A8
:100090000525000805250008052500080525000898
:1000A0000525000805250008052500080525000888
:1000B0000525000805250008052500080525000878
:1000C0000525000805250008052500080525000868
:1000D00005250008092300081D2300080525000840
:1000E000052500080525000805250008000000007A
:1000F0000000000000000000000000000000000000
:0C01000000000000000000005FF808F1A3
:1001100010B5054C237833B9044B13B10448AFF341
:1001200000800123237010BD600400200000000047
:10013000508A000808B5034B1BB103490348AFF3CD
:10014000008008BD0000000064040020508A000800
:10015000034613F8012B002AFBD1181A0138704707
:1001600081F0004102E000BF83F0004330B54FEA68
:1001700041044FEA430594EA050F08BF90EA020FD5
:100180001FBF54EA000C55EA020C7FEA645C7FEA68
:10019000655C00F0E2804FEA5454D4EB5555B8BF8B
:1001A0006D420CDD2C4480EA020281EA030382EAFC
:1001B000000083EA010180EA020281EA0303362D8E
:1001C00088BF30BD11F0004F4FEA01314FF4801C61
:1001D0004CEA113102D0404261EB410113F0004F73
:1001E0004FEA03334CEA133302D0524263EB43032A
:1001F00094EA050F00F0A780A4F10104D5F1200EC8
:100200000DDB02FA0EFC22FA05F2801841F1000122
:1002100003FA0EF2801843FA05F359410EE0A5F1F6
:1002200020050EF1200E012A03FA0EFC28BF4CF027
:10023000020C43FA05F3C01851EBE37101F00045DD
:1002400007D54FF0000EDCF1000C7EEB00006EEBEA
:100250000101B1F5801F1BD3B1F5001F0CD3490874
:100260005FEA30004FEA3C0C04F101044FEA4452CB
:1002700012F5800F80F09A80BCF1004F08BF5FEA52
:10028000500C50F1000041EB045141EA050130BD32
:100290005FEA4C0C404141EB0101013C28BFB1F544
:1002A000801FE9D291F0000F04BF01460020B1FA8F
:1002B00081F308BF2033A3F10B03B3F120020CDA62
:1002C0000C3208DD02F1140CC2F10C0201FA0CF040
:1002D00021FA02F10CE002F11402D8BFC2F1200CA5
:1002E00001FA02F120FA0CFCDCBF41EA0C0190405B
:1002F000E41AA2BF01EB0451294330BD6FEA0404A4
:100300001F3C1CDA0C340EDC04F11404C4F120028E
:1003100020FA04F001FA02F340EA030021FA04F3A0
:1003200045EA030130BDC4F10C04C4F1200220FAF7
:1003300002F001FA04F340EA0300294630BD21FA35
:1003400004F0294630BD94F0000F83F4801306BFFB
:1003500081F480110134013D4EE77FEA645C18BFEF
:100360007FEA655C29D094EA050F08BF90EA020F86
:1003700005D054EA000C04BF1946104630BD91EA7E
:10038000030F1EBF0021002030BD5FEA545C05D181
:100390004000494128BF41F0004130BD14F58004C0
:1003A0003CBF01F5801130BD01F0004545F0FE4134
:1003B00041F470014FF0000030BD7FEA645C1ABF69
:1003C000194610467FEA655C1CBF0B46024650EAA0
:1003D000013406BF52EA033591EA030F41F40021CC
:1003E00030BD00BF90F0000F04BF0021704730B552
:1003F0004FF4806404F132044FF000054FF0000127
:1004000050E700BF90F0000F04BF0021704730B5E7
:100410004FF4806404F1320410F0004548BF4042BC
:100420004FF000013EE700BF42004FEAE2014FEA11
:1004300031014FEA02701FBF12F07F4393F07F4FEC
:1004400081F06051704732F07F4208BF704793F0EF
:100450007F4F04BF41F40021704730B54FF4607402
:1004600001F0004521F000411CE700BF50EA010205
:1004700008BF704730B54FF000050AE050EA0102AE
:1004800008BF704730B511F0004502D5404261EB1E
:1004900041014FF4806404F132045FEA915C3FF45F
:1004A000D8AE4FF003025FEADC0C18BF03325FEAFC
:1004B000DC0C18BF033202EBDC02C2F1200300FAAD
:1004C00003FC20FA02F001FA03FE40EA0E0021FAD2
:1004D00002F11444BDE600BF70B54FF0FF0C4CF4C0
:1004E000E06C1CEA11541DBF1CEA135594EA0C0F72
:1004F00095EA0C0F00F0DEF82C4481EA030621EAAD
:100500004C5123EA4C5350EA013518BF52EA0335E7
:1005100041F4801143F4801338D0A0FB02CE4FF099
:100520000005E1FB02E506F00042E0FB03E54FF0C9
:100530000006E1FB03569CF0000F18BF4EF0010EC1
:10054000A4F1FF04B6F5007F64F5407404D25FEABD
:100550004E0E6D4146EB060642EAC62141EA555170
:100560004FEAC52040EA5E504FEACE2EB4F1FD0CB2
:1005700088BFBCF5E06F1ED8BEF1004F08BF5FEA30
:10058000500E50F1000041EB045170BD06F00046E2
:1005900046EA010140EA020081EA0301B4EB5C048F
:1005A000C2BFD4EB0C0541EA045170BD41F4801187
:1005B0004FF0000E013C00F3AB8014F1360FDEBFAC
:1005C000002001F0004170BDC4F10004203C35DA88
:1005D0000C341BDC04F11404C4F1200500FA05F30B
:1005E00020FA04F001FA05F240EA020001F00042AC
:1005F00021F0004110EBD37021FA04F642EB060122
:100600005EEA430E08BF20EAD37070BDC4F10C044B
:10061000C4F1200500FA04F320FA05F001FA04F20F
:1006200040EA020001F0004110EBD37041F10001FB
:100630005EEA430E08BF20EAD37070BDC4F1200506
:1006400000FA05F24EEA020E20FA04F301FA05F26E
:1006500043EA020321FA04F001F0004121FA04F216
:1006600020EA020000EBD3705EEA430E08BF20EAE6
:10067000D37070BD94F0000F0FD101F00046400020
:1006800041EB010111F4801F08BF013CF7D041EAA2
:10069000060195F0000F18BF704703F000465200A6
:1006A00043EB030313F4801F08BF013DF7D043EA77
:1006B0000603704794EA0C0F0CEA135518BF95EA2D
:1006C0000C0F0CD050EA410618BF52EA4306D1D1B4
:1006D00081EA030101F000414FF0000070BD50EAD3
:1006E000410606BF1046194652EA430619D094EA5D
:1006F0000C0F02D150EA013613D195EA0C0F05D147
:1007000052EA03361CBF104619460AD181EA03019A
:1007100001F0004141F0FE4141F470014FF0000052
:1007200070BD41F0FE4141F4780170BD70B54FF0ED
:10073000FF0C4CF4E06C1CEA11541DBF1CEA13556D
:1007400094EA0C0F95EA0C0F00F0A7F8A4EB05044F
:1007500081EA030E52EA03354FEA013100F0888046
:100760004FEA03334FF0805545EA131343EA12630F
:100770004FEA022245EA111545EA10654FEA0026C4
:100780000EF000419D4208BF964244F1FD0404F57D
:10079000407402D25B084FEA3202B61A65EB0305D9
:1007A0005B084FEA32024FF480104FF4002CB6EB96
:1007B000020E75EB030E22BFB61A754640EA0C0016
:1007C0005B084FEA3202B6EB020E75EB030E22BF56
:1007D000B61A754640EA5C005B084FEA3202B6EB97
:1007E000020E75EB030E22BFB61A754640EA9C0056
:1007F0005B084FEA3202B6EB020E75EB030E22BF26
:10080000B61A754640EADC0055EA060E18D04FEAE3
:10081000051545EA16754FEA06164FEAC30343EA83
:1008200052734FEAC2025FEA1C1CC0D111F4801F50
:100830000BD141EA00014FF000004FF0004CB6E749
:1008400011F4801F04BF01430020B4F1FD0C88BFE8
:10085000BCF5E06F3FF6AFAEB5EB030C04BFB6EBF3
:10086000020C5FEA500C50F1000041EB045170BDE6
:100870000EF0004E4EEA113114EB5C04C2BFD4EB13
:100880000C0541EA045170BD41F480114FF0000E97
:10089000013C90E645EA060E8DE60CEA135594EA13
:1008A0000C0F08BF95EA0C0F3FF43BAF94EA0C0F16
:1008B0000AD150EA01347FF434AF95EA0C0F7FF48B
:1008C00025AF104619462CE795EA0C0F06D152EADF
:1008D00003353FF4FDAE1046194622E750EA4106C3
:1008E00018BF52EA43067FF4C5AE50EA41047FF4D4
:1008F0000DAF52EA43057FF4EBAE12E74FF0FF3C39
:1009000006E000BF4FF0010C02E000BF4FF0010C09
:100910004DF804CD4FEA410C7FEA6C5C4FEA430C82
:1009200018BF7FEA6C5C1BD001B050EA410C0CBFD1
:1009300052EA430C91EA030F02BF90EA020F002033
:10094000704710F1000F91EA030F58BF994208BF9A
:1009500090422CBFD8176FEAE37040F00100704757
:100960004FEA410C7FEA6C5C02D150EA013C07D1AE
:100970004FEA430C7FEA6C5CD6D152EA033CD3D0F9
:100980005DF8040B704700BF8446104662468C46F3
:100990001946634600E000BF01B5FFF7B7FF002826
:1009A00048BF10F1000F01BD4DF808EDFFF7F4FF4F
:1009B0000CBF012000205DF808FB00BF4DF808EDDA
:1009C000FFF7EAFF34BF012000205DF808FB00BFFD
:1009D0004DF808EDFFF7E0FF94BF012000205DF81F
:1009E00008FB00BF4DF808EDFFF7CEFF94BF0120D4
:1009F00000205DF808FB00BF4DF808EDFFF7C4FFCD
:100A000034BF012000205DF808FB00BF4FEA410C15
:100A10007FEA6C5C02D150EA013C0AD14FEA430CF8
:100A20007FEA6C5C02D152EA033C02D14FF0000035
:100A300070474FF0010070474FEA410212F5001273
:100A400015D211D56FF47873B3EB625212D94FEA15
:100A5000C12343F0004343EA505311F0004F23FAFF
:100A600002F018BF404270474FF00000704750EA54
:100A7000013005D111F0004008BF6FF00040704711
:100A80004FF00000704700BF4A0011D212F500126B
:100A900011D20DD56FF47873B3EB62520ED44FEAD6
:100AA000C12343F0004343EA505323FA02F0704756
:100AB0004FF00000704750EA013002D14FF0FF3094
:100AC00070474FF0000070474FEA4102B2F1E04337
:100AD00024BFB3F5001CDCF1FE5C0DD901F0004C25
:100AE0004FEAC0024CEA5070B2F1004F40EB830075
:100AF00008BF20F00100704711F0804F21D113F1A1
:100B00003872BCBF01F00040704741F480114FEAD9
:100B10005252C2F11802C2F1200C10FA0CF320FA62
:100B200002F018BF40F001004FEAC1234FEAD3237F
:100B300003FA0CFC40EA0C0023FA02F34FEA4303E9
:100B4000CCE77FEA625307D150EA01331EBF4FF072
:100B5000FE4040F44000704701F0004040F0FE408D
:100B600040F40000704700BF38B505460C4600222F
:100B7000002328462146FFF721FF28B928462146B1
:100B8000BDE8384000F00AB8284604F1004100F002
:100B900005F8404261EB410138BD00BFD0B50022ED
:100BA0000B4B06460F46FFF797FCFFF76DFF044619
:100BB000FFF718FC0022074BFFF78EFC02460B469E
:100BC00030463946FFF7D0FAFFF75EFF2146D0BD29
:100BD0000000F03D0000F04180B5B0B000AF78609B
:100BE0003960C34B02221A6000F040FB00F0DEF9CE
:100BF0003B68022B19D03B68022B1EDC3B68002BA4
:100C000003D03B68012B08D017E000F0CFF9B94AB8
:100C10000021002000F0D8FA1FE000F0C7F9B64A22
:100C20000021002000F0D0FA17E000F0BFF9B34A2D
:100C30000021002000F0C8FA0FE000F0B7F9B04B37
:100C4000C7F8B030D7F8B0200021002000F0BCFA7F
:100C50004FF47A7001F0BAFC00BF4FF47A7001F0E3
:100C6000B5FC0023C7F8BC300023C7F8B830002318
:100C7000C7F8B43000F09AF93B68022B00F0D88036
:100C80003B68022B00F317813B68002B03D03B68C5
:100C9000012B71D00FE100F0E9FA00F087F9994AD1
:100CA0000021002000F090FA07F12C03184600F014
:100CB00003FF7868FFF74CFA024607F12C037968C6
:100CC000184601F04DF907F10C0207F12C0311460B
:100CD000184601F0ADF94FF47A7001F077FC00F09E
:100CE000C5FA894A0021002000F06EFA4FF4FA702C
:100CF00001F06CFC00F0BAFA2AE007F10C02D7F818
:100D0000B43013441B781A468049D7F8A80004F081
:100D1000FDF9D7F8B830102B05D10023C7F8B8304B
:100D20000123C7F8BC30D7F8BC305BB2D7F8B82085
:100D300051B2D7F8A820184600F046FAD7F8B430D8
:100D40000133C7F8B430D7F8B8300233C7F8B83039
:100D5000D7F8B4300F2BD0DD4FF47A7001F036FCA9
:100D600000F084FA6A4A0021002000F02DFA4FF4C6
:100D70007A7001F02BFCAEE000F078FA00F016F982
:100D8000644A0021002000F01FFA07F1940319467D
:100D9000786800F06BFE4FF47A7001F017FC00F0F9
:100DA00065FA5D4A0021002000F00EFA4FF4FA7057
:100DB00001F00CFC00F05AFA2AE007F19402D7F88F
:100DC000B43013441B781A465049D7F8A80004F0F1
:100DD0009DF9D7F8B830082B05D10023C7F8B830F3
:100DE0000123C7F8BC30D7F8BC305BB2D7F8B820C5
:100DF00051B2D7F8A820184600F0E6F9D7F8B43079
:100E00000133C7F8B430D7F8B8300233C7F8B83078
:100E1000D7F8B4300F2BD0DD4FF47A7001F0D6FB49
:100E200000F024FA3D4A0021002000F0CDF952E004
:100E300000F01CFA00F0BAF8394A0021002000F056
:100E4000C3F97868FFF784F903469BB219467868BE
:100E500000F070F80346C7F8AC304FF47A7001F038
:100E6000B5FB00F003FA2F4A0021002000F0ACF996
:100E70004FF4FA7001F0AAFBD7F8AC202A49D7F852
:100E8000A80004F043F94FF47A7001F09FFB00F0E2
:100E9000EDF9D7F8A8200021002000F095F94FF4D3
:100EA0007A7001F093FB00F0E1F9204A0021002064
:100EB00000F08AF90FE000F079F81D4BC7F8A43074
:100EC000D7F8A4200021002000F07EF94FF47A70BA
:100ED00001F07CFB00BF4FF47A7001F077FB044B0C
:100EE00000221A6000F0C2F900BFC037BD4680BDC5
:100EF0000C050020688A00087C8A00088C8A00089B
:100F00009C8A0008B88A0008C88A0008DC8A0008A1
:100F1000E48A0008F48A0008048B0008148B000897
:100F2000248B0008348B0008488B00084C8B000889
:100F30005C8B000880B485B000AF78600B467B8086
:100F40004FF6FF73FB8125E07B685A1C7A601B78A3
:100F50001B021AB2B7F90E3053401BB2FB810023BB
:100F60007B7314E0B7F90E30002B09DAFB895B00C4
:100F70001BB283F4815383F001031BB29BB202E0E6
:100F8000FB895B009BB2FB817B7B01337B737B7BAB
:100F9000072BE7D97B885A1E7A80002BD4D1FB8996
:100FA00018461437BD4680BC7047000080B500AFBE
:100FB0001E2001F00BFB00224FF400511C4801F0F1
:100FC00084FE01224FF48051194801F07EFE002278
:100FD0004FF40061164801F078FE00224FF4806162
:100FE000134801F072FE00224FF40041104801F056
:100FF0006CFE01224FF480410D4801F066FE002294
:101000004FF480410A4801F060FE2821002000F0E2
:1010100011F80C21002000F00DF80621002000F04E
:1010200009F80121002000F005F800BF80BD00BFD5
:10103000000C014080B582B000AF03460A46FB7148
:101040001346BB71022001F0C1FA97F90730002B5B
:1010500006D001224FF400415A4801F036FE05E067
:1010600000224FF40041574801F02FFE97F9063057
:10107000002B06DA01224FF48061524801F025FE70
:1010800005E000224FF480614E4801F01EFEBB795E
:1010900003F04003002B06D001224FF400614948C1
:1010A00001F013FE05E000224FF40061454801F015
:1010B0000CFEBB7903F02003002B06D001224FF475
:1010C0008051404801F001FE05E000224FF48051BC
:1010D0003C4801F0FAFDBB7903F01003002B06D069
:1010E00001224FF40051374801F0EFFD05E00022E6
:1010F0004FF40051334801F0E8FD01224FF48041E4
:10110000304801F0E2FD00224FF480412D4801F00B
:10111000DCFDBB7903F00803002B06D001224FF45D
:101120008061284801F0D1FD05E000224FF4806184
:10113000244801F0CAFDBB7903F00403002B06D05C
:1011400001224FF400611F4801F0BFFD05E00022BD
:101150004FF400611B4801F0B8FDBB7903F00203B6
:10116000002B06D001224FF48051164801F0ADFD4E
:1011700005E000224FF48051124801F0A6FDBB7932
:1011800003F00103002B06D001224FF400510D485B
:1011900001F09BFD05E000224FF40051094801F0E9
:1011A00094FD01224FF48041064801F08EFD00229B
:1011B0004FF48041034801F088FD00BF0837BD4669
:1011C00080BD00BF000C014080B582B000AF034677
:1011D0003A60FB710B46BB7197F90730032B3AD885
:1011E00001A252F823F000BFF91100080B12000809
:1011F0001D1200082F120008BB79803BDBB25BB2E6
:1012000019460020FFF716FF1AE0BB79403BDBB21E
:101210005BB219460020FFF70DFF11E0BB79703B70
:10122000DBB25BB219460020FFF704FF08E0BB7990
:10123000303BDBB25BB219460020FFF7FBFE00BF7C
:1012400009E03B6893F9003019460120FFF7F2FEF0
:101250003B6801333B603B6893F90030002BF0D1D1
:1012600000BF00BF0837BD4680BD00BF80B500AFDE
:1012700001210020FFF7DEFE00BF80BD80B483B0F7
:1012800000AF78607B68022B0DD07B68022B0CDCF2
:101290007B68002B03D07B68012B02D005E0064B56
:1012A00004E0064B02E0064B00E0064B18460C3704
:1012B000BD4680BC704700BF808B0008888B00084B
:1012C0008C8B0008948B000880B584B000AF01F0CF
:1012D0001BF900F0CDF800F05BF900F02FF900F0F9
:1012E00003F94FF47A7001F071F90023FB600023D9
:1012F000BB6001237B60FFF759FE574B1B68002B37
:1013000043D17B68012B0DD1544A00210020FFF707
:101310005BFF00237B6001214FF47A7002F030FF05
:101320000346FB604FF480414D4801F0B7FC034693
:10133000002B02D0012B08D00FE041F288334FF48C
:101340007A72F968474802F039F941F288334FF46C
:101350007A72F968444802F031F9FB68002BCCD06E
:10136000FB681B78002BC8D0FFF780FFFA680021CC
:101370000020FFF729FF4FF47A7001F027F9FFF7FB
:1013800075FF354B01221A60B7E7334B1B68012B01
:1013900053D18021324801F081FC0346012B0BD14F
:1013A000BB68012B03DCBB680133BB6001E0002399
:1013B000BB60FFF75BFF2EE04021294801F06EFC87
:1013C0000346012B0BD1BB68002B03DDBB68013B3F
:1013D000BB6001E00223BB60FFF748FF1BE0202158
:1013E0001F4801F05BFC0346012B14D1FFF73EFFC1
:1013F000B868FFF743FF38603A6800210020FFF724
:10140000E3FEFFF733FFB968F868FFF7E5FB012358
:101410007B600023FB60104B1B68002B3FF46DAF1B
:10142000B868FFF72BFF38603A6800210020FFF70B
:10143000CBFEC82001F0CAF85FE7074B1B68022B00
:101440003FF45BAFFFF712FFFFF7B0FD074A002143
:101450000020FFF7B9FE50E70C050020A88B00081C
:1014600000080140C40400207C040020B48B000864
:1014700080B590B000AF07F118032822002118466C
:1014800002F0CAFE3B1D00221A605A609A60DA60C0
:101490001A610223BB610123BB621023FB6200239C
:1014A0007B6307F11803184601F028FC0346002B64
:1014B00001D000F0C3F80F237B600023BB60002342
:1014C000FB6000233B6100237B613B1D002118462C
:1014D00001F096FE0346002B01D000F0AFF800BFEC
:1014E0004037BD4680BD000080B500AF114B124AA9
:1014F0001A60104B4FF4E1325A600E4B00229A6092
:101500000C4B0022DA600B4B00221A61094B0C22B3
:101510005A61084B00229A61064B0022DA610548A5
:1015200001F0FCFF0346002B01D000F087F800BF5C
:1015300080BD00BF7C0400200038014080B500AFB2
:10154000114B124A1A60104B4FF4E1325A600E4BA5
:1015500000229A600C4B0022DA600B4B00221A61C9
:10156000094B0C225A61084B00229A61064B00225B
:10157000DA61054801F0D2FF0346002B01D000F0EC
:101580005DF800BF80BD00BFC404002000440040DF
:1015900080B586B000AF07F1080300221A605A60D8
:1015A0009A60DA60224B9B69214A43F004039361FD
:1015B0001F4B9B6903F004037B607B681C4B9B699A
:1015C0001B4A43F008039361194B9B6903F008031E
:1015D0003B603B6800224FF47C41164801F075FBEC
:1015E00000224FF48041144801F06FFB4FF47C431C
:1015F000BB600123FB6000233B6102237B6107F199
:10160000080319460B4801F0C5F94FF48043BB604D
:101610000123FB6000233B6102237B6107F1080388
:101620001946054801F0B6F900BF1837BD4680BD20
:1016300000100240000C01400008014080B400AFDF
:1016400072B600BFFEE780B483B000AF7860396047
:101650007A683B68C3F1200362FA03F318460C373B
:10166000BD4680BC7047000080B483B000AF786096
:1016700079684FF000024FF00003C1E900237B6856
:10168000074A9A607B68074ADA607B68064A1A61F3
:101690007B68064A5A6100BF0C37BD4680BC704764
:1016A0000123456789ABCDEFFEDCBA987654321042
:1016B0002DE9B04398B000AFF860B9607A60FB687C
:1016C000D3E90023134603F03F03FB65FB68D3E92E
:1016D0000023796800200C46054612EB040843EB12
:1016E0000509FB68C3E900890023BB6548E0BA68C7
:1016F000BB6D1A44FB6D591CF9651178FA681344E7
:101700000A461A76FB6D03F03F03002B35D1002308
:101710007B6525E07B6D9B000333FA6813441B7ED9
:101720001A067B6D9B000233F9680B441B7E1B0479
:101730001A437B6D9B000133F9680B441B7E1B022F
:1017400013437A6D9200F9680A44127E1A437B6D46
:101750009B0060333B4443F84C2C7B6D01337B652D
:101760007B6D0F2BD6D9FB68083307F114021146A5
:10177000184600F0D1F80023FB65BB6D0133BB6553
:10178000BA6D7B689A42B2D300BF00BF6037BD46D6
:10179000BDE8B0832DE9B04396B000AF78607B68B8
:1017A000D3E90023134603F03F03FB64FB6C372BA4
:1017B00003D8FB6CC3F1380302E0FB6CC3F1780380
:1017C000BB64BA6C53497868FFF772FF7B68D3E952
:1017D0000023B96C00200C460546B2EB040863EB0D
:1017E00005097B68C3E9008900237B6525E07B6DE3
:1017F0009B0003337A6813441B7E1A067B6D9B00A3
:10180000023379680B441B7E1B041A437B6D9B00DB
:10181000013379680B441B7E1B0213437A6D9200DF
:1018200079680A44127E1A437B6D9B0058333B440F
:1018300043F8502C7B6D01337B657B6D0D2BD6D926
:101840007B68D3E900231346DB003B647B68D3E964
:1018500000014FF000024FF00003CB0043EA507349
:10186000C2004FF000004FF00001180000210346B5
:101870007B647B68083307F108021146184600F0C4
:101880004BF800233B653CE07B683A6D023253F82D
:1018900022203B6D9B00D1B27A6813440A4683F83C
:1018A00058207B683A6D023253F822301A0A3B6D99
:1018B0009B000133D1B27A6813440A4683F858205A
:1018C0007B683A6D023253F822301A0C3B6D9B0054
:1018D0000233D1B27A6813440A4683F858207B68F1
:1018E0003A6D023253F822301A0E3B6D9B000333DF
:1018F000D1B27A6813440A4683F858203B6D01330D
:101900003B653B6D032BBFD900BF00BF5837BD46B9
:10191000BDE8B0830002002080B58AB000AF7860D7
:1019200039607B681B687B627B685B683B627B68B5
:101930009B68FB617B68DB68BB610023FB606BE03D
:10194000FB681B09022B24D0022B31D8002B02D0BC
:10195000012B0CD02CE03A6AFB691A403B6AD94350
:10196000BB690B4013437B61FB683B612FE03A6A24
:10197000BB691A40BB69D943FB690B4013437B61C8
:10198000FA6813469B001344013303F00F033B61D5
:101990001DE03A6AFB695340BA6953407B61FA68BB
:1019A00013465B001344053303F00F033B610EE065
:1019B000BB69DA433B6A1343FA6953407B61FA68B7
:1019C0001346DB009B1A03F00F033B6100BFBB69AA
:1019D000BB60FB69BB613B6AFB617A6A7B691A4445
:1019E0002049FB6851F823301A443B699B00396851
:1019F0000B441B681A441C49FB6851F823301946F4
:101A00001046FFF720FE02463B6A13443B62BB6868
:101A10007B62FB680133FB60FB683F2B90D97B68DE
:101A20001A687B6A1A447B681A607B6804331968F9
:101A30007B6804333A6A0A441A607B680833196881
:101A40007B680833FA690A441A607B680C331968AA
:101A50007B680C33BA690A441A6000BF2837BD4658
:101A600080BD00BF0001002000000020B0B59CB088
:101A700000AF7860396007F108031846FFF7F4FDFE
:101A80007868FEF765FB024607F108037968184697
:101A9000FFF70EFE07F108031846FFF77BFE3B68D1
:101AA0001D4607F160040FCC28606960AA60EB60F6
:101AB00000BF7037BD46B0BD80B483B000AF786062
:101AC0007B6800221A607B6800225A607B680E4A9D
:101AD0009A607B680D4ADA607B680D4A1A617B6800
:101AE0000C4A5A617B680C4A9A617B680B4ADA613E
:101AF0007B680B4A1A627B680A4A5A6200BF0C373D
:101B0000BD4680BC704700BF67E6096A85AE67BB0B
:101B100072F36E3C3AF54FA57F520E518C68059BCF
:101B2000ABD9831F19CDE05BB0B5ADF5087D00AF33
:101B300007F50873A3F50773186007F50873A3F595
:101B4000087319600023C7F81C323FE0D7F81C3235
:101B50009B001A4607F50873A3F508731B68134426
:101B60001B781A06D7F81C329B00013307F5087161
:101B7000A1F5087109680B441B781B041A43D7F8B8
:101B80001C329B00023307F50871A1F50871096842
:101B90000B441B781B021343D7F81C22920003321C
:101BA00007F50871A1F5087109680A44127843EA3B
:101BB000020107F50873A3F58C73D7F81C2243F8CC
:101BC0002210D7F81C320133C7F81C32D7F81C3268
:101BD000072BBBDD07F50873A3F50673DF4A18462C
:101BE00011464FF480731A4602F008FB0023C7F831
:101BF00018320023C7F81032A4E1D7F810320F2BA7
:101C00000ADC07F50873A3F58C73D7F8102253F894
:101C10002230C7F814326EE0D7F810329A1E07F55A
:101C20000873A3F58C7353F822304FEA7342D7F848
:101C30001032991E07F50873A3F58C7353F8213001
:101C40004FEAF3435A40D7F81032991E07F508734C
:101C5000A3F58C7353F821309B0A5A40D7F8103201
:101C6000D91F07F50873A3F58C7353F821301A4474
:101C7000D7F81032A3F10F0107F50873A3F58C73A1
:101C800053F821304FEAF311D7F81032A3F10F00C7
:101C900007F50873A3F58C7353F820304FEAB3436C
:101CA0005940D7F81032A3F10F0007F50873A3F5D8
:101CB0008C7353F82030DB084B401A44D7F81032AD
:101CC000A3F1100107F50873A3F58C7353F82130C5
:101CD000D11807F50873A3F58C73D7F8102243F8D1
:101CE000221007F50873A3F58C73D7F8102253F868
:101CF0002230C7F81432D7F81832C3F10F0207F5B3
:101D00000873A3F507731B68023253F82220D7F833
:101D10001832C3F10C0107F50873A3F507731B68AC
:101D2000023153F821304FEAB311D7F81832C3F11A
:101D30000C0007F50873A3F507731B68023053F80E
:101D400020304FEAF3235940D7F81832C3F10C0082
:101D500007F50873A3F507731B68023053F82030AA
:101D60004FEA73634B401A44D7F81832C3F10E019F
:101D700007F50873A3F507731B68023153F82110A8
:101D8000D7F81832C3F10C0007F50873A3F50773F1
:101D90001B68023053F82000D7F81832C3F10D0445
:101DA00007F50873A3F507731B68023453F8244042
:101DB000D7F81832C3F10E0507F50873A3F50773BA
:101DC0001B68023553F82530634003404B401A44EA
:101DD00007F50873A3F50673D7F8101253F82130EE
:101DE0001344D7F814221344C7F80C32D7F818322A
:101DF000C3F1080207F50873A3F507731B680232E5
:101E000053F822304FEAB302D7F81832C3F1080171
:101E100007F50873A3F507731B68023153F82130E7
:101E20004FEA73335A40D7F81832C3F1080107F567
:101E30000873A3F507731B68023153F821304FEA8A
:101E4000B3535A40D7F81832C3F1080107F50873A5
:101E5000A3F507731B68023153F82110D7F8183225
:101E6000C3F1090007F50873A3F507731B68023077
:101E700053F820301940D7F81832C3F10A0007F59B
:101E80000873A3F507731B68023053F82000D7F8D6
:101E90001832C3F1080407F50873A3F507731B682C
:101EA000023453F82440D7F81832C3F1090507F576
:101EB0000873A3F507731B68023553F825302343D5
:101EC00003400B431344C7F80832D7F81832C3F164
:101ED0000B0207F50873A3F507731B68023253F86A
:101EE0002210D7F81832C3F10B02D7F80C3219447C
:101EF00007F50873A3F507731B68023243F8221035
:101F0000D7F81832C3F10F02D7F80C12D7F80832FD
:101F1000194407F50873A3F507731B68023243F8E9
:101F20002210D7F818320133C7F81832D7F8183210
:101F3000082B02DD0023C7F81832D7F8103201331E
:101F4000C7F81032D7F810323F2B7FF756AE00BFDC
:101F500000BF07F50877BD46B0BD00BFC88B0008BD
:101F600080B586B000AFF860B9607A607B68002BFE
:101F700059D0FB681B6803F03F037B617B69C3F1A9
:101F800040033B61FB681A687B681A44FB681A606F
:101F9000FB681A68FB681A60FB681B687A689A42DB
:101FA00004D9FB685B685A1CFB685A607B69002B8C
:101FB00028D07A683B699A4224D3FB6803F128024F
:101FC0007B6913443A69B968184602F017F9FB684F
:101FD00028331946F868FFF7A7FD7A683B69D31ADA
:101FE0007B60BA683B691344BB6000237B6109E0F6
:101FF000B968F868FFF798FD7B68403B7B60BB6879
:102000004033BB607B683F2BF2D87B68002B0BD042
:10201000FB6803F128027B6913447A68B9681846A3
:1020200002F0ECF800E000BF1837BD4680BD0000AC
:1020300080B58AB000AF786039607B681B685A0F42
:102040007B685B68DB0013433B627B681B68DB00DB
:10205000FB613B6A1B0EDBB23B733B6A1B0CDBB2C2
:102060007B733B6A1B0ADBB2BB733B6ADBB2FB735D
:10207000FB691B0EDBB23B74FB691B0CDBB27B7490
:10208000FB691B0ADBB2BB74FB69DBB2FB747B68C8
:102090001B6803F03F03BB61BB69372B03D8BB69E7
:1020A000C3F1380302E0BB69C3F178037B617A694D
:1020B00025497868FFF754FF07F10C0308221946F9
:1020C0007868FFF74DFF00237B6235E07B687A6A12
:1020D000023253F822301A0E7B6A9B0019463B6885
:1020E0000B44D2B21A707B687A6A023253F82230FB
:1020F000190C7B6A9B0001333A681344CAB21A7008
:102100007B687A6A023253F82230190A7B6A9B0094
:1021100002333A681344CAB21A707B687A6A023290
:1021200053F822107B6A9B0003333A681344CAB207
:102130001A707B6A01337B627B6A072BC6DD00BFA6
:1021400000BF2837BD4680BD4002002080B483B068
:1021500000AF0E4B9B690D4A43F0010393610B4B9B
:102160009B6903F001037B607B68084BDB69074ACE
:1021700043F08053D361054BDB6903F080533B6030
:102180003B6800BF0C37BD4680BC70470010024062
:1021900080B58AB000AF786007F1180300221A609A
:1021A0005A609A60DA607B681B683F4A93423AD172
:1021B0003E4B9B693D4A43F4804393613B4B9B6993
:1021C00003F480437B617B69384B9B69374A43F05A
:1021D00004039361354B9B6903F004033B613B6946
:1021E0004FF40073BB610223FB6103237B6207F1A1
:1021F000180319462E4800F0CDFB4FF48063BB61F5
:102200000023FB6100233B6207F1180319462848AD
:1022100000F0C0FB00220021252000F0D2FA25208A
:1022200000F0EBFA3CE07B681B68224A934237D10E
:102230001E4BDB691D4A43F40033D3611B4BDB6942
:1022400003F40033FB60FB68184B9B69174A43F0AB
:1022500004039361154B9B6903F00403BB60BB68E7
:102260000423BB610223FB6103237B6207F1180394
:1022700019460F4800F08EFB0823BB610023FB6169
:1022800000233B6207F118031946094800F082FB5E
:1022900000220021262000F094FA262000F0ADFA5A
:1022A00000BF2837BD4680BD003801400010024005
:1022B000000801400044004080B400AFFEE780B455
:1022C00000AFFEE780B400AFFEE780B400AFFEE7EA
:1022D00080B400AFFEE780B400AF00BFBD4680BC55
:1022E000704780B400AF00BFBD4680BC704780B46B
:1022F00000AF00BFBD4680BC704780B500AF00F0A6
:1023000049F900BF80BD000080B500AF024801F070
:10231000E7F900BF80BD00BF7C04002080B500AF9E
:10232000024801F0DDF900BF80BD00BFC4040020F9
:1023300080B400AF01231846BD4680BC704780B50D
:1023400082B000AF7860396001F022FF03461622A8
:102350001A604FF0FF3318460837BD4680BD80B580
:1023600082B000AF78604FF0FF317868FFF7E7FF89
:10237000FEE780B586B000AFF860B9607A600023F0
:102380007B610AE0AFF300800146BB685A1CBA606B
:10239000CAB21A707B6901337B617A697B689A42A1
:1023A000F0DB7B6818461837BD4680BD80B586B027
:1023B00000AFF860B9607A6000237B6109E0BB6818
:1023C0005A1CBA601B781846AFF300807B69013352
:1023D0007B617A697B689A42F1DB7B681846183723
:1023E000BD4680BD80B483B000AF78604FF0FF334E
:1023F00018460C37BD4680BC704780B483B000AF30
:10240000786039603B684FF400525A6000231846E8
:102410000C37BD4680BC704780B483B000AF786095
:10242000012318460C37BD4680BC704780B485B088
:1024300000AFF860B9607A60002318461437BD46D3
:1024400080BC704780B586B000AF7860144A154BE9
:10245000D31A7B617B693B61134B1B68002B02D154
:10246000114B124A1A60104B1A687B6813443A6980
:102470009A4207D201F08CFE03460C221A604FF0FC
:10248000FF3309E0084B1B68FB60074B1A687B6849
:102490001344054A1360FB6818461837BD4680BDD3
:1024A0000050002000040000100500202805002036
:1024B00080B400AF00BFBD4680BC7047FFF7F8FF97
:1024C0000B480C490C4A002302E0D458C450043392
:1024D000C4188C42F9D3094A094C002301E0136067
:1024E0000432A242FBD301F059FEFEF7EDFE704725
:1024F0000000002060040020AC910008600400206F
:1025000028050020FEE7000080B500AF084B1B68DF
:10251000074A43F010031360032000F047F90F202F
:1025200000F008F8FFF712FE0023184680BD00BF38
:102530000020024080B582B000AF7860124B1A686C
:10254000124B1B7819464FF47A73B3FBF1F3B2FBCD
:10255000F3F3184600F05FF90346002B01D0012386
:102560000EE07B680F2B0AD8002279684FF0FF300D
:1025700000F027F9064A7B681360002300E001237E
:1025800018460837BD4680BD800200208802002022
:102590008402002080B400AF054B1B781A46054B1F
:1025A0001B681344034A136000BFBD4680BC7047DC
:1025B000880200201405002080B400AF024B1B6885
:1025C0001846BD4680BC70471405002080B584B015
:1025D00000AF7860FFF7F0FFB8607B68FB60FB68D6
:1025E000B3F1FF3F05D00A4B1B781A46FB68134432
:1025F000FB6000BFFFF7E0FF0246BB68D31AFA6832
:102600009A42F7D800BF00BF1037BD4680BD00BF5B
:102610008802002080B485B000AF78607B6803F04A
:102620000703FB600C4BDB68BB60BA684FF6FF0327
:102630001340BB60FB681A02BB68134343F0BF63DF
:1026400043F40033BB60044ABB68D36000BF143757
:10265000BD4680BC704700BF00ED00E080B400AF15
:10266000044BDB681B0A03F007031846BD4680BC19
:10267000704700BF00ED00E080B483B000AF0346B8
:10268000FB7197F90730002B0BDBFB7903F01F027E
:10269000064997F907305B09012000FA02F241F878
:1026A000232000BF0C37BD4680BC704700E100E02E
:1026B00080B483B000AF03463960FB7197F90730EF
:1026C000002B0ADB3B68DAB20C4997F9073012019C
:1026D000D2B20B4483F800230AE03B68DAB208491F
:1026E000FB7903F00F03043B1201D2B20B441A76BC
:1026F00000BF0C37BD4680BC704700BF00E100E062
:1027000000ED00E080B489B000AFF860B9607A6095
:10271000FB6803F00703FB61FB69C3F10703042BAC
:1027200028BF0423BB61FB690433062B02D9FB6974
:10273000033B00E000237B614FF0FF32BB6902FAEC
:1027400003F3DA43BB681A407B699A404FF0FF31CC
:102750007B6901FA03F3D9437B680B4013431846A6
:102760002437BD4680BC704780B582B000AF78602A
:102770007B68013BB3F1807F01D301230FE00A4A5C
:102780007B68013B53600F214FF0FF30FFF790FF54
:10279000054B00229A60044B07221A60002318465A
:1027A0000837BD4680BD00BF10E000E080B582B0B4
:1027B00000AF78607868FFF72DFF00BF0837BD468F
:1027C00080BD80B586B000AF0346B9607A60FB7308
:1027D00000237B61FFF742FF78617A68B968786906
:1027E000FFF790FF024697F90F3011461846FFF7A2
:1027F0005FFF00BF1837BD4680BD80B582B000AF17
:102800000346FB7197F907301846FFF735FF00BF05
:102810000837BD4680BD80B582B000AF786078686B
:10282000FFF7A2FF034618460837BD4680BD80B4B7
:1028300085B000AF78600023FB737B6893F821308C
:10284000DBB2022B08D07B6804229A637B680022EB
:1028500083F82020012320E07B681B681A687B68CE
:102860001B6822F00E021A607B681B681A687B687E
:102870001B6822F001021A607B681A6C7B68DB6BB4
:10288000012101FA02F25A607B68012283F82120BB
:102890007B68002283F82020FB7B18461437BD4656
:1028A00080BC704780B584B000AF78600023FB73B4
:1028B0007B6893F82130DBB2022B05D07B680422C1
:1028C0009A630123FB7351E07B681B681A687B687D
:1028D0001B6822F00E021A607B681B681A687B680E
:1028E0001B6822F001021A607B681B68224A93422F
:1028F00029D07B681B68214A934222D07B681B68E1
:102900001F4A93421AD07B681B681E4A934212D01A
:102910007B681B681C4A93420AD07B681B681B4A71
:10292000934202D14FF480130EE04FF080730BE01E
:102930004FF4803308E04FF4805305E04FF4807388
:1029400002E0102300E00123114A53607B6801225A
:1029500083F821207B68002283F820207B685B6B52
:10296000002B03D07B685B6B78689847FB7B18462D
:102970001037BD4680BD00BF080002401C00024069
:102980003000024044000240580002406C00024007
:102990000000024080B48BB000AF78603960002343
:1029A0007B6200233B6269E101227B6A02FA03F346
:1029B000FB613B681B68FA691340BB61BA69FB693C
:1029C0009A4240F058813B685B689A4A93425ED0D5
:1029D000984A934275D8984A934258D0964A93425F
:1029E0006FD8964A934252D0944A934269D8944AF7
:1029F00093424CD0924A934263D8924A934246D033
:102A0000904A93425DD8122B2AD8122B59D801A292
:102A100052F823F08F2A0008692A00087B2A000850
:102A2000BD2A0008C32A0008C32A0008C32A0008D8
:102A3000C32A0008C32A0008C32A0008C32A0008C2
:102A4000C32A0008C32A0008C32A0008C32A0008B2
:102A5000C32A0008C32A0008712A0008852A000832
:102A6000794A934213D02CE03B68DB683B6229E053
:102A70003B68DB6804333B6224E03B68DB68083377
:102A80003B621FE03B68DB680C333B621AE03B684B
:102A90009B68002B02D104233B6213E03B689B68D8
:102AA000012B05D108233B627B68FA691A6109E0B2
:102AB00008233B627B68FA695A6103E000233B62AA
:102AC00000E000BFBB69FF2B01D87B6801E07B6899
:102AD00004337B61BB69FF2B02D87B6A9B0002E059
:102AE0007B6A083B9B003B617B691A680F213B694D
:102AF00001FA03F3DB431A40396A3B6901FA03F335
:102B00001A437B691A603B685B6803F08053002BB3
:102B100000F0B1804D4B9B694C4A43F00103936137
:102B20004A4B9B6903F00103BB60BB68484A7B6A60
:102B30009B08023352F82330FB607B6A03F00303E7
:102B40009B000F2202FA03F3DB43FA681340FB6099
:102B50007B68404A934213D07B683F4A93420DD032
:102B60007B683E4A934207D07B683D4A934201D13D
:102B7000032306E0042304E0022302E0012300E033
:102B800000237A6A02F0030292009340FA6813432A
:102B9000FB602F497B6A9B080233FA6841F82320C7
:102BA0003B685B6803F48013002B06D02D4B9A68BA
:102BB0002C49BB6913438B6006E02A4B9A68BB69BA
:102BC000DB43284913408B603B685B6803F40013C8
:102BD000002B06D0234BDA682249BB691343CB6034
:102BE00006E0204BDA68BB69DB431E491340CB602B
:102BF0003B685B6803F40033002B06D0194B5A681E
:102C00001849BB6913434B6006E0164B5A68BB6911
:102C1000DB43144913404B603B685B6803F480332B
:102C2000002B21D00F4B1A680E49BB6913430B6070
:102C300021E000BF0000321000003110000022101F
:102C400000002110000012100000111000100240BE
:102C50000000014000080140000C0140001001404C
:102C600000140140000401400B4B1A68BB69DB43B0
:102C7000094913400B607B6A01337B623B681A6829
:102C80007B6A22FA03F3002B7FF48EAE00BF00BFF5
:102C90002C37BD4680BC70470004014080B485B02D
:102CA00000AF78600B467B807B689A687B88134016
:102CB000002B02D00123FB7301E00023FB73FB7B9D
:102CC00018461437BD4680BC704780B483B000AF4F
:102CD00078600B467B8013467B707B78002B03D09B
:102CE0007A887B681A6103E07B881A047B681A6122
:102CF00000BF0C37BD4680BC7047000080B586B071
:102D000000AF78607B68002B01D1012372E27B6801
:102D10001B6803F00103002B00F08780924B5B6877
:102D200003F00C03042B0CD08F4B5B6803F00C03F7
:102D3000082B12D18C4B5B6803F48033B3F5803FD2
:102D40000BD1894B1B6803F40033002B6CD07B68DC
:102D50005B68002B68D101234CE27B685B68B3F5AC
:102D6000803F06D1804B1B687F4A43F48033136059
:102D70002EE07B685B68002B0CD17B4B1B687A4A8A
:102D800023F480331360784B1B68774A23F4802345
:102D900013601DE07B685B68B3F5A02F0CD1724B0C
:102DA0001B68714A43F4802313606F4B1B686E4AA3
:102DB00043F4803313600BE06B4B1B686A4A23F4C7
:102DC00080331360684B1B68674A23F480231360C9
:102DD0007B685B68002B13D0FFF7EEFB386108E0DF
:102DE000FFF7EAFB02463B69D31A642B01D90323A0
:102DF00000E25D4B1B6803F40033002BF0D014E0BD
:102E0000FFF7DAFB386108E0FFF7D6FB02463B69C3
:102E1000D31A642B01D90323ECE1534B1B6803F451
:102E20000033002BF0D100E000BF7B681B6803F08B
:102E30000203002B63D04C4B5B6803F00C03002BA8
:102E40000BD0494B5B6803F00C03082B1CD1464B9D
:102E50005B6803F48033002B16D1434B1B6803F0EF
:102E60000203002B05D07B681B69012B01D00123D5
:102E7000C0E13D4B1B6823F0F8027B685B69DB0017
:102E8000394913430B603AE07B681B69002B20D063
:102E9000364B01221A60FFF78FFB386108E0FFF71D
:102EA0008BFB02463B69D31A022B01D90323A1E114
:102EB0002D4B1B6803F00203002BF0D02A4B1B683C
:102EC00023F0F8027B685B69DB00274913430B6042
:102ED00015E0264B00221A60FFF76EFB386108E010
:102EE000FFF76AFB02463B69D31A022B01D9032381
:102EF00080E11D4B1B6803F00203002BF0D17B68BF
:102F00001B6803F00803002B3AD07B689B69002BF9
:102F100019D0174B01221A60FFF74EFB386108E009
:102F2000FFF74AFB02463B69D31A022B01D9032360
:102F300060E10D4B5B6A03F00203002BF0D001202F
:102F400000F0CEFA1CE00A4B00221A60FFF734FBB7
:102F500038610FE0FFF730FB02463B69D31A022BC2
:102F600008D9032346E100BF00100240000042429E
:102F700080044242924B5B6A03F00203002BE9D1CA
:102F80007B681B6803F00403002B00F0A68000237D
:102F9000FB758B4BDB6903F08053002B0DD1884B05
:102FA000DB69874A43F08053D361854BDB6903F0CB
:102FB0008053BB60BB680123FB75824B1B6803F425
:102FC0008073002B18D17F4B1B687E4A43F48073BB
:102FD0001360FFF7F1FA386108E0FFF7EDFA0246F7
:102FE0003B69D31A642B01D9032303E1754B1B689A
:102FF00003F48073002BF0D07B68DB68012B06D1D3
:103000006F4B1B6A6E4A43F0010313622DE07B682D
:10301000DB68002B0CD16A4B1B6A694A23F0010361
:103020001362674B1B6A664A23F0040313621CE0B9
:103030007B68DB68052B0CD1614B1B6A604A43F04F
:10304000040313625E4B1B6A5D4A43F00103136283
:103050000BE05B4B1B6A5A4A23F001031362584B87
:103060001B6A574A23F0040313627B68DB68002B5A
:1030700015D0FFF7A1FA38610AE0FFF79DFA024682
:103080003B69D31A41F28832934201D90323B1E05C
:103090004B4B1B6A03F00203002BEED014E0FFF74A
:1030A0008BFA38610AE0FFF787FA02463B69D31AC8
:1030B00041F28832934201D903239BE0404B1B6AC3
:1030C00003F00203002BEED1FB7D012B05D13C4B1D
:1030D000DB693B4A23F08053D3617B68DB69002BBB
:1030E00000F08780364B5B6803F00C03082B61D03F
:1030F0007B68DB69022B46D1334B00221A60FFF755
:103100005BFA386108E0FFF757FA02463B69D31AC9
:10311000022B01D903236DE0294B1B6803F00073D8
:10312000002BF0D17B681B6AB3F5803F08D1244B9C
:103130005B6823F400327B689B68214913434B6032
:103140001F4B5B6823F474127B68196A7B685B6AA7
:103150000B431B4913434B601B4B01221A60FFF7C3
:103160002BFA386108E0FFF727FA02463B69D31AC9
:10317000022B01D903233DE0114B1B6803F00073C0
:10318000002BF0D035E0104B00221A60FFF714FA44
:10319000386108E0FFF710FA02463B69D31A022BA8
:1031A00001D9032326E0064B1B6803F00073002BB4
:1031B000F0D11EE07B68DB69012B07D1012319E008
:1031C0000010024000700040600042420B4B5B6800
:1031D000FB60FB6803F480327B681B6A9A4206D16D
:1031E000FB6803F470127B685B6A9A4201D001238A
:1031F00000E0002318461837BD4680BD001002408D
:1032000080B584B000AF786039607B68002B01D155
:103210000123D0E06A4B1B6803F007033A689A4227
:1032200010D9674B1B6823F0070265493B681343BD
:103230000B60634B1B6803F007033A689A4201D0A6
:103240000123B8E07B681B6803F00203002B20D049
:103250007B681B6803F00403002B05D0594B5B68A7
:10326000584A43F4E06353607B681B6803F008032B
:10327000002B05D0534B5B68524A43F460535360B4
:10328000504B5B6823F0F0027B689B684D49134309
:103290004B607B681B6803F00103002B40D07B6808
:1032A0005B68012B07D1474B1B6803F40033002BED
:1032B00015D101237FE07B685B68022B07D1414B6E
:1032C0001B6803F00073002B09D1012373E03D4B11
:1032D0001B6803F00203002B01D101236BE0394B83
:1032E0005B6823F003027B685B68364913434B60DD
:1032F000FFF762F9F8600AE0FFF75EF90246FB6843
:10330000D31A41F28832934201D9032353E02D4B63
:103310005B6803F00C027B685B689B009A42EBD110
:10332000274B1B6803F007033A689A4210D2244BDC
:103330001B6823F0070222493B6813430B60204BB4
:103340001B6803F007033A689A4201D0012332E078
:103350007B681B6803F00403002B08D0194B5B68E3
:1033600023F4E0627B68DB68164913434B607B689B
:103370001B6803F00803002B09D0124B5B6823F491
:1033800060527B681B69DB000E4913434B6000F001
:1033900021F802460B4B5B681B0903F00F030A4937
:1033A000CB5C22FA03F3094A1360094B1B681846E9
:1033B000FFF7C0F8002318461037BD4680BD00BF98
:1033C0000020024000100240C88C0008800200204B
:1033D0008402002080B487B000AF0023FB6000238C
:1033E000BB6000237B6100237B6000233B611E4B9D
:1033F0005B68FB60FB6803F00C03042B02D0082B16
:1034000003D027E0194B3B6127E0FB689B0C03F0DE
:103410000F03174AD35C7B60FB6803F48033002BF7
:1034200010D0114B5B685B0C03F00103114AD35CB5
:10343000BB607B680D4A03FB02F2BB68B2FBF3F38F
:103440007B6104E07B680C4A02FB03F37B617B69D0
:103450003B6102E0054B3B6100BF3B6918461C37EE
:10346000BD4680BC704700BF0010024000127A00C9
:10347000E08C0008F08C000800093D0080B400AF2B
:10348000024B1B681846BD4680BC70478002002076
:1034900080B500AFFFF7F2FF0246054B5B681B0AE1
:1034A00003F007030349CB5C22FA03F3184680BDFF
:1034B00000100240D88C000880B500AFFFF7DEFF97
:1034C0000246054B5B68DB0A03F007030349CB5C4C
:1034D00022FA03F3184680BD00100240D88C000881
:1034E00080B485B000AF78600A4B1B680A4AA2FB23
:1034F00003235B0A7A6802FB03F3FB6000BFFB68EF
:103500005A1EFA60002BF9D100BF00BF1437BD4628
:1035100080BC704780020020D34D621080B582B01D
:1035200000AF78607B68002B01D1012342E07B680B
:1035300093F84130DBB2002B06D17B68002283F880
:1035400040207868FEF724FE7B68242283F841201F
:103550007B681B68DA687B681B6822F40052DA60BB
:10356000786800F07FFD7B681B681A697B681B68C0
:1035700022F490421A617B681B685A697B681B6859
:1035800022F02A025A617B681B68DA687B681B6834
:1035900042F40052DA607B6800225A647B68202281
:1035A00083F841207B68202283F842207B68002238
:1035B0005A63002318460837BD4680BD80B58AB0DF
:1035C00002AFF860B9603B601346FB8000237B616B
:1035D000FB6893F84230DBB2202B7CD1BB68002B18
:1035E00002D0FB88002B01D1012375E0FB6800228B
:1035F0005A64FB68222283F84220FB6800221A6387
:10360000FEF7DAFF7861FB68FA889A85FB68FA882A
:10361000DA85FB689B68B3F5805F08D1FB681B699E
:10362000002B04D10023FB61BB68BB6103E0BB68D6
:10363000FB610023BB6143E03B6800937B69002290
:103640002021F86800F004FB0346002B01D003237F
:1036500042E0FB69002B0CD1FB681B685B689BB2E6
:10366000C3F308039AB2BB691A80BB690233BB611A
:103670001FE0FB689B68B3F5805F07D0FB689B6821
:10368000002B0AD1FB681B69002B06D1FB681B6865
:103690005B68DAB2FB691A7008E0FB681B685B685C
:1036A000DBB203F07F03DAB2FB691A70FB69013306
:1036B000FB61FB68DB8D9BB2013B9AB2FB68DA854C
:1036C000FB68DB8D9BB2002BB6D1FB68202283F810
:1036D0004220002300E0022318462037BD4680BD6B
:1036E00080B5BAB000AF78607B681B681B68C7F80C
:1036F000E4307B681B68DB68C7F8E0307B681B68D8
:103700005B69C7F8DC300023C7F8D8300023C7F85E
:10371000D430D7F8E43003F00F03C7F8D830D7F827
:10372000D830002B0FD1D7F8E43003F02003002B62
:1037300009D0D7F8E03003F02003002B03D07868DD
:1037400000F0D1FB5BE2D7F8D830002B00F0DE8030
:10375000D7F8DC3003F00103002B06D1D7F8E030B6
:1037600003F49073002B00F0D180D7F8E43003F01D
:103770000103002B0BD0D7F8E03003F48073002B4B
:1037800005D07B685B6C43F001027B685A64D7F814
:10379000E43003F00403002B0BD0D7F8DC3003F047
:1037A0000103002B05D07B685B6C43F002027B6851
:1037B0005A64D7F8E43003F00203002B0BD0D7F89B
:1037C000DC3003F00103002B05D07B685B6C43F019
:1037D00004027B685A64D7F8E43003F00803002B36
:1037E00011D0D7F8E03003F02003002B05D1D7F833
:1037F000DC3003F00103002B05D07B685B6C43F0E9
:1038000008027B685A647B685B6C002B00F0F281D5
:10381000D7F8E43003F02003002B08D0D7F8E030CD
:1038200003F02003002B02D0786800F05CFB7B687B
:103830001B685B6903F04003002B14BF01230023C6
:10384000DBB2C7F8D4307B685B6C03F00803002B55
:1038500003D1D7F8D430002B4FD0786800F066FA47
:103860007B681B685B6903F04003002B41D07B68D9
:103870001B681433C7F89C30D7F89C3053E8003FDE
:10388000C7F89830D7F8983023F04003C7F8D03005
:103890007B681B681433D7F8D020C7F8A820C7F876
:1038A000A430D7F8A410D7F8A82041E80023C7F81F
:1038B000A030D7F8A030002BD9D17B68DB6B002B70
:1038C00013D07B68DB6B7E4A5A637B68DB6B1846E0
:1038D000FEF7E8FF0346002B16D07B68DB6B5B6BC3
:1038E0007A68D26B104698470EE0786800F09CF931
:1038F0000AE0786800F098F906E0786800F094F93A
:103900007B6800225A6475E100BF73E17B681B6B22
:10391000012B40F04F81D7F8E43003F01003002B67
:1039200000F04881D7F8E03003F01003002B00F0DE
:1039300041810023BB607B681B681B68BB607B68A0
:103940001B685B68BB60BB687B681B685B6903F0D6
:103950004003002B00F0B6807B68DB6B1B685B6864
:10396000A7F8BE30B7F8BE30002B00F045817B6869
:103970009B8DB7F8BE209A4280F03E817B68B7F8F5
:10398000BE20DA857B68DB6B9B69202B00F088808A
:103990007B681B680C33C7F88830D7F8883053E849
:1039A000003FC7F88430D7F8843023F48073C7F819
:1039B000B8307B681B680C33D7F8B820C7F8942060
:1039C000C7F89030D7F89010D7F8942041E800233A
:1039D000C7F88C30D7F88C30002BD9D17B681B68A6
:1039E00014337B677B6F53E8003F3B673B6F23F0EB
:1039F0000103C7F8B4307B681B681433D7F8B420D0
:103A0000C7F88020FB67F96FD7F8802041E80023D2
:103A1000BB67BB6F002BE1D17B681B6814333B662F
:103A20003B6E53E8003FFB65FB6D23F04003C7F896
:103A3000B0307B681B681433D7F8B020FA66BB66D9
:103A4000B96EFA6E41E800237B667B6E002BE3D1F2
:103A50007B68202283F842207B6800221A637B68FF
:103A60001B680C33FB64FB6C53E8003FBB64BB6C0E
:103A700023F01003C7F8AC307B681B680C33D7F811
:103A8000AC20BA657B65796DBA6D41E800233B6572
:103A90003B6D002BE3D17B68DB6B1846FEF7C7FE5E
:103AA0007B6802225A637B689A8D7B68DB8D9BB2B0
:103AB000D31A9BB21946786800F0BFF89CE000BFAB
:103AC000F13D00087B689A8D7B68DB8D9BB2D31A31
:103AD000A7F8CE307B68DB8D9BB2002B00F08E8088
:103AE000B7F8CE30002B00F089807B681B680C3360
:103AF000BB63BB6B53E8003F7B637B6B23F490732A
:103B0000C7F8C8307B681B680C33D7F8C8207A64C4
:103B10003B64396C7A6C41E80023FB63FB6B002B40
:103B2000E3D17B681B6814337B627B6A53E8003FF8
:103B30003B623B6A23F00103C7F8C4307B681B6813
:103B40001433D7F8C4203A63FB62F96A3A6B41E850
:103B50000023BB62BB6A002BE3D17B68202283F881
:103B600042207B6800221A637B681B680C333B6130
:103B70003B6953E8003FFB60FB6823F01003C7F884
:103B8000C0307B681B680C33D7F8C020FA61BB617A
:103B9000B969FA6941E800237B617B69002BE3D1B5
:103BA0007B6802225A63B7F8CE301946786800F075
:103BB00044F823E0D7F8E43003F08003002B09D069
:103BC000D7F8E03003F08003002B03D0786800F0D2
:103BD00023F914E0D7F8E43003F04003002B0ED0B3
:103BE000D7F8E03003F04003002B08D0786800F0ED
:103BF00062F904E000BF02E000BF00E000BFE83768
:103C0000BD4680BD80B483B000AF786000BF0C3784
:103C1000BD4680BC704780B483B000AF786000BF01
:103C20000C37BD4680BC704780B483B000AF78606D
:103C300000BF0C37BD4680BC704780B483B000AF76
:103C400078600B467B8000BF0C37BD4680BC704758
:103C500080B590B000AFF860B9603B601346FB716F
:103C600050E0BB6CB3F1FF3F4CD0BB6C002B07D0D6
:103C7000FEF7A2FC02463B68D31ABA6C9A4241D2C4
:103C8000FB681B680C33BB62BB6A53E8003F7B6276
:103C90007B6A23F4D073FB63FB681B680C33FA6BFD
:103CA0007A633B63396B7A6B41E80023FB62FB6A02
:103CB000002BE5D1FB681B6814337B617B6953E8FB
:103CC000003F3B613B6923F00103BB63FB681B685A
:103CD0001433BA6B3A62FB61F9693A6A41E800232E
:103CE000BB61BB69002BE5D1FB68202283F8412032
:103CF000FB68202283F84220FB68002283F84020E2
:103D000003230FE0FB681B681A68BB681340BA689E
:103D10009A420CBF01230023DBB21A46FB799A4278
:103D20009FD0002318464037BD4680BD80B495B073
:103D300000AF78607B681B680C337B637B6B53E858
:103D4000003F3B633B6B23F49073FB647B681B6811
:103D50000C33FA6C3A64FB63F96B3A6C41E800236C
:103D6000BB63BB6B002BE5D17B681B6814333B62E4
:103D70003B6A53E8003FFB61FB6923F00103BB642E
:103D80007B681B681433BA6CFA62BB62B96AFA6A60
:103D900041E800237B627B6A002BE5D17B681B6BCB
:103DA000012B19D17B681B680C33FB60FB6853E85F
:103DB000003FBB60BB6823F010037B647B681B681B
:103DC0000C337A6CBA617B617969BA6941E8002386
:103DD0003B613B69002BE5D17B68202283F84220C0
:103DE0007B6800221A6300BF5437BD4680BC704711
:103DF00080B584B000AF78607B685B6AFB60FB686D
:103E00000022DA85FB680022DA84F868FFF70CFFED
:103E100000BF1037BD4680BD80B485B000AF78606C
:103E20007B6893F84130DBB2212B3ED17B689B68E5
:103E3000B3F5805F14D17B681B69002B10D17B68C0
:103E40001B6AFB60FB681B881A467B681B68C2F311
:103E500008025A607B681B6A9A1C7B681A6208E039
:103E60007B681B6A591C7A6811621A787B681B6828
:103E70005A607B68DB8C9BB2013B9BB27A68194627
:103E8000D184002B0FD17B681B68DA687B681B68C4
:103E900022F08002DA607B681B68DA687B681B6846
:103EA00042F04002DA60002300E002231846143793
:103EB000BD4680BC704780B582B000AF78607B683B
:103EC0001B68DA687B681B6822F04002DA607B6856
:103ED000202283F841207868FFF794FE00231846DB
:103EE0000837BD4680BD80B58CB000AF78607B6878
:103EF00093F84230DBB2222B40F0AE807B689B68A7
:103F0000B3F5805F17D17B681B69002B13D10023A9
:103F1000FB627B689B6ABB627B681B685B689BB2C9
:103F2000C3F308039AB2BB6A1A807B689B6A9A1C27
:103F30007B689A6226E07B689B6AFB620023BB6217
:103F40007B689B68B3F5805F07D07B689B68002B1C
:103F50000AD17B681B69002B06D17B681B685B68F4
:103F6000DAB2FB6A1A7008E07B681B685B68DBB238
:103F700003F07F03DAB2FB6A1A707B689B6A5A1CF3
:103F80007B689A627B68DB8D9BB2013B9BB27A684F
:103F90001946D185002B5DD17B681B68DA687B6888
:103FA0001B6822F02002DA607B681B68DA687B6895
:103FB0001B6822F48072DA607B681B685A697B6830
:103FC0001B6822F001025A617B68202283F842209C
:103FD0007B6800225A637B681B6B012B35D17B68A1
:103FE00000221A637B681B680C337B617B6953E892
:103FF000003F3B613B6923F010037B627B681B68D9
:104000000C337A6A3A62FB61F9693A6A41E8002343
:10401000BB61BB69002BE5D17B681B681B6803F0A3
:104020001003102B0AD10023FB607B681B681B6800
:10403000FB607B681B685B68FB60FB687B689B8D33
:1040400019467868FFF7F9FD02E07868FFF7E3FDAD
:10405000002302E0002300E0022318463037BD466B
:1040600080BD000080B584B000AF78607B681B68BD
:104070001B6923F440517B68DA687B681B680A433C
:104080001A617B689A687B681B691A437B685B6965
:104090001343BB607B681B68DB6823F4B05323F0D9
:1040A0000C037A681268B9680B43D3607B681B689D
:1040B0005B6923F440717B689A697B681B680A43DB
:1040C0005A617B681B682C4A934203D1FFF7F4F9CD
:1040D000F86002E0FFF7DCF9F860FA6813469B002D
:1040E00013449A001A447B685B689B00B2FBF3F3AD
:1040F000224AA2FB03235B091901FA6813469B00BD
:1041000013449A001A447B685B689B00B2FBF3F28D
:104110001A4BA3FB02035B09642000FB03F3D31AD1
:104120001B013233154AA2FB03235B0903F0F003A2
:104130001944FA6813469B0013449A001A447B689A
:104140005B689B00B2FBF3F20C4BA3FB02035B0921
:10415000642000FB03F3D31A1B013233074AA2FB8E
:1041600003235B0903F00F027B681B680A449A6013
:1041700000BF1037BD4680BD003801401F85EB51A0
:10418000024B0A460146186800F04EB88C02002027
:10419000014B1868704700BF8C02002070B50026E4
:1041A0000C4D0D4C641BA410A64209D104F050FC28
:1041B00000260A4D0A4C641BA410A64205D170BD0E
:1041C00055F8043B98470136EEE755F8043B98470D
:1041D0000136F2E7A4910008A4910008A491000818
:1041E000A89100087047704770470000024B0146D5
:1041F000186800F095B800BF8C0200200A44914274
:1042000000F1FF3300D1704710B511F8014B914216
:1042100003F8014FF9D110BD03460244934200D187
:10422000704703F8011BF9E770B5A1FB025434B9DC
:10423000294600F075F8064628B9304670BD0C22B4
:1042400000260260F9E72A462146FFF7E5FFF4E77A
:1042500038B50546002940D051F8043C0C1F002B0E
:10426000B8BFE41803F01EFA1C4A136833B9636040
:1042700014602846BDE8384003F01ABAA34208D9B2
:10428000206821188B4201BF19685B6809182160FA
:10429000EDE71A465B680BB1A342FAD911685018D2
:1042A000A0420BD120680144501883421160E0D134
:1042B00018685B68014411605360DAE702D90C2387
:1042C0002B60D6E7206821188B4201BF19685B6814
:1042D0000918216063605460CBE738BD1C050020DD
:1042E00070B50E4E0C463168054611B900F0FAFE65
:1042F00030602146284600F0F5FE431C0AD0C41C5D
:1043000024F00304A04207D0211A284600F0EAFE58
:10431000013001D14FF0FF34204670BD2005002050
:104320002DE9F041CD1C25F0030508350C2D38BFD3
:104330000C25002D074601DBA94205D90C230026D8
:104340003B603046BDE8F0812E4E03F0ABF9336898
:104350001C4634BB29463846FFF7C2FF431C0446BF
:104360004DD134682646002E40D123683146384668
:1043700004EB030800F0B6FE80453AD1216803350E
:104380006D1A25F0030508350C2D38BF0C2538466D
:104390002946FFF7A5FF01302BD023682B4423606B
:1043A0000EE02268521B1ED40B2A16D96119A342B3
:1043B000256018BF5960636808BF316062514B6067
:1043C000384604F10B0603F073F926F00706231DA7
:1043D000F21AB6D09B1BA350B3E76268A3420CBF8E
:1043E00032605A60ECE723466468B2E73446766888
:1043F000B9E70C2338463B6003F05AF9A1E7256082
:10440000DEE700BF1C050020002B2DE9F0471F460A
:10441000BBBF03F100431F4600232D2388B0144681
:10442000129A109D1370149BDDF84CA023F0200805
:10443000B8F1460F05D0B8F1450F00D10135022380
:1044400000E0032307AA049206AACDE902A2CDE95F
:10445000003522463B4601F093FDB8F1470F064672
:1044600002D1119BDB0722D5B8F1460F06EB0509F7
:1044700010D13378302B0AD1002200232046394650
:10448000FCF792FA18B9C5F10105CAF80050DAF83C
:10449000003099440022002320463946FCF784FA74
:1044A00008B1CDF81C903022079B4B4507D330460E
:1044B000079B159A9B1B136008B0BDE8F087591C39
:1044C00007911A70F0E70346F7B5002903F8022BAD
:1044D000B6BF2D222B224942092942702BDD0DF156
:1044E0000704A4460A2791FBF7F60A46A64607FBEF
:1044F0001615632A05F13005314604F1FF340EF834
:10450000015CF0DC3031AEF1020504F8011C2946F3
:10451000441C61450AD30DF10902A2EB0E02654568
:1045200088BF00221344181A03B0F0BD11F8012B04
:1045300004F8012FEDE7302330318370C170031D83
:10454000F1E700002DE9F04F91B00C46DDF86880EE
:1045500016461F46054603F01BF8036818460993E4
:10456000FBF7F6FD00230E93D8F800300A900733CE
:1045700023F0070303F1080294F81890D4F800B070
:10458000C8F80020D3E90023C4E91223D4E9128A31
:104590002AF000430B934FF0FF3240469C4B0B999F
:1045A000FCF734FA70BB4FF0FF324046984B0B9942
:1045B000FCF70EFA30BB0022002340465146FCF7C0
:1045C000FDF910B12D2384F84330924B9248B9F194
:1045D000470F94BF9846804603234FF0000A23619B
:1045E0002BF00403236033462146284600970FAA88
:1045F00000F0D4F9013040F090804FF0FF3011B05E
:10460000BDE8F08F4246534640465146FCF7FEF95E
:1046100048B1BAF1000FB8BF2D238048B8BF84F865
:1046200043307F4BD3E7636809F0DF015A1C42D166
:1046300006236360002206920EAACDE904920DAA19
:104640004BF4806303920DF13302CDE90132236014
:10465000636842460093284653460B91FFF7D4FE09
:104660000B99804647290D9908D1C81C02DB636865
:10467000994240DDA9F102095FFA89F9B9F1650FA4
:104680001FD84A46013904F150000D91FFF71BFF76
:104690000E9A82461318012A236102DC2268D2078F
:1046A00001D5013323619DF83330002B9BD02D239E
:1046B00084F8433097E74729BCD1002BBAD10123B6
:1046C000B7E7B9F1660F18D1002963680BDD2161E6
:1046D00013B92268D00702D501330B4423614FF090
:1046E000000AA165DFE713B92268D20701D50233BA
:1046F000F4E70123F2E74FF067090E9B994205DBCF
:1047000023682161D807EAD54B1CE7E70029CCBF15
:104710000122C1F102021344E0E723685A0507D4DD
:104720002369424631462846B84701302BD164E719
:10473000B9F1650F40F2DD80D4E9120100220023B7
:10474000FCF732F9002833D0012331462846354A98
:10475000B84701303FF451AFDDE90D239A4202DB47
:104760002368D8070FD5DDE9092331462846B84725
:1047700001303FF442AF4FF0000804F11A090E9BDC
:10478000013B434509DC23689B0700F10281E06897
:104790000F9B9842B8BF184631E701234A4631467D
:1047A0002846B84701303FF428AF08F10108E6E792
:1047B0000D9B002B38DC012331462846194AB847A7
:1047C00001303FF41AAFDDE90D23134302D1236812
:1047D000D907D8D5DDE9092331462846B847013045
:1047E0003FF40BAF4FF0000904F11A0A0D9B5B4236
:1047F0004B4501DC0E9B94E7012352463146284687
:10480000B84701303FF4F9AE09F10109EEE700BF06
:10481000FFFFEF7FF88C0008FC8C0008048D000877
:10482000008D0008088D00080E9AA36D9A42A8BF5B
:104830001A46002A914637DC4FF0000B29EAE97945
:1048400004F11A02D4F858A0AAEB09035B4533DC43
:10485000DDE90D239A423BDB2368DA0738D40E9B4F
:104860000D99A3EB0A02A3EB01099145A8BF91465C
:10487000B9F1000F34DC4FF0000829EAE97904F1BE
:104880001A0ADDE90D239B1AA3EB090343457FF7C1
:104890007AAF0123524631462846B84701303FF4EB
:1048A000ACAE08F10108ECE7134631464246284613
:1048B000B8470130C0D1A0E60123314628460B920B
:1048C000B84701303FF499AE0B9A0BF1010BB9E7F1
:1048D0003146DDE909232846B8470130BFD18CE6CF
:1048E0004B463146284608EB0A02B8470130C2D190
:1048F00083E60E9A012A01DCDB0737D50123424605
:1049000031462846B84701303FF477AEDDE9092348
:1049100031462846B84701303FF46FAED4E9120162
:1049200000220023FCF740F8D8B90E9B08F10102E1
:10493000013B31462846B84701300ED15DE60123E0
:104940004A4631462846B84701303FF456AE08F192
:1049500001080E9B013B4345F1DC534604F1500234
:10496000E0E64FF0000804F11A09F2E7012342469D
:10497000DFE701234A4631462846B84701303FF475
:104980003CAE08F10108E3680F995B1A4345F0DC7F
:10499000FDE64FF0000804F11909F4E72DE9F047AE
:1049A000164699468A680B6907469342B8BF134674
:1049B000336091F843200C46DDF820800AB10133C2
:1049C00033602368990642BF336802333360256839
:1049D00015F0060506D104F1190AE36832689B1A3E
:1049E000AB4228DC94F84320131E226818BF012331
:1049F00092062DD44946384604F14302C04701309F
:104A000020D02368E56803F00603042B18BF0025B7
:104A100032684FF00006A36808BFAD1A226908BFCC
:104A200025EAE5759342C4BF9B1AED181A34B542C6
:104A30001AD1002008E00123524649463846C047B3
:104A4000013003D14FF0FF30BDE8F0870135C4E7F6
:104A50003020E11881F843005A1C94F84510224494
:104A6000023382F84310C5E70123224649463846FF
:104A7000C0470130E6D00136D9E700002DE9FF47F5
:104A80000F7E9146782F80460C469A460C9D01F188
:104A9000430207D8622F0AD8002F00F0D980582F80
:104AA00000F0A48004F1420584F842703AE0A7F1D6
:104AB0006303152BF6D801A151F823F0154B00081C
:104AC000294B0008A54A0008A54A0008A54A000885
:104AD000A54A0008294B0008A54A0008A54A000875
:104AE000A54A0008A54A0008374C0008594B0008A1
:104AF000194C0008A54A0008A54A0008594C0008AE
:104B0000A54A0008594B0008A54A0008A54A000814
:104B1000214C00082B681A1D1B682A6004F142050D
:104B200084F842300123A4E020682968060601F1D8
:104B300004030AD50E682B60002E03DA2D2376427B
:104B400084F843300A235E4819E00E6810F0400FE5
:104B50002B6018BF36B2EFE72B682068191D29605B
:104B6000010601D51E6802E04606FBD51E886F2FA0
:104B70000CBF08230A235248002184F843106568BB
:104B8000002DA8BF2168A560A4BF21F00401216009
:104B90000EB9002D4DD01546B6FBF3F103FB11679E
:104BA000C75D05F8017D3746BB420E46F4D9082B98
:104BB0000BD12368DE0708D5236961689942DEBFFF
:104BC000302305F8013C05F1FF35521B22614B46AD
:104BD00021464046CDF800A003AAFFF7DFFE0130D2
:104BE0004CD14FF0FF3004B0BDE8F087344881F875
:104BF00045702968236851F8046B29601D0614D597
:104C0000DF0744BF43F0200323601EB9236823F06D
:104C1000200323601023AFE7236843F020032360C1
:104C20007823284884F84530E3E7590648BFB6B2F0
:104C3000E6E71546BBE72B682668181D6169286002
:104C400035061B6801D5196002E07006FBD5198096
:104C5000002315462361BAE72B6800211A1D2A603C
:104C60001D686268284602F00FFD08B1401B6060B5
:104C700063682361002384F84330A8E72A46494645
:104C800040462369D0470130ABD023689B0713D43B
:104C9000E068039B9842B8BF1846A4E70123324658
:104CA00049464046D04701309BD00135E36803991F
:104CB0005B1AAB42F2DCEBE7002504F11906F5E7DD
:104CC0000A8D00081B8D00082DE9F04F87B0039373
:104CD0008B6817465A1EB2F5AE7F85BF6FF4AE756E
:104CE0005B190023029388BF40F25D138B464FF09F
:104CF00000058CBF8B6002930B68804643F4F06321
:104D00004BF81C3B0C465E46AA46A946CDE9045525
:104D10000195A26852B13B681B784E2B64D8402B9A
:104D20003CD8A3F12B01C8B20E283AD9B9F1000F33
:104D300003D0236823F4807323600AF1FF3ABAF1A9
:104D4000010F00F213815E4500F20581012528461E
:104D500007B0BDE8F08FA3F161020D2AE6D801A1EA
:104D600051F822F0A34E00082D4D00082D4D0008EB
:104D70002D4D0008034F0008DB4E00082D4D0008A4
:104D80002D4D0008B14E00082D4D00082D4D000896
:104D90002D4D00082D4D0008694E0008A3F1410279
:104DA000DBE70E29C2D801A050F821F05B4E0008C5
:104DB0002D4D00085B4E0008EF4E00082D4D0008F9
:104DC000094E0008454E0008454E0008454E0008B3
:104DD000454E0008454E0008454E0008454E000867
:104DE000454E0008454E00086E2B09D8602BB2D8FE
:104DF000542B77D0592B99D1072D97D1082529E02D
:104E0000742B6FD0792BF6E72168C8051AD5029B61
:104E100021F08001216009F101091BB1013B013240
:104E20000293A260A368013BA3602369013323615D
:104E30007B68013B002B7B6040F384803B6801333F
:104E40003B6066E71AEB050F7FF470AF226822F42F
:104E5000C072226006F8013BE4E7226810067FF585
:104E600065AF22F08002F4E7BAF1000F0ED1B9F17C
:104E7000000F0ED1226802F4E061B1F5E06F08D1B5
:104E800022F4F0624FF0010A2260E3E7BAF1020F68
:104E900055D0012D02D0042D7FF448AF0135EDB27D
:104EA000D8E7BAF1010F7FF441AF4FF0020AD1E722
:104EB0007DB9B9F1000F7FF43CAF226802F4E061E4
:104EC000B1F5E06F7FF439AF22F4F0620125226082
:104ED000C0E7032DE2D0052DDEE7022D7FF426AFDB
:104EE0000325B7E7062D7FF421AF0725B2E7226837
:104EF00091057FF51BAF22F420722260CDF804905B
:104F0000A8E7226802F4A061B1F5806F06D05005D1
:104F10007FF50CAFB9F1000F3FF40FAF910558BF0B
:104F2000019922F4F06258BFA9EB010142F4C0726A
:104F30004FF0000958BFCDE9041622608AE74FF010
:104F4000030A87E739464046D4F88031984700285D
:104F50003FF4DFAEEAE6D4F87C313A46404616F834
:104F6000011D98472369013B2361ECE66B1E062B6C
:104F700025D8022D36D85E457FF6E8AED4F87C31D0
:104F80003A46404616F8011D98472369013B2361C4
:104F9000F1E70298D4F87C3110F8011D3A460290EE
:104FA000404698472369013B23610AF1FF3A5FFAC3
:104FB0008AFABAF1020FECD1033DEDB2761B2368F9
:104FC000DA052FD55B0510D55E457FF6BFAED4F868
:104FD0007C313A46404616F8011D98472369013B4B
:104FE0002361F1E7AA460296DFE716F8011C236960
:104FF000652903F1FF3306F1FF3523610CD0452904
:105000000AD0D4F87C313A4640469847236916F8CE
:10501000021C013BB51E23613A464046D4F87C3160
:1050200098472E46256815F0100555D13570236830
:1050300003F4C063B3F5806F1BD1019B4B45A3EB19
:10504000090223D100225946404600F089FE226819
:10505000039B12F0020F06460F461B6821D01A1D53
:1050600003990A601B68C3E90067E3680133E360E2
:105070006DE6049B002BE5D005990A232A4640469D
:10508000013100F0EFFE049B059EC21A04F26F137B
:105090009E4228BF04F5B7763046104900F036F836
:1050A000D0E712F0040F03F10402D9D1DDF80CC0EF
:1050B000CCF80020D3F8008002460B46FBF7A6FC94
:1050C00028B1074800F01EF8C8F80000CDE73046C8
:1050D0003946FBF7F9FCF7E7002538E62C8D000888
:1050E000A091000838B50023054D044608462B6002
:1050F000FDF7A8F9431C02D12B6803B1236038BD2A
:1051000024050020004870470000C07F0EB46FF0F7
:10511000004100B59CB01DAB029006900791049130
:105120000848094953F8042B0591006802A9019326
:1051300002F0D8FF0022029B1A701CB05DF804EB4D
:1051400003B070478C0200200802FFFF2DE9F041F8
:105150000F46904602F022FE04460D46B8F1000FBD
:1051600011D0C7F30A53C3F16B03002B0BDD0024EE
:105170001B0503F17F5505F5401522462B46FBF72D
:10518000ABF904460D4620462946BDE8F0810000F3
:105190002DE9F04F9B4600239FB01A939E4B824609
:1051A0001F680E4638461592FAF7D2FF4FF00008F6
:1051B00004464FF000091996199B1A782B2A4CD0F7
:1051C0003AD80D2A33D8082A33D8002A3DD00023F4
:1051D0000A93199D2B78302B40F0AA806B7803F04E
:1051E000DF03582B66D10A9B504601931AAB0093FC
:1051F0008A4ACDF808B01BAB19A901F0CBFE10F01C
:105200000706044605D0062E29D10023013519953D
:105210000A93159B002B40F08A850A9BD3B1424626
:1052200009F10043104619461FB0BDE8F08F202A4F
:10523000CDD101331993BFE72D2AC8D101220A929B
:105240005A1C19925B78002BC3D1159B1996002B21
:1052500040F06B8542464B46E4E70022EFE71A9A9E
:105260003AB135211CA802F09DFE50461A9902F071
:1052700065FA013E042E06D8DFE806F00A0314178B
:105280000A00DDE91C892107C3D549F00049C0E7C0
:105290001B9ADDE91C8302F2334223F4801343EAB4
:1052A0000259F0E7DFF87891EDE76FF000494FF031
:1052B000FF38E8E7199B5A1C19925B78302BF9D01C
:1052C000002BA6D001230793199B0A2208930023E1
:1052D0009B46CDE9053319980578A5F13003D9B27D
:1052E000092927D92246394603F045F8002833D04A
:1052F00000202A465C4603460490652A01D0452AD0
:1053000014D11CB9079A02439FD00024199E721C25
:10531000199272782B2A79D02D2A00F083800027E9
:10532000A2F13001092940F28380199600259FE0FF
:105330000023C8E7BBF1080FD5BF0699059902FB0A
:10534000013302FB013300F10100D4BF0693059342
:105350000BF1010B1990BEE7199B1A1919921A5DEE
:10536000BBF1000F36D05C460490A2F13003092B4C
:1053700012D90123C1E7199B01305A1C19925A789E
:10538000302AF8D0A2F13103082B00F2D584049022
:1053900000200446199B0893303A00F1010313D012
:1053A000049905191944049123460A21AB4213D1EB
:1053B0002318082B04F1010404441BDC0A2306997A
:1053C00003FB012306930023199A1846511C1991D7
:1053D0005278CAE75846D3E7082B04DC069F4F43B0
:1053E00006970133E2E75F1C102FDEBF059F4F4396
:1053F0000597F6E7102CDFBF0A23059903FB01236D
:105400000593E0E70023049301237BE70027B21C08
:105410001992B27884E700BFE48F0008348D000849
:105420000000F07F0127F2E7199A511C1991527878
:10543000302AF9D0A2F1310108293FF677AF4FF0B9
:105440000A0EA2F1300C199A0992199A511C19915D
:105450005278A2F13005092D35D9099D491B08293B
:1054600044F61F6502DC6545A8BF654607B16D427D
:10547000002C4CD1079901437FF4CBAE002B7FF475
:10548000E4AE692A26D023DC492A23D04E2A7FF4B1
:10549000DCAE9D4919A801F0CBFF00283FF4D5AE42
:1054A000199B1B78282B2CD198491CAA19A801F00C
:1054B000D3FF052825D11D9BDDF8708043F0FF49FF
:1054C00049F4E009A5E60EFB0C2CACF1300CBCE76E
:1054D0006E2ADCE78E4919A801F0AAFF00283FF4E4
:1054E000B4AE199B8B49013B19A8199301F0A0FF99
:1054F00010B9199B013319934FF00008DFF8189287
:1055000087E6864802F0EEFE8046894681E6049BE7
:10551000BBF1000F08BFA346EB1A102C06982646D5
:105520000793A8BF1026FAF75DFF092C804689462D
:1055300013DD7B4B03EBC60353E91223FAF7CCFFD1
:10554000804605988946FAF74DFF02460B464046CD
:105550004946FAF70BFE804689460F2C36DC079B3E
:10556000002B3FF456AE22DD162B09DC6C49424677
:1055700001EBC3014B46D1E90001FAF7ADFFC3E7E8
:10558000079AC4F12503934220DB654DC4F10F0453
:1055900005EBC4014246D1E900014B46FAF79CFFF6
:1055A000079B1C1B05EBC405D5E90023E5E7079B1A
:1055B00016330BDB049B40465D1B594B494603EBFE
:1055C000C505D5E90023FBF7B1F89DE7079BA61BAE
:1055D0001E44002E74DD16F00F030AD050494246D7
:1055E00001EBC301D1E900014B46FAF775FF804694
:1055F000894636F00F0652D0B6F59A7F27DD4FF078
:10560000000BCDF810B0CDF820B0CDF818B02223A3
:105610004FF00008DFF80091CAF80030089B002B1B
:105620003FF4F7AD50461A9902F088F850460699B3
:1056300002F084F85046049902F080F85046089928
:1056400002F07CF85946504602F078F8E1E5354B17
:1056500040460593002349461F463611012E21DCA2
:105660000BB1804689462F4BA9F1547903EBC7074C
:105670004246D7E900014B46FAF72EFF264B0A4671
:105680000B40294980468B42B9D8A1F580118B4245
:1056900086BF4FF0FF38DFF8949002F15479002371
:1056A00005937FE0F20705D5059BD3E90023FAF7C0
:1056B00013FF0123059A0137083276100592CDE7D2
:1056C000EDD0764216F00F020AD0154B404603EBA0
:1056D000C2034946D3E90023FBF728F880468946F0
:1056E0003611DCD01F2E23DD4FF0000BCDF810B0AB
:1056F000CDF820B0CDF818B022234FF000084FF0BD
:105700000009CAF8003089E7058D0008488D0008B7
:10571000FD8C00088C8E00080000F07FA09100082E
:1057200080900008589000080000A07CFFFFEF7FE9
:1057300016F0100318BF6A2340460593494600231C
:10574000B04FF20704D5D7E90023FAF7C5FE0123CD
:10575000761007F10807F4D10BB180468946059B06
:10576000C3B1C9F30A52C2F16B03002B494611DDE4
:105770001F2B40F32781342BD8BF4FF0FF334FF05E
:105780000008CFBF4FF05C79C2F14B0203FA02F27E
:1057900002EA01090022002340464946FBF704F9CA
:1057A0000028A1D1069B5A460093504623460899EB
:1057B00002F02CF8089000283FF421AF049B4FF032
:1057C000000B5D1B079BCDF810B0002BB4BF2B4620
:1057D00000230E93079B23EAE3731493089B504620
:1057E000596801F06BFF069000283FF410AF089B4A
:1057F0000C301A6903F10C0102329200FEF7FEFC34
:105800001CAB01931BAB009342464B465046CDE97F
:105810000C8902F03DFB1A9000283FF4F8AE0121FC
:10582000504602F08BF80346049000283FF4EFAE98
:105830001B9D1C9A002DABBF0E9B149BEE185C1B8E
:10584000059BA8BF149CA5EB030515446E4B05F101
:10585000FF35B8BF0E9E9D42C2F1360280F2C48071
:105860005B1B1F2B4FF00107A2EB030200F3B1807B
:10587000002507FA03F30F93B718059BBE421444A3
:105880001C443346A8BF3B46A342A8BF2346002B77
:10589000C2BFFF1AE41AF61A0E9B002B17DD1A4638
:1058A0005046049902F008F9049000283FF4AFAE86
:1058B00001461A9A504602F057F8099000283FF422
:1058C000A6AE50461A9901F039FF099B1A93002F92
:1058D00000F38E80079B002B08DD5046149A069932
:1058E00002F0EAF8069000283FF491AE002C08DDA3
:1058F00022465046069902F039F9069000283FF4F6
:1059000086AE002E08DD32465046049902F02EF98C
:10591000049000283FF47BAE5046069A1A9902F094
:10592000B1F9834600283FF472AE0024C36804999D
:10593000C4600B9302F08AF9A0426BDA0B9B53EA26
:10594000080340F09180C9F31303002B40F08C80D2
:1059500029F000431B0D1B05B3F1D66F40F2848084
:10596000DBF814301BB9DBF81030012B7CDD594615
:105970000122504602F0FAF80499834602F066F9D3
:10598000002871DD05994B46204A002900F08C80E3
:1059900002EA0901B1F1D66F00F38680B1F15C7FB4
:1059A0007FF7AAAE40464946194B0022FAF794FD0C
:1059B0000B46034308BF22238046894608BFCAF826
:1059C00000302FE64FF0FF3202FA03F303EA080833
:1059D000E0E6C5F17F4505F57F0505F57B45E23538
:1059E00007FA05F50F9747E7012300250F9343E7D3
:1059F0003A4650461A9902F0B9F81A9000287FF4F6
:105A000069AF04E6608D000802FCFFFF0000F07F34
:105A100000005039CDF8249065D10B9AC9F31303D7
:105A20005AB3994A93422BD1059B414603B34A4648
:105A3000964B1340B3F1D46F4FF0FF321BD81B0DC0
:105A4000C3F16B0302FA03F3994219D1904B099AFF
:105A50009A4202D101313FF4DAAD4FF000088B4B8E
:105A6000099A1A4002F58019059B002B9AD1D9E5B5
:105A70004FF0FF33E8E71346E6E753EA080381D027
:105A8000E5B1099B1D42EFD00B9B40464946059A64
:105A9000C3B1FFF75BFB02460B46DDE90C01FAF7E9
:105AA00065FB80468946DFE71340A3F580136FEA64
:105AB00013594FF0FF386FEA0959D5E70F9B13EAE6
:105AC000080FE0E7FFF742FB02460B46DDE90C0159
:105AD000FAF74AFB0022002380468946FAF764FF62
