:020000040800F2
:1000000000500020855F0008A95E0008AF5E000870
:10001000B55E0008BB5E0008C15E0008000000007D
:10002000000000000000000000000000C75E0008A3
:10003000D35E000800000000DF5E0008EB5E0008F1
:10004000CD5F0008CD5F0008CD5F0008CD5F0008E0
:10005000CD5F0008CD5F0008CD5F0008CD5F0008D0
:10006000CD5F0008CD5F0008CD5F0008CD5F0008C0
:10007000CD5F0008CD5F0008CD5F0008CD5F0008B0
:10008000CD5F0008CD5F0008CD5F0008CD5F0008A0
:10009000CD5F0008CD5F0008CD5F0008CD5F000890
:1000A000CD5F0008CD5F0008CD5F0008CD5F000880
:1000B000CD5F0008CD5F0008CD5F0008CD5F000870
:1000C000CD5F0008CD5F0008CD5F0008CD5F000860
:1000D000CD5F0008F95E0008CD5F0008CD5F000825
:1000E000CD5F0008CD5F0008CD5F00080000000074
:1000F0000000000000000000000000000000000000
:0C01000000000000000000005FF808F1A3
:10010C0010B5054C237833B9044B13B10448AFF345
:10011C0000800123237010BDF002002000000000BD
:10012C005C84000808B5034B1BB103490348AFF3CB
:10013C00008008BD00000000F40200205C84000870
:10014C00034613F8012B002AFBD1181A013870470B
:10015C0080B5B2B000AF786000F086FB00F024FAF6
:10016C007B68022B19D07B68022B1EDC7B68002B72
:10017C0003D07B68012B08D017E000F015FAD74AA2
:10018C000021002000F01EFB1FE000F00DFAD44A05
:10019C000021002000F016FB17E000F005FAD14A10
:1001AC000021002000F00EFB0FE000F0FDF9CE4B1B
:1001BC00C7F8B830D7F8B8200021002000F002FBB7
:1001CC004FF47A7005F060FF00BF4FF47A7005F0C1
:1001DC005BFF00F049FBC54A0021002000F0F2FA59
:1001EC004FF47A7005F050FF0123C7F8B43023E0C8
:1001FC00642005F049FFBE4BDB8D9BB2002B1BD15D
:10020C0000F0D2F94FF47A7005F03EFF00F02CFBB1
:10021C00002387F8A83007F1A00308221946B44838
:10022C0006F02AFF00F0C0F907F1A0031A460021DE
:10023C00002000F0C7FA03E0D7F8B430012BD7D078
:10024C0000F012FBAB4A0021002000F0BBFA4FF487
:10025C00FA7005F019FF00F007FB00F0A5F907F1A3
:10026C00A0031A460021002000F0ACFA4FF47A707B
:10027C0005F00AFF0023C7F8C4300023C7F8C030CC
:10028C000023C7F8BC307B68022B00F0D5807B685C
:10029C00022B00F30F817B68002B03D07B68012BB2
:1002AC006ED007E100F0E0FA00F07EF9924A0021EE
:1002BC00002000F087FA07F12803184600F046FEEC
:1002CC0007F1280303228D49184605F0E1FB07F1DD
:1002DC00080207F128031146184605F041FC4FF4BB
:1002EC007A7005F0D1FE00F0BFFA854A002100209B
:1002FC0000F068FA4FF47A7005F0C6FE00F0B4FA1C
:10030C002AE007F10802D7F8BC3013441B781A46D0
:10031C007C49D7F8AC0007F01DFDD7F8C030102B86
:10032C0005D10023C7F8C0300123C7F8C430D7F873
:10033C00C4305BB2D7F8C02051B2D7F8AC20184605
:10034C0000F040FAD7F8BC300133C7F8BC30D7F80E
:10035C00C0300233C7F8C030D7F8BC300F2BD0DD1B
:10036C004FF47A7005F090FE00F07EFA664A002198
:10037C00002000F027FA4FF47A7005F085FEA9E012
:10038C0000F072FA00F010F9604A0021002000F031
:10039C0019FA07F1900319465D4800F0B1FD4FF4CE
:1003AC007A7005F071FE00F05FFA5A4A00210020C5
:1003BC0000F008FA4FF47A7005F066FE00F054FA7B
:1003CC002AE007F19002D7F8BC3013441B781A4688
:1003DC004C49D7F8AC0007F0BDFCD7F8C030102B57
:1003EC0005D10023C7F8C0300123C7F8C430D7F8B3
:1003FC00C4305BB2D7F8C02051B2D7F8AC20184645
:10040C0000F0E0F9D7F8BC300133C7F8BC30D7F8AE
:10041C00C0300233C7F8C030D7F8BC300F2BD0DD5A
:10042C004FF47A7005F030FE00F01EFA3A4A0021C3
:10043C00002000F0C7F94DE000F016FA00F0B4F817
:10044C00364A0021002000F0BDF90B21304800F0A5
:10045C006FF80346C7F8B0304FF47A7005F014FE0D
:10046C0000F002FA2E4A0021002000F0ABF94FF404
:10047C007A7005F009FED7F8B0202A49D7F8AC00FD
:10048C0007F068FC4FF47A7005F0FEFD00F0ECF913
:10049C00D7F8AC200021002000F094F94FF47A70CA
:1004AC0005F0F2FD00F0E0F91F4A0021002000F0F9
:1004BC0089F90FE000F078F81C4BC7F8A830D7F892
:1004CC00A8200021002000F07DF94FF47A7005F08F
:1004DC00DBFD00BF00BFC837BD4680BD748400087B
:1004EC008884000898840008A8840008C484000844
:1004FC000C030020D0840008E0840008F08400087D
:10050C00F484000808850008108500082085000880
:10051C00308500083C8500084C8500085C85000887
:10052C006C85000880850008848500089485000887
:10053C0080B485B000AF78600B467B804FF6FF73BC
:10054C00FB8125E07B685A1C7A601B781B021AB26F
:10055C00B7F90E3053401BB2FB8100237B7314E0C0
:10056C00B7F90E30002B09DAFB895B001BB283F460
:10057C00815383F001031BB29BB202E0FB895B0049
:10058C009BB2FB817B7B01337B737B7B072BE7D996
:10059C007B885A1E7A80002BD4D1FB8918461437DD
:1005AC00BD4680BC7047000080B500AF1E2005F032
:1005BC006BFD00224FF400511C4806F0E4F80122B8
:1005CC004FF48051194806F0DEF800224FF4006118
:1005DC00164806F0D8F800224FF48061134806F054
:1005EC00D2F800224FF40041104806F0CCF801225A
:1005FC004FF480410D4806F0C6F800224FF48041BC
:10060C000A4806F0C0F82821002000F011F80C214F
:10061C00002000F00DF80621002000F009F801215F
:10062C00002000F005F800BF80BD00BF000C0140A9
:10063C0080B582B000AF03460A46FB711346BB710E
:10064C00022005F021FD97F90730002B06D001227E
:10065C004FF400415A4806F096F805E000224FF49A
:10066C000041574806F08FF897F90630002B06DA50
:10067C0001224FF48061524806F085F805E0002213
:10068C004FF480614E4806F07EF8BB7903F04003CE
:10069C00002B06D001224FF40061494806F073F894
:1006AC0005E000224FF40061454806F06CF8BB7978
:1006BC0003F02003002B06D001224FF48051404858
:1006CC0006F061F805E000224FF480513C4806F03A
:1006DC005AF8BB7903F01003002B06D001224FF41B
:1006EC000051374806F04FF805E000224FF4005156
:1006FC00334806F048F801224FF48041304806F0A8
:10070C0042F800224FF480412D4806F03CF8BB79AA
:10071C0003F00803002B06D001224FF48061284817
:10072C0006F031F805E000224FF48061244806F011
:10073C002AF8BB7903F00403002B06D001224FF4F6
:10074C0000611F4806F01FF805E000224FF400611D
:10075C001B4806F018F8BB7903F00203002B06D0F7
:10076C0001224FF48051164806F00DF805E00022E6
:10077C004FF48051124806F006F8BB7903F00103E0
:10078C00002B06D001224FF400510D4805F0FBFF61
:10079C0005E000224FF40051094805F0F4FF012256
:1007AC004FF48041064805F0EEFF00224FF48041E3
:1007BC00034805F0E8FF00BF0837BD4680BD00BF09
:1007CC00000C014080B582B000AF03463A60FB716B
:1007DC000B46BB7197F90730032B3AD801A252F89C
:1007EC0023F000BF010800081308000825080008C2
:1007FC0037080008BB79803BDBB25BB2194600209E
:10080C00FFF716FF1AE0BB79403BDBB25BB219462F
:10081C000020FFF70DFF11E0BB79703BDBB25BB240
:10082C0019460020FFF704FF08E0BB79303BDBB230
:10083C005BB219460020FFF7FBFE00BF09E03B68E6
:10084C0093F9003019460120FFF7F2FE3B680133A3
:10085C003B603B6893F90030002BF0D100BF00BF28
:10086C000837BD4680BD00BF80B500AF0121002018
:10087C00FFF7DEFE00BF80BD80B483B000AF7860B0
:10088C007B68022B0DD07B68022B0CDC7B68002B69
:10089C0003D07B68012B02D005E0064B04E0064B2D
:1008AC0002E0064B00E0064B18460C37BD4680BCF8
:1008BC00704700BFBC850008C4850008C8850008C7
:1008CC00D085000880B582B000AF05F07BFB00F04E
:1008DC0059F800F0BDF800F091F800237B60FFF7A9
:1008EC0063FE0821264805F037FF0346012B0BD188
:1008FC007B68012B03DC7B6801337B6001E0002308
:10090C007B60FFF7B1FF2DE004211D4805F024FFAB
:10091C000346012B0BD17B68002B03DD7B68013B6D
:10092C007B6001E002237B60FFF79EFF1AE002214F
:10093C00134805F011FF0346012B13D1FFF794FF69
:10094C007868FFF799FF38603A6800210020FFF7BC
:10095C0039FFFFF789FF7868FFF7FAFB4CF250304C
:10096C0005F092FB7868FFF787FF38603A68002142
:10097C000020FFF727FF4FF4FA7005F085FBB0E776
:10098C000008014080B590B000AF07F11803282291
:10099C000021184607F0EAF83B1D00221A605A6045
:1009AC009A60DA601A610223BB610123BB621023D7
:1009BC00FB6200237B6307F11803184605F0FCFE6D
:1009CC000346002B01D000F083F80F237B6000233B
:1009DC00BB600023FB6000233B6100237B613B1D5C
:1009EC000021184606F06AF90346002B01D000F0EE
:1009FC006FF800BF4037BD4680BD000080B500AF2A
:100A0C00114B124A1A60104B4FF4E1325A600E4BE4
:100A1C0000229A600C4B0022DA600B4B00221A6108
:100A2C00094B0C225A61084B00229A61064B00229A
:100A3C00DA61054806F0D0FA0346002B01D000F02D
:100A4C0047F800BF80BD00BF0C03002000380140F8
:100A5C0080B586B000AF07F1080300221A605A6017
:100A6C009A60DA60184B9B69174A43F0080393614C
:100A7C00154B9B6903F008037B607B68124B9B69E9
:100A8C00114A43F0040393610F4B9B6903F0040379
:100A9C003B603B6800224FF47C410C4805F073FE30
:100AAC004FF47C43BB600123FB6000233B610223BA
:100ABC007B6107F108031946044805F0C9FC00BF27
:100ACC001837BD4680BD00BF00100240000C01402D
:100ADC0080B400AF72B600BFFEE780B483B000AF45
:100AEC00786039607A683B68C3F1200362FA03F3DB
:100AFC0018460C37BD4680BC7047000080B483B0EC
:100B0C0000AF786079684FF000024FF00003C1E944
:100B1C0000237B68074A9A607B68074ADA607B6827
:100B2C00064A1A617B68064A5A6100BF0C37BD46FB
:100B3C0080BC70470123456789ABCDEFFEDCBA98CA
:100B4C00765432102DE9B04398B000AFF860B9601C
:100B5C007A60FB68D3E90023134603F03F03FB657F
:100B6C00FB68D3E90023796800200C46054612EB9C
:100B7C00040843EB0509FB68C3E900890023BB6546
:100B8C0048E0BA68BB6D1A44FB6D591CF9651178C5
:100B9C00FA6813440A461A76FB6D03F03F03002BE8
:100BAC0035D100237B6525E07B6D9B000333FA6810
:100BBC0013441B7E1A067B6D9B000233F9680B44B1
:100BCC001B7E1B041A437B6D9B000133F9680B449D
:100BDC001B7E1B0213437A6D9200F9680A44127E45
:100BEC001A437B6D9B0060333B4443F84C2C7B6D6C
:100BFC0001337B657B6D0F2BD6D9FB68083307F16E
:100C0C0014021146184600F0D1F80023FB65BB6DA9
:100C1C000133BB65BA6D7B689A42B2D300BF00BF8B
:100C2C006037BD46BDE8B0832DE9B04396B000AF48
:100C3C0078607B68D3E90023134603F03F03FB6421
:100C4C00FB6C372B03D8FB6CC3F1380302E0FB6C55
:100C5C00C3F17803BB64BA6C53497868FFF772FF31
:100C6C007B68D3E90023B96C00200C460546B2EB37
:100C7C00040863EB05097B68C3E9008900237B65E5
:100C8C0025E07B6D9B0003337A6813441B7E1A06A8
:100C9C007B6D9B00023379680B441B7E1B041A434B
:100CAC007B6D9B00013379680B441B7E1B02134345
:100CBC007A6D920079680A44127E1A437B6D9B0010
:100CCC0058333B4443F8502C7B6D01337B657B6D73
:100CDC000D2BD6D97B68D3E900231346DB003B648C
:100CEC007B68D3E900014FF000024FF00003CB000A
:100CFC0043EA5073C2004FF000004FF0000118009F
:100D0C00002103467B647B68083307F10802114617
:100D1C00184600F04BF800233B653CE07B683A6DCD
:100D2C00023253F822203B6D9B00D1B27A681344F7
:100D3C000A4683F858207B683A6D023253F8223009
:100D4C001A0A3B6D9B000133D1B27A6813440A46F0
:100D5C0083F858207B683A6D023253F822301A0C13
:100D6C003B6D9B000233D1B27A6813440A4683F878
:100D7C0058207B683A6D023253F822301A0E3B6DC4
:100D8C009B000333D1B27A6813440A4683F8582087
:100D9C003B6D01333B653B6D032BBFD900BF00BFDF
:100DAC005837BD46BDE8B0830002002080B58AB03C
:100DBC0000AF786039607B681B687B627B685B681E
:100DCC003B627B689B68FB617B68DB68BB610023D3
:100DDC00FB606BE0FB681B09022B24D0022B31D883
:100DEC00002B02D0012B0CD02CE03A6AFB691A4084
:100DFC003B6AD943BB690B4013437B61FB683B6186
:100E0C002FE03A6ABB691A40BB69D943FB690B40B6
:100E1C0013437B61FA6813469B001344013303F0C0
:100E2C000F033B611DE03A6AFB695340BA695340BA
:100E3C007B61FA6813465B001344053303F00F0320
:100E4C003B610EE0BB69DA433B6A1343FA695340DA
:100E5C007B61FA681346DB009B1A03F00F033B61BE
:100E6C0000BFBB69BB60FB69BB613B6AFB617A6A13
:100E7C007B691A442049FB6851F823301A443B69BA
:100E8C009B0039680B441B681A441C49FB6851F8D9
:100E9C00233019461046FFF720FE02463B6A1344E6
:100EAC003B62BB687B62FB680133FB60FB683F2BDA
:100EBC0090D97B681A687B6A1A447B681A607B68D5
:100ECC00043319687B6804333A6A0A441A607B68F5
:100EDC00083319687B680833FA690A441A607B681E
:100EEC000C3319687B680C33BA690A441A6000BF6A
:100EFC002837BD4680BD00BF000100200000002047
:100F0C00B0B59CB000AF7860396007F108031846A3
:100F1C00FFF7F4FD7868FFF713F9024607F10803B1
:100F2C0079681846FFF70EFE07F108031846FFF71D
:100F3C007BFE3B681D4607F160040FCC286069609E
:100F4C00AA60EB6000BF7037BD46B0BD80B483B003
:100F5C0000AF78607B6800221A607B6800225A60C0
:100F6C007B680E4A9A607B680D4ADA607B680D4A92
:100F7C001A617B680C4A5A617B680C4A9A617B68DF
:100F8C000B4ADA617B680B4A1A627B680A4A5A621E
:100F9C0000BF0C37BD4680BC704700BF67E6096ACE
:100FAC0085AE67BB72F36E3C3AF54FA57F520E517E
:100FBC008C68059BABD9831F19CDE05B80B4CDB099
:100FCC0000AF07F59873A3F59673186007F598733F
:100FDC00A3F59873196007F59873A3F598731B68BC
:100FEC001B781A0607F59873A3F598731B680133E1
:100FFC001B781B041A4307F59873A3F598731B68A9
:10100C0002331B781B02134307F59872A2F59872F2
:10101C001268033212781A4307F59873A3F5947388
:10102C001A6007F59873A3F598731B6804331B7843
:10103C001A0607F59873A3F598731B6805331B788C
:10104C001B041A4307F59873A3F598731B680633B2
:10105C001B781B02134307F59872A2F5987212685D
:10106C00073212781A4307F59873A3F594735A60F4
:10107C0007F59873A3F598731B6808331B781A0649
:10108C0007F59873A3F598731B6809331B781B0439
:10109C001A4307F59873A3F598731B680A331B78EA
:1010AC001B02134307F59872A2F5987212680B3263
:1010BC0012781A4307F59873A3F594739A6007F5A1
:1010CC009873A3F598731B680C331B781A0607F5F5
:1010DC009873A3F598731B680D331B781B041A4384
:1010EC0007F59873A3F598731B680E331B781B02D6
:1010FC00134307F59872A2F5987212680F321278A2
:10110C001A4307F59873A3F59473DA6007F598738F
:10111C00A3F598731B6810331B781A0607F59873A0
:10112C00A3F598731B6811331B781B041A4307F53E
:10113C009873A3F598731B6812331B781B02134327
:10114C0007F59872A2F598721268133212781A4346
:10115C0007F59873A3F594731A6107F59873A3F5C3
:10116C0098731B6814331B781A0607F59873A3F54C
:10117C0098731B6815331B781B041A4307F5987377
:10118C00A3F598731B6816331B781B02134307F5E2
:10119C009872A2F598721268173212781A4307F5F2
:1011AC009873A3F594735A6107F59873A3F5987324
:1011BC001B6818331B781A0607F59873A3F59873F8
:1011CC001B6819331B781B041A4307F59873A3F596
:1011DC0098731B681A331B781B02134307F598721C
:1011EC00A2F5987212681B3212781A4307F598739D
:1011FC00A3F594739A6107F59873A3F598731B681C
:10120C001C331B781A0607F59873A3F598731B68A3
:10121C001D331B781B041A4307F59873A3F59873B9
:10122C001B681E331B781B02134307F59872A2F53B
:10123C00987212681F3212781A4307F59873A3F547
:10124C009473DA6107F59873A3F598731B682033D0
:10125C001B781A0607F59873A3F598731B6821334E
:10126C001B781B041A4307F59873A3F598731B6836
:10127C0022331B781B02134307F59872A2F5987260
:10128C001268233212781A4307F59873A3F59473F6
:10129C001A6207F59873A3F598731B6824331B78AF
:1012AC001A0607F59873A3F598731B6825331B78FA
:1012BC001B041A4307F59873A3F598731B68263320
:1012CC001B781B02134307F59872A2F598721268EB
:1012DC00273212781A4307F59873A3F594735A6260
:1012EC0007F59873A3F598731B6828331B781A06B7
:1012FC0007F59873A3F598731B6829331B781B04A7
:10130C001A4307F59873A3F598731B682A331B7857
:10131C001B02134307F59872A2F5987212682B32D0
:10132C0012781A4307F59873A3F594739A6207F52C
:10133C009873A3F598731B682C331B781A0607F562
:10134C009873A3F598731B682D331B781B041A43F1
:10135C0007F59873A3F598731B682E331B781B0243
:10136C00134307F59872A2F5987212682F3212780F
:10137C001A4307F59873A3F59473DA6207F598731B
:10138C00A3F598731B6830331B781A0607F598730E
:10139C00A3F598731B6831331B781B041A4307F5AC
:1013AC009873A3F598731B6832331B781B02134395
:1013BC0007F59872A2F598721268333212781A43B4
:1013CC0007F59873A3F594731A6307F59873A3F54F
:1013DC0098731B6834331B781A0607F59873A3F5BA
:1013EC0098731B6835331B781B041A4307F59873E5
:1013FC00A3F598731B6836331B781B02134307F550
:10140C009872A2F598721268373212781A4307F55F
:10141C009873A3F594735A6307F59873A3F59873AF
:10142C001B6838331B781A0607F59873A3F5987365
:10143C001B6839331B781B041A4307F59873A3F503
:10144C0098731B683A331B781B02134307F5987289
:10145C00A2F5987212683B3212781A4307F598730A
:10146C00A3F594739A6307F59873A3F598731B68A7
:10147C003C331B781A0607F59873A3F598731B6811
:10148C003D331B781B041A4307F59873A3F5987327
:10149C001B683E331B781B02134307F59872A2F5A9
:1014AC00987212683F3212781A4307F59873A3F5B5
:1014BC009473DA6307F59873A3F596731B689B68AE
:1014CC00C7F82C3107F59873A3F596731B68DB6886
:1014DC00C7F8283107F59873A3F596731B681B6939
:1014EC00C7F8243107F59873A3F596731B685B69ED
:1014FC00C7F8203107F59873A3F596731B689B69A1
:10150C00C7F81C3107F59873A3F596731B68DB6954
:10151C00C7F8183107F59873A3F596731B681B6A07
:10152C00C7F8143107F59873A3F596731B685B6ABB
:10153C00C7F81031D7F81C314FEAB312D7F81C3169
:10154C004FEAF3235A40D7F81C314FEA73635A40E1
:10155C00D7F810311A44D7F81811D7F8143159406C
:10156C00D7F81C311940D7F814314B401A4407F501
:10157C009873A3F594731B681A44F94B1344C7F87A
:10158C000C31D7F82C314FEAB302D7F82C314FEA93
:10159C0073335A40D7F82C314FEAB3535A40D7F82B
:1015AC002C11D7F828311940D7F82C01D7F828314D
:1015BC001843D7F8243103400B431344C7F80831C0
:1015CC00D7F82021D7F80C311344C7F82031D7F8BD
:1015DC000C21D7F808311344C7F81031D7F8203153
:1015EC004FEAB312D7F820314FEAF3235A40D7F819
:1015FC0020314FEA73635A40D7F814311A44D7F8A4
:10160C001C11D7F818315940D7F820311940D7F8A8
:10161C0018314B401A4407F59873A3F594735B6823
:10162C001A44D04B1344C7F80C31D7F810314FEA99
:10163C00B302D7F810314FEA73335A40D7F8103150
:10164C004FEAB3535A40D7F81011D7F82C31194040
:10165C00D7F81001D7F82C311843D7F828310340AC
:10166C000B431344C7F80831D7F82421D7F80C31B1
:10167C001344C7F82431D7F80C21D7F80831134498
:10168C00C7F81431D7F824314FEAB312D7F8243104
:10169C004FEAF3235A40D7F824314FEA73635A4088
:1016AC00D7F818311A44D7F82011D7F81C31594003
:1016BC00D7F824311940D7F81C314B401A4407F5A0
:1016CC009873A3F594739B681A44A74B1344C7F8FB
:1016DC000C31D7F814314FEAB302D7F814314FEA72
:1016EC0073335A40D7F814314FEAB3535A40D7F8F2
:1016FC001411D7F810311940D7F81401D7F810315C
:10170C001843D7F82C3103400B431344C7F8083166
:10171C00D7F82821D7F80C311344C7F82831D7F85B
:10172C000C21D7F808311344C7F81831D7F82831F1
:10173C004FEAB312D7F828314FEAF3235A40D7F8BF
:10174C0028314FEA73635A40D7F81C311A44D7F842
:10175C002411D7F820315940D7F828311940D7F83F
:10176C0020314B401A4407F59873A3F59473DB684A
:10177C001A447E4B1344C7F80C31D7F818314FEA92
:10178C00B302D7F818314FEA73335A40D7F81831EF
:10179C004FEAB3535A40D7F81811D7F814311940FF
:1017AC00D7F81801D7F814311843D7F81031034083
:1017BC000B431344C7F80831D7F82C21D7F80C3158
:1017CC001344C7F82C31D7F80C21D7F8083113443F
:1017DC00C7F81C31D7F82C314FEAB312D7F82C319B
:1017EC004FEAF3235A40D7F82C314FEA73635A402F
:1017FC00D7F820311A44D7F82811D7F8243159409A
:10180C00D7F82C311940D7F824314B401A4407F53E
:10181C009873A3F594731B691A44554B1344C7F87A
:10182C000C31D7F81C314FEAB302D7F81C314FEA10
:10183C0073335A40D7F81C314FEAB3535A40D7F898
:10184C001C11D7F818311940D7F81C01D7F81831EA
:10185C001843D7F8143103400B431344C7F808312D
:10186C00D7F81021D7F80C311344C7F81031D7F83A
:10187C000C21D7F808311344C7F82031D7F81031B0
:10188C004FEAB312D7F810314FEAF3235A40D7F886
:10189C0010314FEA73635A40D7F824311A44D7F801
:1018AC002C11D7F828315940D7F810311940D7F8F6
:1018BC0028314B401A4407F59873A3F594735B6970
:1018CC001A442C4B1344C7F80C31D7F820314FEA8B
:1018DC00B302D7F820314FEA73335A40D7F820318E
:1018EC004FEAB3535A40D7F82011D7F81C3119409E
:1018FC00D7F82001D7F81C311843D7F8183103401A
:10190C000B431344C7F80831D7F81421D7F80C311E
:10191C001344C7F81431D7F80C21D7F80831134405
:10192C00C7F82431D7F814314FEAB312D7F8143171
:10193C004FEAF3235A40D7F814314FEA73635A40F5
:10194C00D7F828311A44D7F81011D7F82C31594050
:10195C00D7F814311940D7F82C314B400CE000BFAC
:10196C00982F8A4291443771CFFBC0B5A5DBB5E9FE
:10197C005BC25639F111F1591A4407F59873A3F566
:10198C0094739B691A44F94B1344C7F80C31D7F87C
:10199C0024314FEAB302D7F824314FEA73335A405B
:1019AC00D7F824314FEAB3535A40D7F82411D7F85B
:1019BC0020311940D7F82401D7F820311843D7F833
:1019CC001C3103400B431344C7F80831D7F81821D6
:1019DC00D7F80C311344C7F81831D7F80C21D7F8C5
:1019EC0008311344C7F82831D7F818314FEAB3122D
:1019FC00D7F818314FEAF3235A40D7F818314FEA89
:101A0C0073635A40D7F82C311A44D7F81411D7F80D
:101A1C0010315940D7F818311940D7F810314B40D4
:101A2C001A4407F59873A3F59473DB691A44D04BE9
:101A3C001344C7F80C31D7F828314FEAB302D7F862
:101A4C0028314FEA73335A40D7F828314FEAB35351
:101A5C005A40D7F82811D7F824311940D7F8280163
:101A6C00D7F824311843D7F8203103400B431344E3
:101A7C00C7F80831D7F81C21D7F80C311344C7F834
:101A8C001C31D7F80C21D7F808311344C7F82C3186
:101A9C00D7F81C314FEAB312D7F81C314FEAF323B5
:101AAC005A40D7F81C314FEA73635A40D7F81031BB
:101ABC001A44D7F81811D7F814315940D7F81C31FB
:101ACC001940D7F814314B401A4407F59873A3F515
:101ADC0094731B6A1A44A74B1344C7F80C31D7F8FC
:101AEC002C314FEAB302D7F82C314FEA73335A40FA
:101AFC00D7F82C314FEAB3535A40D7F82C11D7F8FA
:101B0C0028311940D7F82C01D7F828311843D7F8C9
:101B1C00243103400B431344C7F80831D7F8202174
:101B2C00D7F80C311344C7F82031D7F80C21D7F86B
:101B3C0008311344C7F81031D7F820314FEAB312EB
:101B4C00D7F820314FEAF3235A40D7F820314FEA27
:101B5C0073635A40D7F814311A44D7F81C11D7F8CC
:101B6C0018315940D7F820311940D7F818314B406B
:101B7C001A4407F59873A3F594735B6A1A447E4B69
:101B8C001344C7F80C31D7F810314FEAB302D7F829
:101B9C0010314FEA73335A40D7F810314FEAB35330
:101BAC005A40D7F81011D7F82C311940D7F810013A
:101BBC00D7F82C311843D7F8283103400B43134482
:101BCC00C7F80831D7F82421D7F80C311344C7F8DB
:101BDC002431D7F80C21D7F808311344C7F8143145
:101BEC00D7F824314FEAB312D7F824314FEAF32354
:101BFC005A40D7F824314FEA73635A40D7F818315A
:101C0C001A44D7F82011D7F81C315940D7F8243191
:101C1C001940D7F81C314B401A4407F59873A3F5BB
:101C2C0094739B6A1A44554B1344C7F80C31D7F87C
:101C3C0014314FEAB302D7F814314FEA73335A40D8
:101C4C00D7F814314FEAB3535A40D7F81411D7F8D8
:101C5C0010311940D7F81401D7F810311843D7F8C0
:101C6C002C3103400B431344C7F80831D7F8282113
:101C7C00D7F80C311344C7F82831D7F80C21D7F812
:101C8C0008311344C7F81831D7F828314FEAB3128A
:101C9C00D7F828314FEAF3235A40D7F828314FEAC6
:101CAC0073635A40D7F81C311A44D7F82411D7F86B
:101CBC0020315940D7F828311940D7F820314B4002
:101CCC001A4407F59873A3F59473DB6A1A442C4BEA
:101CDC001344C7F80C31D7F818314FEAB302D7F8D0
:101CEC0018314FEA73335A40D7F818314FEAB353CF
:101CFC005A40D7F81811D7F814311940D7F81801F1
:101D0C00D7F814311843D7F8103103400B43134460
:101D1C00C7F80831D7F82C21D7F80C311344C7F881
:101D2C002C31D7F80C21D7F808311344C7F81C31E3
:101D3C00D7F82C314FEAB312D7F82C314FEAF323F2
:101D4C005A40D7F82C314FEA73635A40D7F82031F8
:101D5C001A44D7F82811D7F824315940D7F82C3128
:101D6C001940D7F824314B400CE000BFA4823F92BD
:101D7C00D55E1CAB98AA07D8015B8312BE853124B3
:101D8C00C37D0C551A4407F59873A3F594731B6B1C
:101D9C001A44F44B1344C7F80C31D7F81C314FEAF2
:101DAC00B302D7F81C314FEA73335A40D7F81C31C1
:101DBC004FEAB3535A40D7F81C11D7F818311940D1
:101DCC00D7F81C01D7F818311843D7F81431034051
:101DDC000B431344C7F80831D7F81021D7F80C314E
:101DEC001344C7F81031D7F80C21D7F80831134435
:101DFC00C7F82031D7F810314FEAB312D7F81031A9
:101E0C004FEAF3235A40D7F810314FEA73635A4024
:101E1C00D7F824311A44D7F82C11D7F82831594067
:101E2C00D7F810311940D7F828314B401A4407F530
:101E3C009873A3F594735B6B1A44CB4B1344C7F89C
:101E4C000C31D7F820314FEAB302D7F820314FEAE2
:101E5C0073335A40D7F820314FEAB3535A40D7F86E
:101E6C002011D7F81C311940D7F82001D7F81C31B4
:101E7C001843D7F8183103400B431344C7F8083103
:101E8C00D7F81421D7F80C311344C7F81431D7F80C
:101E9C000C21D7F808311344C7F82431D7F8143182
:101EAC004FEAB312D7F814314FEAF3235A40D7F85C
:101EBC0014314FEA73635A40D7F828311A44D7F8D3
:101ECC001011D7F82C315940D7F814311940D7F8E4
:101EDC002C314B401A4407F59873A3F594739B6B04
:101EEC001A44A24B1344C7F80C31D7F824314FEAEB
:101EFC00B302D7F824314FEA73335A40D7F8243160
:101F0C004FEAB3535A40D7F82411D7F8203119406F
:101F1C00D7F82401D7F820311843D7F81C310340E7
:101F2C000B431344C7F80831D7F81821D7F80C31F4
:101F3C001344C7F81831D7F80C21D7F808311344DB
:101F4C00C7F82831D7F818314FEAB312D7F818313F
:101F5C004FEAF3235A40D7F818314FEA73635A40CB
:101F6C00D7F82C311A44D7F81411D7F8103159403E
:101F7C00D7F818311940D7F810314B401A4407F5EF
:101F8C009873A3F59473DB6B1A44794B1344C7F81D
:101F9C000C31D7F828314FEAB302D7F828314FEA81
:101FAC0073335A40D7F828314FEAB3535A40D7F815
:101FBC002811D7F824311940D7F82801D7F8243143
:101FCC001843D7F8203103400B431344C7F80831AA
:101FDC00D7F81C21D7F80C311344C7F81C31D7F8AB
:101FEC000C21D7F808311344C7F82C31D7F81C3121
:101FFC004FEAB312D7F81C314FEAF3235A40D7F803
:10200C001C314FEA73635A40D7F810311A44D7F891
:10201C001811D7F814315940D7F81C311940D7F89A
:10202C0014314B401A4407F59873A3F594739B6BCA
:10203C004FEA734107F59873A3F594739B6B4FEAC2
:10204C00F343594007F59873A3F594739B6B9B0A64
:10205C00594007F59873A3F594735B6A194407F517
:10206C009873A3F594735B684FEAF31007F59873B4
:10207C00A3F594735B684FEAB343584007F5987324
:10208C00A3F594735B68DB084340194407F5987318
:10209C00A3F594731B68194407F59873A3F594730F
:1020AC00196407F59873A3F594731B6C1A44314BA0
:1020BC001344C7F80C31D7F82C314FEAB302D7F8D8
:1020CC002C314FEA73335A40D7F82C314FEAB353C3
:1020DC005A40D7F82C11D7F828311940D7F82C01D1
:1020EC00D7F828311843D7F8243103400B43134455
:1020FC00C7F80831D7F82021D7F80C311344C7F8AA
:10210C002031D7F80C21D7F808311344C7F8103117
:10211C00D7F820314FEAB312D7F820314FEAF32326
:10212C005A40D7F820314FEA73635A40D7F814312C
:10213C001A44D7F81C11D7F818315940D7F8203168
:10214C001940D7F818314B401A4407F59873A3F58A
:10215C009473DB6B4FEA734107F59873A3F5947393
:10216C00DB6B09E0745DBE72FEB1DE80A706DC9B02
:10217C0074F19BC1C1699BE44FEAF343594007F5E5
:10218C009873A3F59473DB6B9B0A594007F598730E
:10219C00A3F594739B6A194407F59873A3F594738C
:1021AC009B684FEAF31007F59873A3F594739B683B
:1021BC004FEAB343584007F59873A3F594739B68A3
:1021CC00DB084340194407F59873A3F594735B68D7
:1021DC00194407F59873A3F59473596407F598732C
:1021EC00A3F594735B6C1A44EC4B1344C7F80C3195
:1021FC00D7F810314FEAB302D7F810314FEA7333E6
:10220C005A40D7F810314FEAB3535A40D7F810114F
:10221C00D7F82C311940D7F81001D7F82C311843C6
:10222C00D7F8283103400B431344C7F80831D7F8CB
:10223C002421D7F80C311344C7F82431D7F80C21DA
:10224C00D7F808311344C7F81431D7F824314FEAC2
:10225C00B312D7F824314FEAF3235A40D7F824317C
:10226C004FEA73635A40D7F818311A44D7F8201143
:10227C00D7F81C315940D7F824311940D7F81C3104
:10228C004B401A4407F59873A3F594731B6C4FEAF3
:10229C00734107F59873A3F594731B6C4FEAF343E2
:1022AC00594007F59873A3F594731B6C9B0A59401E
:1022BC0007F59873A3F59473DB6A194407F59873C3
:1022CC00A3F59473DB684FEAF31007F59873A3F545
:1022DC009473DB684FEAB343584007F59873A3F542
:1022EC009473DB68DB084340194407F59873A3F536
:1022FC0094739B68194407F59873A3F594739964C8
:10230C0007F59873A3F594739B6C1A44A44B134470
:10231C00C7F80C31D7F814314FEAB302D7F814319F
:10232C004FEA73335A40D7F814314FEAB3535A403B
:10233C00D7F81411D7F810311940D7F81401D7F881
:10234C0010311843D7F82C3103400B431344C7F812
:10235C000831D7F82821D7F80C311344C7F82831A5
:10236C00D7F80C21D7F808311344C7F81831D7F82F
:10237C0028314FEAB312D7F828314FEAF3235A40E9
:10238C00D7F828314FEA73635A40D7F81C311A44F6
:10239C00D7F82411D7F820315940D7F828311940F3
:1023AC00D7F820314B401A4407F59873A3F5947372
:1023BC005B6C4FEA734107F59873A3F594735B6CF0
:1023CC004FEAF343594007F59873A3F594735B6C8C
:1023DC009B0A594007F59873A3F594731B6B19442A
:1023EC0007F59873A3F594731B694FEAF31007F57F
:1023FC009873A3F594731B694FEAB343584007F5E0
:10240C009873A3F594731B69DB084340194407F5D3
:10241C009873A3F59473DB68194407F59873A3F5C7
:10242C009473D96407F59873A3F59473DB6C1A4411
:10243C005C4B1344C7F80C31D7F818314FEAB30290
:10244C00D7F818314FEA73335A40D7F818314FEA9E
:10245C00B3535A40D7F81811D7F814311940D7F89C
:10246C001801D7F814311843D7F8103103400B4337
:10247C001344C7F80831D7F82C21D7F80C31134482
:10248C00C7F82C31D7F80C21D7F808311344C7F80A
:10249C001C31D7F82C314FEAB312D7F82C314FEA54
:1024AC00F3235A40D7F82C314FEA73635A40D7F8CC
:1024BC0020311A44D7F82811D7F824315940D7F8CD
:1024CC002C311940D7F824314B401A4407F5987336
:1024DC00A3F594739B6C4FEA734107F59873A3F5BE
:1024EC0094739B6C4FEAF343594007F59873A3F52B
:1024FC0094739B6C9B0A594007F59873A3F59473DE
:10250C005B6B194407F59873A3F594735B694FEAF9
:10251C00F31007F59873A3F594735B694FEAB34313
:10252C00584007F59873A3F594735B69DB08434037
:10253C00194407F59873A3F594731B69194407F5AF
:10254C009873A3F59473196507F59873A3F59473B1
:10255C001B6D1A44144B1344C7F80C31D7F81C31BB
:10256C004FEAB302D7F81C314FEA73335A40D7F80D
:10257C001C314FEAB3535A40D7F81C11D7F8183115
:10258C001940D7F81C01D7F818311843D7F8143173
:10259C0003400B431344C7F8083107E08647BEEFEE
:1025AC00C69DC10FCCA10C246F2CE92DD7F810219E
:1025BC00D7F80C311344C7F81031D7F80C21D7F8E1
:1025CC0008311344C7F82031D7F810314FEAB31251
:1025DC00D7F810314FEAF3235A40D7F810314FEAAD
:1025EC0073635A40D7F824311A44D7F82C11D7F812
:1025FC0028315940D7F810311940D7F828314B40C1
:10260C001A4407F59873A3F59473DB6C4FEA734186
:10261C0007F59873A3F59473DB6C4FEAF3435940B9
:10262C0007F59873A3F59473DB6C9B0A594007F577
:10263C009873A3F594739B6B194407F59873A3F5E2
:10264C0094739B694FEAF31007F59873A3F5947391
:10265C009B694FEAB343584007F59873A3F59473FD
:10266C009B69DB084340194407F59873A3F59473F1
:10267C005B69194407F59873A3F59473596507F5CD
:10268C009873A3F594735B6D1A44ED4B1344C7F820
:10269C000C31D7F820314FEAB302D7F820314FEA8A
:1026AC0073335A40D7F820314FEAB3535A40D7F816
:1026BC002011D7F81C311940D7F82001D7F81C315C
:1026CC001843D7F8183103400B431344C7F80831AB
:1026DC00D7F81421D7F80C311344C7F81431D7F8B4
:1026EC000C21D7F808311344C7F82431D7F814312A
:1026FC004FEAB312D7F814314FEAF3235A40D7F804
:10270C0014314FEA73635A40D7F828311A44D7F87A
:10271C001011D7F82C315940D7F814311940D7F88B
:10272C002C314B401A4407F59873A3F594731B6D29
:10273C004FEA734107F59873A3F594731B6D4FEA39
:10274C00F343594007F59873A3F594731B6D9B0ADB
:10275C00594007F59873A3F59473DB6B194407F58F
:10276C009873A3F59473DB694FEAF31007F598732C
:10277C00A3F59473DB694FEAB343584007F598739C
:10278C00A3F59473DB69DB084340194407F5987390
:10279C00A3F594739B69194407F59873A3F5947387
:1027AC00996507F59873A3F594739B6D1A44A54B23
:1027BC001344C7F80C31D7F824314FEAB302D7F8D9
:1027CC0024314FEA73335A40D7F824314FEAB353CC
:1027DC005A40D7F82411D7F820311940D7F82401E2
:1027EC00D7F820311843D7F81C3103400B4313445E
:1027FC00C7F80831D7F81821D7F80C311344C7F8AB
:10280C001831D7F80C21D7F808311344C7F8283100
:10281C00D7F818314FEAB312D7F818314FEAF3232F
:10282C005A40D7F818314FEA73635A40D7F82C3115
:10283C001A44D7F81411D7F810315940D7F8183179
:10284C001940D7F810314B401A4407F59873A3F58B
:10285C0094735B6D4FEA734107F59873A3F594730A
:10286C005B6D4FEAF343594007F59873A3F59473E6
:10287C005B6D9B0A594007F59873A3F594731B6C19
:10288C00194407F59873A3F594731B6A4FEAF31078
:10289C0007F59873A3F594731B6A4FEAB34358403A
:1028AC0007F59873A3F594731B6ADB08434019442E
:1028BC0007F59873A3F59473DB69194407F59873BE
:1028CC00A3F59473D96507F59873A3F59473DB6D31
:1028DC001A445D4B1344C7F80C31D7F828314FEA32
:1028EC00B302D7F828314FEA73335A40D7F828315E
:1028FC004FEAB3535A40D7F82811D7F8243119406E
:10290C00D7F82801D7F824311843D7F820310340E1
:10291C000B431344C7F80831D7F81C21D7F80C31F6
:10292C001344C7F81C31D7F80C21D7F808311344DD
:10293C00C7F82C31D7F81C314FEAB312D7F81C3139
:10294C004FEAF3235A40D7F81C314FEA73635A40CD
:10295C00D7F810311A44D7F81811D7F81431594058
:10296C00D7F81C311940D7F814314B401A4407F5ED
:10297C009873A3F594739B6D4FEA734107F59873A5
:10298C00A3F594739B6D4FEAF343594007F5987385
:10299C00A3F594739B6D9B0A594007F59873A3F5A7
:1029AC0094735B6C194407F59873A3F594735B6A85
:1029BC004FEAF31007F59873A3F594735B6A4FEA2B
:1029CC00B343584007F59873A3F594735B6ADB081F
:1029DC004340194407F59873A3F594731B6A194483
:1029EC0007F59873A3F59473196607F59873A3F517
:1029FC0094731B6E1A44154B1344C7F80C31D7F85B
:102A0C002C314FEAB302D7F82C314FEA73335A40CA
:102A1C00D7F82C314FEAB3535A40D7F82C11D7F8CA
:102A2C0028311940D7F82C01D7F828311843D7F89A
:102A3C00243103400B431344C7F8083108E000BFAE
:102A4C00AA84744ADCA9B05CDA88F97652513E98B3
:102A5C00D7F82021D7F80C311344C7F82031D7F818
:102A6C000C21D7F808311344C7F81031D7F82031AE
:102A7C004FEAB312D7F820314FEAF3235A40D7F874
:102A8C0020314FEA73635A40D7F814311A44D7F8FF
:102A9C001C11D7F818315940D7F820311940D7F804
:102AAC0018314B401A4407F59873A3F59473DB6DFA
:102ABC004FEA734107F59873A3F59473DB6D4FEAF6
:102ACC00F343594007F59873A3F59473DB6D9B0A98
:102ADC00594007F59873A3F594739B6C194407F54B
:102AEC009873A3F594739B6A4FEAF31007F59873E8
:102AFC00A3F594739B6A4FEAB343584007F5987358
:102B0C00A3F594739B6ADB084340194407F598734B
:102B1C00A3F594735B6A194407F59873A3F5947342
:102B2C00596607F59873A3F594735B6E1A44ED4BD5
:102B3C001344C7F80C31D7F810314FEAB302D7F869
:102B4C0010314FEA73335A40D7F810314FEAB35370
:102B5C005A40D7F81011D7F82C311940D7F810017A
:102B6C00D7F82C311843D7F8283103400B431344C2
:102B7C00C7F80831D7F82421D7F80C311344C7F81B
:102B8C002431D7F80C21D7F808311344C7F8143185
:102B9C00D7F824314FEAB312D7F824314FEAF32394
:102BAC005A40D7F824314FEA73635A40D7F818319A
:102BBC001A44D7F82011D7F81C315940D7F82431D2
:102BCC001940D7F81C314B401A4407F59873A3F5FC
:102BDC0094731B6E4FEA734107F59873A3F59473C6
:102BEC001B6E4FEAF343594007F59873A3F59473A2
:102BFC001B6E9B0A594007F59873A3F59473DB6C15
:102C0C00194407F59873A3F59473DB6A4FEAF31034
:102C1C0007F59873A3F59473DB6A4FEAB3435840F6
:102C2C0007F59873A3F59473DB6ADB0843401944EA
:102C3C0007F59873A3F594739B6A194407F5987379
:102C4C00A3F59473996607F59873A3F594739B6E2B
:102C5C001A44A54B1344C7F80C31D7F814314FEA7A
:102C6C00B302D7F814314FEA73335A40D7F8143102
:102C7C004FEAB3535A40D7F81411D7F81031194012
:102C8C00D7F81401D7F810311843D7F82C3103407A
:102C9C000B431344C7F80831D7F82821D7F80C3167
:102CAC001344C7F82831D7F80C21D7F8083113444E
:102CBC00C7F81831D7F828314FEAB312D7F82831B2
:102CCC004FEAF3235A40D7F828314FEA73635A403E
:102CDC00D7F81C311A44D7F82411D7F820315940B1
:102CEC00D7F828311940D7F820314B401A4407F552
:102CFC009873A3F594735B6E4FEA734107F5987361
:102D0C00A3F594735B6E4FEAF343594007F5987340
:102D1C00A3F594735B6E9B0A594007F59873A3F562
:102D2C0094731B6D194407F59873A3F594731B6B7F
:102D3C004FEAF31007F59873A3F594731B6B4FEAE6
:102D4C00B343584007F59873A3F594731B6BDB08DA
:102D5C004340194407F59873A3F59473DB6A19443F
:102D6C0007F59873A3F59473D96607F59873A3F5D3
:102D7C009473DB6E1A445D4B1344C7F80C31D7F8CF
:102D8C0018314FEAB302D7F818314FEA73335A406F
:102D9C00D7F818314FEAB3535A40D7F81811D7F86F
:102DAC0014311940D7F81801D7F814311843D7F853
:102DBC00103103400B431344C7F80831D7F82C21CA
:102DCC00D7F80C311344C7F82C31D7F80C21D7F8AD
:102DDC0008311344C7F81C31D7F82C314FEAB31221
:102DEC00D7F82C314FEAF3235A40D7F82C314FEA5D
:102DFC0073635A40D7F820311A44D7F82811D7F802
:102E0C0024315940D7F82C311940D7F824314B4094
:102E1C001A4407F59873A3F594739B6E4FEA7341AC
:102E2C0007F59873A3F594739B6E4FEAF3435940DF
:102E3C0007F59873A3F594739B6E9B0A594007F59D
:102E4C009873A3F594735B6D194407F59873A3F508
:102E5C0094735B6B4FEAF31007F59873A3F59473B7
:102E6C005B6B4FEAB343584007F59873A3F5947323
:102E7C005B6BDB084340194407F59873A3F5947317
:102E8C001B6B194407F59873A3F59473196707F531
:102E9C009873A3F594731B6F1A44154B1344C7F81E
:102EAC000C31D7F81C314FEAB302D7F81C314FEA7A
:102EBC0073335A40D7F81C314FEAB3535A40D7F802
:102ECC001C11D7F818311940D7F81C01D7F8183154
:102EDC001843D7F8143103400B431344C7F8083197
:102EEC0008E000BF6DC631A8C82703B0C77F59BF23
:102EFC00F30BE0C6D7F81021D7F80C311344C7F800
:102F0C001031D7F80C21D7F808311344C7F8203109
:102F1C00D7F810314FEAB312D7F810314FEAF32338
:102F2C005A40D7F810314FEA73635A40D7F824311E
:102F3C001A44D7F82C11D7F828315940D7F810314A
:102F4C001940D7F828314B401A4407F59873A3F56C
:102F5C009473DB6E4FEA734107F59873A3F5947382
:102F6C00DB6E4FEAF343594007F59873A3F594735E
:102F7C00DB6E9B0A594007F59873A3F594739B6D10
:102F8C00194407F59873A3F594739B6B4FEAF310F0
:102F9C0007F59873A3F594739B6B4FEAB3435840B2
:102FAC0007F59873A3F594739B6BDB0843401944A6
:102FBC0007F59873A3F594735B6B194407F5987335
:102FCC00A3F59473596707F59873A3F594735B6F26
:102FDC001A44EE4B1344C7F80C31D7F820314FEAA2
:102FEC00B302D7F820314FEA73335A40D7F8203167
:102FFC004FEAB3535A40D7F82011D7F81C31194077
:10300C00D7F82001D7F81C311843D7F818310340F2
:10301C000B431344C7F80831D7F81421D7F80C31F7
:10302C001344C7F81431D7F80C21D7F808311344DE
:10303C00C7F82431D7F814314FEAB312D7F814314A
:10304C004FEAF3235A40D7F814314FEA73635A40CE
:10305C00D7F828311A44D7F81011D7F82C31594029
:10306C00D7F814311940D7F82C314B401A4407F5D6
:10307C009873A3F594731B6F4FEA734107F598731C
:10308C00A3F594731B6F4FEAF343594007F59873FC
:10309C00A3F594731B6F9B0A594007F59873A3F51E
:1030AC009473DB6D194407F59873A3F59473DB6B7C
:1030BC004FEAF31007F59873A3F59473DB6B4FEAA3
:1030CC00B343584007F59873A3F59473DB6BDB0897
:1030DC004340194407F59873A3F594739B6B1944FB
:1030EC0007F59873A3F59473996707F59873A3F58F
:1030FC0094739B6F1A44A64B1344C7F80C31D7F842
:10310C0024314FEAB302D7F824314FEA73335A40D3
:10311C00D7F824314FEAB3535A40D7F82411D7F8D3
:10312C0020311940D7F82401D7F820311843D7F8AB
:10313C001C3103400B431344C7F80831D7F818214E
:10314C00D7F80C311344C7F81831D7F80C21D7F83D
:10315C0008311344C7F82831D7F818314FEAB312A5
:10316C00D7F818314FEAF3235A40D7F818314FEA01
:10317C0073635A40D7F82C311A44D7F81411D7F886
:10318C0010315940D7F818311940D7F810314B404D
:10319C001A4407F59873A3F594735B6F4FEA734168
:1031AC0007F59873A3F594735B6F4FEAF34359409B
:1031BC0007F59873A3F594735B6F9B0A594007F559
:1031CC009873A3F594731B6E194407F59873A3F5C4
:1031DC0094731B6C4FEAF31007F59873A3F5947373
:1031EC001B6C4FEAB343584007F59873A3F59473DF
:1031FC001B6CDB084340194407F59873A3F59473D3
:10320C00DB6B194407F59873A3F59473D96707F52D
:10321C009873A3F59473DB6F1A445E4B1344C7F891
:10322C000C31D7F828314FEAB302D7F828314FEADE
:10323C0073335A40D7F828314FEAB3535A40D7F872
:10324C002811D7F824311940D7F82801D7F82431A0
:10325C001843D7F8203103400B431344C7F8083107
:10326C00D7F81C21D7F80C311344C7F81C31D7F808
:10327C000C21D7F808311344C7F82C31D7F81C317E
:10328C004FEAB312D7F81C314FEAF3235A40D7F860
:10329C001C314FEA73635A40D7F810311A44D7F8EF
:1032AC001811D7F814315940D7F81C311940D7F8F8
:1032BC0014314B401A4407F59873A3F594739B6F24
:1032CC004FEA734107F59873A3F594739B6F4FEA1C
:1032DC00F343594007F59873A3F594739B6F9B0ABE
:1032EC00594007F59873A3F594735B6E194407F571
:1032FC009873A3F594735B6C4FEAF31007F598730E
:10330C00A3F594735B6C4FEAB343584007F598737D
:10331C00A3F594735B6CDB084340194407F5987371
:10332C00A3F594731B6C194407F59873A3F5947368
:10333C00C3F8801007F59873A3F59473D3F8803015
:10334C001A44154B1344C7F80C31D7F82C314FEAFB
:10335C00B302D7F82C314FEA73335A40D7F82C31DB
:10336C004FEAB3535A40D7F82C11D7F828311940EB
:10337C00D7F82C01D7F828311843D7F8243103405B
:10338C000B431344C7F8083108E000BF4791A7D599
:10339C005163CA0667292914850AB727D7F8202153
:1033AC00D7F80C311344C7F82031D7F80C21D7F8D3
:1033BC0008311344C7F81031D7F820314FEAB31253
:1033CC00D7F820314FEAF3235A40D7F820314FEA8F
:1033DC0073635A40D7F814311A44D7F81C11D7F834
:1033EC0018315940D7F820311940D7F818314B40D3
:1033FC001A4407F59873A3F59473DB6F4FEA734186
:10340C0007F59873A3F59473DB6F4FEAF3435940B8
:10341C0007F59873A3F59473DB6F9B0A594007F576
:10342C009873A3F594739B6E194407F59873A3F5E1
:10343C0094739B6C4FEAF31007F59873A3F5947390
:10344C009B6C4FEAB343584007F59873A3F59473FC
:10345C009B6CDB084340194407F59873A3F59473F0
:10346C005B6C194407F59873A3F59473C3F8841037
:10347C0007F59873A3F59473D3F884301A44F44B7E
:10348C001344C7F80C31D7F810314FEAB302D7F810
:10349C0010314FEA73335A40D7F810314FEAB35317
:1034AC005A40D7F81011D7F82C311940D7F8100121
:1034BC00D7F82C311843D7F8283103400B43134469
:1034CC00C7F80831D7F82421D7F80C311344C7F8C2
:1034DC002431D7F80C21D7F808311344C7F814312C
:1034EC00D7F824314FEAB312D7F824314FEAF3233B
:1034FC005A40D7F824314FEA73635A40D7F8183141
:10350C001A44D7F82011D7F81C315940D7F8243178
:10351C001940D7F81C314B401A4407F59873A3F5A2
:10352C009473D3F880304FEA734107F59873A3F581
:10353C009473D3F880304FEAF343594007F59873EE
:10354C00A3F59473D3F880309B0A594007F5987310
:10355C00A3F59473DB6E194407F59873A3F5947374
:10356C00DB6C4FEAF31007F59873A3F59473DB6CDF
:10357C004FEAB343584007F59873A3F59473DB6C8B
:10358C00DB084340194407F59873A3F594739B6CBF
:10359C00194407F59873A3F59473C3F8881007F5CD
:1035AC009873A3F59473D3F888301A44A94B134439
:1035BC00C7F80C31D7F814314FEAB302D7F81431ED
:1035CC004FEA73335A40D7F814314FEAB3535A4089
:1035DC00D7F81411D7F810311940D7F81401D7F8CF
:1035EC0010311843D7F82C3103400B431344C7F860
:1035FC000831D7F82821D7F80C311344C7F82831F3
:10360C00D7F80C21D7F808311344C7F81831D7F87C
:10361C0028314FEAB312D7F828314FEAF3235A4036
:10362C00D7F828314FEA73635A40D7F81C311A4443
:10363C00D7F82411D7F820315940D7F82831194040
:10364C00D7F820314B401A4407F59873A3F59473BF
:10365C00D3F884304FEA734107F59873A3F594734C
:10366C00D3F884304FEAF343594007F59873A3F528
:10367C009473D3F884309B0A594007F59873A3F5DB
:10368C0094731B6F194407F59873A3F594731B6D12
:10369C004FEAF31007F59873A3F594731B6D4FEA7B
:1036AC00B343584007F59873A3F594731B6DDB086F
:1036BC004340194407F59873A3F59473DB6C1944D4
:1036CC0007F59873A3F59473C3F88C1007F59873EA
:1036DC00A3F59473D3F88C301A445F4B1344C7F89A
:1036EC000C31D7F818314FEAB302D7F818314FEA3A
:1036FC0073335A40D7F818314FEAB3535A40D7F8BE
:10370C001811D7F814311940D7F81801D7F814311B
:10371C001843D7F8103103400B431344C7F8083152
:10372C00D7F82C21D7F80C311344C7F82C31D7F823
:10373C000C21D7F808311344C7F81C31D7F82C31B9
:10374C004FEAB312D7F82C314FEAF3235A40D7F88B
:10375C002C314FEA73635A40D7F820311A44D7F80A
:10376C002811D7F824315940D7F82C311940D7F803
:10377C0024314B401A4407F59873A3F59473D3F88E
:10378C0088304FEA734107F59873A3F59473D3F817
:10379C0088304FEAF343594007F59873A3F59473B7
:1037AC00D3F888309B0A594007F59873A3F59473A6
:1037BC005B6F194407F59873A3F594735B6D4FEA2F
:1037CC00F31007F59873A3F594735B6D4FEAB3434D
:1037DC00584007F59873A3F594735B6DDB08434071
:1037EC00194407F59873A3F594731B6D194407F5E9
:1037FC009873A3F59473C3F8901007F59873A3F519
:10380C009473D3F890301A44144B1344C7F80C310A
:10381C00D7F81C314FEAB302D7F81C314FEA733397
:10382C005A40D7F81C314FEAB3535A40D7F81C1101
:10383C00D7F818311940D7F81C01D7F818311843AC
:10384C00D7F8143103400B431344C7F8083107E091
:10385C0038211B2EFC6D2C4D130D385354730A65F7
:10386C00D7F81021D7F80C311344C7F81031D7F81A
:10387C000C21D7F808311344C7F82031D7F8103190
:10388C004FEAB312D7F810314FEAF3235A40D7F866
:10389C0010314FEA73635A40D7F824311A44D7F8E1
:1038AC002C11D7F828315940D7F810311940D7F8D6
:1038BC0028314B401A4407F59873A3F59473D3F849
:1038CC008C304FEA734107F59873A3F59473D3F8D2
:1038DC008C304FEAF343594007F59873A3F5947372
:1038EC00D3F88C309B0A594007F59873A3F5947361
:1038FC009B6F194407F59873A3F594739B6D4FEA6E
:10390C00F31007F59873A3F594739B6D4FEAB343CB
:10391C00584007F59873A3F594739B6DDB084340EF
:10392C00194407F59873A3F594735B6D194407F567
:10393C009873A3F59473C3F8941007F59873A3F5D3
:10394C009473D3F894301A44F54B1344C7F80C31E4
:10395C00D7F820314FEAB302D7F820314FEA73334E
:10396C005A40D7F820314FEAB3535A40D7F82011B8
:10397C00D7F81C311940D7F82001D7F81C3118435F
:10398C00D7F8183103400B431344C7F80831D7F864
:10399C001421D7F80C311344C7F81431D7F80C2183
:1039AC00D7F808311344C7F82431D7F814314FEA4B
:1039BC00B312D7F814314FEAF3235A40D7F8143125
:1039CC004FEA73635A40D7F828311A44D7F81011CC
:1039DC00D7F82C315940D7F814311940D7F82C317D
:1039EC004B401A4407F59873A3F59473D3F89030B1
:1039FC004FEA734107F59873A3F59473D3F890309D
:103A0C004FEAF343594007F59873A3F59473D3F831
:103A1C0090309B0A594007F59873A3F59473DB6FAC
:103A2C00194407F59873A3F59473DB6D4FEAF31003
:103A3C0007F59873A3F59473DB6D4FEAB3435840C5
:103A4C0007F59873A3F59473DB6DDB0843401944B9
:103A5C0007F59873A3F594739B6D194407F5987348
:103A6C00A3F59473C3F8981007F59873A3F59473A2
:103A7C00D3F898301A44AB4B1344C7F80C31D7F831
:103A8C0024314FEAB302D7F824314FEA73335A404A
:103A9C00D7F824314FEAB3535A40D7F82411D7F84A
:103AAC0020311940D7F82401D7F820311843D7F822
:103ABC001C3103400B431344C7F80831D7F81821C5
:103ACC00D7F80C311344C7F81831D7F80C21D7F8B4
:103ADC0008311344C7F82831D7F818314FEAB3121C
:103AEC00D7F818314FEAF3235A40D7F818314FEA78
:103AFC0073635A40D7F82C311A44D7F81411D7F8FD
:103B0C0010315940D7F818311940D7F810314B40C3
:103B1C001A4407F59873A3F59473D3F894304FEACD
:103B2C00734107F59873A3F59473D3F894304FEA67
:103B3C00F343594007F59873A3F59473D3F8943075
:103B4C009B0A594007F59873A3F59473D3F880300A
:103B5C00194407F59873A3F594731B6E4FEAF31091
:103B6C0007F59873A3F594731B6E4FEAB343584053
:103B7C0007F59873A3F594731B6EDB084340194447
:103B8C0007F59873A3F59473DB6D194407F59873D7
:103B9C00A3F59473C3F89C1007F59873A3F594736D
:103BAC00D3F89C301A44604B1344C7F80C31D7F847
:103BBC0028314FEAB302D7F828314FEA73335A4011
:103BCC00D7F828314FEAB3535A40D7F82811D7F811
:103BDC0024311940D7F82801D7F824311843D7F8E5
:103BEC00203103400B431344C7F80831D7F81C218C
:103BFC00D7F80C311344C7F81C31D7F80C21D7F87F
:103C0C0008311344C7F82C31D7F81C314FEAB312E2
:103C1C00D7F81C314FEAF3235A40D7F81C314FEA3E
:103C2C0073635A40D7F810311A44D7F81811D7F8E3
:103C3C0014315940D7F81C311940D7F814314B4086
:103C4C001A4407F59873A3F59473D3F898304FEA98
:103C5C00734107F59873A3F59473D3F898304FEA32
:103C6C00F343594007F59873A3F59473D3F8983040
:103C7C009B0A594007F59873A3F59473D3F88430D5
:103C8C00194407F59873A3F594735B6E4FEAF31020
:103C9C0007F59873A3F594735B6E4FEAB3435840E2
:103CAC0007F59873A3F594735B6EDB0843401944D6
:103CBC0007F59873A3F594731B6E194407F5987365
:103CCC00A3F59473C3F8A01007F59873A3F5947338
:103CDC00D3F8A0301A44154B1344C7F80C31D7F85D
:103CEC002C314FEAB302D7F82C314FEA73335A40D8
:103CFC00D7F82C314FEAB3535A40D7F82C11D7F8D8
:103D0C0028311940D7F82C01D7F828311843D7F8A7
:103D1C00243103400B431344C7F8083108E000BFBB
:103D2C00BB0A6A762EC9C281852C7292A1E8BFA209
:103D3C00D7F82021D7F80C311344C7F82031D7F825
:103D4C000C21D7F808311344C7F81031D7F82031BB
:103D5C004FEAB312D7F820314FEAF3235A40D7F881
:103D6C0020314FEA73635A40D7F814311A44D7F80C
:103D7C001C11D7F818315940D7F820311940D7F811
:103D8C0018314B401A4407F59873A3F59473D3F884
:103D9C009C304FEA734107F59873A3F59473D3F8ED
:103DAC009C304FEAF343594007F59873A3F594738D
:103DBC00D3F89C309B0A594007F59873A3F594737C
:103DCC00D3F88830194407F59873A3F594739B6E58
:103DDC004FEAF31007F59873A3F594739B6E4FEAB3
:103DEC00B343584007F59873A3F594739B6EDB08A7
:103DFC004340194407F59873A3F594735B6E19440B
:103E0C0007F59873A3F59473C3F8A41007F598738A
:103E1C00A3F59473D3F8A4301A44F64B1344C7F8A3
:103E2C000C31D7F810314FEAB302D7F810314FEA02
:103E3C0073335A40D7F810314FEAB3535A40D7F87E
:103E4C001011D7F82C311940D7F81001D7F82C31B4
:103E5C001843D7F8283103400B431344C7F80831F3
:103E6C00D7F82421D7F80C311344C7F82431D7F8EC
:103E7C000C21D7F808311344C7F81431D7F8243182
:103E8C004FEAB312D7F824314FEAF3235A40D7F84C
:103E9C0024314FEA73635A40D7F818311A44D7F8D3
:103EAC002011D7F81C315940D7F824311940D7F8D4
:103EBC001C314B401A4407F59873A3F59473D3F84F
:103ECC00A0304FEA734107F59873A3F59473D3F8B8
:103EDC00A0304FEAF343594007F59873A3F5947358
:103EEC00D3F8A0309B0A594007F59873A3F5947347
:103EFC00D3F88C30194407F59873A3F59473DB6EE3
:103F0C004FEAF31007F59873A3F59473DB6E4FEA41
:103F1C00B343584007F59873A3F59473DB6EDB0835
:103F2C004340194407F59873A3F594739B6E194499
:103F3C0007F59873A3F59473C3F8A81007F5987355
:103F4C00A3F59473D3F8A8301A44AB4B1344C7F8B9
:103F5C000C31D7F814314FEAB302D7F814314FEAC9
:103F6C0073335A40D7F814314FEAB3535A40D7F849
:103F7C001411D7F810311940D7F81401D7F81031B3
:103F8C001843D7F82C3103400B431344C7F80831BE
:103F9C00D7F82821D7F80C311344C7F82831D7F8B3
:103FAC000C21D7F808311344C7F81831D7F8283149
:103FBC004FEAB312D7F828314FEAF3235A40D7F817
:103FCC0028314FEA73635A40D7F81C311A44D7F89A
:103FDC002411D7F820315940D7F828311940D7F897
:103FEC0020314B401A4407F59873A3F59473D3F81A
:103FFC00A4304FEA734107F59873A3F59473D3F883
:10400C00A4304FEAF343594007F59873A3F5947322
:10401C00D3F8A4309B0A594007F59873A3F5947311
:10402C00D3F89030194407F59873A3F594731B6F6C
:10403C004FEAF31007F59873A3F594731B6F4FEACF
:10404C00B343584007F59873A3F594731B6FDB08C3
:10405C004340194407F59873A3F59473DB6E194428
:10406C0007F59873A3F59473C3F8AC1007F5987320
:10407C00A3F59473D3F8AC301A44604B1344C7F8CF
:10408C000C31D7F818314FEAB302D7F818314FEA90
:10409C0073335A40D7F818314FEAB3535A40D7F814
:1040AC001811D7F814311940D7F81801D7F8143172
:1040BC001843D7F8103103400B431344C7F80831A9
:1040CC00D7F82C21D7F80C311344C7F82C31D7F87A
:1040DC000C21D7F808311344C7F81C31D7F82C3110
:1040EC004FEAB312D7F82C314FEAF3235A40D7F8E2
:1040FC002C314FEA73635A40D7F820311A44D7F861
:10410C002811D7F824315940D7F82C311940D7F859
:10411C0024314B401A4407F59873A3F59473D3F8E4
:10412C00A8304FEA734107F59873A3F59473D3F84D
:10413C00A8304FEAF343594007F59873A3F59473ED
:10414C00D3F8A8309B0A594007F59873A3F59473DC
:10415C00D3F89430194407F59873A3F594735B6FF7
:10416C004FEAF31007F59873A3F594735B6F4FEA5E
:10417C00B343584007F59873A3F594735B6FDB0852
:10418C004340194407F59873A3F594731B6F1944B6
:10419C0007F59873A3F59473C3F8B01007F59873EB
:1041AC00A3F59473D3F8B0301A44154B1344C7F8E5
:1041BC000C31D7F81C314FEAB302D7F81C314FEA57
:1041CC0073335A40D7F81C314FEAB3535A40D7F8DF
:1041DC001C11D7F818311940D7F81C01D7F8183131
:1041EC001843D7F8143103400B431344C7F8083174
:1041FC0008E000BF4B661AA8708B4BC2A3516CC76A
:10420C0019E892D1D7F81021D7F80C311344C7F81C
:10421C001031D7F80C21D7F808311344C7F82031E6
:10422C00D7F810314FEAB312D7F810314FEAF32315
:10423C005A40D7F810314FEA73635A40D7F82431FB
:10424C001A44D7F82C11D7F828315940D7F8103127
:10425C001940D7F828314B401A4407F59873A3F549
:10426C009473D3F8AC304FEA734107F59873A3F508
:10427C009473D3F8AC304FEAF343594007F5987375
:10428C00A3F59473D3F8AC309B0A594007F5987397
:10429C00A3F59473D3F89830194407F59873A3F5E4
:1042AC0094739B6F4FEAF31007F59873A3F594730F
:1042BC009B6F4FEAB343584007F59873A3F594737B
:1042CC009B6FDB084340194407F59873A3F594736F
:1042DC005B6F194407F59873A3F59473C3F8B41086
:1042EC0007F59873A3F59473D3F8B4301A44F94BCB
:1042FC001344C7F80C31D7F820314FEAB302D7F882
:10430C0020314FEA73335A40D7F820314FEAB35378
:10431C005A40D7F82011D7F81C311940D7F8200192
:10432C00D7F81C311843D7F8183103400B4313440A
:10433C00C7F80831D7F81421D7F80C311344C7F853
:10434C001431D7F80C21D7F808311344C7F82431AD
:10435C00D7F814314FEAB312D7F814314FEAF323DC
:10436C005A40D7F814314FEA73635A40D7F82831C2
:10437C001A44D7F81011D7F82C315940D7F814310A
:10438C001940D7F82C314B401A4407F59873A3F514
:10439C009473D3F8B0304FEA734107F59873A3F5D3
:1043AC009473D3F8B0304FEAF343594007F5987340
:1043BC00A3F59473D3F8B0309B0A594007F5987362
:1043CC00A3F59473D3F89C30194407F59873A3F5AF
:1043DC009473DB6F4FEAF31007F59873A3F594739E
:1043EC00DB6F4FEAB343584007F59873A3F594730A
:1043FC00DB6FDB084340194407F59873A3F59473FE
:10440C009B6F194407F59873A3F59473C3F8B81010
:10441C0007F59873A3F59473D3F8B8301A44AE4BE0
:10442C001344C7F80C31D7F824314FEAB302D7F84C
:10443C0024314FEA73335A40D7F824314FEAB3533F
:10444C005A40D7F82411D7F820311940D7F8240155
:10445C00D7F820311843D7F81C3103400B431344D1
:10446C00C7F80831D7F81821D7F80C311344C7F81E
:10447C001831D7F80C21D7F808311344C7F8283174
:10448C00D7F818314FEAB312D7F818314FEAF323A3
:10449C005A40D7F818314FEA73635A40D7F82C3189
:1044AC001A44D7F81411D7F810315940D7F81831ED
:1044BC001940D7F810314B401A4407F59873A3F5FF
:1044CC009473D3F8B4304FEA734107F59873A3F59E
:1044DC009473D3F8B4304FEAF343594007F598730B
:1044EC00A3F59473D3F8B4309B0A594007F598732D
:1044FC00A3F59473D3F8A030194407F59873A3F57A
:10450C009473D3F880304FEAF31007F59873A3F542
:10451C009473D3F880304FEAB343584007F598733F
:10452C00A3F59473D3F88030DB084340194407F5A6
:10453C009873A3F59473DB6F194407F59873A3F57F
:10454C009473C3F8BC1007F59873A3F59473D3F860
:10455C00BC301A44614B1344C7F80C31D7F82831DE
:10456C004FEAB302D7F828314FEA73335A40D7F8E1
:10457C0028314FEAB3535A40D7F82811D7F82431D1
:10458C001940D7F82801D7F824311843D7F820312F
:10459C0003400B431344C7F80831D7F81C21D7F854
:1045AC000C311344C7F81C31D7F80C21D7F808315B
:1045BC001344C7F82C31D7F81C314FEAB312D7F893
:1045CC001C314FEAF3235A40D7F81C314FEA73637E
:1045DC005A40D7F810311A44D7F81811D7F81431BB
:1045EC005940D7F81C311940D7F814314B401A44B4
:1045FC0007F59873A3F59473D3F8B8304FEA734169
:10460C0007F59873A3F59473D3F8B8304FEAF343D6
:10461C00594007F59873A3F59473D3F8B8309B0AF7
:10462C00594007F59873A3F59473D3F8A430194443
:10463C0007F59873A3F59473D3F884304FEAF3100D
:10464C0007F59873A3F59473D3F884304FEAB3430A
:10465C00584007F59873A3F59473D3F88430DB08AE
:10466C004340194407F59873A3F59473D3F880303D
:10467C00194407F59873A3F59473C3F8C01007F5A4
:10468C009873A3F59473D3F8C0301A44144B1344A5
:10469C00C7F80C31D7F82C314FEAB302D7F82C31CC
:1046AC004FEA73335A40D7F82C314FEAB3535A4080
:1046BC00D7F82C11D7F828311940D7F82C01D7F896
:1046CC0028311843D7F8243103400B431344C7F85F
:1046DC00083107E0240699D685350EF470A06A10CF
:1046EC0016C1A419D7F82021D7F80C311344C7F8F8
:1046FC002031D7F80C21D7F808311344C7F8103102
:10470C00D7F820314FEAB312D7F820314FEAF32310
:10471C005A40D7F820314FEA73635A40D7F8143116
:10472C001A44D7F81C11D7F818315940D7F8203152
:10473C001940D7F818314B401A4407F59873A3F574
:10474C009473D3F8BC304FEA734107F59873A3F513
:10475C009473D3F8BC304FEAF343594007F5987380
:10476C00A3F59473D3F8BC309B0A594007F59873A2
:10477C00A3F59473D3F8A830194407F59873A3F5EF
:10478C009473D3F888304FEAF31007F59873A3F5B8
:10479C009473D3F888304FEAB343584007F59873B5
:1047AC00A3F59473D3F88830DB084340194407F51C
:1047BC009873A3F59473D3F88430194407F5987360
:1047CC00A3F59473C3F8C41007F59873A3F5947309
:1047DC00D3F8C4301A44FC4B1344C7F80C31D7F847
:1047EC0010314FEAB302D7F810314FEA73335A4005
:1047FC00D7F810314FEAB3535A40D7F81011D7F805
:10480C002C311940D7F81001D7F82C311843D7F8B0
:10481C00283103400B431344C7F80831D7F824213F
:10482C00D7F80C311344C7F82431D7F80C21D7F83A
:10483C0008311344C7F81431D7F824314FEAB312B6
:10484C00D7F824314FEAF3235A40D7F824314FEAF2
:10485C0073635A40D7F818311A44D7F82011D7F897
:10486C001C315940D7F824311940D7F81C314B4032
:10487C001A4407F59873A3F59473D3F8C0304FEA34
:10488C00734107F59873A3F59473D3F8C0304FEACE
:10489C00F343594007F59873A3F59473D3F8C030DC
:1048AC009B0A594007F59873A3F59473D3F8AC3071
:1048BC00194407F59873A3F59473D3F88C304FEA29
:1048CC00F31007F59873A3F59473D3F88C304FEA73
:1048DC00B343584007F59873A3F59473D3F88C3011
:1048EC00DB084340194407F59873A3F59473D3F888
:1048FC008830194407F59873A3F59473C3F8C8105E
:10490C0007F59873A3F59473D3F8C8301A44AF4BDA
:10491C001344C7F80C31D7F814314FEAB302D7F867
:10492C0014314FEA73335A40D7F814314FEAB3536A
:10493C005A40D7F81411D7F810311940D7F8140190
:10494C00D7F810311843D7F82C3103400B431344DC
:10495C00C7F80831D7F82821D7F80C311344C7F819
:10496C002831D7F80C21D7F808311344C7F818317F
:10497C00D7F828314FEAB312D7F828314FEAF3238E
:10498C005A40D7F828314FEA73635A40D7F81C3194
:10499C001A44D7F82411D7F820315940D7F82831C8
:1049AC001940D7F820314B401A4407F59873A3F5FA
:1049BC009473D3F8C4304FEA734107F59873A3F599
:1049CC009473D3F8C4304FEAF343594007F5987306
:1049DC00A3F59473D3F8C4309B0A594007F5987328
:1049EC00A3F59473D3F8B030194407F59873A3F575
:1049FC009473D3F890304FEAF31007F59873A3F53E
:104A0C009473D3F890304FEAB343584007F598733A
:104A1C00A3F59473D3F89030DB084340194407F5A1
:104A2C009873A3F59473D3F88C30194407F59873E5
:104A3C00A3F59473C3F8CC1007F59873A3F594738E
:104A4C00D3F8CC301A44624B1344C7F80C31D7F866
:104A5C0018314FEAB302D7F818314FEA73335A4082
:104A6C00D7F818314FEAB3535A40D7F81811D7F882
:104A7C0014311940D7F81801D7F814311843D7F866
:104A8C00103103400B431344C7F80831D7F82C21DD
:104A9C00D7F80C311344C7F82C31D7F80C21D7F8C0
:104AAC0008311344C7F81C31D7F82C314FEAB31234
:104ABC00D7F82C314FEAF3235A40D7F82C314FEA70
:104ACC0073635A40D7F820311A44D7F82811D7F815
:104ADC0024315940D7F82C311940D7F824314B40A8
:104AEC001A4407F59873A3F59473D3F8C8304FEABA
:104AFC00734107F59873A3F59473D3F8C8304FEA54
:104B0C00F343594007F59873A3F59473D3F8C83061
:104B1C009B0A594007F59873A3F59473D3F8B430F6
:104B2C00194407F59873A3F59473D3F894304FEAAE
:104B3C00F31007F59873A3F59473D3F894304FEAF8
:104B4C00B343584007F59873A3F59473D3F8943096
:104B5C00DB084340194407F59873A3F59473D3F815
:104B6C009030194407F59873A3F59473C3F8D010DB
:104B7C0007F59873A3F59473D3F8D0301A44154BFA
:104B8C001344C7F80C31D7F81C314FEAB302D7F8ED
:104B9C001C314FEA73335A40D7F81C314FEAB353E8
:104BAC005A40D7F81C11D7F818311940D7F81C0106
:104BBC00D7F818311843D7F8143103400B4313447A
:104BCC00C7F8083108E000BF086C371E4C7748273F
:104BDC00B5BCB034B30C1C39D7F81021D7F80C3154
:104BEC001344C7F81031D7F80C21D7F80831134407
:104BFC00C7F82031D7F810314FEAB312D7F810317B
:104C0C004FEAF3235A40D7F810314FEA73635A40F6
:104C1C00D7F824311A44D7F82C11D7F82831594039
:104C2C00D7F810311940D7F828314B401A4407F502
:104C3C009873A3F59473D3F8CC304FEA734107F50E
:104C4C009873A3F59473D3F8CC304FEAF3435940DF
:104C5C0007F59873A3F59473D3F8CC309B0A59409D
:104C6C0007F59873A3F59473D3F8B830194407F586
:104C7C009873A3F59473D3F898304FEAF31007F5B3
:104C8C009873A3F59473D3F898304FEAB343584014
:104C9C0007F59873A3F59473D3F89830DB08434069
:104CAC00194407F59873A3F59473D3F89430194409
:104CBC0007F59873A3F59473C3F8D41007F598739C
:104CCC00A3F59473D3F8D4301A44FC4B1344C7F8AF
:104CDC000C31D7F820314FEAB302D7F820314FEA24
:104CEC0073335A40D7F820314FEAB3535A40D7F8B0
:104CFC002011D7F81C311940D7F82001D7F81C31F6
:104D0C001843D7F8183103400B431344C7F8083144
:104D1C00D7F81421D7F80C311344C7F81431D7F84D
:104D2C000C21D7F808311344C7F82431D7F81431C3
:104D3C004FEAB312D7F814314FEAF3235A40D7F89D
:104D4C0014314FEA73635A40D7F828311A44D7F814
:104D5C001011D7F82C315940D7F814311940D7F825
:104D6C002C314B401A4407F59873A3F59473D3F880
:104D7C00D0304FEA734107F59873A3F59473D3F8C9
:104D8C00D0304FEAF343594007F59873A3F5947369
:104D9C00D3F8D0309B0A594007F59873A3F5947358
:104DAC00D3F8BC30194407F59873A3F59473D3F872
:104DBC009C304FEAF31007F59873A3F59473D3F86E
:104DCC009C304FEAB343584007F59873A3F594739E
:104DDC00D3F89C30DB084340194407F59873A3F5CE
:104DEC009473D3F89830194407F59873A3F594731A
:104DFC00C3F8D81007F59873A3F59473D3F8D8308B
:104E0C001A44AF4B1344C7F80C31D7F824314FEA8E
:104E1C00B302D7F824314FEA73335A40D7F8243110
:104E2C004FEAB3535A40D7F82411D7F82031194020
:104E3C00D7F82401D7F820311843D7F81C31034098
:104E4C000B431344C7F80831D7F81821D7F80C31A5
:104E5C001344C7F81831D7F80C21D7F8083113448C
:104E6C00C7F82831D7F818314FEAB312D7F81831F0
:104E7C004FEAF3235A40D7F818314FEA73635A407C
:104E8C00D7F82C311A44D7F81411D7F810315940EF
:104E9C00D7F818311940D7F810314B401A4407F5A0
:104EAC009873A3F59473D3F8D4304FEA734107F594
:104EBC009873A3F59473D3F8D4304FEAF343594065
:104ECC0007F59873A3F59473D3F8D4309B0A594023
:104EDC0007F59873A3F59473D3F8C030194407F50C
:104EEC009873A3F59473D3F8A0304FEAF31007F539
:104EFC009873A3F59473D3F8A0304FEAB34358409A
:104F0C0007F59873A3F59473D3F8A030DB084340EE
:104F1C00194407F59873A3F59473D3F89C3019448E
:104F2C0007F59873A3F59473C3F8DC1007F5987321
:104F3C00A3F59473D3F8DC301A44624B1344C7F8CE
:104F4C000C31D7F828314FEAB302D7F828314FEAA1
:104F5C0073335A40D7F828314FEAB3535A40D7F835
:104F6C002811D7F824311940D7F82801D7F8243163
:104F7C001843D7F8203103400B431344C7F80831CA
:104F8C00D7F81C21D7F80C311344C7F81C31D7F8CB
:104F9C000C21D7F808311344C7F82C31D7F81C3141
:104FAC004FEAB312D7F81C314FEAF3235A40D7F823
:104FBC001C314FEA73635A40D7F810311A44D7F8B2
:104FCC001811D7F814315940D7F81C311940D7F8BB
:104FDC0014314B401A4407F59873A3F59473D3F826
:104FEC00D8304FEA734107F59873A3F59473D3F84F
:104FFC00D8304FEAF343594007F59873A3F59473EF
:10500C00D3F8D8309B0A594007F59873A3F59473DD
:10501C00D3F8C430194407F59873A3F59473D3F8F7
:10502C00A4304FEAF31007F59873A3F59473D3F8F3
:10503C00A4304FEAB343584007F59873A3F5947323
:10504C00D3F8A430DB084340194407F59873A3F553
:10505C009473D3F8A030194407F59873A3F594739F
:10506C00C3F8E01007F59873A3F59473D3F8E03008
:10507C001A44154B1344C7F80C31D7F82C314FEAAE
:10508C00B302D7F82C314FEA73335A40D7F82C318E
:10509C004FEAB3535A40D7F82C11D7F8283119409E
:1050AC00D7F82C01D7F828311843D7F8243103400E
:1050BC000B431344C7F8083108E000BF4AAAD84E86
:1050CC004FCA9C5BF36F2E68EE828F74D7F8202149
:1050DC00D7F80C311344C7F82031D7F80C21D7F886
:1050EC0008311344C7F81031D7F820314FEAB31206
:1050FC00D7F820314FEAF3235A40D7F820314FEA42
:10510C0073635A40D7F814311A44D7F81C11D7F8E6
:10511C0018315940D7F820311940D7F818314B4085
:10512C001A4407F59873A3F59473D3F8DC304FEA5F
:10513C00734107F59873A3F59473D3F8DC304FEAF9
:10514C00F343594007F59873A3F59473D3F8DC3007
:10515C009B0A594007F59873A3F59473D3F8C8309C
:10516C00194407F59873A3F59473D3F8A8304FEA54
:10517C00F31007F59873A3F59473D3F8A8304FEA9E
:10518C00B343584007F59873A3F59473D3F8A8303C
:10519C00DB084340194407F59873A3F59473D3F8CF
:1051AC00A430194407F59873A3F59473C3F8E4106D
:1051BC0007F59873A3F59473D3F8E4301A44FC4BB9
:1051CC001344C7F80C31D7F810314FEAB302D7F8B3
:1051DC0010314FEA73335A40D7F810314FEAB353BA
:1051EC005A40D7F81011D7F82C311940D7F81001C4
:1051FC00D7F82C311843D7F8283103400B4313440C
:10520C00C7F80831D7F82421D7F80C311344C7F864
:10521C002431D7F80C21D7F808311344C7F81431CE
:10522C00D7F824314FEAB312D7F824314FEAF323DD
:10523C005A40D7F824314FEA73635A40D7F81831E3
:10524C001A44D7F82011D7F81C315940D7F824311B
:10525C001940D7F81C314B401A4407F59873A3F545
:10526C009473D3F8E0304FEA734107F59873A3F5C4
:10527C009473D3F8E0304FEAF343594007F5987331
:10528C00A3F59473D3F8E0309B0A594007F5987353
:10529C00A3F59473D3F8CC30194407F59873A3F5A0
:1052AC009473D3F8AC304FEAF31007F59873A3F569
:1052BC009473D3F8AC304FEAB343584007F5987366
:1052CC00A3F59473D3F8AC30DB084340194407F5CD
:1052DC009873A3F59473D3F8A830194407F5987311
:1052EC00A3F59473C3F8E81007F59873A3F59473BA
:1052FC00D3F8E8301A44AF4B1344C7F80C31D7F845
:10530C0014314FEAB302D7F814314FEA73335A40D1
:10531C00D7F814314FEAB3535A40D7F81411D7F8D1
:10532C0010311940D7F81401D7F810311843D7F8B9
:10533C002C3103400B431344C7F80831D7F828210C
:10534C00D7F80C311344C7F82831D7F80C21D7F80B
:10535C0008311344C7F81831D7F828314FEAB31283
:10536C00D7F828314FEAF3235A40D7F828314FEABF
:10537C0073635A40D7F81C311A44D7F82411D7F864
:10538C0020315940D7F828311940D7F820314B40FB
:10539C001A4407F59873A3F59473D3F8E4304FEAE5
:1053AC00734107F59873A3F59473D3F8E4304FEA7F
:1053BC00F343594007F59873A3F59473D3F8E4308D
:1053CC009B0A594007F59873A3F59473D3F8D03022
:1053DC00194407F59873A3F59473D3F8B0304FEADA
:1053EC00F31007F59873A3F59473D3F8B0304FEA24
:1053FC00B343584007F59873A3F59473D3F8B030C2
:10540C00DB084340194407F59873A3F59473D3F85C
:10541C00AC30194407F59873A3F59473C3F8EC10EA
:10542C0007F59873A3F59473D3F8EC301A44624BD8
:10543C001344C7F80C31D7F818314FEAB302D7F838
:10544C0018314FEA73335A40D7F818314FEAB35337
:10545C005A40D7F81811D7F814311940D7F8180159
:10546C00D7F814311843D7F8103103400B431344C9
:10547C00C7F80831D7F82C21D7F80C311344C7F8EA
:10548C002C31D7F80C21D7F808311344C7F81C314C
:10549C00D7F82C314FEAB312D7F82C314FEAF3235B
:1054AC005A40D7F82C314FEA73635A40D7F8203161
:1054BC001A44D7F82811D7F824315940D7F82C3191
:1054CC001940D7F824314B401A4407F59873A3F5CB
:1054DC009473D3F8E8304FEA734107F59873A3F54A
:1054EC009473D3F8E8304FEAF343594007F59873B7
:1054FC00A3F59473D3F8E8309B0A594007F59873D9
:10550C00A3F59473D3F8D430194407F59873A3F525
:10551C009473D3F8B4304FEAF31007F59873A3F5EE
:10552C009473D3F8B4304FEAB343584007F59873EB
:10553C00A3F59473D3F8B430DB084340194407F552
:10554C009873A3F59473D3F8B030194407F5987396
:10555C00A3F59473C3F8F01007F59873A3F594733F
:10556C00D3F8F0301A44154B1344C7F80C31D7F864
:10557C001C314FEAB302D7F81C314FEA73335A404F
:10558C00D7F81C314FEAB3535A40D7F81C11D7F84F
:10559C0018311940D7F81C01D7F818311843D7F82F
:1055AC00143103400B431344C7F8083108E000BF23
:1055BC006F63A5781478C8840802C78CFAFFBE9074
:1055CC00D7F81021D7F80C311344C7F81031D7F89D
:1055DC000C21D7F808311344C7F82031D7F8103113
:1055EC004FEAB312D7F810314FEAF3235A40D7F8E9
:1055FC0010314FEA73635A40D7F824311A44D7F864
:10560C002C11D7F828315940D7F810311940D7F858
:10561C0028314B401A4407F59873A3F59473D3F8CB
:10562C00EC304FEA734107F59873A3F59473D3F8F4
:10563C00EC304FEAF343594007F59873A3F5947394
:10564C00D3F8EC309B0A594007F59873A3F5947383
:10565C00D3F8D830194407F59873A3F59473D3F89D
:10566C00B8304FEAF31007F59873A3F59473D3F899
:10567C00B8304FEAB343584007F59873A3F59473C9
:10568C00D3F8B830DB084340194407F59873A3F5F9
:10569C009473D3F8B430194407F59873A3F5947345
:1056AC00C3F8F41007F59873A3F59473D3F8F4309A
:1056BC001A44EE4B1344C7F80C31D7F820314FEA9B
:1056CC00B302D7F820314FEA73335A40D7F8203160
:1056DC004FEAB3535A40D7F82011D7F81C31194070
:1056EC00D7F82001D7F81C311843D7F818310340EC
:1056FC000B431344C7F80831D7F81421D7F80C31F1
:10570C001344C7F81431D7F80C21D7F808311344D7
:10571C00C7F82431D7F814314FEAB312D7F8143143
:10572C004FEAF3235A40D7F814314FEA73635A40C7
:10573C00D7F828311A44D7F81011D7F82C31594022
:10574C00D7F814311940D7F82C314B401A4407F5CF
:10575C009873A3F59473D3F8F0304FEA734107F5BF
:10576C009873A3F59473D3F8F0304FEAF343594090
:10577C0007F59873A3F59473D3F8F0309B0A59404E
:10578C0007F59873A3F59473D3F8DC30194407F537
:10579C009873A3F59473D3F8BC304FEAF31007F564
:1057AC009873A3F59473D3F8BC304FEAB3435840C5
:1057BC0007F59873A3F59473D3F8BC30DB0843401A
:1057CC00194407F59873A3F59473D3F8B8301944BA
:1057DC0007F59873A3F59473C3F8F81007F598734D
:1057EC00A3F59473D3F8F8301A44A14B1344C7F8BB
:1057FC000C31D7F824314FEAB302D7F824314FEAF1
:10580C0073335A40D7F824314FEAB3535A40D7F880
:10581C002411D7F820311940D7F82401D7F82031BA
:10582C001843D7F81C3103400B431344C7F8083115
:10583C00D7F81821D7F80C311344C7F81831D7F81A
:10584C000C21D7F808311344C7F82831D7F8183190
:10585C004FEAB312D7F818314FEAF3235A40D7F86E
:10586C0018314FEA73635A40D7F82C311A44D7F8E1
:10587C001411D7F810315940D7F818311940D7F80E
:10588C0010314B401A4407F59873A3F59473D3F871
:10589C00F4304FEA734107F59873A3F59473D3F87A
:1058AC00F4304FEAF343594007F59873A3F594731A
:1058BC00D3F8F4309B0A594007F59873A3F5947309
:1058CC00D3F8E030194407F59873A3F59473D3F823
:1058DC00C0304FEAF31007F59873A3F59473D3F81F
:1058EC00C0304FEAB343584007F59873A3F594734F
:1058FC00D3F8C030DB084340194407F59873A3F57F
:10590C009473D3F8BC30194407F59873A3F59473CA
:10591C00C3F8FC1007F59873A3F59473D3F8FC3017
:10592C001A44544B1344C7F80C31D7F828314FEABA
:10593C00B302D7F828314FEA73335A40D7F82831DD
:10594C004FEAB3535A40D7F82811D7F824311940ED
:10595C00D7F82801D7F824311843D7F82031034061
:10596C000B431344C7F80831D7F81C21D7F80C3176
:10597C001344C7F81C31D7F80C21D7F8083113445D
:10598C00C7F82C3107F59873A3F596731B689A68C2
:10599C00D7F82C311A4407F59873A3F596731B6846
:1059AC009A6007F59873A3F596731B68DA68D7F8B5
:1059BC0028311A4407F59873A3F596731B68DA60BF
:1059CC0007F59873A3F596731B681A69D7F82431F9
:1059DC001A4407F59873A3F596731B681A6107F5BB
:1059EC009873A3F596731B685A69D7F820311A443B
:1059FC0007F59873A3F596731B685A6107F59873AE
:105A0C00A3F596731B689A69D7F81C311A4407F5ED
:105A1C009873A3F596731B689A6107F59873A3F5B1
:105A2C0096731B68DA69D7F818311A4407F598731E
:105A3C00A3F596731B68DA6107F59873A3F5967353
:105A4C001B681A6AD7F814311A4407F59873A3F532
:105A5C0096731B681A6207F59873A3F596731B6807
:105A6C005A6AD7F810311A4406E000BFEB6C50A408
:105A7C00F7A3F9BEF27871C607F59873A3F5967380
:105A8C001B685A6200BF07F59A77BD4680BC704709
:105A9C0080B586B000AFF860B9607A607B68002B87
:105AAC0059D0FB681B6803F03F037B617B69C3F132
:105ABC0040033B61FB681A687B681A44FB681A60F8
:105ACC00FB681A68FB681A60FB681B687A689A4264
