:020000040800F2
:100000000028002031100008550F00085B0F000881
:10001000610F0008670F00086D0F00080000000066
:10002000000000000000000000000000730F000846
:100030007F0F0008000000008B0F0008970F0008DA
:10004000791000087910000879100008791000086C
:10005000791000087910000879100008791000085C
:10006000791000087910000879100008791000084C
:10007000791000087910000879100008791000083C
:10008000791000087910000879100008791000082C
:10009000791000087910000879100008791000081C
:1000A000791000087910000879100008791000080C
:1000B000791000087910000800000000791000088D
:1000C000791000080000000000000000791000080E
:1000D00000000000A50F00087910000800000000D3
:1000E000791000087910000879100008000000005D
:1000F0000000000000000000000000000000000000
:0C01000000000000000000005FF808F1A3
:10010C0010B5054C237833B9044B13B10448AFF345
:10011C0000800123237010BDB002002000000000FD
:10012C00F834000808B5034B1BB103490348AFF37F
:10013C00008008BD00000000B4020020F834000864
:10014C00034613F8012B002AFBD1181A013870470B
:10015C0080B590B000AF786000F00EFB00F0ACF909
:10016C007B68022B19D07B68022B1EDC7B68002B72
:10017C0003D07B68012B08D017E000F09DF99D4A55
:10018C000021002000F0A6FA1DE000F095F99A4A33
:10019C000021002000F09EFA15E000F08DF9974A3E
:1001AC000021002000F096FA0DE000F085F9944B48
:1001BC003B633A6B0021002000F08CFA4FF47A700C
:1001CC0000F0B8FF00BF4FF47A7000F0B3FF00F0FE
:1001DC00D3FA8C4A0021002000F07CFA4FF47A709C
:1001EC0000F0A8FF0123FB6223E0642000F0A2FFD3
:1001FC00854BDB8D9BB2002B1BD100F05DF94FF4CE
:10020C007A7000F097FF00F0B7FA002387F82030DF
:10021C0007F11803082219467B4801F07BFF00F018
:10022C004BF907F118031A460021002000F052FA8E
:10023C0002E0FB6A012BD8D000F09EFA734A002131
:10024C00002000F047FA4FF4FA7000F073FF00F052
:10025C0093FA00F031F907F118031A460021002037
:10026C0000F038FA4FF47A7000F064FF7B68022BD0
:10027C0078D07B68022B00F3AB807B68002B03D01B
:10028C007B68012B19D0A3E000F076FA00F014F98A
:10029C005F4A0021002000F01DFA4FF47A7000F044
:1002AC0049FF00F069FA5B4A0021002000F012FAC5
:1002BC004FF47A7000F03EFF98E000F05DFA00F029
:1002CC00FBF8554A0021002000F004FA07F108035E
:1002DC001946524800F09CFD4FF47A7000F02AFF4A
:1002EC0000F04AFA4E4A0021002000F0F3F94FF4D6
:1002FC007A7000F01FFF00F03FFA0023FB6300232D
:10030C00BB6300237B631EE007F108027B6B134485
:10031C001B781A464349786A02F06AFDBB6B102BB6
:10032C0003D10023BB630123FB63FB6B5BB2BA6B92
:10033C0051B27A6A184600F0CDF97B6B01337B63BE
:10034C00BB6B0233BB637B6B0F2BDDDD4FF47A7021
:10035C0000F0F0FE00F010FA334A0021002000F00B
:10036C00B9F943E000F008FA00F0A6F82F4A002192
:10037C00002000F0AFF90B21284800F061F803468B
:10038C00BB6200F0F9F92A4A0021002000F0A2F922
:10039C004FF47A7000F0CEFEBA6A2649786A02F001
:1003AC0027FD4FF47A7000F0C5FE00F0E5F97A6A8B
:1003BC000021002000F08EF94FF47A7000F0BAFEA4
:1003CC0000F0DAF91C4A0021002000F083F90DE05E
:1003DC0000F072F8194B3B623A6A0021002000F0E1
:1003EC0079F94FF47A7000F0A5FE00BF00BF4037DA
:1003FC00BD4680BD10350008243500083435000892
:10040C004435000860350008CC0200206C3500082B
:10041C007C3500088C3500089C350008AC3500088C
:10042C00B8350008C8350008D0350008E03500089C
:10043C00F0350008043600080836000818360008A5
:10044C0080B485B000AF78600B467B804FF6FF73AD
:10045C00FB8125E07B685A1C7A601B781B021AB260
:10046C00B7F90E3053401BB2FB8100237B7314E0B1
:10047C00B7F90E30002B09DAFB895B001BB283F451
:10048C00815383F001031BB29BB202E0FB895B003A
:10049C009BB2FB817B7B01337B737B7B072BE7D987
:1004AC007B885A1E7A80002BD4D1FB8918461437CE
:1004BC00BD4680BC7047000080B500AF1E2000F028
:1004CC0039FE00224FF400511C4801F0AAF9012218
:1004DC004FF48051194801F0A4F900224FF4006147
:1004EC00164801F09EF900224FF48061134801F088
:1004FC0098F900224FF40041104801F092F90122C2
:10050C004FF480410D4801F08CF900224FF48041EA
:10051C000A4801F086F92821002000F011F80C217E
:10052C00002000F00DF80621002000F009F8012150
:10053C00002000F005F800BF80BD00BF000C01409A
:10054C0080B582B000AF03460A46FB711346BB71FF
:10055C00022000F0EFFD97F90730002B06D00122A6
:10056C004FF400415A4801F05CF905E000224FF4C9
:10057C000041574801F055F997F90630002B06DA7F
:10058C0001224FF48061524801F04BF905E0002242
:10059C004FF480614E4801F044F9BB7903F04003FD
:1005AC00002B06D001224FF40061494801F039F9C3
:1005BC0005E000224FF40061454801F032F9BB79A7
:1005CC0003F02003002B06D001224FF48051404849
:1005DC0001F027F905E000224FF480513C4801F06E
:1005EC0020F9BB7903F01003002B06D001224FF445
:1005FC000051374801F015F905E000224FF4005185
:10060C00334801F00EF901224FF48041304801F0DB
:10061C0008F900224FF480412D4801F002F9BB7912
:10062C0003F00803002B06D001224FF48061284808
:10063C0001F0F7F805E000224FF48061244801F046
:10064C00F0F8BB7903F00403002B06D001224FF421
:10065C0000611F4801F0E5F805E000224FF400614D
:10066C001B4801F0DEF8BB7903F00203002B06D027
:10067C0001224FF48051164801F0D3F805E0002216
:10068C004FF48051124801F0CCF8BB7903F0010310
:10069C00002B06D001224FF400510D4801F0C1F897
:1006AC0005E000224FF40051094801F0BAF801228C
:1006BC004FF48041064801F0B4F800224FF4804119
:1006CC00034801F0AEF800BF0837BD4680BD00BF3F
:1006DC00000C014080B582B000AF03463A60FB715C
:1006EC000B46BB7197F90730032B3AD801A252F88D
:1006FC0023F000BF11070008230700083507000886
:10070C0047070008BB79803BDBB25BB2194600207F
:10071C00FFF716FF1AE0BB79403BDBB25BB2194620
:10072C000020FFF70DFF11E0BB79703BDBB25BB231
:10073C0019460020FFF704FF08E0BB79303BDBB221
:10074C005BB219460020FFF7FBFE00BF09E03B68D7
:10075C0093F9003019460120FFF7F2FE3B68013394
:10076C003B603B6893F90030002BF0D100BF00BF19
:10077C000837BD4680BD00BF80B500AF0121002009
:10078C00FFF7DEFE00BF80BD80B483B000AF7860A1
:10079C007B68022B0DD07B68022B0CDC7B68002B5A
:1007AC0003D07B68012B02D005E0064B04E0064B1E
:1007BC0002E0064B00E0064B18460C37BD4680BCE9
:1007CC00704700BF40360008483600084C36000819
:1007DC005436000880B582B000AF00F049FC00F040
:1007EC0059F800F0BDF800F091F800237B60FFF79A
:1007FC0063FE0821264800F0FDFF0346012B0BD1B8
:10080C007B68012B03DC7B6801337B6001E00023F8
:10081C007B60FFF7B1FF2DE004211D4800F0EAFFDB
:10082C000346012B0BD17B68002B03DD7B68013B5E
:10083C007B6001E002237B60FFF79EFF1AE0022140
:10084C00134800F0D7FF0346012B13D1FFF794FF99
:10085C007868FFF799FF38603A6800210020FFF7AD
:10086C0039FFFFF789FF7868FFF772FC4CF25030C4
:10087C0000F060FC7868FFF787FF38603A68002169
:10088C000020FFF727FF4FF4FA7000F053FCB0E79D
:10089C000008014080B590B000AF07F11803282282
:1008AC000021184602F0B0F93B1D00221A605A6074
:1008BC009A60DA601A610223BB610123BB621023C8
:1008CC00FB6200237B6307F11803184600F0C2FF9C
:1008DC000346002B01D000F083F80F237B6000232C
:1008EC00BB600023FB6000233B6100237B613B1D4D
:1008FC000021184601F030FA0346002B01D000F01D
:10090C006FF800BF4037BD4680BD000080B500AF1A
:10091C00114B124A1A60104B4FF4E1325A600E4BD5
:10092C0000229A600C4B0022DA600B4B00221A61F9
:10093C00094B0C225A61084B00229A61064B00228B
:10094C00DA61054801F096FB0346002B01D000F05C
:10095C0047F800BF80BD00BFCC020020003801402A
:10096C0080B586B000AF07F1080300221A605A6008
:10097C009A60DA60184B9B69174A43F0080393613D
:10098C00154B9B6903F008037B607B68124B9B69DA
:10099C00114A43F0040393610F4B9B6903F004036A
:1009AC003B603B6800224FF47C410C4800F039FF5F
:1009BC004FF47C43BB600123FB6000233B610223AB
:1009CC007B6107F108031946044800F097FD00BF4E
:1009DC001837BD4680BD00BF00100240000C01401E
:1009EC0080B400AF72B600BFFEE780B483B000AF36
:1009FC00786039607A683B68C3F1200362FA03F3CC
:100A0C0018460C37BD4680BC7047000080B483B0DC
:100A1C0000AF786079684FF000024FF00003C1E935
:100A2C0000237B68074A9A607B68074ADA607B6818
:100A3C00064A1A617B68064A5A6100BF0C37BD46EC
:100A4C0080BC70470123456789ABCDEFFEDCBA98BB
:100A5C00765432102DE9B04398B000AFF860B9600D
:100A6C007A60FB68D3E90023134603F03F03FB6570
:100A7C00FB68D3E90023796800200C46054612EB8D
:100A8C00040843EB0509FB68C3E900890023BB6537
:100A9C0048E0BA68BB6D1A44FB6D591CF9651178B6
:100AAC00FA6813440A461A76FB6D03F03F03002BD9
:100ABC0035D100237B6525E07B6D9B000333FA6801
:100ACC0013441B7E1A067B6D9B000233F9680B44A2
:100ADC001B7E1B041A437B6D9B000133F9680B448E
:100AEC001B7E1B0213437A6D9200F9680A44127E36
:100AFC001A437B6D9B0060333B4443F84C2C7B6D5D
:100B0C0001337B657B6D0F2BD6D9FB68083307F15E
:100B1C0014021146184600F0D1F80023FB65BB6D9A
:100B2C000133BB65BA6D7B689A42B2D300BF00BF7C
:100B3C006037BD46BDE8B0832DE9B04396B000AF39
:100B4C0078607B68D3E90023134603F03F03FB6412
:100B5C00FB6C372B03D8FB6CC3F1380302E0FB6C46
:100B6C00C3F17803BB64BA6C53497868FFF772FF22
:100B7C007B68D3E90023B96C00200C460546B2EB28
:100B8C00040863EB05097B68C3E9008900237B65D6
:100B9C0025E07B6D9B0003337A6813441B7E1A0699
:100BAC007B6D9B00023379680B441B7E1B041A433C
:100BBC007B6D9B00013379680B441B7E1B02134336
:100BCC007A6D920079680A44127E1A437B6D9B0001
:100BDC0058333B4443F8502C7B6D01337B657B6D64
:100BEC000D2BD6D97B68D3E900231346DB003B647D
:100BFC007B68D3E900014FF000024FF00003CB00FB
:100C0C0043EA5073C2004FF000004FF0000118008F
:100C1C00002103467B647B68083307F10802114608
:100C2C00184600F04BF800233B653CE07B683A6DBE
:100C3C00023253F822203B6D9B00D1B27A681344E8
:100C4C000A4683F858207B683A6D023253F82230FA
:100C5C001A0A3B6D9B000133D1B27A6813440A46E1
:100C6C0083F858207B683A6D023253F822301A0C04
:100C7C003B6D9B000233D1B27A6813440A4683F869
:100C8C0058207B683A6D023253F822301A0E3B6DB5
:100C9C009B000333D1B27A6813440A4683F8582078
:100CAC003B6D01333B653B6D032BBFD900BF00BFD0
:100CBC005837BD46BDE8B0830002002080B58AB02D
:100CCC0000AF786039607B681B687B627B685B680F
:100CDC003B627B689B68FB617B68DB68BB610023C4
:100CEC00FB606BE0FB681B09022B24D0022B31D874
:100CFC00002B02D0012B0CD02CE03A6AFB691A4075
:100D0C003B6AD943BB690B4013437B61FB683B6176
:100D1C002FE03A6ABB691A40BB69D943FB690B40A7
:100D2C0013437B61FA6813469B001344013303F0B1
:100D3C000F033B611DE03A6AFB695340BA695340AB
:100D4C007B61FA6813465B001344053303F00F0311
:100D5C003B610EE0BB69DA433B6A1343FA695340CB
:100D6C007B61FA681346DB009B1A03F00F033B61AF
:100D7C0000BFBB69BB60FB69BB613B6AFB617A6A04
:100D8C007B691A442049FB6851F823301A443B69AB
:100D9C009B0039680B441B681A441C49FB6851F8CA
:100DAC00233019461046FFF720FE02463B6A1344D7
:100DBC003B62BB687B62FB680133FB60FB683F2BCB
:100DCC0090D97B681A687B6A1A447B681A607B68C6
:100DDC00043319687B6804333A6A0A441A607B68E6
:100DEC00083319687B680833FA690A441A607B680F
:100DFC000C3319687B680C33BA690A441A6000BF5B
:100E0C002837BD4680BD00BF000100200000002037
:100E1C00B0B59CB000AF7860396007F10803184694
:100E2C00FFF7F4FD7868FFF78BF9024607F108032A
:100E3C0079681846FFF70EFE07F108031846FFF70E
:100E4C007BFE3B681D4607F160040FCC286069608F
:100E5C00AA60EB6000BF7037BD46B0BD80B483B0F4
:100E6C0000AF0E4B9B690D4A43F0010393610B4B92
:100E7C009B6903F001037B607B68084BDB69074AC5
:100E8C0043F08053D361054BDB6903F080533B6027
:100E9C003B6800BF0C37BD4680BC70470010024059
:100EAC0080B588B000AF786007F1100300221A609B
:100EBC005A609A60DA607B681B68204A934239D189
:100ECC001F4B9B691E4A43F4804393611C4B9B69E7
:100EDC0003F48043FB60FB68194B9B69184A43F091
:100EEC0004039361164B9B6903F00403BB60BB685E
:100EFC004FF400733B6102237B610323FB6107F119
:100F0C00100319460F4800F0F9FA4FF480633B6167
:100F1C0000237B610023BB6107F1100319460948CC
:100F2C0000F0ECFA00220021252000F0FEF925202B
:100F3C0000F017FA00BF2037BD4680BD00380140D5
:100F4C00001002400008014080B400AFFEE780B4FE
:100F5C0000AFFEE780B400AFFEE780B400AFFEE761
:100F6C0080B400AFFEE780B400AF00BFBD4680BCCC
:100F7C00704780B400AF00BFBD4680BC704780B4E2
:100F8C0000AF00BFBD4680BC704780B500AF00F01D
:100F9C00B5F800BF80BD000080B500AF024801F07D
:100FAC00DFF800BF80BD00BFCC02002080B586B04A
:100FBC0000AF7860144A154BD31A7B617B693B6197
:100FCC00134B1B68002B02D1114B124A1A60104BA9
:100FDC001A687B6813443A699A4207D201F0DAFD29
:100FEC0003460C221A604FF0FF3309E0084B1B68D4
:100FFC00FB60074B1A687B681344054A1360FB6857
:10100C0018461837BD4680BD00280020000400009B
:10101C00140300203003002080B400AF00BFBD4695
:10102C0080BC7047FFF7F8FF0B480C490C4A0023B3
:10103C0002E0D458C4500433C4188C42F9D3094A82
:10104C00094C002301E013600432A242FBD301F0EF
:10105C00A7FDFFF7BFFB704700000020B002002087
:10106C0030370008B00200202C030020FEE70000FF
:10107C0080B500AF084B1B68074A43F010031360A0
:10108C00032000F047F90F2000F008F8FFF7E6FE08
:10109C000023184680BD00BF0020024080B582B0FE
:1010AC0000AF7860124B1A68124B1B7819464FF43C
:1010BC007A73B3FBF1F3B2FBF3F3184600F05FF96C
:1010CC000346002B01D001230EE07B680F2B0AD8BE
:1010DC00002279684FF0FF3000F027F9064A7B6850
:1010EC001360002300E0012318460837BD4680BD7D
:1010FC0040020020480200204402002080B400AFCF
:10110C00054B1B781A46054B1B681344034A1360A6
:10111C0000BFBD4680BC7047480200201803002069
:10112C0080B400AF024B1B681846BD4680BC7047AC
:10113C001803002080B584B000AF7860FFF7F0FF93
:10114C00B8607B68FB60FB68B3F1FF3F05D00A4BCE
:10115C001B781A46FB681344FB6000BFFFF7E0FFE7
:10116C000246BB68D31AFA689A42F7D800BF00BF90
:10117C001037BD4680BD00BF4802002080B485B04A
:10118C0000AF78607B6803F00703FB600C4BDB68F7
:10119C00BB60BA684FF6FF031340BB60FB681A02D2
:1011AC00BB68134343F0BF6343F40033BB60044A92
:1011BC00BB68D36000BF1437BD4680BC704700BF0E
:1011CC0000ED00E080B400AF044BDB681B0A03F0B9
:1011DC0007031846BD4680BC704700BF00ED00E019
:1011EC0080B483B000AF0346FB7197F90730002B36
:1011FC000BDBFB7903F01F02064997F907305B09FB
:10120C00012000FA02F241F8232000BF0C37BD4642
:10121C0080BC704700E100E080B483B000AF0346AF
:10122C003960FB7197F90730002B0ADB3B68DAB2A7
:10123C000C4997F907301201D2B20B4483F8002302
:10124C000AE03B68DAB20849FB7903F00F03043B70
:10125C001201D2B20B441A7600BF0C37BD4680BCCB
:10126C00704700BF00E100E000ED00E080B489B001
:10127C0000AFF860B9607A60FB6803F00703FB61AC
:10128C00FB69C3F10703042B28BF0423BB61FB6973
:10129C000433062B02D9FB69033B00E000237B617E
:1012AC004FF0FF32BB6902FA03F3DA43BB681A4012
:1012BC007B699A404FF0FF317B6901FA03F3D94304
:1012CC007B680B40134318462437BD4680BC7047DF
:1012DC0080B582B000AF78607B68013BB3F1807F52
:1012EC0001D301230FE00A4A7B68013B53600F21B5
:1012FC004FF0FF30FFF790FF054B00229A60044B34
:10130C0007221A60002318460837BD4680BD00BF6F
:10131C0010E000E080B582B000AF78607868FFF72D
:10132C002DFF00BF0837BD4680BD80B586B000AF2D
:10133C000346B9607A60FB7300237B61FFF742FFC1
:10134C0078617A68B9687869FFF790FF024697F977
:10135C000F3011461846FFF75FFF00BF1837BD4628
:10136C0080BD80B582B000AF0346FB7197F90730A2
:10137C001846FFF735FF00BF0837BD4680BD80B566
:10138C0082B000AF78607868FFF7A2FF034618467A
:10139C000837BD4680BD80B485B000AF78600023AF
:1013AC00FB737B6893F82130DBB2022B08D07B688F
:1013BC0004229A637B68002283F82020012320E01A
:1013CC007B681B681A687B681B6822F00E021A6027
:1013DC007B681B681A687B681B6822F001021A6024
:1013EC007B681A6C7B68DB6B012101FA02F25A6094
:1013FC007B68012283F821207B68002283F820205F
:10140C00FB7B18461437BD4680BC704780B584B052
:10141C0000AF78600023FB737B6893F82130DBB25C
:10142C00022B05D07B6804229A630123FB7351E0E5
:10143C007B681B681A687B681B6822F00E021A60B6
:10144C007B681B681A687B681B6822F001021A60B3
:10145C007B681B68224A934229D07B681B68214A0F
:10146C00934222D07B681B681F4A93421AD07B6838
:10147C001B681E4A934212D07B681B681C4A93421D
:10148C000AD07B681B681B4A934202D14FF480132D
:10149C000EE04FF080730BE04FF4803308E04FF414
:1014AC00805305E04FF4807302E0102300E0012329
:1014BC00114A53607B68012283F821207B6800224B
:1014CC0083F820207B685B6B002B03D07B685B6B05
:1014DC0078689847FB7B18461037BD4680BD00BF27
:1014EC00080002401C000240300002404400024050
:1014FC00580002406C0002400000024080B48BB0E7
:10150C0000AF7860396000237B6200233B6261E1AD
:10151C0001227B6A02FA03F3FB613B681B68FA69E0
:10152C001340BB61BA69FB699A4240F050813B6839
:10153C005B68974A93425ED0954A934275D8954A18
:10154C00934258D0934A93426FD8934A934252D0C5
:10155C00914A934269D8914A93424CD08F4A934214
:10156C0063D88F4A934246D08D4A93425DD8122B52
:10157C002AD8122B59D801A252F823F003160008CE
:10158C00DD150008EF1500083116000837160008A5
:10159C0037160008371600083716000837160008EB
:1015AC0037160008371600083716000837160008DB
:1015BC0037160008371600083716000837160008CB
:1015CC00E5150008F9150008764A934213D02CE073
:1015DC003B68DB683B6229E03B68DB6804333B62B9
:1015EC0024E03B68DB6808333B621FE03B68DB6848
:1015FC000C333B621AE03B689B68002B02D104233E
:10160C003B6213E03B689B68012B05D108233B62CE
:10161C007B68FA691A6109E008233B627B68FA6906
:10162C005A6103E000233B6200E000BFBB69FF2B63
:10163C0001D87B6801E07B6804337B61BB69FF2BBD
:10164C0002D87B6A9B0002E07B6A083B9B003B61F3
:10165C007B691A680F213B6901FA03F3DB431A40DB
:10166C00396A3B6901FA03F31A437B691A603B68D8
:10167C005B6803F08053002B00F0A9804A4B9B69F8
:10168C00494A43F001039361474B9B6903F0010303
:10169C00BB60BB68454A7B6A9B08023352F8233017
:1016AC00FB607B6A03F003039B000F2202FA03F337
:1016BC00DB43FA681340FB607B683D4A93420DD0D4
:1016CC007B683C4A934207D07B683B4A934201D1EA
:1016DC00022304E0032302E0012300E000237A6AE2
:1016EC0002F0030292009340FA681343FB602F4907
:1016FC007B6A9B080233FA6841F823203B685B68DD
:10170C0003F48013002B06D02C4B9A682B49BB6931
:10171C0013438B6006E0294B9A68BB69DB4327496E
:10172C0013408B603B685B6803F40013002B06D0FE
:10173C00224BDA682149BB691343CB6006E01F4B8F
:10174C00DA68BB69DB431D491340CB603B685B68BF
:10175C0003F40033002B06D0184B5A681749BB69A9
:10176C0013434B6006E0154B5A68BB69DB431349C6
:10177C0013404B603B685B6803F48033002B1FD035
:10178C000E4B1A680D49BB6913430B601FE000BF79
:10179C000000321000003110000022100000211057
:1017AC000000121000001110001002400000014057
:1017BC0000080140000C01400010014000040140F1
:1017CC000B4B1A68BB69DB43094913400B607B6AFE
:1017DC0001337B623B681A687B6A22FA03F3002BA5
:1017EC007FF496AE00BF00BF2C37BD4680BC70475F
:1017FC000004014080B485B000AF78600B467B805C
:10180C007B689A687B881340002B02D00123FB7302
:10181C0001E00023FB73FB7B18461437BD4680BCEC
:10182C00704780B483B000AF78600B467B80134662
:10183C007B707B78002B03D07A887B681A6103E07D
:10184C007B881A047B681A6100BF0C37BD4680BCCC
:10185C007047000080B586B000AF78607B68002BC5
:10186C0001D1012372E27B681B6803F00103002B9A
:10187C0000F08780924B5B6803F00C03042B0CD0B8
:10188C008F4B5B6803F00C03082B12D18C4B5B68FD
:10189C0003F48033B3F5803F0BD1894B1B6803F401
:1018AC000033002B6CD07B685B68002B68D1012364
:1018BC004CE27B685B68B3F5803F06D1804B1B68BC
:1018CC007F4A43F4803313602EE07B685B68002B07
:1018DC000CD17B4B1B687A4A23F480331360784B12
:1018EC001B68774A23F4802313601DE07B685B68D8
:1018FC00B3F5A02F0CD1724B1B68714A43F48023B3
:10190C0013606F4B1B686E4A43F4803313600BE01B
:10191C006B4B1B686A4A23F480331360684B1B685B
:10192C00674A23F4802313607B685B68002B13D019
:10193C00FFF7F6FB386108E0FFF7F2FB02463B6964
:10194C00D31A642B01D9032300E25D4B1B6803F40B
:10195C000033002BF0D014E0FFF7E2FB386108E015
:10196C00FFF7DEFB02463B69D31A642B01D9032334
:10197C00ECE1534B1B6803F40033002BF0D100E077
:10198C0000BF7B681B6803F00203002B63D04C4B39
:10199C005B6803F00C03002B0BD0494B5B6803F026
:1019AC000C03082B1CD1464B5B6803F48033002BD3
:1019BC0016D1434B1B6803F00203002B05D07B6848
:1019CC001B69012B01D00123C0E13D4B1B6823F0A7
:1019DC00F8027B685B69DB00394913430B603AE022
:1019EC007B681B69002B20D0364B01221A60FFF755
:1019FC0097FB386108E0FFF793FB02463B69D31A6B
:101A0C00022B01D90323A1E12D4B1B6803F0020328
:101A1C00002BF0D02A4B1B6823F0F8027B685B6923
:101A2C00DB00274913430B6015E0264B00221A609C
:101A3C00FFF776FB386108E0FFF772FB02463B6963
:101A4C00D31A022B01D9032380E11D4B1B6803F031
:101A5C000203002BF0D17B681B6803F00803002BFA
:101A6C003AD07B689B69002B19D0174B01221A6066
:101A7C00FFF756FB386108E0FFF752FB02463B6963
:101A8C00D31A022B01D9032360E10D4B5B6A03F0DF
:101A9C000203002BF0D0012000F0CEFA1CE00A4B20
:101AAC0000221A60FFF73CFB38610FE0FFF738FBB0
:101ABC0002463B69D31A022B08D9032346E100BF27
:101ACC00001002400000424280044242924B5B6A8A
:101ADC0003F00203002BE9D17B681B6803F00403BD
:101AEC00002B00F0A6800023FB758B4BDB6903F009
:101AFC008053002B0DD1884BDB69874A43F0805310
:101B0C00D361854BDB6903F08053BB60BB68012359
:101B1C00FB75824B1B6803F48073002B18D17F4B31
:101B2C001B687E4A43F480731360FFF7F9FA38613F
:101B3C0008E0FFF7F5FA02463B69D31A642B01D98A
:101B4C00032303E1754B1B6803F48073002BF0D067
:101B5C007B68DB68012B06D16F4B1B6A6E4A43F026
:101B6C00010313622DE07B68DB68002B0CD16A4B00
:101B7C001B6A694A23F001031362674B1B6A664AAE
:101B8C0023F0040313621CE07B68DB68052B0CD18B
:101B9C00614B1B6A604A43F0040313625E4B1B6A81
:101BAC005D4A43F0010313620BE05B4B1B6A5A4A1C
:101BBC0023F001031362584B1B6A574A23F00403AA
:101BCC0013627B68DB68002B15D0FFF7A9FA38612C
:101BDC000AE0FFF7A5FA02463B69D31A41F28832B4
:101BEC00934201D90323B1E04B4B1B6A03F0020370
:101BFC00002BEED014E0FFF793FA38610AE0FFF700
:101C0C008FFA02463B69D31A41F28832934201D9CA
:101C1C0003239BE0404B1B6A03F00203002BEED125
:101C2C00FB7D012B05D13C4BDB693B4A23F08053F8
:101C3C00D3617B68DB69002B00F08780364B5B68D7
:101C4C0003F00C03082B61D07B68DB69022B46D1B7
:101C5C00334B00221A60FFF763FA386108E0FFF794
:101C6C005FFA02463B69D31A022B01D903236DE0BC
:101C7C00294B1B6803F00073002BF0D17B681B6AA7
:101C8C00B3F5803F08D1244B5B6823F400327B68AA
:101C9C009B68214913434B601F4B5B6823F4741200
:101CAC007B68196A7B685B6A0B431B4913434B6067
:101CBC001B4B01221A60FFF733FA386108E0FFF77B
:101CCC002FFA02463B69D31A022B01D903233DE0BC
:101CDC00114B1B6803F00073002BF0D035E0104B58
:101CEC0000221A60FFF71CFA386108E0FFF718FAB7
:101CFC0002463B69D31A022B01D9032326E0064B7B
:101D0C001B6803F00073002BF0D11EE07B68DB69CD
:101D1C00012B07D1012319E0001002400070004094
:101D2C00600042420B4B5B68FB60FB6803F4803243
:101D3C007B681B6A9A4206D1FB6803F470127B68BD
:101D4C005B6A9A4201D0012300E000231846183741
:101D5C00BD4680BD0010024080B584B000AF7860F5
:101D6C0039607B68002B01D10123D0E06A4B1B68E2
:101D7C0003F007033A689A4210D9674B1B6823F0AB
:101D8C00070265493B6813430B60634B1B6803F008
:101D9C0007033A689A4201D00123B8E07B681B68BC
:101DAC0003F00203002B20D07B681B6803F00403B4
:101DBC00002B05D0594B5B68584A43F4E0635360E1
:101DCC007B681B6803F00803002B05D0534B5B6842
:101DDC00524A43F460535360504B5B6823F0F0025B
:101DEC007B689B684D4913434B607B681B6803F011
:101DFC000103002B40D07B685B68012B07D1474B5C
:101E0C001B6803F40033002B15D101237FE07B68A2
:101E1C005B68022B07D1414B1B6803F00073002B4E
:101E2C0009D1012373E03D4B1B6803F00203002B27
:101E3C0001D101236BE0394B5B6823F003027B6813
:101E4C005B68364913434B60FFF76AF9F8600AE0A8
:101E5C00FFF766F90246FB68D31A41F288329342C7
:101E6C0001D9032353E02D4B5B6803F00C027B6814
:101E7C005B689B009A42EBD1274B1B6803F007036E
:101E8C003A689A4210D2244B1B6823F0070222496D
:101E9C003B6813430B60204B1B6803F007033A6845
:101EAC009A4201D0012332E07B681B6803F00403E3
:101EBC00002B08D0194B5B6823F4E0627B68DB686D
:101ECC00164913434B607B681B6803F00803002B17
:101EDC0009D0124B5B6823F460527B681B69DB00F2
:101EEC000E4913434B6000F021F802460B4B5B6824
:101EFC001B0903F00F030A49CB5C22FA03F3094ACE
:101F0C001360094B1B681846FFF7C8F800231846E6
:101F1C001037BD4680BD00BF0020024000100240BB
:101F2C0068360008400200204402002080B487B0CC
:101F3C0000AF0023FB600023BB6000237B61002308
:101F4C007B6000233B611E4B5B68FB60FB6803F00E
:101F5C000C03042B02D0082B03D027E0194B3B6158
:101F6C0027E0FB689B0C03F00F03174AD35C7B60E4
:101F7C00FB6803F48033002B10D0114B5B685B0CB7
:101F8C0003F00103114AD35CBB607B680D4A03FB71
:101F9C0002F2BB68B2FBF3F37B6104E07B680C4A92
:101FAC0002FB03F37B617B693B6102E0054B3B6108
:101FBC0000BF3B6918461C37BD4680BC704700BF4C
:101FCC000010024000127A0080360008903600089B
:101FDC0000093D0080B400AF024B1B681846BD469B
:101FEC0080BC70474002002080B500AFFFF7F2FFC5
:101FFC000246054B5B681B0A03F007030349CB5CE5
:10200C0022FA03F3184680BD00100240783600080F
:10201C0080B500AFFFF7DEFF0246054B5B68DB0ABD
:10202C0003F007030349CB5C22FA03F3184680BD87
:10203C00001002407836000880B485B000AF78609C
:10204C000A4B1B680A4AA2FB03235B0A7A6802FB51
:10205C0003F3FB6000BFFB685A1EFA60002BF9D13A
:10206C0000BF00BF1437BD4680BC70474002002043
:10207C00D34D621080B582B000AF78607B68002BC6
:10208C0001D1012342E07B6893F84130DBB2002B95
:10209C0006D17B68002283F840207868FEF700FFA9
:1020AC007B68242283F841207B681B68DA687B6894
:1020BC001B6822F40052DA60786800F0DDFC7B6863
:1020CC001B681A697B681B6822F490421A617B6852
:1020DC001B685A697B681B6822F02A025A617B686C
:1020EC001B68DA687B681B6842F40052DA607B6814
:1020FC0000225A647B68202283F841207B682022CE
:10210C0083F842207B6800225A6300231846083764
:10211C00BD4680BD80B584B000AFF860B960134691
:10212C00FB80FB6893F84230DBB2202B12D1BB68EA
:10213C00002B02D0FB88002B01D101230BE0FB68A4
:10214C0000221A63FB881A46B968F86800F0C0FAD6
:10215C00034600E0022318461037BD4680BD000040
:10216C0080B5BAB000AF78607B681B681B68C7F895
:10217C00E4307B681B68DB68C7F8E0307B681B6861
:10218C005B69C7F8DC300023C7F8D8300023C7F8E8
:10219C00D430D7F8E43003F00F03C7F8D830D7F8B1
:1021AC00D830002B0FD1D7F8E43003F02003002BEC
:1021BC0009D0D7F8E03003F02003002B03D0786867
:1021CC0000F09CFB5BE2D7F8D830002B00F0DE80EF
:1021DC00D7F8DC3003F00103002B06D1D7F8E03040
:1021EC0003F49073002B00F0D180D7F8E43003F0A7
:1021FC000103002B0BD0D7F8E03003F48073002BD5
:10220C0005D07B685B6C43F001027B685A64D7F89D
:10221C00E43003F00403002B0BD0D7F8DC3003F0D0
:10222C000103002B05D07B685B6C43F002027B68DA
:10223C005A64D7F8E43003F00203002B0BD0D7F824
:10224C00DC3003F00103002B05D07B685B6C43F0A2
:10225C0004027B685A64D7F8E43003F00803002BBF
:10226C0011D0D7F8E03003F02003002B05D1D7F8BC
:10227C00DC3003F00103002B05D07B685B6C43F072
:10228C0008027B685A647B685B6C002B00F0F2815F
:10229C00D7F8E43003F02003002B08D0D7F8E03057
:1022AC0003F02003002B02D0786800F027FB7B683A
:1022BC001B685B6903F04003002B14BF0123002350
:1022CC00DBB2C7F8D4307B685B6C03F00803002BDF
:1022DC0003D1D7F8D430002B4FD0786800F031FA06
:1022EC007B681B685B6903F04003002B41D07B6863
:1022FC001B681433C7F89C30D7F89C3053E8003F68
:10230C00C7F89830D7F8983023F04003C7F8D0308E
:10231C007B681B681433D7F8D020C7F8A820C7F8FF
:10232C00A430D7F8A410D7F8A82041E80023C7F8A8
:10233C00A030D7F8A030002BD9D17B68DB6B002BF9
:10234C0013D07B68DB6B7E4A5A637B68DB6B184669
:10235C00FFF75CF80346002B16D07B68DB6B5B6BDE
:10236C007A68D26B104698470EE0786800F09CF9BA
:10237C000AE0786800F098F906E0786800F094F9C3
:10238C007B6800225A6475E100BF73E17B681B6BAC
:10239C00012B40F04F81D7F8E43003F01003002BF1
:1023AC0000F04881D7F8E03003F01003002B00F068
:1023BC0041810023BB607B681B681B68BB607B682A
:1023CC001B685B68BB60BB687B681B685B6903F060
:1023DC004003002B00F0B6807B68DB6B1B685B68EE
:1023EC00A7F8BE30B7F8BE30002B00F045817B68F3
:1023FC009B8DB7F8BE209A4280F03E817B68B7F87F
:10240C00BE20DA857B68DB6B9B69202B00F0888013
:10241C007B681B680C33C7F88830D7F8883053E8D2
:10242C00003FC7F88430D7F8843023F48073C7F8A2
:10243C00B8307B681B680C33D7F8B820C7F89420E9
:10244C00C7F89030D7F89010D7F8942041E80023C3
:10245C00C7F88C30D7F88C30002BD9D17B681B682F
:10246C0014337B677B6F53E8003F3B673B6F23F074
:10247C000103C7F8B4307B681B681433D7F8B42059
:10248C00C7F88020FB67F96FD7F8802041E800235C
:10249C00BB67BB6F002BE1D17B681B6814333B66B9
:1024AC003B6E53E8003FFB65FB6D23F04003C7F820
:1024BC00B0307B681B681433D7F8B020FA66BB6663
:1024CC00B96EFA6E41E800237B667B6E002BE3D17C
:1024DC007B68202283F842207B6800221A637B6889
:1024EC001B680C33FB64FB6C53E8003FBB64BB6C98
:1024FC0023F01003C7F8AC307B681B680C33D7F89B
:10250C00AC20BA657B65796DBA6D41E800233B65FB
:10251C003B6D002BE3D17B68DB6B1846FEF73BFF72
:10252C007B6802225A637B689A8D7B68DB8D9BB239
:10253C00D31A9BB21946786800F0BFF89CE000BF34
:10254C00132800087B689A8D7B68DB8D9BB2D31AAD
:10255C00A7F8CE307B68DB8D9BB2002B00F08E8011
:10256C00B7F8CE30002B00F089807B681B680C33E9
:10257C00BB63BB6B53E8003F7B637B6B23F49073B3
:10258C00C7F8C8307B681B680C33D7F8C8207A644E
:10259C003B64396C7A6C41E80023FB63FB6B002BCA
:1025AC00E3D17B681B6814337B627B6A53E8003F82
:1025BC003B623B6A23F00103C7F8C4307B681B689D
:1025CC001433D7F8C4203A63FB62F96A3A6B41E8DA
:1025DC000023BB62BB6A002BE3D17B68202283F80B
:1025EC0042207B6800221A637B681B680C333B61BA
:1025FC003B6953E8003FFB60FB6823F01003C7F80E
:10260C00C0307B681B680C33D7F8C020FA61BB6103
:10261C00B969FA6941E800237B617B69002BE3D13E
:10262C007B6802225A63B7F8CE301946786800F0FE
:10263C0044F823E0D7F8E43003F08003002B09D0F2
:10264C00D7F8E03003F08003002B03D0786800F05B
:10265C00EEF814E0D7F8E43003F04003002B0ED072
:10266C00D7F8E03003F04003002B08D0786800F076
:10267C002DF904E000BF02E000BF00E000BFE83726
:10268C00BD4680BD80B483B000AF786000BF0C370E
:10269C00BD4680BC704780B483B000AF786000BF8B
:1026AC000C37BD4680BC704780B483B000AF7860F7
:1026BC0000BF0C37BD4680BC704780B483B000AF00
:1026CC0078600B467B8000BF0C37BD4680BC7047E2
:1026DC0080B485B000AFF860B9601346FB80FB682E
:1026EC00BA689A62FB68FA889A85FB68FA88DA8578
:1026FC00FB6800225A64FB68222283F84220FB68A4
:10270C001B69002B07D0FB681B68DA68FB681B6829
:10271C0042F48072DA60FB681B685A69FB681B68BC
:10272C0042F001025A61FB681B68DA68FB681B689F
:10273C0042F02002DA60002318461437BD4680BCF4
:10274C00704780B495B000AF78607B681B680C3321
:10275C007B637B6B53E8003F3B633B6B23F49073D1
:10276C00FB647B681B680C33FA6C3A64FB63F96B93
:10277C003A6C41E80023BB63BB6B002BE5D17B6853
:10278C001B6814333B623B6A53E8003FFB61FB69F7
:10279C0023F00103BB647B681B681433BA6CFA62C8
:1027AC00BB62B96AFA6A41E800237B627B6A002B40
:1027BC00E5D17B681B6B012B19D17B681B680C3333
:1027CC00FB60FB6853E8003FBB60BB6823F0100361
:1027DC007B647B681B680C337A6CBA617B617969AA
:1027EC00BA6941E800233B613B69002BE5D17B686A
:1027FC00202283F842207B6800221A6300BF5437E2
:10280C00BD4680BC704780B584B000AF78607B68F3
:10281C005B6AFB60FB680022DA85FB680022DA84C5
:10282C00F868FFF741FF00BF1037BD4680BD80B48C
:10283C0085B000AF78607B6893F84130DBB2212B18
:10284C003ED17B689B68B3F5805F14D17B681B69B4
:10285C00002B10D17B681B6AFB60FB681B881A4637
:10286C007B681B68C2F308025A607B681B6A9A1C5F
:10287C007B681A6208E07B681B6A591C7A681162D3
:10288C001A787B681B685A607B68DB8C9BB2013BB7
:10289C009BB27A681946D184002B0FD17B681B68D8
:1028AC00DA687B681B6822F08002DA607B681B6840
:1028BC00DA687B681B6842F04002DA60002300E0B3
:1028CC00022318461437BD4680BC704780B582B0D1
:1028DC0000AF78607B681B68DA687B681B6822F045
:1028EC004002DA607B68202283F841207868FFF789
:1028FC00C9FE002318460837BD4680BD80B58CB094
:10290C0000AF78607B6893F84230DBB2222B40F04A
:10291C00AE807B689B68B3F5805F17D17B681B69C1
:10292C00002B13D10023FB627B689B6ABB627B6824
:10293C001B685B689BB2C3F308039AB2BB6A1A802C
:10294C007B689B6A9A1C7B689A6226E07B689B6A10
:10295C00FB620023BB627B689B68B3F5805F07D08A
:10296C007B689B68002B0AD17B681B69002B06D106
:10297C007B681B685B68DAB2FB6A1A7008E07B68DC
:10298C001B685B68DBB203F07F03DAB2FB6A1A7078
:10299C007B689B6A5A1C7B689A627B68DB8D9BB256
:1029AC00013B9BB27A681946D185002B5DD17B68BF
:1029BC001B68DA687B681B6822F02002DA607B688F
:1029CC001B68DA687B681B6822F48072DA607B68AB
:1029DC001B685A697B681B6822F001025A617B688C
:1029EC00202283F842207B6800225A637B681B6B91
:1029FC00012B35D17B6800221A637B681B680C3372
:102A0C007B617B6953E8003F3B613B6923F010031A
:102A1C007B627B681B680C337A6A3A62FB61F969EA
:102A2C003A6A41E80023BB61BB69002BE5D17B68A6
:102A3C001B681B6803F01003102B0AD10023FB60EA
:102A4C007B681B681B68FB607B681B685B68FB60B2
:102A5C00FB687B689B8D19467868FFF72EFE02E0B9
:102A6C007868FFF718FE002302E0002300E0022341
:102A7C0018463037BD4680BD80B584B000AF786055
:102A8C007B681B681B6923F440517B68DA687B68A0
:102A9C001B680A431A617B689A687B681B691A4336
:102AAC007B685B691343BB607B681B68DB6823F442
:102ABC00B05323F00C037A681268B9680B43D360E7
:102ACC007B681B685B6923F440717B689A697B683F
:102ADC001B680A435A617B681B682C4A934203D1DA
:102AEC00FFF796FAF86002E0FFF77EFAF860FA68F2
:102AFC0013469B0013449A001A447B685B689B0046
:102B0C00B2FBF3F3224AA2FB03235B091901FA6817
:102B1C0013469B0013449A001A447B685B689B0025
:102B2C00B2FBF3F21A4BA3FB02035B09642000FB1C
:102B3C0003F3D31A1B013233154AA2FB03235B099F
:102B4C0003F0F0031944FA6813469B0013449A00EF
:102B5C001A447B685B689B00B2FBF3F20C4BA3FB43
:102B6C0002035B09642000FB03F3D31A1B0132330D
:102B7C00074AA2FB03235B0903F00F027B681B6867
:102B8C000A449A6000BF1037BD4680BD0038014032
:102B9C001F85EB51014B1868704700BF4C02002099
:102BAC0070B500260C4D0D4C641BA410A64209D127
:102BBC0000F09CFC00260A4D0A4C641BA410A64293
:102BCC0005D170BD55F8043B98470136EEE755F832
:102BDC00043B98470136F2E72837000828370008ED
:102BEC00283700082C370008704770470A44914278
:102BFC0000F1FF3300D1704710B511F8014B914231
:102C0C0003F8014FF9D110BD03460244934200D1A1
:102C1C00704703F8011BF9E738B50546002940D089
:102C2C0051F8043C0C1F002BB8BFE41800F000F95D
:102C3C001C4A136833B9636014602846BDE83840F9
:102C4C0000F0FCB8A34208D9206821188B4201BFC0
:102C5C0019685B6809182160EDE71A465B680BB1CF
:102C6C00A342FAD911685018A0420BD12068014434
:102C7C00501883421160E0D118685B680144116000
:102C8C005360DAE702D90C232B60D6E720682118B1
:102C9C008B4201BF19685B6809182160636054603E
:102CAC00CBE738BD2003002070B50E4E0C463168C2
:102CBC00054611B900F08CF830602146284600F02A
:102CCC0087F8431C0AD0C41C24F00304A04207D08C
:102CDC00211A284600F07CF8013001D14FF0FF3466
:102CEC00204670BD240300202DE9F041CD1C25F0B9
:102CFC00030508350C2D38BF0C25002D074601DBCC
:102D0C00A94205D90C2300263B603046BDE8F08172
:102D1C002E4E00F08DF833681C4634BB29463846DD
:102D2C00FFF7C2FF431C04464DD134682646002EE3
:102D3C0040D123683146384604EB030800F048F8CC
:102D4C0080453AD1216803356D1A25F00305083505
:102D5C000C2D38BF0C2538462946FFF7A5FF01304E
:102D6C002BD023682B4423600EE02268521B1ED408
:102D7C000B2A16D96119A342256018BF59606368E4
:102D8C0008BF316062514B60384604F10B0600F00D
:102D9C0055F826F00706231DF21AB6D09B1BA3503C
:102DAC00B3E76268A3420CBF32605A60ECE723467B
:102DBC006468B2E734467668B9E70C2338463B6062
:102DCC0000F03CF8A1E72560DEE700BF20030020FF
:102DDC0038B50023054D044608462B60FEF7E6F88F
:102DEC00431C02D12B6803B1236038BD280300209B
:102DFC000EB46FF0004100B59CB01DAB0290069074
:102E0C00079104910848094953F8042B059100686F
:102E1C0002A9019300F074F80022029B1A701CB0F6
:102E2C005DF804EB03B070474C0200200802FFFF72
:102E3C000148FFF7D9BE00BF1C0300200148FFF773
:102E4C00D4BE00BF1C0300202DE9F0478E688246DB
:102E5C009E420C4690461F4638D88A8912F4906FD1
:102E6C0032D0256809690133A5EB010965694B442A
:102E7C0005EB450505EBD5756D109D4238BF1D461C
:102E8C00530531D52946FFF72FFF064650B90C23C1
:102E9C004FF0FF30CAF80030A38943F04003A38100
:102EAC00BDE8F0874A462169FFF7A0FEA38923F409
:102EBC00906343F08003A38126614E4426603E4616
:102ECC006561A5EB0905A560BE4200D93E463246B8
:102EDC004146206800F0B8FAA36800209B1BA36051
:102EEC00236833442360DBE72A4600F0C7FA064622
:102EFC000028E1D150462169FFF78EFEC7E700009C
:102F0C002DE9F04F98468B8907461B060D46144653
:102F1C009DB00ED50B6963B94021FFF7E5FE286023
:102F2C00286120B90C233B604FF0FF30D1E04023E7
:102F3C006B610023099320238DF8293030234FF047
:102F4C000109CDF80C80DFF8A4818DF82A302346D6
:102F5C009A4613F8012B0AB1252AF9D1BAEB040BC6
:102F6C000BD05B46224629463846FFF76DFF0130F1
:102F7C0000F0AA80099A5A4409929AF80030002B62
:102F8C0000F0A28000234FF0FF32CDE905230AF1B7
:102F9C00010A049307938DF853301A935446052273
:102FAC0014F8011B514800F041FA049AD8B9D00624
:102FBC0044BF20238DF85330110744BF2B238DF8C9
:102FCC0053309AF800302A2B15D0544600204FF07D
:102FDC000A0C079A214611F8013B303B092B4ED9BC
:102FEC00B0B1079214E0A0EB080309FA03F3134302
:102FFC00A2460493D2E7039B191D1B680391002B77
:10300C00BBBF5B4242F0020207930793B8BF049226
:10301C0023782E2B0CD163782A2B35D1039B0234C9
:10302C001A1D1B680392002BB8BF4FF0FF3305939A
:10303C00DFF8BCA003225046217800F0F7F940B12C
:10304C004023A0EB0A0003FA00F0049B0134034375
:10305C00049314F8011B062226488DF8281000F062
:10306C00E5F9002838D0244B1BBB039B073323F016
:10307C00070308330393099B3344099367E70C4612
:10308C0001200CFB0232A5E700234FF00A0C194675
:10309C0001340593204610F8012B303A092A03D944
:1030AC00002BC5D00591C3E7044601230CFB01217D
:1030BC00F0E703AB00932A463846104B04A9AFF354
:1030CC000080421C0646D6D1AB895B063FF52CAF7F
:1030DC0009981DB0BDE8F08F03AB00932A46384623
:1030EC00064B04A900F07CF8EBE700BFF4360008AF
:1030FC00FA360008FE36000800000000552E0008C5
:10310C002DE9F047164699468A680B6907469342A3
:10311C00B8BF1346336091F843200C46DDF820808D
:10312C000AB1013333602368990642BF3368023316
:10313C003360256815F0060506D104F1190AE36819
:10314C0032689B1AAB4228DC94F84320131E226889
:10315C0018BF012392062DD44946384604F1430288
:10316C00C047013020D02368E56803F00603042B28
:10317C0018BF002532684FF00006A36808BFAD1ACF
:10318C00226908BF25EAE5759342C4BF9B1AED1866
:10319C001A34B5421AD1002008E0012352464946A0
:1031AC003846C047013003D14FF0FF30BDE8F087FF
:1031BC000135C4E73020E11881F843005A1C94F81B
:1031CC0045102244023382F84310C5E701232246FE
:1031DC0049463846C0470130E6D00136D9E70000F1
:1031EC002DE9FF470F7E9146782F80460C469A4674
:1031FC000C9D01F1430207D8622F0AD8002F00F072
:10320C00D980582F00F0A48004F1420584F8427054
:10321C003AE0A7F16303152BF6D801A151F823F07E
:10322C008532000899320008153200081532000862
:10323C0015320008153200089932000815320008C2
:10324C00153200081532000815320008A7330008A3
:10325C00C9320008893300081532000815320008FD
:10326C00C933000815320008C932000815320008AD
:10327C0015320008913300082B681A1D1B682A6050
:10328C0004F1420584F842300123A4E02068296847
:10329C00060601F104030AD50E682B60002E03DA32
:1032AC002D23764284F843300A235E4819E00E68D9
:1032BC0010F0400F2B6018BF36B2EFE72B68206878
:1032CC00191D2960010601D51E6802E04606FBD5D2
:1032DC001E886F2F0CBF08230A235248002184F844
:1032EC0043106568002DA8BF2168A560A4BF21F01C
:1032FC00040121600EB9002D4DD01546B6FBF3F13B
:10330C0003FB1167C75D05F8017D3746BB420E46CE
:10331C00F4D9082B0BD12368DE0708D52369616823
:10332C009942DEBF302305F8013C05F1FF35521BF5
:10333C0022614B4621464046CDF800A003AAFFF778
:10334C00DFFE01304CD14FF0FF3004B0BDE8F08708
:10335C00344881F845702968236851F8046B29605A
:10336C001D0614D5DF0744BF43F0200323601EB9AC
:10337C00236823F0200323601023AFE7236843F076
:10338C00200323607823284884F84530E3E7590666
:10339C0048BFB6B2E6E71546BBE72B682668181D92
:1033AC006169286035061B6801D5196002E070065A
:1033BC00FBD51980002315462361BAE72B68002141
:1033CC001A1D2A601D686268284600F02FF808B1A3
:1033DC00401B606063682361002384F84330A8E7D6
:1033EC002A46494640462369D0470130ABD0236872
:1033FC009B0713D4E068039B9842B8BF1846A4E718
:10340C000123324649464046D04701309BD0013516
:10341C00E36803995B1AAB42F2DCEBE7002504F19D
:10342C001906F5E70537000816370008034610B5EE
:10343C00C9B202449342184601D1002003E004783B
:10344C0001338C42F6D110BD884210B501EB020459
:10345C0002D98442234607D8431EA14208D011F852
:10346C00012B03F8012FF8E7014602448A4200D1F0
:10347C0010BD13F8014D02F8014DF7E72DE9F041AD
:10348C00804614460E4621B91146BDE8F041FFF7BF
:10349C002BBC2AB9FFF7C0FB25462846BDE8F081B6
:1034AC0000F01BF88442074602D8B4EB500F12D838
:1034BC0021464046FFF718FC05460028EDD0BC42DB
:1034CC002246314628BF3A46FFF790FB314640462C
:1034DC00FFF7A2FBE1E73546DFE751F8043C181F84
:1034EC00002BBCBF0B58C01870470000F8B500BFCC
:1034FC00F8BC08BC9E467047F8B500BFF8BC08BCC9
:04350C009E46704720
:10351000596F752063686F73652073686132353643
:1035200000000000596F752063686F7365206D643B
:1035300035000000596F752063686F7365206372F2
:1035400063313600556E657870656374656420611B
:103550006C676F726974686D2063686F73656E0065
:10356000496E70757420646174610000596F7572E2
:1035700020696E7075742069733A0000537461722B
:1035800074696E67207368613235360046696E690A
:1035900073686564207368613235360053746172F4
:1035A00074696E67206D64350000000048656C6CBE
:1035B0006F20576F726C6400526573756C74206F66
:1035C00066206D64353A0000253032780000000036
:1035D00046696E6973686564206D6435000000009B
:1035E0005374617274696E672063726331360000D0
:1035F000526573756C74206F662063726331363A5E
:10360000000000002568580046696E6973686564AB
:103610002063726331360000556E6578706563749F
:103620006564206572726F7220696E20616C676FCD
:10363000726974686D730D0A0000000000000000DC
:1036400073686132353600006D6435006372633132
:1036500036000000496E76616C696420616C676FAA
:10366000726974686D000000000000000000000036
:103670000102030406070809000000000102030418
:1036800002030405060708090A0B0C0D0E0F1010A3
:103690000102000000000000000000000000000027
:1036A000000000000000000000000000000000001A
:1036B000000000000000000000000000000000000A
:1036C00000000000000000000000000000000000FA
:1036D00000000000000000000000000000000000EA
:1036E00000000000000000000000000000000000DA
:1036F00000000000232D302B2000686C4C00656614
:103700006745464700303132333435363738394132
:103710004243444546003031323334353637383948
:0837200061626364656600004C
:043728003101000863
:04372C000D01000883
:10373000070000000C00000011000000160000004F
:10374000070000000C00000011000000160000003F
:10375000070000000C00000011000000160000002F
:10376000070000000C00000011000000160000001F
:1037700005000000090000000E0000001400000019
:1037800005000000090000000E0000001400000009
:1037900005000000090000000E00000014000000F9
:1037A00005000000090000000E00000014000000E9
:1037B000040000000B0000001000000017000000D3
:1037C000040000000B0000001000000017000000C3
:1037D000040000000B0000001000000017000000B3
:1037E000040000000B0000001000000017000000A3
:1037F000060000000A0000000F0000001500000095
:10380000060000000A0000000F0000001500000084
:10381000060000000A0000000F0000001500000074
:10382000060000000A0000000F0000001500000064
:1038300078A46AD756B7C7E8DB702024EECEBDC1A6
:10384000AF0F7CF52AC68747134630A8019546FD81
:10385000D8988069AFF7448BB15BFFFFBED75C8916
:103860002211906B937198FD8E4379A62108B4497B
:1038700062251EF640B340C0515A5E26AAC7B6E97B
:103880005D102FD65314440281E6A1D8C8FBD3E7BC
:10389000E6CDE121D60737C3870DD5F4ED145A459F
:1038A00005E9E3A9F8A3EFFCD9026F678A4C2A8DDA
:1038B0004239FAFF81F6718722619D6D0C38E5FD72
:1038C00044EABEA4A9CFDE4B604BBBF670BCBFBEC2
:1038D000C67E9B28FA27A1EA8530EFD4051D88040F
:1038E00039D0D4D9E599DBE6F87CA21F6556ACC483
:1038F000442229F497FF2A43A72394AB39A093FCD1
:10390000C3595B6592CC0C8F7DF4EFFFD15D84854C
:103910004F7EA86FE0E62CFE144301A3A111084ED0
:10392000827E53F735F23ABDBBD2D72A91D386EBCC
:103930008000000000000000000000000000000007
:103940000000000000000000000000000000000077
:103950000000000000000000000000000000000067
:103960000000000000000000000000000000000057
:103970000024F400100000000100000050020020AC
:1039800000000000B4360008D43600089436000861
:103990000000000000000000000000000000000027
:1039A0000000000000000000000000000000000017
:1039B0000000000000000000000000000000000007
:1039C00000000000000000000000000000000000F7
:1039D00000000000000000000000000000000000E7
:0400000508001031AE
:00000001FF
